{
  "_format": "hh-sol-artifact-1",
  "contractName": "ZkLink",
  "sourceName": "cache/solpp-generated-contracts/ZkLink.sol",
  "abi": [
    {
      "anonymous": false,
      "inputs": [
        {
          "indexed": true,
          "internalType": "address",
          "name": "accepter",
          "type": "address"
        },
        {
          "indexed": true,
          "internalType": "uint32",
          "name": "accountId",
          "type": "uint32"
        },
        {
          "indexed": false,
          "internalType": "address",
          "name": "receiver",
          "type": "address"
        },
        {
          "indexed": false,
          "internalType": "uint16",
          "name": "tokenId",
          "type": "uint16"
        },
        {
          "indexed": false,
          "internalType": "uint128",
          "name": "amountSent",
          "type": "uint128"
        },
        {
          "indexed": false,
          "internalType": "uint128",
          "name": "amountReceive",
          "type": "uint128"
        }
      ],
      "name": "Accept",
      "type": "event"
    },
    {
      "anonymous": false,
      "inputs": [
        {
          "indexed": true,
          "internalType": "address",
          "name": "bridge",
          "type": "address"
        }
      ],
      "name": "AddBridge",
      "type": "event"
    },
    {
      "anonymous": false,
      "inputs": [
        {
          "indexed": true,
          "internalType": "uint32",
          "name": "blockNumber",
          "type": "uint32"
        }
      ],
      "name": "BlockCommit",
      "type": "event"
    },
    {
      "anonymous": false,
      "inputs": [
        {
          "indexed": true,
          "internalType": "uint32",
          "name": "blockNumber",
          "type": "uint32"
        }
      ],
      "name": "BlockExecuted",
      "type": "event"
    },
    {
      "anonymous": false,
      "inputs": [
        {
          "indexed": false,
          "internalType": "uint32",
          "name": "totalBlocksVerified",
          "type": "uint32"
        },
        {
          "indexed": false,
          "internalType": "uint32",
          "name": "totalBlocksCommitted",
          "type": "uint32"
        }
      ],
      "name": "BlocksRevert",
      "type": "event"
    },
    {
      "anonymous": false,
      "inputs": [
        {
          "indexed": true,
          "internalType": "uint16",
          "name": "tokenId",
          "type": "uint16"
        },
        {
          "indexed": true,
          "internalType": "address",
          "name": "owner",
          "type": "address"
        },
        {
          "indexed": true,
          "internalType": "address",
          "name": "spender",
          "type": "address"
        },
        {
          "indexed": false,
          "internalType": "uint128",
          "name": "amount",
          "type": "uint128"
        }
      ],
      "name": "BrokerApprove",
      "type": "event"
    },
    {
      "anonymous": false,
      "inputs": [],
      "name": "ExodusMode",
      "type": "event"
    },
    {
      "anonymous": false,
      "inputs": [
        {
          "indexed": true,
          "internalType": "address",
          "name": "sender",
          "type": "address"
        },
        {
          "indexed": false,
          "internalType": "uint32",
          "name": "nonce",
          "type": "uint32"
        },
        {
          "indexed": false,
          "internalType": "bytes",
          "name": "fact",
          "type": "bytes"
        }
      ],
      "name": "FactAuth",
      "type": "event"
    },
    {
      "anonymous": false,
      "inputs": [
        {
          "indexed": false,
          "internalType": "address",
          "name": "newGovernor",
          "type": "address"
        }
      ],
      "name": "NewGovernor",
      "type": "event"
    },
    {
      "anonymous": false,
      "inputs": [
        {
          "indexed": false,
          "internalType": "address",
          "name": "sender",
          "type": "address"
        },
        {
          "indexed": false,
          "internalType": "uint64",
          "name": "serialId",
          "type": "uint64"
        },
        {
          "indexed": false,
          "internalType": "enum Operations.OpType",
          "name": "opType",
          "type": "uint8"
        },
        {
          "indexed": false,
          "internalType": "bytes",
          "name": "pubData",
          "type": "bytes"
        },
        {
          "indexed": false,
          "internalType": "uint256",
          "name": "expirationBlock",
          "type": "uint256"
        }
      ],
      "name": "NewPriorityRequest",
      "type": "event"
    },
    {
      "anonymous": false,
      "inputs": [
        {
          "indexed": true,
          "internalType": "uint16",
          "name": "tokenId",
          "type": "uint16"
        },
        {
          "indexed": true,
          "internalType": "address",
          "name": "token",
          "type": "address"
        }
      ],
      "name": "NewToken",
      "type": "event"
    },
    {
      "anonymous": false,
      "inputs": [
        {
          "indexed": true,
          "internalType": "address",
          "name": "bridge",
          "type": "address"
        },
        {
          "indexed": false,
          "internalType": "uint16",
          "name": "srcChainId",
          "type": "uint16"
        },
        {
          "indexed": false,
          "internalType": "uint64",
          "name": "nonce",
          "type": "uint64"
        },
        {
          "indexed": false,
          "internalType": "bytes32",
          "name": "syncHash",
          "type": "bytes32"
        },
        {
          "indexed": false,
          "internalType": "uint256",
          "name": "progress",
          "type": "uint256"
        }
      ],
      "name": "ReceiveSynchronizationProgress",
      "type": "event"
    },
    {
      "anonymous": false,
      "inputs": [
        {
          "indexed": true,
          "internalType": "uint16",
          "name": "token",
          "type": "uint16"
        },
        {
          "indexed": false,
          "internalType": "bool",
          "name": "paused",
          "type": "bool"
        }
      ],
      "name": "TokenPausedUpdate",
      "type": "event"
    },
    {
      "anonymous": false,
      "inputs": [
        {
          "indexed": true,
          "internalType": "uint256",
          "name": "bridgeIndex",
          "type": "uint256"
        },
        {
          "indexed": false,
          "internalType": "bool",
          "name": "enableBridgeTo",
          "type": "bool"
        },
        {
          "indexed": false,
          "internalType": "bool",
          "name": "enableBridgeFrom",
          "type": "bool"
        }
      ],
      "name": "UpdateBridge",
      "type": "event"
    },
    {
      "anonymous": false,
      "inputs": [
        {
          "indexed": true,
          "internalType": "address",
          "name": "validatorAddress",
          "type": "address"
        },
        {
          "indexed": false,
          "internalType": "bool",
          "name": "isActive",
          "type": "bool"
        }
      ],
      "name": "ValidatorStatusUpdate",
      "type": "event"
    },
    {
      "anonymous": false,
      "inputs": [
        {
          "indexed": true,
          "internalType": "uint16",
          "name": "tokenId",
          "type": "uint16"
        },
        {
          "indexed": false,
          "internalType": "uint128",
          "name": "amount",
          "type": "uint128"
        }
      ],
      "name": "Withdrawal",
      "type": "event"
    },
    {
      "anonymous": false,
      "inputs": [
        {
          "indexed": true,
          "internalType": "uint16",
          "name": "tokenId",
          "type": "uint16"
        },
        {
          "indexed": true,
          "internalType": "address",
          "name": "recepient",
          "type": "address"
        },
        {
          "indexed": false,
          "internalType": "uint128",
          "name": "amount",
          "type": "uint128"
        }
      ],
      "name": "WithdrawalPending",
      "type": "event"
    },
    {
      "stateMutability": "payable",
      "type": "fallback"
    },
    {
      "inputs": [
        {
          "internalType": "uint32",
          "name": "",
          "type": "uint32"
        },
        {
          "internalType": "bytes32",
          "name": "",
          "type": "bytes32"
        }
      ],
      "name": "accepts",
      "outputs": [
        {
          "internalType": "address",
          "name": "",
          "type": "address"
        }
      ],
      "stateMutability": "view",
      "type": "function"
    },
    {
      "inputs": [
        {
          "internalType": "address",
          "name": "",
          "type": "address"
        },
        {
          "internalType": "uint32",
          "name": "",
          "type": "uint32"
        }
      ],
      "name": "authFacts",
      "outputs": [
        {
          "internalType": "bytes32",
          "name": "",
          "type": "bytes32"
        }
      ],
      "stateMutability": "view",
      "type": "function"
    },
    {
      "inputs": [
        {
          "internalType": "address",
          "name": "",
          "type": "address"
        }
      ],
      "name": "bridgeIndex",
      "outputs": [
        {
          "internalType": "uint256",
          "name": "",
          "type": "uint256"
        }
      ],
      "stateMutability": "view",
      "type": "function"
    },
    {
      "inputs": [
        {
          "internalType": "uint256",
          "name": "",
          "type": "uint256"
        }
      ],
      "name": "bridges",
      "outputs": [
        {
          "internalType": "address",
          "name": "bridge",
          "type": "address"
        },
        {
          "internalType": "bool",
          "name": "enableBridgeTo",
          "type": "bool"
        },
        {
          "internalType": "bool",
          "name": "enableBridgeFrom",
          "type": "bool"
        }
      ],
      "stateMutability": "view",
      "type": "function"
    },
    {
      "inputs": [
        {
          "components": [
            {
              "internalType": "uint32",
              "name": "blockNumber",
              "type": "uint32"
            },
            {
              "internalType": "uint64",
              "name": "priorityOperations",
              "type": "uint64"
            },
            {
              "internalType": "bytes32",
              "name": "pendingOnchainOperationsHash",
              "type": "bytes32"
            },
            {
              "internalType": "uint256",
              "name": "timestamp",
              "type": "uint256"
            },
            {
              "internalType": "bytes32",
              "name": "stateHash",
              "type": "bytes32"
            },
            {
              "internalType": "bytes32",
              "name": "commitment",
              "type": "bytes32"
            },
            {
              "internalType": "bytes32",
              "name": "syncHash",
              "type": "bytes32"
            }
          ],
          "internalType": "struct Storage.StoredBlockInfo",
          "name": "_lastCommittedBlockData",
          "type": "tuple"
        },
        {
          "components": [
            {
              "internalType": "bytes32",
              "name": "newStateHash",
              "type": "bytes32"
            },
            {
              "internalType": "bytes",
              "name": "publicData",
              "type": "bytes"
            },
            {
              "internalType": "uint256",
              "name": "timestamp",
              "type": "uint256"
            },
            {
              "components": [
                {
                  "internalType": "bytes",
                  "name": "ethWitness",
                  "type": "bytes"
                },
                {
                  "internalType": "uint32",
                  "name": "publicDataOffset",
                  "type": "uint32"
                }
              ],
              "internalType": "struct ZkLink.OnchainOperationData[]",
              "name": "onchainOperations",
              "type": "tuple[]"
            },
            {
              "internalType": "uint32",
              "name": "blockNumber",
              "type": "uint32"
            },
            {
              "internalType": "uint32",
              "name": "feeAccount",
              "type": "uint32"
            }
          ],
          "internalType": "struct ZkLink.CommitBlockInfo[]",
          "name": "_newBlocksData",
          "type": "tuple[]"
        }
      ],
      "name": "commitBlocks",
      "outputs": [],
      "stateMutability": "nonpayable",
      "type": "function"
    },
    {
      "inputs": [
        {
          "components": [
            {
              "internalType": "uint32",
              "name": "blockNumber",
              "type": "uint32"
            },
            {
              "internalType": "uint64",
              "name": "priorityOperations",
              "type": "uint64"
            },
            {
              "internalType": "bytes32",
              "name": "pendingOnchainOperationsHash",
              "type": "bytes32"
            },
            {
              "internalType": "uint256",
              "name": "timestamp",
              "type": "uint256"
            },
            {
              "internalType": "bytes32",
              "name": "stateHash",
              "type": "bytes32"
            },
            {
              "internalType": "bytes32",
              "name": "commitment",
              "type": "bytes32"
            },
            {
              "internalType": "bytes32",
              "name": "syncHash",
              "type": "bytes32"
            }
          ],
          "internalType": "struct Storage.StoredBlockInfo",
          "name": "_lastCommittedBlockData",
          "type": "tuple"
        },
        {
          "components": [
            {
              "internalType": "bytes32",
              "name": "newStateHash",
              "type": "bytes32"
            },
            {
              "internalType": "bytes",
              "name": "publicData",
              "type": "bytes"
            },
            {
              "internalType": "uint256",
              "name": "timestamp",
              "type": "uint256"
            },
            {
              "components": [
                {
                  "internalType": "bytes",
                  "name": "ethWitness",
                  "type": "bytes"
                },
                {
                  "internalType": "uint32",
                  "name": "publicDataOffset",
                  "type": "uint32"
                }
              ],
              "internalType": "struct ZkLink.OnchainOperationData[]",
              "name": "onchainOperations",
              "type": "tuple[]"
            },
            {
              "internalType": "uint32",
              "name": "blockNumber",
              "type": "uint32"
            },
            {
              "internalType": "uint32",
              "name": "feeAccount",
              "type": "uint32"
            }
          ],
          "internalType": "struct ZkLink.CommitBlockInfo[]",
          "name": "_newBlocksData",
          "type": "tuple[]"
        },
        {
          "components": [
            {
              "internalType": "bytes32",
              "name": "publicDataHash",
              "type": "bytes32"
            },
            {
              "internalType": "bytes32",
              "name": "offsetCommitmentHash",
              "type": "bytes32"
            },
            {
              "internalType": "bytes32[]",
              "name": "onchainOperationPubdataHashs",
              "type": "bytes32[]"
            }
          ],
          "internalType": "struct ZkLink.CompressedBlockExtraInfo[]",
          "name": "_newBlocksExtraData",
          "type": "tuple[]"
        }
      ],
      "name": "commitCompressedBlocks",
      "outputs": [],
      "stateMutability": "nonpayable",
      "type": "function"
    },
    {
      "inputs": [
        {
          "internalType": "contract IERC20",
          "name": "_token",
          "type": "address"
        },
        {
          "internalType": "uint104",
          "name": "_amount",
          "type": "uint104"
        },
        {
          "internalType": "address",
          "name": "_zkLinkAddress",
          "type": "address"
        },
        {
          "internalType": "uint8",
          "name": "_subAccountId",
          "type": "uint8"
        },
        {
          "internalType": "bool",
          "name": "_mapping",
          "type": "bool"
        }
      ],
      "name": "depositERC20",
      "outputs": [],
      "stateMutability": "nonpayable",
      "type": "function"
    },
    {
      "inputs": [
        {
          "internalType": "address",
          "name": "_zkLinkAddress",
          "type": "address"
        },
        {
          "internalType": "uint8",
          "name": "_subAccountId",
          "type": "uint8"
        }
      ],
      "name": "depositETH",
      "outputs": [],
      "stateMutability": "payable",
      "type": "function"
    },
    {
      "inputs": [
        {
          "components": [
            {
              "components": [
                {
                  "internalType": "uint32",
                  "name": "blockNumber",
                  "type": "uint32"
                },
                {
                  "internalType": "uint64",
                  "name": "priorityOperations",
                  "type": "uint64"
                },
                {
                  "internalType": "bytes32",
                  "name": "pendingOnchainOperationsHash",
                  "type": "bytes32"
                },
                {
                  "internalType": "uint256",
                  "name": "timestamp",
                  "type": "uint256"
                },
                {
                  "internalType": "bytes32",
                  "name": "stateHash",
                  "type": "bytes32"
                },
                {
                  "internalType": "bytes32",
                  "name": "commitment",
                  "type": "bytes32"
                },
                {
                  "internalType": "bytes32",
                  "name": "syncHash",
                  "type": "bytes32"
                }
              ],
              "internalType": "struct Storage.StoredBlockInfo",
              "name": "storedBlock",
              "type": "tuple"
            },
            {
              "internalType": "bytes[]",
              "name": "pendingOnchainOpsPubdata",
              "type": "bytes[]"
            }
          ],
          "internalType": "struct ZkLink.ExecuteBlockInfo[]",
          "name": "_blocksData",
          "type": "tuple[]"
        }
      ],
      "name": "executeBlocks",
      "outputs": [],
      "stateMutability": "nonpayable",
      "type": "function"
    },
    {
      "inputs": [],
      "name": "exodusMode",
      "outputs": [
        {
          "internalType": "bool",
          "name": "",
          "type": "bool"
        }
      ],
      "stateMutability": "view",
      "type": "function"
    },
    {
      "inputs": [],
      "name": "firstPriorityRequestId",
      "outputs": [
        {
          "internalType": "uint64",
          "name": "",
          "type": "uint64"
        }
      ],
      "stateMutability": "view",
      "type": "function"
    },
    {
      "inputs": [],
      "name": "getNoticePeriod",
      "outputs": [
        {
          "internalType": "uint256",
          "name": "",
          "type": "uint256"
        }
      ],
      "stateMutability": "pure",
      "type": "function"
    },
    {
      "inputs": [
        {
          "internalType": "bytes",
          "name": "initializationParameters",
          "type": "bytes"
        }
      ],
      "name": "initialize",
      "outputs": [],
      "stateMutability": "nonpayable",
      "type": "function"
    },
    {
      "inputs": [],
      "name": "isReadyForUpgrade",
      "outputs": [
        {
          "internalType": "bool",
          "name": "",
          "type": "bool"
        }
      ],
      "stateMutability": "view",
      "type": "function"
    },
    {
      "inputs": [],
      "name": "networkGovernor",
      "outputs": [
        {
          "internalType": "address",
          "name": "",
          "type": "address"
        }
      ],
      "stateMutability": "view",
      "type": "function"
    },
    {
      "inputs": [
        {
          "internalType": "uint32",
          "name": "",
          "type": "uint32"
        },
        {
          "internalType": "uint8",
          "name": "",
          "type": "uint8"
        },
        {
          "internalType": "uint16",
          "name": "",
          "type": "uint16"
        }
      ],
      "name": "performedExodus",
      "outputs": [
        {
          "internalType": "bool",
          "name": "",
          "type": "bool"
        }
      ],
      "stateMutability": "view",
      "type": "function"
    },
    {
      "inputs": [],
      "name": "periphery",
      "outputs": [
        {
          "internalType": "address",
          "name": "",
          "type": "address"
        }
      ],
      "stateMutability": "view",
      "type": "function"
    },
    {
      "inputs": [
        {
          "components": [
            {
              "internalType": "uint32",
              "name": "blockNumber",
              "type": "uint32"
            },
            {
              "internalType": "uint64",
              "name": "priorityOperations",
              "type": "uint64"
            },
            {
              "internalType": "bytes32",
              "name": "pendingOnchainOperationsHash",
              "type": "bytes32"
            },
            {
              "internalType": "uint256",
              "name": "timestamp",
              "type": "uint256"
            },
            {
              "internalType": "bytes32",
              "name": "stateHash",
              "type": "bytes32"
            },
            {
              "internalType": "bytes32",
              "name": "commitment",
              "type": "bytes32"
            },
            {
              "internalType": "bytes32",
              "name": "syncHash",
              "type": "bytes32"
            }
          ],
          "internalType": "struct Storage.StoredBlockInfo[]",
          "name": "_committedBlocks",
          "type": "tuple[]"
        },
        {
          "components": [
            {
              "internalType": "uint256[]",
              "name": "recursiveInput",
              "type": "uint256[]"
            },
            {
              "internalType": "uint256[]",
              "name": "proof",
              "type": "uint256[]"
            },
            {
              "internalType": "uint256[]",
              "name": "commitments",
              "type": "uint256[]"
            },
            {
              "internalType": "uint8[]",
              "name": "vkIndexes",
              "type": "uint8[]"
            },
            {
              "internalType": "uint256[16]",
              "name": "subproofsLimbs",
              "type": "uint256[16]"
            }
          ],
          "internalType": "struct ZkLink.ProofInput",
          "name": "_proof",
          "type": "tuple"
        }
      ],
      "name": "proveBlocks",
      "outputs": [],
      "stateMutability": "nonpayable",
      "type": "function"
    },
    {
      "inputs": [
        {
          "internalType": "uint32",
          "name": "_accountId",
          "type": "uint32"
        },
        {
          "internalType": "uint8",
          "name": "_subAccountId",
          "type": "uint8"
        },
        {
          "internalType": "uint16",
          "name": "_tokenId",
          "type": "uint16"
        },
        {
          "internalType": "bool",
          "name": "_mapping",
          "type": "bool"
        }
      ],
      "name": "requestFullExit",
      "outputs": [],
      "stateMutability": "nonpayable",
      "type": "function"
    },
    {
      "inputs": [
        {
          "components": [
            {
              "internalType": "uint32",
              "name": "blockNumber",
              "type": "uint32"
            },
            {
              "internalType": "uint64",
              "name": "priorityOperations",
              "type": "uint64"
            },
            {
              "internalType": "bytes32",
              "name": "pendingOnchainOperationsHash",
              "type": "bytes32"
            },
            {
              "internalType": "uint256",
              "name": "timestamp",
              "type": "uint256"
            },
            {
              "internalType": "bytes32",
              "name": "stateHash",
              "type": "bytes32"
            },
            {
              "internalType": "bytes32",
              "name": "commitment",
              "type": "bytes32"
            },
            {
              "internalType": "bytes32",
              "name": "syncHash",
              "type": "bytes32"
            }
          ],
          "internalType": "struct Storage.StoredBlockInfo[]",
          "name": "_blocksToRevert",
          "type": "tuple[]"
        }
      ],
      "name": "revertBlocks",
      "outputs": [],
      "stateMutability": "nonpayable",
      "type": "function"
    },
    {
      "inputs": [
        {
          "internalType": "address",
          "name": "",
          "type": "address"
        }
      ],
      "name": "tokenIds",
      "outputs": [
        {
          "internalType": "uint16",
          "name": "",
          "type": "uint16"
        }
      ],
      "stateMutability": "view",
      "type": "function"
    },
    {
      "inputs": [
        {
          "internalType": "uint16",
          "name": "",
          "type": "uint16"
        }
      ],
      "name": "tokens",
      "outputs": [
        {
          "internalType": "bool",
          "name": "registered",
          "type": "bool"
        },
        {
          "internalType": "bool",
          "name": "paused",
          "type": "bool"
        },
        {
          "internalType": "address",
          "name": "tokenAddress",
          "type": "address"
        },
        {
          "internalType": "bool",
          "name": "standard",
          "type": "bool"
        },
        {
          "internalType": "uint16",
          "name": "mappingTokenId",
          "type": "uint16"
        }
      ],
      "stateMutability": "view",
      "type": "function"
    },
    {
      "inputs": [],
      "name": "totalBlocksCommitted",
      "outputs": [
        {
          "internalType": "uint32",
          "name": "",
          "type": "uint32"
        }
      ],
      "stateMutability": "view",
      "type": "function"
    },
    {
      "inputs": [],
      "name": "totalBlocksExecuted",
      "outputs": [
        {
          "internalType": "uint32",
          "name": "",
          "type": "uint32"
        }
      ],
      "stateMutability": "view",
      "type": "function"
    },
    {
      "inputs": [],
      "name": "totalBlocksProven",
      "outputs": [
        {
          "internalType": "uint32",
          "name": "",
          "type": "uint32"
        }
      ],
      "stateMutability": "view",
      "type": "function"
    },
    {
      "inputs": [],
      "name": "totalBlocksSynchronized",
      "outputs": [
        {
          "internalType": "uint32",
          "name": "",
          "type": "uint32"
        }
      ],
      "stateMutability": "view",
      "type": "function"
    },
    {
      "inputs": [],
      "name": "totalCommittedPriorityRequests",
      "outputs": [
        {
          "internalType": "uint64",
          "name": "",
          "type": "uint64"
        }
      ],
      "stateMutability": "view",
      "type": "function"
    },
    {
      "inputs": [],
      "name": "totalOpenPriorityRequests",
      "outputs": [
        {
          "internalType": "uint64",
          "name": "",
          "type": "uint64"
        }
      ],
      "stateMutability": "view",
      "type": "function"
    },
    {
      "inputs": [
        {
          "internalType": "contract IERC20",
          "name": "_token",
          "type": "address"
        },
        {
          "internalType": "address",
          "name": "_to",
          "type": "address"
        },
        {
          "internalType": "uint128",
          "name": "_amount",
          "type": "uint128"
        },
        {
          "internalType": "uint128",
          "name": "_maxAmount",
          "type": "uint128"
        },
        {
          "internalType": "bool",
          "name": "_isStandard",
          "type": "bool"
        }
      ],
      "name": "transferERC20",
      "outputs": [
        {
          "internalType": "uint128",
          "name": "withdrawnAmount",
          "type": "uint128"
        }
      ],
      "stateMutability": "nonpayable",
      "type": "function"
    },
    {
      "inputs": [
        {
          "internalType": "bytes",
          "name": "upgradeParameters",
          "type": "bytes"
        }
      ],
      "name": "upgrade",
      "outputs": [],
      "stateMutability": "nonpayable",
      "type": "function"
    },
    {
      "inputs": [
        {
          "internalType": "address",
          "name": "",
          "type": "address"
        }
      ],
      "name": "validators",
      "outputs": [
        {
          "internalType": "bool",
          "name": "",
          "type": "bool"
        }
      ],
      "stateMutability": "view",
      "type": "function"
    },
    {
      "inputs": [],
      "name": "verifier",
      "outputs": [
        {
          "internalType": "contract Verifier",
          "name": "",
          "type": "address"
        }
      ],
      "stateMutability": "view",
      "type": "function"
    },
    {
      "inputs": [
        {
          "internalType": "address payable",
          "name": "_owner",
          "type": "address"
        },
        {
          "internalType": "uint16",
          "name": "_tokenId",
          "type": "uint16"
        },
        {
          "internalType": "uint128",
          "name": "_amount",
          "type": "uint128"
        }
      ],
      "name": "withdrawPendingBalance",
      "outputs": [],
      "stateMutability": "nonpayable",
      "type": "function"
    },
    {
      "stateMutability": "payable",
      "type": "receive"
    },
    {
      "anonymous": false,
      "inputs": [
        {
          "indexed": true,
          "internalType": "address",
          "name": "accepter",
          "type": "address"
        },
        {
          "indexed": true,
          "internalType": "uint32",
          "name": "accountId",
          "type": "uint32"
        },
        {
          "indexed": false,
          "internalType": "address",
          "name": "receiver",
          "type": "address"
        },
        {
          "indexed": false,
          "internalType": "uint16",
          "name": "tokenId",
          "type": "uint16"
        },
        {
          "indexed": false,
          "internalType": "uint128",
          "name": "amountSent",
          "type": "uint128"
        },
        {
          "indexed": false,
          "internalType": "uint128",
          "name": "amountReceive",
          "type": "uint128"
        }
      ],
      "name": "Accept",
      "type": "event"
    },
    {
      "anonymous": false,
      "inputs": [
        {
          "indexed": true,
          "internalType": "address",
          "name": "bridge",
          "type": "address"
        }
      ],
      "name": "AddBridge",
      "type": "event"
    },
    {
      "anonymous": false,
      "inputs": [
        {
          "indexed": true,
          "internalType": "uint32",
          "name": "blockNumber",
          "type": "uint32"
        }
      ],
      "name": "BlockCommit",
      "type": "event"
    },
    {
      "anonymous": false,
      "inputs": [
        {
          "indexed": true,
          "internalType": "uint32",
          "name": "blockNumber",
          "type": "uint32"
        }
      ],
      "name": "BlockExecuted",
      "type": "event"
    },
    {
      "anonymous": false,
      "inputs": [
        {
          "indexed": false,
          "internalType": "uint32",
          "name": "totalBlocksVerified",
          "type": "uint32"
        },
        {
          "indexed": false,
          "internalType": "uint32",
          "name": "totalBlocksCommitted",
          "type": "uint32"
        }
      ],
      "name": "BlocksRevert",
      "type": "event"
    },
    {
      "anonymous": false,
      "inputs": [
        {
          "indexed": true,
          "internalType": "uint16",
          "name": "tokenId",
          "type": "uint16"
        },
        {
          "indexed": true,
          "internalType": "address",
          "name": "owner",
          "type": "address"
        },
        {
          "indexed": true,
          "internalType": "address",
          "name": "spender",
          "type": "address"
        },
        {
          "indexed": false,
          "internalType": "uint128",
          "name": "amount",
          "type": "uint128"
        }
      ],
      "name": "BrokerApprove",
      "type": "event"
    },
    {
      "anonymous": false,
      "inputs": [],
      "name": "ExodusMode",
      "type": "event"
    },
    {
      "anonymous": false,
      "inputs": [
        {
          "indexed": true,
          "internalType": "address",
          "name": "sender",
          "type": "address"
        },
        {
          "indexed": false,
          "internalType": "uint32",
          "name": "nonce",
          "type": "uint32"
        },
        {
          "indexed": false,
          "internalType": "bytes",
          "name": "fact",
          "type": "bytes"
        }
      ],
      "name": "FactAuth",
      "type": "event"
    },
    {
      "anonymous": false,
      "inputs": [
        {
          "indexed": false,
          "internalType": "address",
          "name": "newGovernor",
          "type": "address"
        }
      ],
      "name": "NewGovernor",
      "type": "event"
    },
    {
      "anonymous": false,
      "inputs": [
        {
          "indexed": false,
          "internalType": "address",
          "name": "sender",
          "type": "address"
        },
        {
          "indexed": false,
          "internalType": "uint64",
          "name": "serialId",
          "type": "uint64"
        },
        {
          "indexed": false,
          "internalType": "enum Operations.OpType",
          "name": "opType",
          "type": "uint8"
        },
        {
          "indexed": false,
          "internalType": "bytes",
          "name": "pubData",
          "type": "bytes"
        },
        {
          "indexed": false,
          "internalType": "uint256",
          "name": "expirationBlock",
          "type": "uint256"
        }
      ],
      "name": "NewPriorityRequest",
      "type": "event"
    },
    {
      "anonymous": false,
      "inputs": [
        {
          "indexed": true,
          "internalType": "uint16",
          "name": "tokenId",
          "type": "uint16"
        },
        {
          "indexed": true,
          "internalType": "address",
          "name": "token",
          "type": "address"
        }
      ],
      "name": "NewToken",
      "type": "event"
    },
    {
      "anonymous": false,
      "inputs": [
        {
          "indexed": true,
          "internalType": "address",
          "name": "bridge",
          "type": "address"
        },
        {
          "indexed": false,
          "internalType": "uint16",
          "name": "srcChainId",
          "type": "uint16"
        },
        {
          "indexed": false,
          "internalType": "uint64",
          "name": "nonce",
          "type": "uint64"
        },
        {
          "indexed": false,
          "internalType": "bytes32",
          "name": "syncHash",
          "type": "bytes32"
        },
        {
          "indexed": false,
          "internalType": "uint256",
          "name": "progress",
          "type": "uint256"
        }
      ],
      "name": "ReceiveSynchronizationProgress",
      "type": "event"
    },
    {
      "anonymous": false,
      "inputs": [
        {
          "indexed": true,
          "internalType": "uint16",
          "name": "token",
          "type": "uint16"
        },
        {
          "indexed": false,
          "internalType": "bool",
          "name": "paused",
          "type": "bool"
        }
      ],
      "name": "TokenPausedUpdate",
      "type": "event"
    },
    {
      "anonymous": false,
      "inputs": [
        {
          "indexed": true,
          "internalType": "uint256",
          "name": "bridgeIndex",
          "type": "uint256"
        },
        {
          "indexed": false,
          "internalType": "bool",
          "name": "enableBridgeTo",
          "type": "bool"
        },
        {
          "indexed": false,
          "internalType": "bool",
          "name": "enableBridgeFrom",
          "type": "bool"
        }
      ],
      "name": "UpdateBridge",
      "type": "event"
    },
    {
      "anonymous": false,
      "inputs": [
        {
          "indexed": true,
          "internalType": "address",
          "name": "validatorAddress",
          "type": "address"
        },
        {
          "indexed": false,
          "internalType": "bool",
          "name": "isActive",
          "type": "bool"
        }
      ],
      "name": "ValidatorStatusUpdate",
      "type": "event"
    },
    {
      "anonymous": false,
      "inputs": [
        {
          "indexed": true,
          "internalType": "uint16",
          "name": "tokenId",
          "type": "uint16"
        },
        {
          "indexed": false,
          "internalType": "uint128",
          "name": "amount",
          "type": "uint128"
        }
      ],
      "name": "Withdrawal",
      "type": "event"
    },
    {
      "anonymous": false,
      "inputs": [
        {
          "indexed": true,
          "internalType": "uint16",
          "name": "tokenId",
          "type": "uint16"
        },
        {
          "indexed": true,
          "internalType": "address",
          "name": "recepient",
          "type": "address"
        },
        {
          "indexed": false,
          "internalType": "uint128",
          "name": "amount",
          "type": "uint128"
        }
      ],
      "name": "WithdrawalPending",
      "type": "event"
    },
    {
      "inputs": [
        {
          "internalType": "address",
          "name": "accepter",
          "type": "address"
        },
        {
          "internalType": "uint32",
          "name": "accountId",
          "type": "uint32"
        },
        {
          "internalType": "address",
          "name": "receiver",
          "type": "address"
        },
        {
          "internalType": "uint16",
          "name": "tokenId",
          "type": "uint16"
        },
        {
          "internalType": "uint128",
          "name": "amount",
          "type": "uint128"
        },
        {
          "internalType": "uint16",
          "name": "withdrawFeeRate",
          "type": "uint16"
        },
        {
          "internalType": "uint32",
          "name": "nonce",
          "type": "uint32"
        },
        {
          "internalType": "uint128",
          "name": "amountTransfer",
          "type": "uint128"
        }
      ],
      "name": "acceptERC20",
      "outputs": [],
      "stateMutability": "nonpayable",
      "type": "function"
    },
    {
      "inputs": [
        {
          "internalType": "address",
          "name": "accepter",
          "type": "address"
        },
        {
          "internalType": "uint32",
          "name": "accountId",
          "type": "uint32"
        },
        {
          "internalType": "address payable",
          "name": "receiver",
          "type": "address"
        },
        {
          "internalType": "uint128",
          "name": "amount",
          "type": "uint128"
        },
        {
          "internalType": "uint16",
          "name": "withdrawFeeRate",
          "type": "uint16"
        },
        {
          "internalType": "uint32",
          "name": "nonce",
          "type": "uint32"
        }
      ],
      "name": "acceptETH",
      "outputs": [],
      "stateMutability": "payable",
      "type": "function"
    },
    {
      "inputs": [
        {
          "internalType": "uint32",
          "name": "",
          "type": "uint32"
        },
        {
          "internalType": "bytes32",
          "name": "",
          "type": "bytes32"
        }
      ],
      "name": "accepts",
      "outputs": [
        {
          "internalType": "address",
          "name": "",
          "type": "address"
        }
      ],
      "stateMutability": "view",
      "type": "function"
    },
    {
      "inputs": [],
      "name": "activateExodusMode",
      "outputs": [],
      "stateMutability": "nonpayable",
      "type": "function"
    },
    {
      "inputs": [
        {
          "internalType": "address",
          "name": "bridge",
          "type": "address"
        }
      ],
      "name": "addBridge",
      "outputs": [],
      "stateMutability": "nonpayable",
      "type": "function"
    },
    {
      "inputs": [
        {
          "internalType": "uint16",
          "name": "_tokenId",
          "type": "uint16"
        },
        {
          "internalType": "address",
          "name": "_tokenAddress",
          "type": "address"
        },
        {
          "internalType": "bool",
          "name": "_standard",
          "type": "bool"
        },
        {
          "internalType": "uint16",
          "name": "_mappingTokenId",
          "type": "uint16"
        }
      ],
      "name": "addToken",
      "outputs": [],
      "stateMutability": "nonpayable",
      "type": "function"
    },
    {
      "inputs": [
        {
          "internalType": "uint16[]",
          "name": "_tokenIdList",
          "type": "uint16[]"
        },
        {
          "internalType": "address[]",
          "name": "_tokenAddressList",
          "type": "address[]"
        },
        {
          "internalType": "bool[]",
          "name": "_standardList",
          "type": "bool[]"
        },
        {
          "internalType": "uint16[]",
          "name": "_mappingTokenList",
          "type": "uint16[]"
        }
      ],
      "name": "addTokens",
      "outputs": [],
      "stateMutability": "nonpayable",
      "type": "function"
    },
    {
      "inputs": [
        {
          "internalType": "address",
          "name": "",
          "type": "address"
        },
        {
          "internalType": "uint32",
          "name": "",
          "type": "uint32"
        }
      ],
      "name": "authFacts",
      "outputs": [
        {
          "internalType": "bytes32",
          "name": "",
          "type": "bytes32"
        }
      ],
      "stateMutability": "view",
      "type": "function"
    },
    {
      "inputs": [
        {
          "internalType": "address",
          "name": "",
          "type": "address"
        }
      ],
      "name": "bridgeIndex",
      "outputs": [
        {
          "internalType": "uint256",
          "name": "",
          "type": "uint256"
        }
      ],
      "stateMutability": "view",
      "type": "function"
    },
    {
      "inputs": [
        {
          "internalType": "uint256",
          "name": "",
          "type": "uint256"
        }
      ],
      "name": "bridges",
      "outputs": [
        {
          "internalType": "address",
          "name": "bridge",
          "type": "address"
        },
        {
          "internalType": "bool",
          "name": "enableBridgeTo",
          "type": "bool"
        },
        {
          "internalType": "bool",
          "name": "enableBridgeFrom",
          "type": "bool"
        }
      ],
      "stateMutability": "view",
      "type": "function"
    },
    {
      "inputs": [
        {
          "internalType": "uint16",
          "name": "tokenId",
          "type": "uint16"
        },
        {
          "internalType": "address",
          "name": "owner",
          "type": "address"
        },
        {
          "internalType": "address",
          "name": "spender",
          "type": "address"
        }
      ],
      "name": "brokerAllowance",
      "outputs": [
        {
          "internalType": "uint128",
          "name": "",
          "type": "uint128"
        }
      ],
      "stateMutability": "view",
      "type": "function"
    },
    {
      "inputs": [
        {
          "internalType": "uint16",
          "name": "tokenId",
          "type": "uint16"
        },
        {
          "internalType": "address",
          "name": "spender",
          "type": "address"
        },
        {
          "internalType": "uint128",
          "name": "amount",
          "type": "uint128"
        }
      ],
      "name": "brokerApprove",
      "outputs": [
        {
          "internalType": "bool",
          "name": "",
          "type": "bool"
        }
      ],
      "stateMutability": "nonpayable",
      "type": "function"
    },
    {
      "inputs": [
        {
          "internalType": "uint64",
          "name": "_n",
          "type": "uint64"
        },
        {
          "internalType": "bytes[]",
          "name": "_depositsPubdata",
          "type": "bytes[]"
        }
      ],
      "name": "cancelOutstandingDepositsForExodusMode",
      "outputs": [],
      "stateMutability": "nonpayable",
      "type": "function"
    },
    {
      "inputs": [
        {
          "internalType": "address",
          "name": "_newGovernor",
          "type": "address"
        }
      ],
      "name": "changeGovernor",
      "outputs": [],
      "stateMutability": "nonpayable",
      "type": "function"
    },
    {
      "inputs": [],
      "name": "exodusMode",
      "outputs": [
        {
          "internalType": "bool",
          "name": "",
          "type": "bool"
        }
      ],
      "stateMutability": "view",
      "type": "function"
    },
    {
      "inputs": [],
      "name": "firstPriorityRequestId",
      "outputs": [
        {
          "internalType": "uint64",
          "name": "",
          "type": "uint64"
        }
      ],
      "stateMutability": "view",
      "type": "function"
    },
    {
      "inputs": [
        {
          "internalType": "address",
          "name": "_address",
          "type": "address"
        },
        {
          "internalType": "uint16",
          "name": "_tokenId",
          "type": "uint16"
        }
      ],
      "name": "getPendingBalance",
      "outputs": [
        {
          "internalType": "uint128",
          "name": "",
          "type": "uint128"
        }
      ],
      "stateMutability": "view",
      "type": "function"
    },
    {
      "inputs": [
        {
          "components": [
            {
              "internalType": "uint32",
              "name": "blockNumber",
              "type": "uint32"
            },
            {
              "internalType": "uint64",
              "name": "priorityOperations",
              "type": "uint64"
            },
            {
              "internalType": "bytes32",
              "name": "pendingOnchainOperationsHash",
              "type": "bytes32"
            },
            {
              "internalType": "uint256",
              "name": "timestamp",
              "type": "uint256"
            },
            {
              "internalType": "bytes32",
              "name": "stateHash",
              "type": "bytes32"
            },
            {
              "internalType": "bytes32",
              "name": "commitment",
              "type": "bytes32"
            },
            {
              "internalType": "bytes32",
              "name": "syncHash",
              "type": "bytes32"
            }
          ],
          "internalType": "struct Storage.StoredBlockInfo",
          "name": "_block",
          "type": "tuple"
        }
      ],
      "name": "getSynchronizedProgress",
      "outputs": [
        {
          "internalType": "uint256",
          "name": "progress",
          "type": "uint256"
        }
      ],
      "stateMutability": "view",
      "type": "function"
    },
    {
      "inputs": [
        {
          "internalType": "address",
          "name": "bridge",
          "type": "address"
        }
      ],
      "name": "isBridgeFromEnabled",
      "outputs": [
        {
          "internalType": "bool",
          "name": "",
          "type": "bool"
        }
      ],
      "stateMutability": "view",
      "type": "function"
    },
    {
      "inputs": [
        {
          "internalType": "address",
          "name": "bridge",
          "type": "address"
        }
      ],
      "name": "isBridgeToEnabled",
      "outputs": [
        {
          "internalType": "bool",
          "name": "",
          "type": "bool"
        }
      ],
      "stateMutability": "view",
      "type": "function"
    },
    {
      "inputs": [],
      "name": "networkGovernor",
      "outputs": [
        {
          "internalType": "address",
          "name": "",
          "type": "address"
        }
      ],
      "stateMutability": "view",
      "type": "function"
    },
    {
      "inputs": [
        {
          "components": [
            {
              "internalType": "uint32",
              "name": "blockNumber",
              "type": "uint32"
            },
            {
              "internalType": "uint64",
              "name": "priorityOperations",
              "type": "uint64"
            },
            {
              "internalType": "bytes32",
              "name": "pendingOnchainOperationsHash",
              "type": "bytes32"
            },
            {
              "internalType": "uint256",
              "name": "timestamp",
              "type": "uint256"
            },
            {
              "internalType": "bytes32",
              "name": "stateHash",
              "type": "bytes32"
            },
            {
              "internalType": "bytes32",
              "name": "commitment",
              "type": "bytes32"
            },
            {
              "internalType": "bytes32",
              "name": "syncHash",
              "type": "bytes32"
            }
          ],
          "internalType": "struct Storage.StoredBlockInfo",
          "name": "_storedBlockInfo",
          "type": "tuple"
        },
        {
          "internalType": "address",
          "name": "_owner",
          "type": "address"
        },
        {
          "internalType": "uint32",
          "name": "_accountId",
          "type": "uint32"
        },
        {
          "internalType": "uint8",
          "name": "_subAccountId",
          "type": "uint8"
        },
        {
          "internalType": "uint16",
          "name": "_tokenId",
          "type": "uint16"
        },
        {
          "internalType": "uint128",
          "name": "_amount",
          "type": "uint128"
        },
        {
          "internalType": "uint256[]",
          "name": "_proof",
          "type": "uint256[]"
        }
      ],
      "name": "performExodus",
      "outputs": [],
      "stateMutability": "nonpayable",
      "type": "function"
    },
    {
      "inputs": [
        {
          "internalType": "uint32",
          "name": "",
          "type": "uint32"
        },
        {
          "internalType": "uint8",
          "name": "",
          "type": "uint8"
        },
        {
          "internalType": "uint16",
          "name": "",
          "type": "uint16"
        }
      ],
      "name": "performedExodus",
      "outputs": [
        {
          "internalType": "bool",
          "name": "",
          "type": "bool"
        }
      ],
      "stateMutability": "view",
      "type": "function"
    },
    {
      "inputs": [],
      "name": "periphery",
      "outputs": [
        {
          "internalType": "address",
          "name": "",
          "type": "address"
        }
      ],
      "stateMutability": "view",
      "type": "function"
    },
    {
      "inputs": [
        {
          "internalType": "uint16",
          "name": "srcChainId",
          "type": "uint16"
        },
        {
          "internalType": "uint64",
          "name": "nonce",
          "type": "uint64"
        },
        {
          "internalType": "bytes32",
          "name": "syncHash",
          "type": "bytes32"
        },
        {
          "internalType": "uint256",
          "name": "progress",
          "type": "uint256"
        }
      ],
      "name": "receiveSynchronizationProgress",
      "outputs": [],
      "stateMutability": "nonpayable",
      "type": "function"
    },
    {
      "inputs": [
        {
          "internalType": "bytes",
          "name": "_pubkeyHash",
          "type": "bytes"
        },
        {
          "internalType": "uint32",
          "name": "_nonce",
          "type": "uint32"
        }
      ],
      "name": "setAuthPubkeyHash",
      "outputs": [],
      "stateMutability": "nonpayable",
      "type": "function"
    },
    {
      "inputs": [
        {
          "internalType": "uint16",
          "name": "_tokenId",
          "type": "uint16"
        },
        {
          "internalType": "bool",
          "name": "_tokenPaused",
          "type": "bool"
        }
      ],
      "name": "setTokenPaused",
      "outputs": [],
      "stateMutability": "nonpayable",
      "type": "function"
    },
    {
      "inputs": [
        {
          "internalType": "address",
          "name": "_validator",
          "type": "address"
        },
        {
          "internalType": "bool",
          "name": "_active",
          "type": "bool"
        }
      ],
      "name": "setValidator",
      "outputs": [],
      "stateMutability": "nonpayable",
      "type": "function"
    },
    {
      "inputs": [
        {
          "components": [
            {
              "internalType": "uint32",
              "name": "blockNumber",
              "type": "uint32"
            },
            {
              "internalType": "uint64",
              "name": "priorityOperations",
              "type": "uint64"
            },
            {
              "internalType": "bytes32",
              "name": "pendingOnchainOperationsHash",
              "type": "bytes32"
            },
            {
              "internalType": "uint256",
              "name": "timestamp",
              "type": "uint256"
            },
            {
              "internalType": "bytes32",
              "name": "stateHash",
              "type": "bytes32"
            },
            {
              "internalType": "bytes32",
              "name": "commitment",
              "type": "bytes32"
            },
            {
              "internalType": "bytes32",
              "name": "syncHash",
              "type": "bytes32"
            }
          ],
          "internalType": "struct Storage.StoredBlockInfo",
          "name": "_block",
          "type": "tuple"
        }
      ],
      "name": "syncBlocks",
      "outputs": [],
      "stateMutability": "nonpayable",
      "type": "function"
    },
    {
      "inputs": [
        {
          "internalType": "address",
          "name": "",
          "type": "address"
        }
      ],
      "name": "tokenIds",
      "outputs": [
        {
          "internalType": "uint16",
          "name": "",
          "type": "uint16"
        }
      ],
      "stateMutability": "view",
      "type": "function"
    },
    {
      "inputs": [
        {
          "internalType": "uint16",
          "name": "",
          "type": "uint16"
        }
      ],
      "name": "tokens",
      "outputs": [
        {
          "internalType": "bool",
          "name": "registered",
          "type": "bool"
        },
        {
          "internalType": "bool",
          "name": "paused",
          "type": "bool"
        },
        {
          "internalType": "address",
          "name": "tokenAddress",
          "type": "address"
        },
        {
          "internalType": "bool",
          "name": "standard",
          "type": "bool"
        },
        {
          "internalType": "uint16",
          "name": "mappingTokenId",
          "type": "uint16"
        }
      ],
      "stateMutability": "view",
      "type": "function"
    },
    {
      "inputs": [],
      "name": "totalBlocksCommitted",
      "outputs": [
        {
          "internalType": "uint32",
          "name": "",
          "type": "uint32"
        }
      ],
      "stateMutability": "view",
      "type": "function"
    },
    {
      "inputs": [],
      "name": "totalBlocksExecuted",
      "outputs": [
        {
          "internalType": "uint32",
          "name": "",
          "type": "uint32"
        }
      ],
      "stateMutability": "view",
      "type": "function"
    },
    {
      "inputs": [],
      "name": "totalBlocksProven",
      "outputs": [
        {
          "internalType": "uint32",
          "name": "",
          "type": "uint32"
        }
      ],
      "stateMutability": "view",
      "type": "function"
    },
    {
      "inputs": [],
      "name": "totalBlocksSynchronized",
      "outputs": [
        {
          "internalType": "uint32",
          "name": "",
          "type": "uint32"
        }
      ],
      "stateMutability": "view",
      "type": "function"
    },
    {
      "inputs": [],
      "name": "totalCommittedPriorityRequests",
      "outputs": [
        {
          "internalType": "uint64",
          "name": "",
          "type": "uint64"
        }
      ],
      "stateMutability": "view",
      "type": "function"
    },
    {
      "inputs": [],
      "name": "totalOpenPriorityRequests",
      "outputs": [
        {
          "internalType": "uint64",
          "name": "",
          "type": "uint64"
        }
      ],
      "stateMutability": "view",
      "type": "function"
    },
    {
      "inputs": [
        {
          "internalType": "uint256",
          "name": "index",
          "type": "uint256"
        },
        {
          "internalType": "bool",
          "name": "enableBridgeTo",
          "type": "bool"
        },
        {
          "internalType": "bool",
          "name": "enableBridgeFrom",
          "type": "bool"
        }
      ],
      "name": "updateBridge",
      "outputs": [],
      "stateMutability": "nonpayable",
      "type": "function"
    },
    {
      "inputs": [
        {
          "internalType": "address",
          "name": "",
          "type": "address"
        }
      ],
      "name": "validators",
      "outputs": [
        {
          "internalType": "bool",
          "name": "",
          "type": "bool"
        }
      ],
      "stateMutability": "view",
      "type": "function"
    },
    {
      "inputs": [],
      "name": "verifier",
      "outputs": [
        {
          "internalType": "contract Verifier",
          "name": "",
          "type": "address"
        }
      ],
      "stateMutability": "view",
      "type": "function"
    }
  ],
  "bytecode": "0x60a06040523060601b60805234801561001757600080fd5b5060805160601c615c376200003b6000398061095e528061101f5250615c376000f3fe6080604052600436106102025760003560e01c806377aace1a1161011d578063c57b22be116100b0578063f3c20de01161007f578063faf4d8cb11610064578063faf4d8cb146105d9578063fba07f5f146105ee578063fc97a3031461060e5761021e565b8063f3c20de014610588578063fa52c7d8146105b95761021e565b8063c57b22be14610529578063ea5f812d1461053e578063f22354871461055e578063f39349ef146105735761021e565b80638ae20dc9116100ec5780638ae20dc91461049a5780638eda919e146104ba578063a3c44705146104da578063b9c0555d146105095761021e565b806377aace1a14610430578063784b7518146104455780638773334c146104655780638871f8b81461047a5761021e565b806334f6bb1c1161019557806357cf2a191161016457806357cf2a19146103b9578063647b5923146103d957806367708dae146103ee5780636ed10a8e146104035761021e565b806334f6bb1c146103355780633adc2d2114610357578063439fab9114610377578063495ed57a146103975761021e565b8063264c0912116101d1578063264c0912146102bc5780632a3174f4146102d15780632b7ac3f3146102f35780632f25807e146103155761021e565b80630e7d721214610233578063108e709f146102535780631469434714610266578063253946451461029c5761021e565b3661021e5760025461021c906001600160a01b031661063b565b005b60025461021c906001600160a01b031661063b565b34801561023f57600080fd5b5061021c61024e366004614b68565b61068f565b61021c6102613660046147ad565b610890565b34801561027257600080fd5b50610286610281366004614e1e565b61092d565b60405161029391906152e1565b60405180910390f35b3480156102a857600080fd5b5061021c6102b7366004614a8b565b610953565b3480156102c857600080fd5b506102866109cf565b3480156102dd57600080fd5b506102e66109e0565b6040516102939190615320565b3480156102ff57600080fd5b506103086109e5565b604051610293919061513d565b34801561032157600080fd5b5061021c61033036600461473a565b6109f4565b34801561034157600080fd5b5061034a610d6d565b6040516102939190615b22565b34801561036357600080fd5b5061021c610372366004614917565b610d84565b34801561038357600080fd5b5061021c610392366004614a8b565b611014565b3480156103a357600080fd5b506103ac61114c565b6040516102939190615afa565b3480156103c557600080fd5b5061021c6103d4366004614e60565b611158565b3480156103e557600080fd5b506103ac6113a0565b3480156103fa57600080fd5b5061034a6113b3565b34801561040f57600080fd5b5061042361041e366004614af8565b6113ca565b6040516102939190615ad7565b34801561043c57600080fd5b50610308611626565b34801561045157600080fd5b5061021c6104603660046147d8565b611635565b34801561047157600080fd5b50610286611894565b34801561048657600080fd5b5061021c610495366004614c17565b6118a6565b3480156104a657600080fd5b506102e66104b5366004614782565b6118b8565b3480156104c657600080fd5b5061021c6104d5366004614bc9565b6118d5565b3480156104e657600080fd5b506104fa6104f5366004614ddd565b611939565b604051610293939291906151f0565b34801561051557600080fd5b50610308610524366004614df5565b61198a565b34801561053557600080fd5b5061034a6119b0565b34801561054a57600080fd5b5061021c61055936600461494a565b6119c7565b34801561056a57600080fd5b506103ac611c2a565b34801561057f57600080fd5b50610308611c3d565b34801561059457600080fd5b506105a86105a3366004614dc3565b611c4c565b6040516102939594939291906152ec565b3480156105c557600080fd5b506102866105d43660046146ce565b611c92565b3480156105e557600080fd5b506103ac611ca7565b3480156105fa57600080fd5b506102e66106093660046146ce565b611cba565b34801561061a57600080fd5b5061062e6106293660046146ce565b611ccc565b6040516102939190615aeb565b6001600160a01b03811661066a5760405162461bcd60e51b815260040161066190615910565b60405180910390fd5b60405136600082376000803683855af43d806000843e81801561068b578184f35b8184fd5b600080516020615be283398151915254600181146106d9576040805162461bcd60e51b8152602060048201526002602482015261314360f01b604482015290519081900360640190fd5b6002600080516020615be2833981519152556040516370a0823160e01b81526000906001600160a01b038816906370a082319061071a90309060040161513d565b60206040518083038186803b15801561073257600080fd5b505afa158015610746573d6000803e3d6000fd5b505050506040513d601f19601f8201168201806040525081019061076a9190614a73565b6040516323b872dd60e01b81529091506001600160a01b038816906323b872dd9061079d90339030908b90600401615151565b600060405180830381600087803b1580156107b757600080fd5b505af11580156107cb573d6000803e3d6000fd5b50506040516370a0823160e01b8152600092506001600160a01b038a1691506370a08231906107fe90309060040161513d565b60206040518083038186803b15801561081657600080fd5b505afa15801561082a573d6000803e3d6000fd5b505050506040513d601f19601f8201168201806040525081019061084e9190614a73565b9050600061086461085f8385611ce2565b611d11565b90506108738982898989611d65565b5050506001600080516020615be283398151915255505050505050565b600080516020615be283398151915254600181146108da576040805162461bcd60e51b8152602060048201526002602482015261314360f01b604482015290519081900360640190fd5b6002600080516020615be28339815191525561091673eeeeeeeeeeeeeeeeeeeeeeeeeeeeeeeeeeeeeeee61090d34611d11565b85856000611d65565b6001600080516020615be283398151915255505050565b600560209081526000938452604080852082529284528284209052825290205460ff1681565b306001600160a01b037f000000000000000000000000000000000000000000000000000000000000000016141561099c5760405162461bcd60e51b815260040161066190615832565b60006109aa828401846146ce565b600280546001600160a01b0319166001600160a01b0392909216919091179055505050565b600354640100000000900460ff1681565b600090565b6000546001600160a01b031681565b600080516020615be28339815191525460018114610a3e576040805162461bcd60e51b8152602060048201526002602482015261314360f01b604482015290519081900360640190fd5b6002600080516020615be28339815191525561ffff8084166000908152600e6020908152604091829020825160a081018452905460ff8082161515808452610100830482161515948401949094526001600160a01b036201000083041694830194909452600160b01b810490931615156060820152600160b81b909204909216608082015290610ae05760405162461bcd60e51b81526004016106619061599b565b6000610aec8686611fc8565b69ffffffffffffffffffff1981166000908152600460205260408120549192506001600160801b0390911690610b228287611ff6565b90506000816001600160801b031611610b4d5760405162461bcd60e51b81526004016106619061555e565b69ffffffffffffffffffff1983166000908152600460205260409081902080546001600160801b0319168385036001600160801b031617905584015173eeeeeeeeeeeeeeeeeeeeeeeeeeeeeeeeeeeeeeee6001600160a01b0382161415610c39576000896001600160a01b0316836001600160801b0316604051610bd090615006565b60006040518083038185875af1925050503d8060008114610c0d576040519150601f19603f3d011682016040523d82523d6000602084013e610c12565b606091505b5050905080610c335760405162461bcd60e51b8152600401610661906154ee565b50610d14565b6060850151604051633768854760e11b81526000913091636ed10a8e91610c6a9186918f9189918b91600401615383565b602060405180830381600087803b158015610c8457600080fd5b505af1158015610c98573d6000803e3d6000fd5b505050506040513d601f19601f82011682018060405250810190610cbc9190614da7565b9050826001600160801b0316816001600160801b031614610d125769ffffffffffffffffffff198516600090815260046020526040902080546001600160801b0319168286036001600160801b03161790559150815b505b8761ffff167ff4bf32c167ee6e782944cd1db8174729b46adcd3bc732e282cc4a8079393315483604051610d489190615ad7565b60405180910390a250505050506001600080516020615be28339815191525550505050565b600254600160c01b900467ffffffffffffffff1681565b336000908152600d602052604090205460ff16610db35760405162461bcd60e51b815260040161066190615463565b600080516020615be28339815191525460018114610dfd576040805162461bcd60e51b8152602060048201526002602482015261314360f01b604482015290519081900360640190fd5b6002600080516020615be28339815191525560015482516000805463ffffffff600160a01b948590048116949293610e3a9390920416840361201e565b90506000805b8263ffffffff168163ffffffff161015610edf576000868263ffffffff1681518110610e6857fe5b60200260200101519050610e7b81612039565b63ffffffff861660009081526009602052604090205414610eae5760405162461bcd60e51b8152600401610661906153f4565b63ffffffff851660009081526009602090815260408220919091550151600019909401939190910190600101610e40565b506001805463ffffffff60a01b1916600160a01b63ffffffff86811682029290921792839055600280546001600160c01b038116600160c01b9182900467ffffffffffffffff90811688900316909102179081905581900482169204161015610f6c576001546002805463ffffffff60a01b1916600160a01b9283900463ffffffff169092029190911790555b60035460025463ffffffff918216600160a01b9091049091161015610fb05760025460038054600160a01b90920463ffffffff1663ffffffff199092169190911790555b7f6f3a8259cce1ea2680115053d21c971aa1764295a45850f520525f2bfdf3c9d3600060149054906101000a900463ffffffff1684604051610ff3929190615b0b565b60405180910390a15050506001600080516020615be2833981519152555050565b306001600160a01b037f000000000000000000000000000000000000000000000000000000000000000016141561105d5760405162461bcd60e51b815260040161066190615832565b611065612069565b6000808080611076858701876146ea565b600080546001600160a01b038087166001600160a01b03199283161783556002805482881690841617905560018054918616919092161790556040805160e081018252828152602081018390527fc5d2460186f7233c927e7db2dcc703c0e500b653ca82273b7bfad8045d85a470918101829052606081018390526080810184905260a081019290925260c08201529397509195509350915061111881612039565b6000805260096020527fec8156718a8372b1db44bb411437d0870f3e3790d4a08526d024ce1b0b668f6b5550505050505050565b60035463ffffffff1681565b600354640100000000900460ff16156111835760405162461bcd60e51b8152600401610661906153d9565b600080516020615be283398151915254600181146111cd576040805162461bcd60e51b8152602060048201526002602482015261314360f01b604482015290519081900360640190fd5b6002600080516020615be28339815191525562ffffff63ffffffff861611156112085760405162461bcd60e51b815260040161066190615738565b600760ff8516111561122c5760405162461bcd60e51b815260040161066190615526565b61ffff8084166000908152600e6020908152604091829020825160a081018452905460ff8082161515808452610100830482161515948401949094526001600160a01b036201000083041694830194909452600160b01b810490931615156060820152600160b81b9092049092166080820152906112bc5760405162461bcd60e51b8152600401610661906157fa565b8383156112f2576000826080015161ffff16116112eb5760405162461bcd60e51b81526004016106619061557a565b5060808101515b600154611000600160c01b90910467ffffffffffffffff16106113275760405162461bcd60e51b8152600401610661906158f4565b6040805160e0810182526002815263ffffffff8916602082015260ff88169181019190915233606082015261ffff8087166080830152821660a0820152600060c08201819052611376826120ba565b905061138360058261210b565b505050506001600080516020615be2833981519152555050505050565b600254600160a01b900463ffffffff1681565b600054600160c01b900467ffffffffffffffff1681565b60003330146113eb5760405162461bcd60e51b8152600401610661906158d8565b81156114595760405163a9059cbb60e01b81526001600160a01b0387169063a9059cbb9061141f9088908890600401615213565b600060405180830381600087803b15801561143957600080fd5b505af115801561144d573d6000803e3d6000fd5b5050505083905061161d565b6040516370a0823160e01b81526000906001600160a01b038816906370a082319061148890309060040161513d565b60206040518083038186803b1580156114a057600080fd5b505afa1580156114b4573d6000803e3d6000fd5b505050506040513d601f19601f820116820180604052508101906114d89190614a73565b60405163a9059cbb60e01b81529091506001600160a01b0388169063a9059cbb906115099089908990600401615213565b600060405180830381600087803b15801561152357600080fd5b505af1158015611537573d6000803e3d6000fd5b50506040516370a0823160e01b8152600092506001600160a01b038a1691506370a082319061156a90309060040161513d565b60206040518083038186803b15801561158257600080fd5b505afa158015611596573d6000803e3d6000fd5b505050506040513d601f19601f820116820180604052508101906115ba9190614a73565b905060006115c88383611ce2565b9050600081116115ea5760405162461bcd60e51b815260040161066190615816565b856001600160801b03168111156116135760405162461bcd60e51b815260040161066190615869565b925061161d915050565b95945050505050565b6002546001600160a01b031681565b600354640100000000900460ff16156116605760405162461bcd60e51b8152600401610661906153d9565b336000908152600d602052604090205460ff1661168f5760405162461bcd60e51b815260040161066190615463565b600080516020615be283398151915254600181146116d9576040805162461bcd60e51b8152602060048201526002602482015261314360f01b604482015290519081900360640190fd5b6002600080516020615be283398151915255815160009063ffffffff81166117135760405162461bcd60e51b8152600401610661906155b2565b60005b8163ffffffff168163ffffffff16101561177e5761174d858263ffffffff168151811061173f57fe5b6020026020010151826122a4565b848163ffffffff168151811061175f57fe5b6020026020010151600001516020015183019250806001019050611716565b506000805460028054600160c01b80820467ffffffffffffffff908116889003811682026001600160c01b03938416179093556001805482810485168990038516830290841617905563ffffffff600160a01b828604851689019094169091029190931617818104831685018316820263ffffffff60a01b199091161792839055600354821692041611156118255760405162461bcd60e51b815260040161066190615754565b836001820363ffffffff168151811061183a57fe5b6020026020010151600001516000015163ffffffff167f036cca5fc51c8ae4669768ca5966397d55516afb697541fdd4fe7e6b253c075c60405160405180910390a250506001600080516020615be2833981519152555050565b600354640100000000900460ff161590565b6118b38383600184612493565b505050565b600760209081526000928352604080842090915290825290205481565b6000815167ffffffffffffffff811180156118ef57600080fd5b5060405190808252806020026020018201604052801561192957816020015b611916614190565b81526020019060019003908161190e5790505b5090506118b38383600084612493565b6010818154811061194957600080fd5b6000918252602090912001546001600160a01b038116915060ff600160a01b8204811691750100000000000000000000000000000000000000000090041683565b600b6020908152600092835260408084209091529082529020546001600160a01b031681565b600154600160c01b900467ffffffffffffffff1681565b600080516020615be28339815191525460018114611a11576040805162461bcd60e51b8152602060048201526002602482015261314360f01b604482015290519081900360640190fd5b6002600080516020615be283398151915281905554600160a01b900463ffffffff1660005b8451811015611b045763ffffffff60018301166000908152600960205260409020548551611a7790879084908110611a6a57fe5b6020026020010151612039565b14611a945760405162461bcd60e51b815260040161066190615700565b8160010191506001600160fd1b03858281518110611aae57fe5b602002602001015160a0015160001c166001600160fd1b0385604001518381518110611ad657fe5b60200260200101511614611afc5760405162461bcd60e51b81526004016106619061540f565b600101611a36565b5060015463ffffffff600160a01b90910481169082161115611b385760405162461bcd60e51b8152600401610661906159d3565b6002805463ffffffff60a01b1916600160a01b63ffffffff8416021790556000805484516020860151606087015160408089015160808a0151915163054185eb60e51b81526001600160a01b039096169563a830bd6095611ba29590949093909291600401615235565b60206040518083038186803b158015611bba57600080fd5b505afa158015611bce573d6000803e3d6000fd5b505050506040513d601f19601f82011682018060405250810190611bf29190614a57565b905080611c115760405162461bcd60e51b81526004016106619061547e565b50506001600080516020615be283398151915255505050565b600054600160a01b900463ffffffff1681565b6001546001600160a01b031681565b600e6020526000908152604090205460ff8082169161010081048216916201000082046001600160a01b031691600160b01b810490911690600160b81b900461ffff1685565b600d6020526000908152604090205460ff1681565b600154600160a01b900463ffffffff1681565b60116020526000908152604090205481565b600f6020526000908152604090205461ffff1681565b6000611d088383604051806040016040528060018152602001603b60f91b81525061270e565b90505b92915050565b60007001000000000000000000000000000000008210611d5d576040805162461bcd60e51b8152602060048201526002602482015261189b60f11b604482015290519081900360640190fd5b50805b919050565b600354640100000000900460ff1615611d905760405162461bcd60e51b8152600401610661906153d9565b6000846001600160801b0316118015611dbf57506cffffffffffffffffffffffffff6001600160801b03851611155b611ddb5760405162461bcd60e51b815260040161066190615622565b6001600160a01b038316611e015760405162461bcd60e51b815260040161066190615447565b600760ff83161115611e255760405162461bcd60e51b815260040161066190615a5d565b6001600160a01b038086166000908152600f602090815260408083205461ffff908116808552600e845293829020825160a081018452905460ff80821615158084526101008304821615159684019690965262010000820490971693820193909352600160b01b830490951615156060860152600160b81b90910416608084015290918291611ec65760405162461bcd60e51b81526004016106619061549a565b806020015115611ee85760405162461bcd60e51b81526004016106619061584d565b8315611f1e576000816080015161ffff1611611f165760405162461bcd60e51b81526004016106619061563e565b806080015191505b600154611000600160c01b90910467ffffffffffffffff1610611f535760405162461bcd60e51b815260040161066190615606565b6040805160e0810182526002815260006020820181905260ff88169282019290925261ffff8086166060830152841660808201526001600160801b03891660a08201526001600160a01b03881660c082015290611faf826127a5565b9050611fbc60018261210b565b50505050505050505050565b60a01b75ffff0000000000000000000000000000000000000000166001600160a01b03919091161760501b90565b6000816001600160801b0316836001600160801b0316106120175781611d08565b5090919050565b60008163ffffffff168363ffffffff16106120175781611d08565b60008160405160200161204c9190615a79565b604051602081830303815290604052805190602001209050919050565b600080516020615be28339815191528054600190915580156120b7576040805162461bcd60e51b815260206004820152600260248201526118a160f11b604482015290519081900360640190fd5b50565b60606005826000015183602001518460400151856060015186608001518760a0015160006040516020016120f5989796959493929190615039565b6040516020818303038152906040529050919050565b600154600080544392600160c01b9182900467ffffffffffffffff90811692909104160190612139846127dc565b90506040518060600160405280826bffffffffffffffffffffffff191681526020018467ffffffffffffffff16815260200186600b81111561217757fe5b905267ffffffffffffffff8084166000908152600660209081526040918290208451815492860151909416600160a01b027fffffffff0000000000000000ffffffffffffffffffffffffffffffffffffffff60609590951c6001600160a01b0319909316929092179390931617808355908301519082907fffffff00ffffffffffffffffffffffffffffffffffffffffffffffffffffffff16600160e01b83600b81111561222157fe5b02179055509050507fd0943372c08b438a88d4b39d77216901079eda9ca59d45349841c099083b6830338387878767ffffffffffffffff1660405161226a959493929190615183565b60405180910390a150506001805467ffffffffffffffff600160c01b80830482168401909116026001600160c01b03909116179055505050565b81515163ffffffff1660009081526009602052604090205482516122c790612039565b146122e45760405162461bcd60e51b815260040161066190615542565b600054825151600160a01b90910463ffffffff908116830160010181169116146123205760405162461bcd60e51b81526004016106619061571c565b7fc5d2460186f7233c927e7db2dcc703c0e500b653ca82273b7bfad8045d85a47060005b8360200151518163ffffffff16101561246e57600084602001518263ffffffff168151811061236f57fe5b6020026020010151905060008160008151811061238857fe5b016020015160f81c600b81111561239b57fe5b9050600381600b8111156123ab57fe5b14156123cd5760006123bc836127ea565b90506123c7816128a0565b50612455565b600781600b8111156123db57fe5b14156124055760006123ec836129b9565b90506123c7816020015182606001518360400151612a2c565b600581600b81111561241357fe5b141561243d57600061242483612bfa565b90506123c7816080015182606001518360c00151612a2c565b60405162461bcd60e51b815260040161066190615596565b61245f8483612cc4565b93505050806001019050612344565b5082516040015181146118b35760405162461bcd60e51b8152600401610661906156e4565b600354640100000000900460ff16156124be5760405162461bcd60e51b8152600401610661906153d9565b336000908152600d602052604090205460ff166124ed5760405162461bcd60e51b815260040161066190615463565b600080516020615be28339815191525460018114612537576040805162461bcd60e51b8152602060048201526002602482015261314360f01b604482015290519081900360640190fd5b6002600080516020615be283398151915255600084511161256a5760405162461bcd60e51b815260040161066190615885565b61257385612039565b600154600160a01b900463ffffffff16600090815260096020526040902054146125af5760405162461bcd60e51b81526004016106619061592b565b60005b84518163ffffffff16101561265d576125ff86868363ffffffff16815181106125d757fe5b602002602001015186868563ffffffff16815181106125f257fe5b6020026020010151612cd3565b60208101516002805467ffffffffffffffff600160c01b8083048216909401169092026001600160c01b03909216919091179055955061263e86612039565b865163ffffffff166000908152600960205260409020556001016125b2565b5060015460025467ffffffffffffffff600160c01b9283900481169290910416111561269b5760405162461bcd60e51b815260040161066190615963565b83516001805463ffffffff600160a01b8083048216909401811690930263ffffffff60a01b1990911617905585516040519116907f81a92942d0f9c33b897a438384c9c3d88be397776138efa3ba1a4fc8b626842490600090a26001600080516020615be2833981519152555050505050565b6000818484111561279d5760405162461bcd60e51b81526004018080602001828103825283818151815260200191508051906020019080838360005b8381101561276257818101518382015260200161274a565b50505050905090810190601f16801561278f5780820380516001836020036101000a031916815260200191505b509250505060405180910390fd5b505050900390565b6060600182516040808501516060860151608087015160a088015160c089015194516120f5979695600095949392916020016150c3565b805160209091012060601b90565b6127f26141af565b60016127fe8382612e8b565b60ff168352905061280f8382612eb7565b63ffffffff16602084015260010190506128298382612ed0565b61ffff16604084015260020190506128418382612ee0565b6001600160801b03166060840152600201905061285e8382612ef0565b6001600160a01b0316608084015290506128788382612eb7565b63ffffffff1660a0840152905061288f8382612ed0565b61ffff1660c0840152509092915050565b60a081015163ffffffff16156129a25760008160800151826040015183606001518460c001518560a001516040516020016128df959493929190614f11565b60408051601f1981840301815291815281516020928301208483015163ffffffff166000908152600b84528281208282529093529120549091506001600160a01b0316806129885760808301805160208086015163ffffffff166000908152600b8252604080822087835290925281902080546001600160a01b0319166001600160a01b039093169290921790915584015190516060850151612983929190612a2c565b61299b565b61299b8360400151828560600151612f00565b50506120b7565b6120b7816040015182608001518360600151612a2c565b6129c16141eb565b60016129cd8382612e8b565b60ff16835260090190506129e18382612ed0565b61ffff16602084015260020190506129f98382612ee0565b6001600160801b031660408401526002019050612a168382612ef0565b6001600160a01b03166060840152509092915050565b6001600160801b038116612a3f576118b3565b61ffff8084166000908152600e6020908152604091829020825160a081018452905460ff8082161515808452610100830482161515948401949094526001600160a01b036201000083041694830194909452600160b01b810490931615156060820152600160b81b909204909216608082015290612ac857612ac2848484612f00565b506118b3565b604081015160006001600160a01b03821673eeeeeeeeeeeeeeeeeeeeeeeeeeeeeeeeeeeeeeee1415612b105784612b08816001600160801b038716612f64565b915050612ba0565b6060830151604051633768854760e11b81523091636ed10a8e91620186a091612b439187918b918b918291600401615383565b602060405180830381600088803b158015612b5d57600080fd5b5087f193505050508015612b8e575060408051601f3d908101601f19168201909252612b8b91810190614da7565b60015b612b9a57506000612ba0565b50600190505b8015612be7578561ffff167ff4bf32c167ee6e782944cd1db8174729b46adcd3bc732e282cc4a8079393315485604051612bda9190615ad7565b60405180910390a2612bf2565b612bf2868686612f00565b505050505050565b612c026141af565b6001612c0e8382612e8b565b60ff1683529050612c1f8382612eb7565b63ffffffff1660208401529050612c368382612e8b565b60ff1660408401529050612c4a8382612ef0565b6001600160a01b031660608401529050612c648382612ed0565b61ffff1660808401529050612c798382612ed0565b61ffff1660a08401529050612c8e8382612ee0565b6001600160801b031660c08401529050602f8114612cbe5760405162461bcd60e51b815260040161066190615a26565b50919050565b80519181526020909101902090565b612cdb6141af565b846000015160010163ffffffff16846080015163ffffffff1614612d115760405162461bcd60e51b8152600401610661906156ac565b821580612d1c575060005b612d385760405162461bcd60e51b81526004016106619061542b565b846060015184604001511015612d605760405162461bcd60e51b8152600401610661906153bd565b6040840151612d724262015180611ce2565b11158015612d8f5750612d8742610384612fd0565b846040015111155b612dab5760405162461bcd60e51b81526004016106619061550a565b600080600080612dba8861300f565b93509350935093506000612dd18a8a8a8a876132b9565b90508715612e275760015b60028111612e255760028114612e1d5787604001518181518110612dfc57fe5b6020026020010151838281518110612e1057fe5b6020026020010181815250505b600101612ddc565b505b6000612e338284613428565b6040805160e0810182526080808e015163ffffffff16825267ffffffffffffffff9098166020820152808201989098528b015160608801528a51958701959095525060a0850152505060c08201529050949350505050565b600080826001019150838381518110612ea057fe5b602001015160f81c60f81b60f81c90509250929050565b600481016000612ec78484613480565b90509250929050565b600281016000612ec784846134ce565b601081016000612ec78484613511565b601481016000612ec78484613554565b6000612f0c8385611fc8565b9050612f188183613597565b826001600160a01b03168461ffff167f822cba452e09c71c51db196553ac44d860c4d2d66e311eff0066a7910c0dc87084604051612f569190615ad7565b60405180910390a350505050565b600080836001600160a01b0316620186a084604051612f8290615006565b600060405180830381858888f193505050503d8060008114612fc0576040519150601f19603f3d011682016040523d82523d6000602084013e612fc5565b606091505b509095945050505050565b600082820183811015611d08576040805162461bcd60e51b81526020600482015260026024820152610c4d60f21b604482015290519081900360640190fd5b6020810151805160009182916060918291600e9006156130415760405162461bcd60e51b81526004016106619061597f565b8051600e900467ffffffffffffffff8111801561305d57600080fd5b506040519080825280601f01601f191660200182016040528015613088576020820181803683370190505b5060025460008054909650919450600160c01b9182900467ffffffffffffffff9081169290910416016130b9613607565b7fc5d2460186f7233c927e7db2dcc703c0e500b653ca82273b7bfad8045d85a4709650925060005b8760600151518110156132af5760008860600151828151811061310057fe5b602002602001015190506000816020015163ffffffff1690508451816001011061313c5760405162461bcd60e51b8152600401610661906154b6565b600e81061561315d5760405162461bcd60e51b815260040161066190615770565b6000600e8204905087818151811061317157fe5b01602001516001600160f81b0319161561319d5760405162461bcd60e51b8152600401610661906155ea565b600160f81b8882815181106131ae57fe5b60200101907effffffffffffffffffffffffffffffffffffffffffffffffffffffffffffff1916908160001a9053505060008582600101815181106131ef57fe5b016020015160f81c905061320281613691565b600086838151811061321057fe5b016020015160f81c600b81111561322357fe5b905060008a87019050600080600061324385878d8a888d600001516136f6565b925092509250828e019d5061326e8c8760ff168151811061326057fe5b602002602001015183612cc4565b8c8760ff168151811061327d57fe5b602090810291909101015280511561329c576132998f82612cc4565b9e505b50505050505050508060010190506130e1565b5050509193509193565b60008084156132cc57836020015161331c565b6002836040516132dc9190614fcf565b602060405180830381855afa1580156132f9573d6000803e3d6000fd5b5050506040513d601f19601f8201168201806040525081019061331c9190614a73565b90506000851561332d578451613381565b600287602001516040516133419190614fcf565b602060405180830381855afa15801561335e573d6000803e3d6000fd5b5050506040513d601f19601f820116820180604052508101906133819190614a73565b90506002876080015163ffffffff168860a0015163ffffffff168a608001518a600001518b6040015186886040516020016133c29796959493929190615009565b60408051601f19818403018152908290526133dc91614fcf565b602060405180830381855afa1580156133f9573d6000803e3d6000fd5b5050506040513d601f19601f8201168201806040525081019061341c9190614a73565b98975050505050505050565b8160015b600260ff82161161347957600160ff6000198301161b600381168114156134705761346d83858460ff168151811061346057fe5b6020026020010151613a09565b92505b5060010161342c565b5092915050565b60008082600401905080845110156134c3576040805162461bcd60e51b81526020600482015260016024820152602b60f91b604482015290519081900360640190fd5b929092015192915050565b60008082600201905080845110156134c3576040805162461bcd60e51b81526020600482015260016024820152601560fa1b604482015290519081900360640190fd5b60008082601001905080845110156134c3576040805162461bcd60e51b81526020600482015260016024820152605760f81b604482015290519081900360640190fd5b60008082601401905080845110156134c3576040805162461bcd60e51b81526020600482015260016024820152602960f91b604482015290519081900360640190fd5b69ffffffffffffffffffff1982166000908152600460205260409020546001600160801b03166135c78183613a18565b69ffffffffffffffffffff1993909316600090815260046020526040902080546001600160801b0319166001600160801b03909416939093179092555050565b6040805160038082526080820190925260609160208201838036833701905050905060015b6002811161368d57600160001982011b60038116811415613684577fc5d2460186f7233c927e7db2dcc703c0e500b653ca82273b7bfad8045d85a47060001b83838151811061367757fe5b6020026020010181815250505b5060010161362c565b5090565b600160ff8216108015906136a95750600260ff821611155b6136c55760405162461bcd60e51b8152600401610661906159b7565b600160ff6000198301161b6003811681146136f25760405162461bcd60e51b8152600401610661906156c8565b5050565b6000606080600189600b81111561370957fe5b14156137c25761371b87876038613a63565b915060ff8816600214156137bd57600061373483613b20565b67ffffffffffffffff87811660009081526006602090815260409182902082516060808201855282549081901b6001600160601b0319168252600160a01b8104909516928101929092529394506137b79385939192909190830190600160e01b900460ff16600b8111156137a457fe5b600b8111156137af57fe5b905250613be4565b60019350505b6139fd565b600689600b8111156137d057fe5b14156138bb576137e287876038613a63565b915060ff8816600214156137bd5760006137fb83613c57565b905084516000146138375760006138128683613cdb565b9050806138315760405162461bcd60e51b815260040161066190615947565b506138b5565b6000816040015160405160200161384e9190614fa2565b60408051601f19818403018152918152815160209283012060608501516001600160a01b0316600090815260078452828120608087015163ffffffff168252909352912054149050806138b35760405162461bcd60e51b8152600401610661906155ce565b505b506139fd565b600389600b8111156138c957fe5b14156138e2576138db87876038613a63565b91506139e1565b600789600b8111156138f057fe5b1415613902576138db87876038613a63565b600589600b81111561391057fe5b14156139c95761392287876038613a63565b915060ff8816600214156139c457600061393b83612bfa565b67ffffffffffffffff87811660009081526006602090815260409182902082516060808201855282549081901b6001600160601b0319168252600160a01b8104909516928101929092529394506139be9385939192909190830190600160e01b900460ff16600b8111156139ab57fe5b600b8111156139b657fe5b905250613d5c565b60019350505b6139e1565b60405162461bcd60e51b8152600401610661906154d2565b60ff8816600214156139fd576139fa8260008451613a63565b90505b96509650969350505050565b60009182526020526040902090565b60008282016001600160801b038085169082161015611d08576040805162461bcd60e51b8152602060048201526002602482015261189960f11b604482015290519081900360640190fd5b606081830184511015613aa1576040805162461bcd60e51b81526020600482015260016024820152602d60f91b604482015290519081900360640190fd5b60008267ffffffffffffffff81118015613aba57600080fd5b506040519080825280601f01601f191660200182016040528015613ae5576020820181803683370190505b5090508215613b1857602081018381016020860187015b81831015613b14578051835260209283019201613afc565b5050505b949350505050565b613b286141af565b6001613b348382612e8b565b60ff1683529050613b458382612eb7565b63ffffffff1660208401529050613b5c8382612e8b565b60ff1660408401529050613b708382612ed0565b61ffff1660608401529050613b858382612ed0565b61ffff1660808401529050613b9a8382612ee0565b6001600160801b031660a08401529050613bb48382612ef0565b6001600160a01b031660c08401529050602f8114612cbe5760405162461bcd60e51b8152600401610661906157c3565b60018160400151600b811115613bf657fe5b14613c135760405162461bcd60e51b8152600401610661906158a1565b80516001600160601b031916613c30613c2b846127a5565b6127dc565b6001600160601b031916146136f25760405162461bcd60e51b81526004016106619061565a565b613c5f614212565b6001613c6b8382612e8b565b60ff1683529050613c7c8382612eb7565b63ffffffff1660208401529050613c938382613dca565b6001600160601b03191660408401529050613cae8382612ef0565b6001600160a01b031660608401529050613cc88382612eb7565b63ffffffff166080840152509092915050565b60008083600081518110613ceb57fe5b016020015160f81c6001811115613cfe57fe5b90506000816001811115613d0e57fe5b1415613d2657613d1e8484613dda565b915050611d0b565b6001816001811115613d3457fe5b1415613d4457613d1e8484613f3c565b60405162461bcd60e51b815260040161066190615691565b60058160400151600b811115613d6e57fe5b14613d8b5760405162461bcd60e51b8152600401610661906159ef565b80516001600160601b031916613da3613c2b846120ba565b6001600160601b031916146136f25760405162461bcd60e51b81526004016106619061578c565b601481016000612ec78484614017565b600080613dea846001604161405f565b915050600046905060007f8b73c3c69bb8fe3d512ecc4cf759cc79239f7b179b0ffacaa9a75d522b39400f7f5d27f4d7e0e8a0cba7984286ccb8f517d40889161f782642f4bde6b8ac7189657fc89efdaa54c0f20c7adf612882df0950f5a951637e0307cdcb4c672f298b8bc68430604051602001613e6d959493929190615357565b60405160208183030381529060405280519060200120905060007f8012078cc90c4c82e493f1a538159fd8621f39392101b34fba2ecd141432580b866040015187608001518860200151604051602001613eca9493929190615329565b60405160208183030381529060405280519060200120905060008282604051602001613ef7929190614feb565b6040516020818303038152906040528051906020012090506000613f1b868361407a565b60608901516001600160a01b03918216911614965050505050505092915050565b60008080806001613f4d8782612ef0565b94509050613f5b8782614142565b93509050613f698782614142565b80935081925050506000838760400151604051602001613f8a929190614fb7565b60408051601f198184030181529082905280516020918201209250600091613fc2916001600160f81b03199189918691899101614f6e565b6040516020818303038152906040528051906020012060001c905087606001516001600160a01b0316816001600160a01b031614801561400a5750608088015163ffffffff16155b9998505050505050505050565b60008160140183511015614056576040805162461bcd60e51b81526020600482015260016024820152605360f81b604482015290519081900360640190fd5b50016020015190565b6000606061406e858585613a63565b93909201949293505050565b600082516041146140b6576040805162461bcd60e51b81526020600482015260016024820152600560fc1b604482015290519081900360640190fd5b60008060006020860151925060408601519150606086015160001a905060018582858560405160008152602001604052604051808581526020018460ff1681526020018381526020018281526020019450505050506020604051602081039080840390855afa15801561412d573d6000803e3d6000fd5b5050604051601f190151979650505050505050565b602081016000612ec7848460008082602001905080845110156134c3576040805162461bcd60e51b81526020600482015260016024820152605960f81b604482015290519081900360640190fd5b6040805160608082018352600080835260208301529181019190915290565b6040805160e081018252600080825260208201819052918101829052606081018290526080810182905260a0810182905260c081019190915290565b60408051608081018252600080825260208201819052918101829052606081019190915290565b6040805160a08101825260008082526020820181905291810182905260608101829052608081019190915290565b600082601f830112614250578081fd5b8135602061426561426083615b5b565b615b37565b82815281810190858301855b85811015614335578135880160c080601f19838d03011215614291578889fd5b61429a81615b37565b87830135815260408084013567ffffffffffffffff808211156142bb578c8dfd5b6142c98f8c84890101614591565b8b85015260609150818601358385015260808601359250808311156142ec578c8dfd5b506142fb8e8b84880101614342565b908301525061430c60a08401614691565b608082015261431c828401614691565b60a0820152865250509284019290840190600101614271565b5090979650505050505050565b600082601f830112614352578081fd5b8135602061436261426083615b5b565b82815281810190858301855b858110156143355781358801604080601f19838d0301121561438e578889fd5b805181810167ffffffffffffffff82821081831117156143aa57fe5b9083528389013590808211156143be578b8cfd5b506143cd8d8a83870101614591565b8252506143db828401614691565b8189015286525050928401929084019060010161436e565b600082601f830112614403578081fd5b8135602061441361426083615b5b565b8281528181019085830160e080860288018501891015614431578687fd5b865b86811015614457576144458a846145f6565b85529385019391810191600101614433565b509198975050505050505050565b600082601f830112614475578081fd5b60405161020080820182811067ffffffffffffffff8211171561449457fe5b60405281848281018710156144a7578485fd5b8492505b60108310156144cb578035825260019290920191602091820191016144ab565b509195945050505050565b600082601f8301126144e6578081fd5b813560206144f661426083615b5b565b8281528181019085830183850287018401881015614512578586fd5b855b8581101561433557813584529284019290840190600101614514565b600082601f830112614540578081fd5b8135602061455061426083615b5b565b828152818101908583018385028701840188101561456c578586fd5b855b858110156143355761457f826146bd565b8452928401929084019060010161456e565b600082601f8301126145a1578081fd5b813567ffffffffffffffff8111156145b557fe5b6145c8601f8201601f1916602001615b37565b8181528460208386010111156145dc578283fd5b816020850160208301379081016020019190915292915050565b600060e08284031215614607578081fd5b60405160e0810181811067ffffffffffffffff8211171561462457fe5b60405290508061463383614691565b8152614641602084016146a5565b602082015260408301356040820152606083013560608201526080830135608082015260a083013560a082015260c083013560c08201525092915050565b803561ffff81168114611d6057600080fd5b803563ffffffff81168114611d6057600080fd5b803567ffffffffffffffff81168114611d6057600080fd5b803560ff81168114611d6057600080fd5b6000602082840312156146df578081fd5b8135611d0881615ba9565b600080600080608085870312156146ff578283fd5b843561470a81615ba9565b9350602085013561471a81615ba9565b9250604085013561472a81615ba9565b9396929550929360600135925050565b60008060006060848603121561474e578081fd5b833561475981615ba9565b92506147676020850161467f565b9150604084013561477781615bcc565b809150509250925092565b60008060408385031215614794578182fd5b823561479f81615ba9565b9150612ec760208401614691565b600080604083850312156147bf578182fd5b82356147ca81615ba9565b9150612ec7602084016146bd565b6000602082840312156147e9578081fd5b67ffffffffffffffff80833511156147ff578182fd5b8235830184601f820112614811578283fd5b61481e6142608235615b5b565b81358152602080820191908301855b84358110156143355781358501610100818b03601f1901121561484e578788fd5b604051806040820110886040830111171561486557fe5b604081016040526148798b602084016145f6565b815287610100830135111561488c578889fd5b610100820135820191508a603f8301126148a4578889fd5b6148b46142606020840135615b5b565b6020838101358252810190604084018b5b60208601358110156148f6576148e18f60408435890101614591565b845260209384019391909101906001016148c5565b5050602083810191909152918752509485019492909201915060010161482d565b600060208284031215614928578081fd5b813567ffffffffffffffff81111561493e578182fd5b613b18848285016143f3565b6000806040838503121561495c578182fd5b823567ffffffffffffffff80821115614973578384fd5b61497f868387016143f3565b93506020850135915080821115614994578283fd5b9084019061028082870312156149a8578283fd5b6149b260a0615b37565b8235828111156149c0578485fd5b6149cc888286016144d6565b8252506020830135828111156149e0578485fd5b6149ec888286016144d6565b602083015250604083013582811115614a03578485fd5b614a0f888286016144d6565b604083015250606083013582811115614a26578485fd5b614a3288828601614530565b606083015250614a458760808501614465565b60808201528093505050509250929050565b600060208284031215614a68578081fd5b8151611d0881615bbe565b600060208284031215614a84578081fd5b5051919050565b60008060208385031215614a9d578182fd5b823567ffffffffffffffff80821115614ab4578384fd5b818501915085601f830112614ac7578384fd5b813581811115614ad5578485fd5b866020828501011115614ae6578485fd5b60209290920196919550909350505050565b600080600080600060a08688031215614b0f578283fd5b8535614b1a81615ba9565b94506020860135614b2a81615ba9565b93506040860135614b3a81615bcc565b92506060860135614b4a81615bcc565b91506080860135614b5a81615bbe565b809150509295509295909350565b600080600080600060a08688031215614b7f578283fd5b8535614b8a81615ba9565b945060208601356cffffffffffffffffffffffffff81168114614bab578384fd5b93506040860135614bbb81615ba9565b9250614b4a606087016146bd565b6000806101008385031215614bdc578182fd5b614be684846145f6565b915060e083013567ffffffffffffffff811115614c01578182fd5b614c0d85828601614240565b9150509250929050565b60008060006101208486031215614c2c578081fd5b614c3685856145f6565b925067ffffffffffffffff8060e08601351115614c51578182fd5b614c618660e08701358701614240565b9250806101008601351115614c74578182fd5b610100850135850186601f820112614c8a578283fd5b614c976142608235615b5b565b81358152602080820191908301855b8435811015614d9757813585016060818d03601f19011215614cc6578788fd5b6040518060608201108860608301111715614cdd57fe5b6060810160405260208201358152604082013560208201528760608301351115614d05578889fd5b6060820135820191508c603f830112614d1c578889fd5b614d2c6142606020840135615b5b565b8060208401358252602082019150604084018f6040602080880135028701011115614d55578b8cfd5b8b5b6020860135811015614d79578135845260209384019390910190600101614d57565b50506040830152508552506020938401939190910190600101614ca6565b5050809450505050509250925092565b600060208284031215614db8578081fd5b8151611d0881615bcc565b600060208284031215614dd4578081fd5b611d088261467f565b600060208284031215614dee578081fd5b5035919050565b60008060408385031215614e07578182fd5b614e1083614691565b946020939093013593505050565b600080600060608486031215614e32578081fd5b614e3b84614691565b9250614e49602085016146bd565b9150614e576040850161467f565b90509250925092565b60008060008060808587031215614e75578182fd5b614e7e85614691565b9350614e8c602086016146bd565b9250614e9a6040860161467f565b91506060850135614eaa81615bbe565b939692955090935050565b60601b6001600160601b0319169052565b6000815180845260208085019450808401835b83811015614ef557815187529582019590820190600101614ed9565b509495945050505050565b60801b6001600160801b0319169052565b60609590951b6001600160601b031916855260f093841b6001600160f01b0319908116601487015260809390931b6001600160801b0319166016860152921b16602683015260e01b6001600160e01b0319166028820152602c0190565b6001600160f81b031994909416845260609290921b6001600160601b03191660018401526015830152603582015260550190565b6001600160601b031991909116815260140190565b9182526001600160601b031916602082015260340190565b60008251614fe1818460208701615b79565b9190910192915050565b61190160f01b81526002810192909252602282015260420190565b90565b968752602087019590955260408601939093526060850191909152608084015260a083015260c082015260e00190565b6001600160f81b031960f88a811b8216835289811b821660018401526001600160e01b031960e08a901b16600284015287901b1660068201526001600160601b0319606086901b1660078201526001600160f01b031960f085811b8216601b84015284901b16601d82015260006150b3601f830184614f00565b50602f0198975050505050505050565b6001600160f81b031960f88a811b8216835289811b821660018401526001600160e01b031960e08a901b16600284015287901b1660068201526001600160f01b031960f086811b8216600784015285901b1660098201526001600160801b0319608084901b16600b82015260006150b3601b830184614eb5565b6001600160a01b0391909116815260200190565b6001600160a01b0393841681529190921660208201526cffffffffffffffffffffffffff909116604082015260600190565b60006001600160a01b038716825267ffffffffffffffff86166020830152600c85106151ab57fe5b84604083015260a0606083015283518060a08401526151d18160c0850160208801615b79565b608083019390935250601f91909101601f19160160c001949350505050565b6001600160a01b0393909316835290151560208301521515604082015260600190565b6001600160a01b039290921682526001600160801b0316602082015260400190565b600061028080835261524981840189614ec6565b905060208382038185015261525e8289614ec6565b84810360408601528751808252828901935090820190845b8181101561529557845160ff1683529383019391830191600101615276565b505084810360608601526152a98188614ec6565b9350506080840191508460005b60108110156152d3578151845292820192908201906001016152b6565b505050509695505050505050565b901515815260200190565b941515855292151560208501526001600160a01b039190911660408401521515606083015261ffff16608082015260a00190565b90815260200190565b9384526001600160601b031992909216602084015263ffffffff908116604084015216606082015260800190565b9485526020850193909352604084019190915260608301526001600160a01b0316608082015260a00190565b6001600160a01b0395861681529390941660208401526001600160801b039182166040840152166060820152901515608082015260a00190565b602080825260029082015261339960f11b604082015260600190565b6020808252600190820152600360fc1b604082015260600190565b6020808252600190820152606360f81b604082015260600190565b602080825260029082015261783160f01b604082015260600190565b602080825260029082015261673160f01b604082015260600190565b602080825260029082015261653160f01b604082015260600190565b6020808252600190820152600d60fa1b604082015260600190565b602080825260029082015261783360f01b604082015260600190565b602080825260029082015261653360f01b604082015260600190565b602080825260029082015261683160f01b604082015260600190565b602080825260029082015261359960f11b604082015260600190565b602080825260029082015261311960f11b604082015260600190565b602080825260029082015261673360f01b604082015260600190565b602080825260029082015261613160f01b604082015260600190565b60208082526002908201526106d360f41b604082015260600190565b602080825260029082015261623160f01b604082015260600190565b602080825260029082015261613360f01b604082015260600190565b602080825260029082015261369960f11b604082015260600190565b602080825260029082015261064360f41b604082015260600190565b6020808252600290820152616b3160f01b604082015260600190565b602080825260029082015261683360f01b604082015260600190565b602080825260029082015261329b60f11b604082015260600190565b602080825260029082015261065360f41b604082015260600190565b602080825260029082015261653560f01b604082015260600190565b60208082526018908201527f4f503a20696e76616c6964206465706f73697420686173680000000000000000604082015260600190565b6020808252600190820152601b60fa1b604082015260600190565b602080825260029082015261067360f41b604082015260600190565b602080825260029082015261349960f11b604082015260600190565b6020808252600290820152616d3360f01b604082015260600190565b602080825260029082015261078360f41b604082015260600190565b6020808252600290820152616d3160f01b604082015260600190565b602080825260029082015261061360f41b604082015260600190565b602080825260029082015261643160f01b604082015260600190565b602080825260029082015261341960f11b604082015260600190565b60208082526019908201527f4f503a20696e76616c69642066756c6c45786974206861736800000000000000604082015260600190565b60208082526013908201527f4f503a20696e76616c6964206465706f73697400000000000000000000000000604082015260600190565b602080825260029082015261309960f11b604082015260600190565b6020808252600290820152616e3160f01b604082015260600190565b6020808252600190820152601960f91b604082015260600190565b602080825260029082015261194d60f21b604082015260600190565b602080825260029082015261371960f11b604082015260600190565b602080825260029082015261066360f41b604082015260600190565b6020808252600f908201527f4f503a206e6f74206465706f7369740000000000000000000000000000000000604082015260600190565b60208082526002908201526106e360f41b604082015260600190565b602080825260029082015261184d60f21b604082015260600190565b6020808252600190820152603560f81b604082015260600190565b602080825260029082015261663160f01b604082015260600190565b60208082526002908201526106b360f41b604082015260600190565b602080825260029082015261331960f11b604082015260600190565b602080825260029082015261068360f41b604082015260600190565b602080825260029082015261062360f41b604082015260600190565b602080825260029082015261693160f01b604082015260600190565b6020808252600290820152613c1960f11b604082015260600190565b60208082526010908201527f4f503a206e6f742066756c6c4578697400000000000000000000000000000000604082015260600190565b60208082526014908201527f4f503a20696e76616c69642066756c6c45786974000000000000000000000000604082015260600190565b602080825260029082015261329960f11b604082015260600190565b600060e08201905063ffffffff835116825267ffffffffffffffff602084015116602083015260408301516040830152606083015160608301526080830151608083015260a083015160a083015260c083015160c083015292915050565b6001600160801b0391909116815260200190565b61ffff91909116815260200190565b63ffffffff91909116815260200190565b63ffffffff92831681529116602082015260400190565b67ffffffffffffffff91909116815260200190565b60405181810167ffffffffffffffff81118282101715615b5357fe5b604052919050565b600067ffffffffffffffff821115615b6f57fe5b5060209081020190565b60005b83811015615b94578181015183820152602001615b7c565b83811115615ba3576000848401525b50505050565b6001600160a01b03811681146120b757600080fd5b80151581146120b757600080fd5b6001600160801b03811681146120b757600080fdfe8e94fed44239eb2314ab7a406345e6c5a8f0ccedf3b600de3d004e672c33abf4a26469706673582212204417c1afdce4358e54079e7eb1d7046350595669cc46e7c7824ad595d22bd17264736f6c63430007060033",
  "linkReferences": {},
  "deployedLinkReferences": {}
}