{
  "_format": "hh-sol-artifact-1",
  "contractName": "ZkSync",
  "sourceName": "cache/solpp-generated-contracts/ZkSync.sol",
  "abi": [
    {
      "anonymous": false,
      "inputs": [
        {
          "indexed": true,
          "internalType": "address",
          "name": "accepter",
          "type": "address"
        },
        {
          "indexed": true,
          "internalType": "address",
          "name": "receiver",
          "type": "address"
        },
        {
          "indexed": true,
          "internalType": "uint16",
          "name": "tokenId",
          "type": "uint16"
        },
        {
          "indexed": false,
          "internalType": "uint128",
          "name": "amount",
          "type": "uint128"
        },
        {
          "indexed": false,
          "internalType": "uint128",
          "name": "fee",
          "type": "uint128"
        },
        {
          "indexed": false,
          "internalType": "uint32",
          "name": "nonce",
          "type": "uint32"
        }
      ],
      "name": "Accept",
      "type": "event"
    },
    {
      "anonymous": false,
      "inputs": [
        {
          "indexed": true,
          "internalType": "address",
          "name": "pair",
          "type": "address"
        },
        {
          "indexed": true,
          "internalType": "uint16",
          "name": "tokenId",
          "type": "uint16"
        },
        {
          "indexed": false,
          "internalType": "uint128",
          "name": "amount",
          "type": "uint128"
        }
      ],
      "name": "AddLiquidity",
      "type": "event"
    },
    {
      "anonymous": false,
      "inputs": [
        {
          "indexed": true,
          "internalType": "uint32",
          "name": "blockNumber",
          "type": "uint32"
        }
      ],
      "name": "BlockCommit",
      "type": "event"
    },
    {
      "anonymous": false,
      "inputs": [
        {
          "indexed": true,
          "internalType": "uint32",
          "name": "blockNumber",
          "type": "uint32"
        }
      ],
      "name": "BlockVerification",
      "type": "event"
    },
    {
      "anonymous": false,
      "inputs": [
        {
          "indexed": false,
          "internalType": "uint32",
          "name": "totalBlocksVerified",
          "type": "uint32"
        },
        {
          "indexed": false,
          "internalType": "uint32",
          "name": "totalBlocksCommitted",
          "type": "uint32"
        }
      ],
      "name": "BlocksRevert",
      "type": "event"
    },
    {
      "anonymous": false,
      "inputs": [
        {
          "indexed": true,
          "internalType": "uint16",
          "name": "tokenId",
          "type": "uint16"
        },
        {
          "indexed": false,
          "internalType": "uint128",
          "name": "amount",
          "type": "uint128"
        }
      ],
      "name": "Deposit",
      "type": "event"
    },
    {
      "anonymous": false,
      "inputs": [
        {
          "indexed": true,
          "internalType": "uint32",
          "name": "zkSyncBlockId",
          "type": "uint32"
        },
        {
          "indexed": true,
          "internalType": "uint32",
          "name": "accountId",
          "type": "uint32"
        },
        {
          "indexed": false,
          "internalType": "address",
          "name": "owner",
          "type": "address"
        },
        {
          "indexed": true,
          "internalType": "uint16",
          "name": "tokenId",
          "type": "uint16"
        },
        {
          "indexed": false,
          "internalType": "uint128",
          "name": "amount",
          "type": "uint128"
        }
      ],
      "name": "DepositCommit",
      "type": "event"
    },
    {
      "anonymous": false,
      "inputs": [],
      "name": "ExodusMode",
      "type": "event"
    },
    {
      "anonymous": false,
      "inputs": [
        {
          "indexed": true,
          "internalType": "address",
          "name": "sender",
          "type": "address"
        },
        {
          "indexed": false,
          "internalType": "uint32",
          "name": "nonce",
          "type": "uint32"
        },
        {
          "indexed": false,
          "internalType": "bytes",
          "name": "fact",
          "type": "bytes"
        }
      ],
      "name": "FactAuth",
      "type": "event"
    },
    {
      "anonymous": false,
      "inputs": [
        {
          "indexed": true,
          "internalType": "uint32",
          "name": "zkSyncBlockId",
          "type": "uint32"
        },
        {
          "indexed": true,
          "internalType": "uint32",
          "name": "accountId",
          "type": "uint32"
        },
        {
          "indexed": false,
          "internalType": "address",
          "name": "owner",
          "type": "address"
        },
        {
          "indexed": true,
          "internalType": "uint16",
          "name": "tokenId",
          "type": "uint16"
        },
        {
          "indexed": false,
          "internalType": "uint128",
          "name": "amount",
          "type": "uint128"
        }
      ],
      "name": "FullExitCommit",
      "type": "event"
    },
    {
      "anonymous": false,
      "inputs": [
        {
          "indexed": false,
          "internalType": "address",
          "name": "sender",
          "type": "address"
        },
        {
          "indexed": false,
          "internalType": "uint64",
          "name": "serialId",
          "type": "uint64"
        },
        {
          "indexed": false,
          "internalType": "enum Operations.OpType",
          "name": "opType",
          "type": "uint8"
        },
        {
          "indexed": false,
          "internalType": "bytes",
          "name": "pubData",
          "type": "bytes"
        },
        {
          "indexed": false,
          "internalType": "uint256",
          "name": "expirationBlock",
          "type": "uint256"
        }
      ],
      "name": "NewPriorityRequest",
      "type": "event"
    },
    {
      "anonymous": false,
      "inputs": [
        {
          "indexed": true,
          "internalType": "address",
          "name": "sender",
          "type": "address"
        },
        {
          "indexed": false,
          "internalType": "uint128",
          "name": "amountIn",
          "type": "uint128"
        },
        {
          "indexed": false,
          "internalType": "uint128",
          "name": "amountOutMin",
          "type": "uint128"
        },
        {
          "indexed": false,
          "internalType": "uint16",
          "name": "withdrawFee",
          "type": "uint16"
        },
        {
          "indexed": true,
          "internalType": "uint16",
          "name": "fromTokenId",
          "type": "uint16"
        },
        {
          "indexed": false,
          "internalType": "uint8",
          "name": "toChainId",
          "type": "uint8"
        },
        {
          "indexed": false,
          "internalType": "uint16",
          "name": "toTokenId",
          "type": "uint16"
        },
        {
          "indexed": false,
          "internalType": "address",
          "name": "to",
          "type": "address"
        },
        {
          "indexed": false,
          "internalType": "uint32",
          "name": "nonce",
          "type": "uint32"
        }
      ],
      "name": "QuickSwap",
      "type": "event"
    },
    {
      "anonymous": false,
      "inputs": [
        {
          "indexed": true,
          "internalType": "address",
          "name": "pair",
          "type": "address"
        },
        {
          "indexed": true,
          "internalType": "uint16",
          "name": "tokenId",
          "type": "uint16"
        },
        {
          "indexed": false,
          "internalType": "uint128",
          "name": "lpAmount",
          "type": "uint128"
        }
      ],
      "name": "RemoveLiquidity",
      "type": "event"
    },
    {
      "anonymous": false,
      "inputs": [
        {
          "indexed": true,
          "internalType": "uint16",
          "name": "tokenId",
          "type": "uint16"
        },
        {
          "indexed": false,
          "internalType": "uint128",
          "name": "amount",
          "type": "uint128"
        },
        {
          "indexed": false,
          "internalType": "uint8",
          "name": "toChainId",
          "type": "uint8"
        }
      ],
      "name": "TokenMapping",
      "type": "event"
    },
    {
      "anonymous": false,
      "inputs": [
        {
          "indexed": true,
          "internalType": "uint16",
          "name": "tokenId",
          "type": "uint16"
        },
        {
          "indexed": false,
          "internalType": "uint128",
          "name": "amount",
          "type": "uint128"
        }
      ],
      "name": "Withdrawal",
      "type": "event"
    },
    {
      "stateMutability": "payable",
      "type": "fallback"
    },
    {
      "inputs": [
        {
          "internalType": "bytes32",
          "name": "",
          "type": "bytes32"
        }
      ],
      "name": "accepts",
      "outputs": [
        {
          "internalType": "address",
          "name": "",
          "type": "address"
        }
      ],
      "stateMutability": "view",
      "type": "function"
    },
    {
      "inputs": [
        {
          "internalType": "address",
          "name": "_zkSyncAddress",
          "type": "address"
        },
        {
          "internalType": "contract IERC20",
          "name": "_token",
          "type": "address"
        },
        {
          "internalType": "uint104",
          "name": "_amount",
          "type": "uint104"
        },
        {
          "internalType": "address",
          "name": "_pair",
          "type": "address"
        },
        {
          "internalType": "uint104",
          "name": "_minLpAmount",
          "type": "uint104"
        }
      ],
      "name": "addLiquidity",
      "outputs": [],
      "stateMutability": "nonpayable",
      "type": "function"
    },
    {
      "inputs": [
        {
          "internalType": "address",
          "name": "",
          "type": "address"
        },
        {
          "internalType": "uint32",
          "name": "",
          "type": "uint32"
        }
      ],
      "name": "authFacts",
      "outputs": [
        {
          "internalType": "bytes32",
          "name": "",
          "type": "bytes32"
        }
      ],
      "stateMutability": "view",
      "type": "function"
    },
    {
      "inputs": [
        {
          "internalType": "uint64",
          "name": "_n",
          "type": "uint64"
        },
        {
          "internalType": "bytes[]",
          "name": "_depositsPubdata",
          "type": "bytes[]"
        }
      ],
      "name": "cancelOutstandingDepositsForExodusMode",
      "outputs": [],
      "stateMutability": "nonpayable",
      "type": "function"
    },
    {
      "inputs": [
        {
          "internalType": "contract IERC20",
          "name": "_token",
          "type": "address"
        },
        {
          "internalType": "uint104",
          "name": "_amount",
          "type": "uint104"
        },
        {
          "internalType": "address",
          "name": "_zkSyncAddress",
          "type": "address"
        }
      ],
      "name": "depositERC20",
      "outputs": [],
      "stateMutability": "nonpayable",
      "type": "function"
    },
    {
      "inputs": [
        {
          "internalType": "address",
          "name": "_zkSyncAddress",
          "type": "address"
        }
      ],
      "name": "depositETH",
      "outputs": [],
      "stateMutability": "payable",
      "type": "function"
    },
    {
      "inputs": [],
      "name": "exodusMode",
      "outputs": [
        {
          "internalType": "bool",
          "name": "",
          "type": "bool"
        }
      ],
      "stateMutability": "view",
      "type": "function"
    },
    {
      "inputs": [],
      "name": "firstPriorityRequestId",
      "outputs": [
        {
          "internalType": "uint64",
          "name": "",
          "type": "uint64"
        }
      ],
      "stateMutability": "view",
      "type": "function"
    },
    {
      "inputs": [],
      "name": "getNoticePeriod",
      "outputs": [
        {
          "internalType": "uint256",
          "name": "",
          "type": "uint256"
        }
      ],
      "stateMutability": "pure",
      "type": "function"
    },
    {
      "inputs": [
        {
          "internalType": "address",
          "name": "_address",
          "type": "address"
        },
        {
          "internalType": "address",
          "name": "_token",
          "type": "address"
        }
      ],
      "name": "getPendingBalance",
      "outputs": [
        {
          "internalType": "uint128",
          "name": "",
          "type": "uint128"
        }
      ],
      "stateMutability": "view",
      "type": "function"
    },
    {
      "inputs": [],
      "name": "governance",
      "outputs": [
        {
          "internalType": "contract Governance",
          "name": "",
          "type": "address"
        }
      ],
      "stateMutability": "view",
      "type": "function"
    },
    {
      "inputs": [
        {
          "internalType": "bytes",
          "name": "initializationParameters",
          "type": "bytes"
        }
      ],
      "name": "initialize",
      "outputs": [],
      "stateMutability": "nonpayable",
      "type": "function"
    },
    {
      "inputs": [],
      "name": "isReadyForUpgrade",
      "outputs": [
        {
          "internalType": "bool",
          "name": "",
          "type": "bool"
        }
      ],
      "stateMutability": "view",
      "type": "function"
    },
    {
      "inputs": [
        {
          "internalType": "address",
          "name": "_zkSyncAddress",
          "type": "address"
        },
        {
          "internalType": "address",
          "name": "_to",
          "type": "address"
        },
        {
          "internalType": "uint104",
          "name": "_amount",
          "type": "uint104"
        },
        {
          "internalType": "contract IERC20",
          "name": "_token",
          "type": "address"
        },
        {
          "internalType": "uint8",
          "name": "_toChainId",
          "type": "uint8"
        },
        {
          "internalType": "uint32",
          "name": "_nonce",
          "type": "uint32"
        },
        {
          "internalType": "uint16",
          "name": "_withdrawFee",
          "type": "uint16"
        }
      ],
      "name": "mappingToken",
      "outputs": [],
      "stateMutability": "nonpayable",
      "type": "function"
    },
    {
      "inputs": [
        {
          "internalType": "uint32",
          "name": "",
          "type": "uint32"
        },
        {
          "internalType": "uint16",
          "name": "",
          "type": "uint16"
        }
      ],
      "name": "performedExodus",
      "outputs": [
        {
          "internalType": "bool",
          "name": "",
          "type": "bool"
        }
      ],
      "stateMutability": "view",
      "type": "function"
    },
    {
      "inputs": [
        {
          "internalType": "address",
          "name": "_zkSyncAddress",
          "type": "address"
        },
        {
          "internalType": "uint32",
          "name": "_nftTokenId",
          "type": "uint32"
        },
        {
          "internalType": "uint104",
          "name": "_minAmount",
          "type": "uint104"
        }
      ],
      "name": "removeLiquidity",
      "outputs": [],
      "stateMutability": "nonpayable",
      "type": "function"
    },
    {
      "inputs": [
        {
          "internalType": "uint32",
          "name": "_accountId",
          "type": "uint32"
        },
        {
          "internalType": "address",
          "name": "_token",
          "type": "address"
        }
      ],
      "name": "requestFullExit",
      "outputs": [],
      "stateMutability": "nonpayable",
      "type": "function"
    },
    {
      "inputs": [
        {
          "internalType": "address",
          "name": "_zkSyncAddress",
          "type": "address"
        },
        {
          "internalType": "uint104",
          "name": "_amountOutMin",
          "type": "uint104"
        },
        {
          "internalType": "uint16",
          "name": "_withdrawFee",
          "type": "uint16"
        },
        {
          "internalType": "uint8",
          "name": "_toChainId",
          "type": "uint8"
        },
        {
          "internalType": "uint16",
          "name": "_toTokenId",
          "type": "uint16"
        },
        {
          "internalType": "address",
          "name": "_to",
          "type": "address"
        },
        {
          "internalType": "uint32",
          "name": "_nonce",
          "type": "uint32"
        }
      ],
      "name": "swapExactETHForTokens",
      "outputs": [],
      "stateMutability": "payable",
      "type": "function"
    },
    {
      "inputs": [
        {
          "internalType": "address",
          "name": "_zkSyncAddress",
          "type": "address"
        },
        {
          "internalType": "uint104",
          "name": "_amountIn",
          "type": "uint104"
        },
        {
          "internalType": "uint104",
          "name": "_amountOutMin",
          "type": "uint104"
        },
        {
          "internalType": "uint16",
          "name": "_withdrawFee",
          "type": "uint16"
        },
        {
          "internalType": "contract IERC20",
          "name": "_fromToken",
          "type": "address"
        },
        {
          "internalType": "uint8",
          "name": "_toChainId",
          "type": "uint8"
        },
        {
          "internalType": "uint16",
          "name": "_toTokenId",
          "type": "uint16"
        },
        {
          "internalType": "address",
          "name": "_to",
          "type": "address"
        },
        {
          "internalType": "uint32",
          "name": "_nonce",
          "type": "uint32"
        }
      ],
      "name": "swapExactTokensForTokens",
      "outputs": [],
      "stateMutability": "nonpayable",
      "type": "function"
    },
    {
      "inputs": [],
      "name": "totalBlocksCommitted",
      "outputs": [
        {
          "internalType": "uint32",
          "name": "",
          "type": "uint32"
        }
      ],
      "stateMutability": "view",
      "type": "function"
    },
    {
      "inputs": [],
      "name": "totalBlocksExecuted",
      "outputs": [
        {
          "internalType": "uint32",
          "name": "",
          "type": "uint32"
        }
      ],
      "stateMutability": "view",
      "type": "function"
    },
    {
      "inputs": [],
      "name": "totalBlocksProven",
      "outputs": [
        {
          "internalType": "uint32",
          "name": "",
          "type": "uint32"
        }
      ],
      "stateMutability": "view",
      "type": "function"
    },
    {
      "inputs": [],
      "name": "totalCommittedPriorityRequests",
      "outputs": [
        {
          "internalType": "uint64",
          "name": "",
          "type": "uint64"
        }
      ],
      "stateMutability": "view",
      "type": "function"
    },
    {
      "inputs": [],
      "name": "totalOpenPriorityRequests",
      "outputs": [
        {
          "internalType": "uint64",
          "name": "",
          "type": "uint64"
        }
      ],
      "stateMutability": "view",
      "type": "function"
    },
    {
      "inputs": [
        {
          "internalType": "bytes",
          "name": "upgradeParameters",
          "type": "bytes"
        }
      ],
      "name": "upgrade",
      "outputs": [],
      "stateMutability": "nonpayable",
      "type": "function"
    },
    {
      "inputs": [],
      "name": "upgradeCanceled",
      "outputs": [],
      "stateMutability": "nonpayable",
      "type": "function"
    },
    {
      "inputs": [],
      "name": "upgradeFinishes",
      "outputs": [],
      "stateMutability": "nonpayable",
      "type": "function"
    },
    {
      "inputs": [],
      "name": "upgradeNoticePeriodStarted",
      "outputs": [],
      "stateMutability": "nonpayable",
      "type": "function"
    },
    {
      "inputs": [],
      "name": "upgradePreparationStarted",
      "outputs": [],
      "stateMutability": "nonpayable",
      "type": "function"
    },
    {
      "inputs": [],
      "name": "vault",
      "outputs": [
        {
          "internalType": "contract IVault",
          "name": "",
          "type": "address"
        }
      ],
      "stateMutability": "view",
      "type": "function"
    },
    {
      "inputs": [],
      "name": "verifier",
      "outputs": [
        {
          "internalType": "contract Verifier",
          "name": "",
          "type": "address"
        }
      ],
      "stateMutability": "view",
      "type": "function"
    },
    {
      "inputs": [
        {
          "internalType": "address payable",
          "name": "_owner",
          "type": "address"
        },
        {
          "internalType": "address",
          "name": "_token",
          "type": "address"
        },
        {
          "internalType": "uint128",
          "name": "_amount",
          "type": "uint128"
        }
      ],
      "name": "withdrawPendingBalance",
      "outputs": [],
      "stateMutability": "nonpayable",
      "type": "function"
    },
    {
      "inputs": [],
      "name": "zkSyncBlock",
      "outputs": [
        {
          "internalType": "address",
          "name": "",
          "type": "address"
        }
      ],
      "stateMutability": "view",
      "type": "function"
    },
    {
      "stateMutability": "payable",
      "type": "receive"
    }
  ],
  "bytecode": "0x608060405234801561001057600080fd5b5061448c806100206000396000f3fe6080604052600436106101f25760003560e01c80637f8ce19f1161010d578063ab9b2adf116100a0578063d514da501161006f578063d514da5014610517578063e17376b514610537578063f223548714610557578063faf4d8cb1461056c578063fbfa77cf1461058157610201565b8063ab9b2adf146104c2578063b269b9ae14610410578063b7c129b4146104e2578063c57b22be1461050257610201565b80638ae20dc9116100dc5780638ae20dc91461044f5780638cf680951461046f5780639d3c03a51461048f578063a6943638146104af57610201565b80637f8ce19f146103f0578063871b8ff1146104105780638773334c146104255780638ad82b371461043a57610201565b806340e3200c11610185578063647b592311610154578063647b59231461038457806367708dae146103a657806378b91e70146103bb5780637efcfe85146103d057610201565b806340e3200c14610302578063439fab91146103225780635aa6e675146103425780635aca41f61461035757610201565b80632b7ac3f3116101c15780632b7ac3f3146102a35780632d2da806146102b857806334f6bb1c146102cb5780633b154b73146102ed57610201565b80631914f44714610209578063253946451461023f578063264c09121461025f5780632a3174f41461028157610201565b36610201576101ff610596565b005b6101ff610596565b34801561021557600080fd5b50610229610224366004613870565b6105ed565b6040516102369190613e28565b60405180910390f35b34801561024b57600080fd5b506101ff61025a366004613888565b610608565b34801561026b57600080fd5b506102746106a7565b6040516102369190613f00565b34801561028d57600080fd5b506102966106b0565b6040516102369190613f0b565b3480156102af57600080fd5b506102296106b5565b6101ff6102c636600461348f565b6106c4565b3480156102d757600080fd5b506102e06107e7565b60405161023691906143b0565b3480156102f957600080fd5b506101ff6107fd565b34801561030e57600080fd5b506101ff61031d3660046136a7565b6107ff565b34801561032e57600080fd5b506101ff61033d366004613888565b610a43565b34801561034e57600080fd5b50610229610b46565b34801561036357600080fd5b50610377610372366004613574565b610b55565b60405161023691906142ec565b34801561039057600080fd5b50610399610c24565b604051610236919061439f565b3480156103b257600080fd5b506102e0610c30565b3480156103c757600080fd5b506101ff610c3f565b3480156103dc57600080fd5b506101ff6103eb366004613a44565b610c54565b3480156103fc57600080fd5b5061027461040b366004613a17565b6111db565b34801561041c57600080fd5b506101ff6111fb565b34801561043157600080fd5b5061027461120a565b34801561044657600080fd5b50610229611214565b34801561045b57600080fd5b5061029661046a3660046137dd565b611223565b34801561047b57600080fd5b506101ff61048a36600461380a565b611240565b34801561049b57600080fd5b506101ff6104aa3660046135ac565b61161c565b6101ff6104bd36600461375c565b6118ae565b3480156104ce57600080fd5b506101ff6104dd3660046139fa565b611a01565b3480156104ee57600080fd5b506101ff6104fd36600461363d565b611bb3565b34801561050e57600080fd5b506102e0611f7d565b34801561052357600080fd5b506101ff61053236600461352a565b611f93565b34801561054357600080fd5b506101ff6105523660046138f4565b6121f3565b34801561056357600080fd5b50610399612469565b34801561057857600080fd5b50610399612475565b34801561058d57600080fd5b50610229612489565b600f546001600160a01b0316806105c85760405162461bcd60e51b81526004016105bf906141c5565b60405180910390fd5b60405136600082376000803683855af43d806000843e8180156105e9578184f35b8184fd5b6010602052600090815260409020546001600160a01b031681565b600080516020614437833981519152548061064f576040805162461bcd60e51b815260206004820152600260248201526118b160f11b604482015290519081900360640190fd5b600060008051602061443783398151915281905561066f8385018561348f565b600f80546001600160a01b0319166001600160a01b039290921691909117905550506001600080516020614437833981519152555050565b60085460ff1681565b600090565b6002546001600160a01b031681565b6106cc612498565b600034116106ec5760405162461bcd60e51b81526004016105bf9061417a565b6004546040516000916001600160a01b031690349061070a90613b7f565b60006040518083038185875af1925050503d8060008114610747576040519150601f19603f3d011682016040523d82523d6000602084013e61074c565b606091505b505090508061076d5760405162461bcd60e51b81526004016105bf90613f59565b6004805460405163011fab8160e31b81526001600160a01b03909116916308fd5c089161079d9160009101613f14565b600060405180830381600087803b1580156107b757600080fd5b505af11580156107cb573d6000803e3d6000fd5b505050506107e360006107dd346124d4565b8461251b565b5050565b600a54600160801b90046001600160401b031681565b565b610807612498565b6000886001600160681b0316116108305760405162461bcd60e51b81526004016105bf90613fe2565b61271061ffff8716106108555760405162461bcd60e51b81526004016105bf90614103565b6003546040516375698bb160e11b81526000916001600160a01b03169063ead3176290610886908990600401613e28565b60206040518083038186803b15801561089e57600080fd5b505afa1580156108b2573d6000803e3d6000fd5b505050506040513d601f19601f820116820180604052508101906108d691906139c2565b60035460405163f3a65bf960e01b81529192506001600160a01b03169063f3a65bf990610907908490600401613f14565b60206040518083038186803b15801561091f57600080fd5b505afa158015610933573d6000803e3d6000fd5b505050506040513d601f19601f820116820180604052508101906109579190613850565b156109745760405162461bcd60e51b81526004016105bf906141aa565b60045461099790879033906001600160a01b03166001600160681b038d166125ae565b6109b35760405162461bcd60e51b81526004016105bf90613f3e565b6004805460405163011fab8160e31b81526001600160a01b03909116916308fd5c08916109e291859101613f14565b600060405180830381600087803b1580156109fc57600080fd5b505af1158015610a10573d6000803e3d6000fd5b50505050610a378a8a6001600160681b03168a6001600160681b03168a858a8a8a8a6126dd565b50505050505050505050565b610a4b6127db565b600080808080610a5d868801886134c7565b600280546001600160a01b038087166001600160a01b03199283161790925560038054838916908316179055600f805483871690831617905560048054928516929091169190911790556040805160c0810182526000808252602082018190527fc5d2460186f7233c927e7db2dcc703c0e500b653ca82273b7bfad8045d85a47092820192909252606081018290526080810183905260a081019190915294995092975090955093509150610b11816127ef565b60008052600b6020527fdf7de25b7f1fd6d0b5205f0e18f1f35bd7b8d84cce336588d184533ce43a6f76555050505050505050565b6003546001600160a01b031681565b6000806001600160a01b03831615610bea576003546040516375698bb160e11b81526001600160a01b039091169063ead3176290610b97908690600401613e28565b60206040518083038186803b158015610baf57600080fd5b505afa158015610bc3573d6000803e3d6000fd5b505050506040513d601f19601f82011682018060405250810190610be791906139c2565b90505b60056000610bf8868461281f565b6001600160501b03191681526020810191909152604001600020546001600160801b0316949350505050565b600c5463ffffffff1681565b600a546001600160401b031681565b6000805460ff19166001908117909155429055565b6000805160206144378339815191525480610c9b576040805162461bcd60e51b815260206004820152600260248201526118b160f11b604482015290519081900360640190fd5b60006000805160206144378339815191525560085460ff16610ccf5760405162461bcd60e51b81526004016105bf9061427e565b600a54600090610cef90600160401b90046001600160401b03168561283c565b90508251816001600160401b031614610d1a5760405162461bcd60e51b81526004016105bf90613f23565b6000816001600160401b031611610d435760405162461bcd60e51b81526004016105bf90614234565b600a546000906001600160401b03165b600a546001600160401b039081168401811690821610156111795760016001600160401b0382166000908152600d6020526040902054600160e01b900460ff16600f811115610d9e57fe5b1480610dd75750600c6001600160401b0382166000908152600d6020526040902054600160e01b900460ff16600f811115610dd557fe5b145b80610e0f5750600d6001600160401b0382166000908152600d6020526040902054600160e01b900460ff16600f811115610e0d57fe5b145b80610e475750600e6001600160401b0382166000908152600d6020526040902054600160e01b900460ff16600f811115610e4557fe5b145b1561114b57600085836001600160401b031681518110610e6357fe5b6020908102919091018101516001600160401b0384166000908152600d90925260409091205490915060601b6001600160601b031916610ea282612866565b6001600160601b03191614610ec95760405162461bcd60e51b81526004016105bf90613f90565b6001600160401b0382166000908152600d60205260408120546001948501948291600160e01b900460ff16600f811115610eff57fe5b1415610f33576000610f1084612874565b9050610f248160600151826020015161281f565b9250806040015191505061110c565b600c6001600160401b0385166000908152600d6020526040902054600160e01b900460ff16600f811115610f6357fe5b1415610f97576000610f7484612901565b9050610f888160400151826060015161281f565b9250806080015191505061110c565b600d6001600160401b0385166000908152600d6020526040902054600160e01b900460ff16600f811115610fc757fe5b1415610ffb576000610fd884612a10565b9050610fec8160400151826080015161281f565b92508060a0015191505061110c565b600061100684612b09565b905061101a8160000151826040015161281f565b925080606001519150600360009054906101000a90046001600160a01b03166001600160a01b03166347ccca026040518163ffffffff1660e01b815260040160206040518083038186803b15801561107157600080fd5b505afa158015611085573d6000803e3d6000fd5b505050506040513d601f19601f820116820180604052508101906110a991906134ab565b6001600160a01b031663209b92158260c001516040518263ffffffff1660e01b81526004016110d8919061439f565b600060405180830381600087803b1580156110f257600080fd5b505af1158015611106573d6000803e3d6000fd5b50505050505b6001600160501b031991909116600090815260056020526040902080546001600160801b031981166001600160801b0391821690930116919091179055505b6001600160401b0381166000908152600d6020526040902080546001600160e81b0319169055600101610d53565b5050600a805467ffffffffffffffff60401b1967ffffffffffffffff1982166001600160401b039283168501831617908116600160401b9182900483169490940390911602919091179055505060016000805160206144378339815191525550565b600760209081526000928352604080842090915290825290205460ff1681565b6000805460ff19168155600155565b60085460ff161590565b600f546001600160a01b031681565b600960209081526000928352604080842090915290825290205481565b611248612498565b600354604080516323e6650160e11b815290516000926001600160a01b0316916347ccca02916004808301926020929190829003018186803b15801561128d57600080fd5b505afa1580156112a1573d6000803e3d6000fd5b505050506040513d601f19601f820116820180604052508101906112c591906134ab565b6001600160a01b031614156112ec5760405162461bcd60e51b81526004016105bf9061424f565b600354604080516323e6650160e11b8152905133926001600160a01b0316916347ccca02916004808301926020929190829003018186803b15801561133057600080fd5b505afa158015611344573d6000803e3d6000fd5b505050506040513d601f19601f8201168201806040525081019061136891906134ab565b6001600160a01b0316636352211e846040518263ffffffff1660e01b8152600401611393919061439f565b60206040518083038186803b1580156113ab57600080fd5b505afa1580156113bf573d6000803e3d6000fd5b505050506040513d601f19601f820116820180604052508101906113e391906134ab565b6001600160a01b0316146114095760405162461bcd60e51b81526004016105bf9061414b565b600360009054906101000a90046001600160a01b03166001600160a01b03166347ccca026040518163ffffffff1660e01b815260040160206040518083038186803b15801561145757600080fd5b505afa15801561146b573d6000803e3d6000fd5b505050506040513d601f19601f8201168201806040525081019061148f91906134ab565b6001600160a01b031663673ea8eb836040518263ffffffff1660e01b81526004016114ba919061439f565b600060405180830381600087803b1580156114d457600080fd5b505af11580156114e8573d6000803e3d6000fd5b505050506000600360009054906101000a90046001600160a01b03166001600160a01b03166347ccca026040518163ffffffff1660e01b815260040160206040518083038186803b15801561153c57600080fd5b505afa158015611550573d6000803e3d6000fd5b505050506040513d601f19601f8201168201806040525081019061157491906134ab565b6001600160a01b031663c5e53425846040518263ffffffff1660e01b815260040161159f919061439f565b60a060405180830381600087803b1580156115b957600080fd5b505af11580156115cd573d6000803e3d6000fd5b505050506040513d601f19601f820116820180604052508101906115f19190613931565b9050611616848260000151846001600160681b03168460400151856080015188612bd8565b50505050565b611624612498565b6000856001600160681b03161161164d5760405162461bcd60e51b81526004016105bf9061420c565b60ff831661166d5760405162461bcd60e51b81526004016105bf906141e1565b61271061ffff8216106116925760405162461bcd60e51b81526004016105bf90614103565b6003546040516375698bb160e11b81526000916001600160a01b03169063ead31762906116c3908890600401613e28565b60206040518083038186803b1580156116db57600080fd5b505afa1580156116ef573d6000803e3d6000fd5b505050506040513d601f19601f8201168201806040525081019061171391906139c2565b60035460405163f3a65bf960e01b81529192506001600160a01b03169063f3a65bf990611744908490600401613f14565b60206040518083038186803b15801561175c57600080fd5b505afa158015611770573d6000803e3d6000fd5b505050506040513d601f19601f820116820180604052508101906117949190613850565b156117b15760405162461bcd60e51b81526004016105bf906141aa565b60035460405163108480a360e01b81526001600160a01b039091169063108480a3906117e1908490600401613f14565b60206040518083038186803b1580156117f957600080fd5b505afa15801561180d573d6000803e3d6000fd5b505050506040513d601f19601f820116820180604052508101906118319190613850565b61184d5760405162461bcd60e51b81526004016105bf9061405e565b60045461187090869033906001600160a01b03166001600160681b038a166125ae565b61188c5760405162461bcd60e51b81526004016105bf90613f3e565b6118a48888886001600160681b031684888888612ca9565b5050505050505050565b6118b6612498565b600034116118d65760405162461bcd60e51b81526004016105bf90613fe2565b61271061ffff8616106118fb5760405162461bcd60e51b81526004016105bf90614103565b6004546040516000916001600160a01b031690349061191990613b7f565b60006040518083038185875af1925050503d8060008114611956576040519150601f19603f3d011682016040523d82523d6000602084013e61195b565b606091505b505090508061197c5760405162461bcd60e51b81526004016105bf90613f59565b6004805460405163011fab8160e31b81526001600160a01b03909116916308fd5c08916119ac9160009101613f14565b600060405180830381600087803b1580156119c657600080fd5b505af11580156119da573d6000803e3d6000fd5b505050506118a4886119eb346124d4565b896001600160681b03168960008a8a8a8a6126dd565b6000805160206144378339815191525480611a48576040805162461bcd60e51b815260206004820152600260248201526118b160f11b604482015290519081900360640190fd5b600060008051602061443783398151915255611a62612498565b62ffffff63ffffffff84161115611a8b5760405162461bcd60e51b81526004016105bf90614130565b60006001600160a01b03831615611b1f576003546040516375698bb160e11b81526001600160a01b039091169063ead3176290611acc908690600401613e28565b60206040518083038186803b158015611ae457600080fd5b505afa158015611af8573d6000803e3d6000fd5b505050506040513d601f19601f82011682018060405250810190611b1c91906139c2565b90505b6040805160808101825263ffffffff8616815233602082015261ffff831691810191909152600060608201819052611b5682612d71565b9050611b63600682612daa565b6000611b6f338561281f565b6001600160501b0319166000908152600560205260409020805460ff60801b191660ff60801b17905550506001600080516020614437833981519152555050505050565b611bbb612498565b6000836001600160681b031611611be45760405162461bcd60e51b81526004016105bf9061420c565b6003546040516375698bb160e11b81526000916001600160a01b03169063ead3176290611c15908890600401613e28565b60206040518083038186803b158015611c2d57600080fd5b505afa158015611c41573d6000803e3d6000fd5b505050506040513d601f19601f82011682018060405250810190611c6591906139c2565b60035460405163f3a65bf960e01b81529192506001600160a01b03169063f3a65bf990611c96908490600401613f14565b60206040518083038186803b158015611cae57600080fd5b505afa158015611cc2573d6000803e3d6000fd5b505050506040513d601f19601f82011682018060405250810190611ce69190613850565b15611d035760405162461bcd60e51b81526004016105bf906141aa565b600354604080516323e6650160e11b815290516000926001600160a01b0316916347ccca02916004808301926020929190829003018186803b158015611d4857600080fd5b505afa158015611d5c573d6000803e3d6000fd5b505050506040513d601f19601f82011682018060405250810190611d8091906134ab565b6001600160a01b03161415611da75760405162461bcd60e51b81526004016105bf9061424f565b600454611dca90869033906001600160a01b03166001600160681b0388166125ae565b611de65760405162461bcd60e51b81526004016105bf90613f3e565b6004805460405163011fab8160e31b81526001600160a01b03909116916308fd5c0891611e1591859101613f14565b600060405180830381600087803b158015611e2f57600080fd5b505af1158015611e43573d6000803e3d6000fd5b505050506000600360009054906101000a90046001600160a01b03166001600160a01b03166347ccca026040518163ffffffff1660e01b815260040160206040518083038186803b158015611e9757600080fd5b505afa158015611eab573d6000803e3d6000fd5b505050506040513d601f19601f82011682018060405250810190611ecf91906134ab565b6001600160a01b0316635753aef2888488886040518563ffffffff1660e01b8152600401611f009493929190613ec8565b602060405180830381600087803b158015611f1a57600080fd5b505af1158015611f2e573d6000803e3d6000fd5b505050506040513d601f19601f82011682018060405250810190611f5291906139de565b9050611f748783876001600160681b031687876001600160681b031686612f13565b50505050505050565b600a54600160401b90046001600160401b031681565b6000805160206144378339815191525480611fda576040805162461bcd60e51b815260206004820152600260248201526118b160f11b604482015290519081900360640190fd5b60006000805160206144378339815191528190556001600160a01b03841615612080576003546040516375698bb160e11b81526001600160a01b039091169063ead317629061202d908790600401613e28565b60206040518083038186803b15801561204557600080fd5b505afa158015612059573d6000803e3d6000fd5b505050506040513d601f19601f8201168201806040525081019061207d91906139c2565b90505b600061208c868361281f565b6001600160501b031981166000908152600560205260409020549091506001600160801b039081169085168110156120c2578094505b6000856001600160801b0316116120eb5760405162461bcd60e51b81526004016105bf90614027565b6120fe6001600160801b03821686612fd2565b6001600160501b031983166000908152600560205260409081902080546001600160801b0319166001600160801b03939093169290921790915560048054915163523c88e960e01b81526001600160a01b039092169163523c88e99161216a9187918c918b9101614371565b600060405180830381600087803b15801561218457600080fd5b505af1158015612198573d6000803e3d6000fd5b505050508261ffff167ff4bf32c167ee6e782944cd1db8174729b46adcd3bc732e282cc4a80793933154866040516121d091906142ec565b60405180910390a250505060016000805160206144378339815191525550505050565b600080516020614437833981519152548061223a576040805162461bcd60e51b815260206004820152600260248201526118b160f11b604482015290519081900360640190fd5b600060008051602061443783398151915255612254612498565b6000836001600160681b03161161227d5760405162461bcd60e51b81526004016105bf9061417a565b6003546040516375698bb160e11b81526000916001600160a01b03169063ead31762906122ae908890600401613e28565b60206040518083038186803b1580156122c657600080fd5b505afa1580156122da573d6000803e3d6000fd5b505050506040513d601f19601f820116820180604052508101906122fe91906139c2565b60035460405163f3a65bf960e01b81529192506001600160a01b03169063f3a65bf99061232f908490600401613f14565b60206040518083038186803b15801561234757600080fd5b505afa15801561235b573d6000803e3d6000fd5b505050506040513d601f19601f8201168201806040525081019061237f9190613850565b1561239c5760405162461bcd60e51b81526004016105bf906141aa565b6004546123bf90869033906001600160a01b03166001600160681b0388166125ae565b6123db5760405162461bcd60e51b81526004016105bf90613f3e565b6004805460405163011fab8160e31b81526001600160a01b03909116916308fd5c089161240a91859101613f14565b600060405180830381600087803b15801561242457600080fd5b505af1158015612438573d6000803e3d6000fd5b5050505061245081856001600160681b03168561251b565b5060016000805160206144378339815191525550505050565b60065463ffffffff1681565b600654640100000000900463ffffffff1681565b6004546001600160a01b031681565b60085460ff16156107fd576040805162461bcd60e51b81526020600482015260016024820152601360fa1b604482015290519081900360640190fd5b6000600160801b8210612513576040805162461bcd60e51b8152602060048201526002602482015261189b60f11b604482015290519081900360640190fd5b50805b919050565b60408051608081018252600080825261ffff861660208301526001600160801b038516928201929092526001600160a01b03831660608201529061255e82612ff9565b905061256b600182612daa565b8461ffff167f8f5f51448394699ad6a3b80cdadf4ec68c5d724c8c3fea09bea55b3c2d0e2dd08560405161259f91906142ec565b60405180910390a25050505050565b604080516001600160a01b0385811660248301528481166044830152606480830185905283518084039091018152608490920183526020820180516001600160e01b03166323b872dd60e01b17815292518251600094859485948b16939092909182918083835b602083106126345780518252601f199092019160209182019101612615565b6001836020036101000a0380198251168184511680821785525050505050509050019150506000604051808303816000865af19150503d8060008114612696576040519150601f19603f3d011682016040523d82523d6000602084013e61269b565b606091505b509150915060008151600014806126c557508180602001905160208110156126c257600080fd5b50515b90508280156126d15750805b98975050505050505050565b6000604051806101400160405280600060ff1681526020018660ff1681526020018b6001600160a01b031681526020018761ffff1681526020018a6001600160801b03168152602001846001600160a01b031681526020018561ffff168152602001896001600160801b031681526020018861ffff1681526020018363ffffffff168152509050600061276f82613020565b905061277c600c82612daa565b8661ffff168b6001600160a01b03167f103098d243ba0fabd7609c78ded20348ea8921e3e6944693694798ef32c89c778c8c8c8b8b8b8b6040516127c69796959493929190614300565b60405180910390a35050505050505050505050565b600160008051602061443783398151915255565b6000816040516020016128029190614299565b604051602081830303815290604052805190602001209050919050565b60a01b61ffff60a01b166001600160a01b03919091161760501b90565b6000816001600160401b0316836001600160401b03161061285d578161285f565b825b9392505050565b805160209091012060601b90565b61287c613359565b6001612888838261306a565b63ffffffff168352905061289c8382613083565b61ffff16602084015290506128b18382613093565b6001600160801b0316604084015290506128cb83826130a3565b6001600160a01b031660608401529050602b81146128fb5760405162461bcd60e51b81526004016105bf9061400c565b50919050565b612909613380565b600161291583826130b3565b60ff168352905061292683826130b3565b60ff166020840152905061293a83826130a3565b6001600160a01b0316604084015290506129548382613083565b61ffff16606084015290506129698382613093565b6001600160801b03166080840152905061298383826130a3565b6001600160a01b031660a0840152905061299d8382613083565b61ffff1660c084015290506129b28382613093565b6001600160801b031660e084015290506129cc8382613083565b61ffff1661010084015290506129e2838261306a565b63ffffffff166101208401529050605581146128fb5760405162461bcd60e51b81526004016105bf90614095565b612a186133d4565b6001612a2483826130b3565b60ff1683529050612a3583826130b3565b60ff1660208401529050612a4983826130a3565b6001600160a01b031660408401529050612a6383826130a3565b6001600160a01b031660608401529050612a7d8382613083565b61ffff1660808401529050612a928382613093565b6001600160801b031660a08401529050612aac8382613093565b6001600160801b031660c08401529050612ac6838261306a565b63ffffffff1660e08401529050612add8382613083565b61ffff166101008401529050605381146128fb5760405162461bcd60e51b81526004016105bf906140cc565b612b11613420565b6001612b1d83826130a3565b6001600160a01b031683529050612b3483826130b3565b60ff1660208401529050612b488382613083565b61ffff1660408401529050612b5d8382613093565b6001600160801b031660608401529050612b7783826130a3565b6001600160a01b031660808401529050612b918382613093565b6001600160801b031660a08401529050612bab838261306a565b63ffffffff1660c08401529050605081146128fb5760405162461bcd60e51b81526004016105bf90613fab565b60006040518060e00160405280886001600160a01b03168152602001600060ff1681526020018761ffff168152602001866001600160801b03168152602001856001600160a01b03168152602001846001600160801b031681526020018363ffffffff1681525090506000612c4c826130df565b9050612c59600f82612daa565b8661ffff16856001600160a01b03167f0953719a5e471fd889718f66f717f733be5983090e3380e7684825b7e6da5bf486604051612c9791906142ec565b60405180910390a35050505050505050565b6040805161012081018252600080825260ff861660208301526001600160a01b03808b1693830193909352918816606082015261ffff80871660808301526001600160801b03881660a083015260c0820183905263ffffffff851660e0830152831661010082015290612d1b82613115565b9050612d28600d82612daa565b8561ffff167fbf63ee7c4045d2509bc5b7f16764f612108ed16fd8d0dacd6e6e3adcc0de695e8887604051612d5e929190614355565b60405180910390a2505050505050505050565b6060600682516020808501516040808701519051612d9495949360009101613c73565b6040516020818303038152906040529050919050565b600a54436201fa4001906001600160401b03808216600160401b90920416016000612dd484612866565b90506040518060600160405280826bffffffffffffffffffffffff19168152602001846001600160401b0316815260200186600f811115612e1157fe5b90526001600160401b038084166000908152600d60209081526040918290208451815492860151909416600160a01b0267ffffffffffffffff60a01b1960609590951c6001600160a01b03199093169290921793909316178083559083015190829060ff60e01b1916600160e01b83600f811115612e8b57fe5b02179055509050507fd0943372c08b438a88d4b39d77216901079eda9ca59d45349841c099083b683033838787876001600160401b0316604051612ed3959493929190613e3c565b60405180910390a15050600a805460016001600160401b03600160401b808404821692909201160267ffffffffffffffff60401b19909116179055505050565b60006040518060e00160405280886001600160a01b03168152602001600060ff1681526020018761ffff168152602001866001600160801b03168152602001856001600160a01b03168152602001846001600160801b031681526020018363ffffffff1681525090506000612f878261315d565b9050612f94600e82612daa565b8661ffff16856001600160a01b03167f128b0910b0d5d230c97082eabe4e137e0cfe316700af860a5c2250663698d41188604051612c9791906142ec565b600061285f838360405180604001604052806002815260200161616160f01b815250613198565b6060600160208084015160408086015160608701519151612d949594600094939101613c10565b8051602080830151604080850151606086810151608088015160a089015160c08a01516101008b01516101208c01519751959a612d949a600c9a9199919897600093929101613d78565b60048101600061307a8484613242565b90509250929050565b60028101600061307a8484613290565b60108101600061307a84846132d3565b60148101600061307a8484613316565b6000808260010191508383815181106130c857fe5b602001015160f81c60f81b60f81c90509250929050565b6060600f8251602080850151604080870151608088015160a089015160c08a01519351612d949897969394600094909101613b82565b6060600d826000015183602001518460400151856060015186608001518760a0015160008960e001518a6101000151604051602001612d949a99989796959493929190613cd9565b6060600e8260000151836020015184604001518560600151866080015160008860c00151604051602001612d94989796959493929190613b82565b6000836001600160801b0316836001600160801b03161115829061323a5760405162461bcd60e51b81526004018080602001828103825283818151815260200191508051906020019080838360005b838110156131ff5781810151838201526020016131e7565b50505050905090810190601f16801561322c5780820380516001836020036101000a031916815260200191505b509250505060405180910390fd5b505050900390565b6000808260040190508084511015613285576040805162461bcd60e51b81526020600482015260016024820152602b60f91b604482015290519081900360640190fd5b929092015192915050565b6000808260020190508084511015613285576040805162461bcd60e51b81526020600482015260016024820152601560fa1b604482015290519081900360640190fd5b6000808260100190508084511015613285576040805162461bcd60e51b81526020600482015260016024820152605760f81b604482015290519081900360640190fd5b6000808260140190508084511015613285576040805162461bcd60e51b81526020600482015260016024820152602960f91b604482015290519081900360640190fd5b60408051608081018252600080825260208201819052918101829052606081019190915290565b6040805161014081018252600080825260208201819052918101829052606081018290526080810182905260a0810182905260c0810182905260e08101829052610100810182905261012081019190915290565b6040805161012081018252600080825260208201819052918101829052606081018290526080810182905260a0810182905260c0810182905260e0810182905261010081019190915290565b6040805160e081018252600080825260208201819052918101829052606081018290526080810182905260a0810182905260c081019190915290565b80356001600160681b038116811461251657600080fd5b8051612516816143ff565b803560ff8116811461251657600080fd5b6000602082840312156134a0578081fd5b813561285f816143e7565b6000602082840312156134bc578081fd5b815161285f816143e7565b600080600080600060a086880312156134de578081fd5b85356134e9816143e7565b945060208601356134f9816143e7565b93506040860135613509816143e7565b92506060860135613519816143e7565b949793965091946080013592915050565b60008060006060848603121561353e578283fd5b8335613549816143e7565b92506020840135613559816143e7565b91506040840135613569816143ff565b809150509250925092565b60008060408385031215613586578182fd5b8235613591816143e7565b915060208301356135a1816143e7565b809150509250929050565b600080600080600080600060e0888a0312156135c6578485fd5b87356135d1816143e7565b965060208801356135e1816143e7565b95506135ef6040890161345c565b945060608801356135ff816143e7565b935061360d6080890161347e565b925060a088013561361d81614424565b915060c088013561362d81614414565b8091505092959891949750929550565b600080600080600060a08688031215613654578283fd5b853561365f816143e7565b9450602086013561366f816143e7565b935061367d6040870161345c565b9250606086013561368d816143e7565b915061369b6080870161345c565b90509295509295909350565b60008060008060008060008060006101208a8c0312156136c5578283fd5b89356136d0816143e7565b98506136de60208b0161345c565b97506136ec60408b0161345c565b965060608a01356136fc81614414565b955060808a013561370c816143e7565b945061371a60a08b0161347e565b935060c08a013561372a81614414565b925060e08a013561373a816143e7565b91506101008a013561374b81614424565b809150509295985092959850929598565b600080600080600080600060e0888a031215613776578081fd5b8735613781816143e7565b965061378f6020890161345c565b9550604088013561379f81614414565b94506137ad6060890161347e565b935060808801356137bd81614414565b925060a08801356137cd816143e7565b915060c088013561362d81614424565b600080604083850312156137ef578182fd5b82356137fa816143e7565b915060208301356135a181614424565b60008060006060848603121561381e578081fd5b8335613829816143e7565b9250602084013561383981614424565b91506138476040850161345c565b90509250925092565b600060208284031215613861578081fd5b8151801515811461285f578182fd5b600060208284031215613881578081fd5b5035919050565b6000806020838503121561389a578182fd5b82356001600160401b03808211156138b0578384fd5b818501915085601f8301126138c3578384fd5b8135818111156138d1578485fd5b8660208285010111156138e2578485fd5b60209290920196919550909350505050565b600080600060608486031215613908578081fd5b8335613913816143e7565b92506139216020850161345c565b91506040840135613569816143e7565b600060a08284031215613942578081fd5b60405160a081018181106001600160401b038211171561395e57fe5b604052825161396c81614414565b8152602083015161397c816143ff565b6020820152604083015161398f816143e7565b60408201526060830151600581106139a5578283fd5b60608201526139b660808401613473565b60808201529392505050565b6000602082840312156139d3578081fd5b815161285f81614414565b6000602082840312156139ef578081fd5b815161285f81614424565b60008060408385031215613a0c578182fd5b823561359181614424565b60008060408385031215613a29578182fd5b8235613a3481614424565b915060208301356135a181614414565b6000806040808486031215613a57578283fd5b83356001600160401b038082168214613a6e578485fd5b9093506020908582013581811115613a84578485fd5b8601601f81018813613a94578485fd5b803582811115613aa057fe5b613aad84858302016143c4565b81815284810190838601885b84811015613b2957813586018d603f820112613ad3578a8bfd5b8881013588811115613ae157fe5b613af3601f8201601f19168b016143c4565b8181528f8c838501011115613b06578c8dfd5b818c84018c8301379081018a018c90528552509287019290870190600101613ab9565b50989b909a5098505050505050505050565b60601b6001600160601b0319169052565b60801b6001600160801b0319169052565b60f01b6001600160f01b0319169052565b60e01b6001600160e01b0319169052565b90565b600060ff60f81b808b60f81b1683526bffffffffffffffffffffffff19808b60601b166001850152818a60f81b16601585015261ffff60f01b8960f01b1660168501526001600160801b03199150818860801b166018850152808760601b16602885015250808560801b16603c84015250613c00604c830184613b6e565b5060500198975050505050505050565b60f89590951b6001600160f81b03191685526001600160e01b031993909316600185015260f09190911b6001600160f01b031916600584015260801b6001600160801b031916600783015260601b6001600160601b0319166017820152602b0190565b60f89590951b6001600160f81b031916855260e09390931b6001600160e01b031916600185015260609190911b6001600160601b031916600584015260f01b6001600160f01b031916601983015260801b6001600160801b031916601b820152602b0190565b6001600160f81b031960f88c811b821683528b811b821660018401528a901b1660028201526001600160601b0319606089811b8216600384015288901b1660178201526001600160f01b031960f087901b16602b8201526000613d3f602d830187613b4c565b613d4c603d830186613b4c565b613d59604d830185613b6e565b613d666051830184613b5d565b506053019a9950505050505050505050565b6001600160f81b031960f88d811b821683528c811b821660018401528b901b1660028201526001600160601b031960608a901b1660038201526001600160f01b031960f089901b1660178201526000613dd46019830189613b4c565b613de16029830188613b3b565b613dee603d830187613b5d565b613dfb603f830186613b4c565b613e08604f830185613b5d565b613e156051830184613b6e565b506055019b9a5050505050505050505050565b6001600160a01b0391909116815260200190565b600060018060a01b038716825260206001600160401b0387168184015260108610613e6357fe5b85604084015260a0606084015284518060a0850152825b81811015613e965786810183015185820160c001528201613e7a565b81811115613ea7578360c083870101525b5060808401949094525050601f91909101601f19160160c001949350505050565b6001600160a01b03948516815261ffff9390931660208401526001600160681b03919091166040830152909116606082015260800190565b901515815260200190565b90815260200190565b61ffff91909116815260200190565b6020808252600190820152604160f81b604082015260600190565b6020808252600190820152606360f81b604082015260600190565b6020808252601b908201527f5a6b53796e633a20657468207472616e73666572206661696c65640000000000604082015260600190565b6020808252600190820152606160f81b604082015260600190565b60208082526018908201527f4f7065726174696f6e733a2052656164204c314164644c510000000000000000604082015260600190565b60208082526010908201526f2d35a9bcb7319d1030b6b7bab73a24b760811b604082015260600190565b6020808252600190820152602760f91b604082015260600190565b60208082526017908201527f5a6b53796e633a20776974686472617720616d6f756e74000000000000000000604082015260600190565b60208082526019908201527f5a6b53796e633a206e6f74206d617070696e6720746f6b656e00000000000000604082015260600190565b6020808252601a908201527f4f7065726174696f6e733a205265616420517569636b53776170000000000000604082015260600190565b60208082526018908201527f4f7065726174696f6e733a2052656164204d617070696e670000000000000000604082015260600190565b6020808252601390820152725a6b53796e633a20776974686472617746656560681b604082015260600190565b6020808252600190820152606560f81b604082015260600190565b6020808252601590820152742d35a9bcb7319d103737ba1037333a1037bbb732b960591b604082015260600190565b602080825260169082015275169ad4de5b98ce8819195c1bdcda5d08185b5bdd5b9d60521b604082015260600190565b6020808252600190820152603160f91b604082015260600190565b602080825260029082015261066360f41b604082015260600190565b602080825260119082015270169ad4de5b98ce881d1bd0da185a5b9259607a1b604082015260600190565b6020808252600e908201526d169ad4de5b98ce88185b5bdd5b9d60921b604082015260600190565b6020808252600190820152603960f81b604082015260600190565b602080825260159082015274169ad4de5b98ce881b999d081b9bdd08195e1a5cdd605a1b604082015260600190565b6020808252600190820152600760fb1b604082015260600190565b600060c08201905063ffffffff83511682526001600160401b03602084015116602083015260408301516040830152606083015160608301526080830151608083015260a083015160a083015292915050565b6001600160801b0391909116815260200190565b6001600160801b03978816815295909616602086015261ffff938416604086015260ff92909216606085015290911660808301526001600160a01b031660a082015263ffffffff90911660c082015260e00190565b6001600160801b0392909216825260ff16602082015260400190565b61ffff9390931683526001600160a01b039190911660208301526001600160801b0316604082015260600190565b63ffffffff91909116815260200190565b6001600160401b0391909116815260200190565b6040518181016001600160401b03811182821017156143df57fe5b604052919050565b6001600160a01b03811681146143fc57600080fd5b50565b6001600160801b03811681146143fc57600080fd5b61ffff811681146143fc57600080fd5b63ffffffff811681146143fc57600080fdfe8e94fed44239eb2314ab7a406345e6c5a8f0ccedf3b600de3d004e672c33abf4a264697066735822122000ea70c18448634f4e7aaa7cbd2ab002c76888b59dba1393e01877642db32e6064736f6c63430007060033",
  "linkReferences": {},
  "deployedLinkReferences": {}
}