{
  "_format": "hh-sol-artifact-1",
  "contractName": "ZkLink",
  "sourceName": "cache/solpp-generated-contracts/ZkLink.sol",
  "abi": [
    {
      "inputs": [],
      "stateMutability": "nonpayable",
      "type": "constructor"
    },
    {
      "anonymous": false,
      "inputs": [
        {
          "indexed": true,
          "internalType": "uint32",
          "name": "blockNumber",
          "type": "uint32"
        }
      ],
      "name": "BlockCommit",
      "type": "event"
    },
    {
      "anonymous": false,
      "inputs": [
        {
          "indexed": true,
          "internalType": "uint32",
          "name": "blockNumber",
          "type": "uint32"
        }
      ],
      "name": "BlockVerification",
      "type": "event"
    },
    {
      "anonymous": false,
      "inputs": [
        {
          "indexed": false,
          "internalType": "uint32",
          "name": "totalBlocksVerified",
          "type": "uint32"
        },
        {
          "indexed": false,
          "internalType": "uint32",
          "name": "totalBlocksCommitted",
          "type": "uint32"
        }
      ],
      "name": "BlocksRevert",
      "type": "event"
    },
    {
      "anonymous": false,
      "inputs": [],
      "name": "ExodusMode",
      "type": "event"
    },
    {
      "anonymous": false,
      "inputs": [
        {
          "indexed": true,
          "internalType": "address",
          "name": "sender",
          "type": "address"
        },
        {
          "indexed": false,
          "internalType": "uint32",
          "name": "nonce",
          "type": "uint32"
        },
        {
          "indexed": false,
          "internalType": "bytes",
          "name": "fact",
          "type": "bytes"
        }
      ],
      "name": "FactAuth",
      "type": "event"
    },
    {
      "anonymous": false,
      "inputs": [
        {
          "indexed": false,
          "internalType": "address",
          "name": "sender",
          "type": "address"
        },
        {
          "indexed": false,
          "internalType": "uint64",
          "name": "serialId",
          "type": "uint64"
        },
        {
          "indexed": false,
          "internalType": "enum Operations.OpType",
          "name": "opType",
          "type": "uint8"
        },
        {
          "indexed": false,
          "internalType": "bytes",
          "name": "pubData",
          "type": "bytes"
        },
        {
          "indexed": false,
          "internalType": "uint256",
          "name": "expirationBlock",
          "type": "uint256"
        }
      ],
      "name": "NewPriorityRequest",
      "type": "event"
    },
    {
      "anonymous": false,
      "inputs": [
        {
          "indexed": true,
          "internalType": "uint16",
          "name": "tokenId",
          "type": "uint16"
        },
        {
          "indexed": false,
          "internalType": "uint128",
          "name": "amount",
          "type": "uint128"
        }
      ],
      "name": "Withdrawal",
      "type": "event"
    },
    {
      "anonymous": false,
      "inputs": [
        {
          "indexed": true,
          "internalType": "uint16",
          "name": "tokenId",
          "type": "uint16"
        },
        {
          "indexed": true,
          "internalType": "address",
          "name": "recepient",
          "type": "address"
        },
        {
          "indexed": false,
          "internalType": "uint128",
          "name": "amount",
          "type": "uint128"
        }
      ],
      "name": "WithdrawalPending",
      "type": "event"
    },
    {
      "inputs": [],
      "name": "activateExodusMode",
      "outputs": [
        {
          "internalType": "bool",
          "name": "",
          "type": "bool"
        }
      ],
      "stateMutability": "nonpayable",
      "type": "function"
    },
    {
      "inputs": [
        {
          "internalType": "address",
          "name": "",
          "type": "address"
        },
        {
          "internalType": "uint32",
          "name": "",
          "type": "uint32"
        }
      ],
      "name": "authFacts",
      "outputs": [
        {
          "internalType": "bytes32",
          "name": "",
          "type": "bytes32"
        }
      ],
      "stateMutability": "view",
      "type": "function"
    },
    {
      "inputs": [
        {
          "internalType": "uint64",
          "name": "_n",
          "type": "uint64"
        },
        {
          "internalType": "bytes[]",
          "name": "_depositsPubdata",
          "type": "bytes[]"
        }
      ],
      "name": "cancelOutstandingDepositsForExodusMode",
      "outputs": [],
      "stateMutability": "nonpayable",
      "type": "function"
    },
    {
      "inputs": [
        {
          "components": [
            {
              "internalType": "uint32",
              "name": "blockNumber",
              "type": "uint32"
            },
            {
              "internalType": "uint64",
              "name": "priorityOperations",
              "type": "uint64"
            },
            {
              "internalType": "bytes32",
              "name": "pendingOnchainOperationsHash",
              "type": "bytes32"
            },
            {
              "internalType": "uint256",
              "name": "timestamp",
              "type": "uint256"
            },
            {
              "internalType": "bytes32",
              "name": "stateHash",
              "type": "bytes32"
            },
            {
              "internalType": "bytes32",
              "name": "commitment",
              "type": "bytes32"
            }
          ],
          "internalType": "struct Storage.StoredBlockInfo",
          "name": "_lastCommittedBlockData",
          "type": "tuple"
        },
        {
          "components": [
            {
              "internalType": "bytes32",
              "name": "newStateHash",
              "type": "bytes32"
            },
            {
              "internalType": "bytes",
              "name": "publicData",
              "type": "bytes"
            },
            {
              "internalType": "uint256",
              "name": "timestamp",
              "type": "uint256"
            },
            {
              "components": [
                {
                  "internalType": "bytes",
                  "name": "ethWitness",
                  "type": "bytes"
                },
                {
                  "internalType": "uint32",
                  "name": "publicDataOffset",
                  "type": "uint32"
                }
              ],
              "internalType": "struct ZkLink.OnchainOperationData[]",
              "name": "onchainOperations",
              "type": "tuple[]"
            },
            {
              "internalType": "uint32",
              "name": "blockNumber",
              "type": "uint32"
            },
            {
              "internalType": "uint32",
              "name": "feeAccount",
              "type": "uint32"
            }
          ],
          "internalType": "struct ZkLink.CommitBlockInfo[]",
          "name": "_newBlocksData",
          "type": "tuple[]"
        }
      ],
      "name": "commitBlocks",
      "outputs": [],
      "stateMutability": "nonpayable",
      "type": "function"
    },
    {
      "inputs": [
        {
          "internalType": "contract IERC20",
          "name": "_token",
          "type": "address"
        },
        {
          "internalType": "uint104",
          "name": "_amount",
          "type": "uint104"
        },
        {
          "internalType": "address",
          "name": "_zkLinkAddress",
          "type": "address"
        },
        {
          "internalType": "uint8",
          "name": "_subAccountId",
          "type": "uint8"
        }
      ],
      "name": "depositERC20",
      "outputs": [],
      "stateMutability": "nonpayable",
      "type": "function"
    },
    {
      "inputs": [
        {
          "internalType": "address",
          "name": "_zkLinkAddress",
          "type": "address"
        },
        {
          "internalType": "uint8",
          "name": "_subAccountId",
          "type": "uint8"
        }
      ],
      "name": "depositETH",
      "outputs": [],
      "stateMutability": "payable",
      "type": "function"
    },
    {
      "inputs": [
        {
          "components": [
            {
              "components": [
                {
                  "internalType": "uint32",
                  "name": "blockNumber",
                  "type": "uint32"
                },
                {
                  "internalType": "uint64",
                  "name": "priorityOperations",
                  "type": "uint64"
                },
                {
                  "internalType": "bytes32",
                  "name": "pendingOnchainOperationsHash",
                  "type": "bytes32"
                },
                {
                  "internalType": "uint256",
                  "name": "timestamp",
                  "type": "uint256"
                },
                {
                  "internalType": "bytes32",
                  "name": "stateHash",
                  "type": "bytes32"
                },
                {
                  "internalType": "bytes32",
                  "name": "commitment",
                  "type": "bytes32"
                }
              ],
              "internalType": "struct Storage.StoredBlockInfo",
              "name": "storedBlock",
              "type": "tuple"
            },
            {
              "internalType": "bytes[]",
              "name": "pendingOnchainOpsPubdata",
              "type": "bytes[]"
            }
          ],
          "internalType": "struct ZkLink.ExecuteBlockInfo[]",
          "name": "_blocksData",
          "type": "tuple[]"
        }
      ],
      "name": "executeBlocks",
      "outputs": [],
      "stateMutability": "nonpayable",
      "type": "function"
    },
    {
      "inputs": [],
      "name": "exodusMode",
      "outputs": [
        {
          "internalType": "bool",
          "name": "",
          "type": "bool"
        }
      ],
      "stateMutability": "view",
      "type": "function"
    },
    {
      "inputs": [],
      "name": "firstPriorityRequestId",
      "outputs": [
        {
          "internalType": "uint64",
          "name": "",
          "type": "uint64"
        }
      ],
      "stateMutability": "view",
      "type": "function"
    },
    {
      "inputs": [],
      "name": "getNoticePeriod",
      "outputs": [
        {
          "internalType": "uint256",
          "name": "",
          "type": "uint256"
        }
      ],
      "stateMutability": "pure",
      "type": "function"
    },
    {
      "inputs": [],
      "name": "governance",
      "outputs": [
        {
          "internalType": "contract Governance",
          "name": "",
          "type": "address"
        }
      ],
      "stateMutability": "view",
      "type": "function"
    },
    {
      "inputs": [
        {
          "internalType": "bytes",
          "name": "initializationParameters",
          "type": "bytes"
        }
      ],
      "name": "initialize",
      "outputs": [],
      "stateMutability": "nonpayable",
      "type": "function"
    },
    {
      "inputs": [],
      "name": "isReadyForUpgrade",
      "outputs": [
        {
          "internalType": "bool",
          "name": "",
          "type": "bool"
        }
      ],
      "stateMutability": "view",
      "type": "function"
    },
    {
      "inputs": [
        {
          "components": [
            {
              "internalType": "uint32",
              "name": "blockNumber",
              "type": "uint32"
            },
            {
              "internalType": "uint64",
              "name": "priorityOperations",
              "type": "uint64"
            },
            {
              "internalType": "bytes32",
              "name": "pendingOnchainOperationsHash",
              "type": "bytes32"
            },
            {
              "internalType": "uint256",
              "name": "timestamp",
              "type": "uint256"
            },
            {
              "internalType": "bytes32",
              "name": "stateHash",
              "type": "bytes32"
            },
            {
              "internalType": "bytes32",
              "name": "commitment",
              "type": "bytes32"
            }
          ],
          "internalType": "struct Storage.StoredBlockInfo",
          "name": "_storedBlockInfo",
          "type": "tuple"
        },
        {
          "internalType": "address",
          "name": "_owner",
          "type": "address"
        },
        {
          "internalType": "uint32",
          "name": "_accountId",
          "type": "uint32"
        },
        {
          "internalType": "uint8",
          "name": "_subAccountId",
          "type": "uint8"
        },
        {
          "internalType": "uint16",
          "name": "_tokenId",
          "type": "uint16"
        },
        {
          "internalType": "uint128",
          "name": "_amount",
          "type": "uint128"
        },
        {
          "internalType": "uint256[]",
          "name": "_proof",
          "type": "uint256[]"
        }
      ],
      "name": "performExodus",
      "outputs": [],
      "stateMutability": "nonpayable",
      "type": "function"
    },
    {
      "inputs": [
        {
          "internalType": "uint32",
          "name": "",
          "type": "uint32"
        },
        {
          "internalType": "uint8",
          "name": "",
          "type": "uint8"
        },
        {
          "internalType": "uint16",
          "name": "",
          "type": "uint16"
        }
      ],
      "name": "performedExodus",
      "outputs": [
        {
          "internalType": "bool",
          "name": "",
          "type": "bool"
        }
      ],
      "stateMutability": "view",
      "type": "function"
    },
    {
      "inputs": [],
      "name": "periphery",
      "outputs": [
        {
          "internalType": "contract ZkLinkPeriphery",
          "name": "",
          "type": "address"
        }
      ],
      "stateMutability": "view",
      "type": "function"
    },
    {
      "inputs": [
        {
          "components": [
            {
              "internalType": "uint32",
              "name": "blockNumber",
              "type": "uint32"
            },
            {
              "internalType": "uint64",
              "name": "priorityOperations",
              "type": "uint64"
            },
            {
              "internalType": "bytes32",
              "name": "pendingOnchainOperationsHash",
              "type": "bytes32"
            },
            {
              "internalType": "uint256",
              "name": "timestamp",
              "type": "uint256"
            },
            {
              "internalType": "bytes32",
              "name": "stateHash",
              "type": "bytes32"
            },
            {
              "internalType": "bytes32",
              "name": "commitment",
              "type": "bytes32"
            }
          ],
          "internalType": "struct Storage.StoredBlockInfo[]",
          "name": "_committedBlocks",
          "type": "tuple[]"
        },
        {
          "components": [
            {
              "internalType": "uint256[]",
              "name": "recursiveInput",
              "type": "uint256[]"
            },
            {
              "internalType": "uint256[]",
              "name": "proof",
              "type": "uint256[]"
            },
            {
              "internalType": "uint256[]",
              "name": "commitments",
              "type": "uint256[]"
            },
            {
              "internalType": "uint8[]",
              "name": "vkIndexes",
              "type": "uint8[]"
            },
            {
              "internalType": "uint256[16]",
              "name": "subproofsLimbs",
              "type": "uint256[16]"
            }
          ],
          "internalType": "struct ZkLink.ProofInput",
          "name": "_proof",
          "type": "tuple"
        }
      ],
      "name": "proveBlocks",
      "outputs": [],
      "stateMutability": "nonpayable",
      "type": "function"
    },
    {
      "inputs": [
        {
          "internalType": "uint32",
          "name": "_accountId",
          "type": "uint32"
        },
        {
          "internalType": "uint8",
          "name": "_subAccountId",
          "type": "uint8"
        },
        {
          "internalType": "uint16",
          "name": "_tokenId",
          "type": "uint16"
        }
      ],
      "name": "requestFullExit",
      "outputs": [],
      "stateMutability": "nonpayable",
      "type": "function"
    },
    {
      "inputs": [
        {
          "components": [
            {
              "internalType": "uint32",
              "name": "blockNumber",
              "type": "uint32"
            },
            {
              "internalType": "uint64",
              "name": "priorityOperations",
              "type": "uint64"
            },
            {
              "internalType": "bytes32",
              "name": "pendingOnchainOperationsHash",
              "type": "bytes32"
            },
            {
              "internalType": "uint256",
              "name": "timestamp",
              "type": "uint256"
            },
            {
              "internalType": "bytes32",
              "name": "stateHash",
              "type": "bytes32"
            },
            {
              "internalType": "bytes32",
              "name": "commitment",
              "type": "bytes32"
            }
          ],
          "internalType": "struct Storage.StoredBlockInfo[]",
          "name": "_blocksToRevert",
          "type": "tuple[]"
        }
      ],
      "name": "revertBlocks",
      "outputs": [],
      "stateMutability": "nonpayable",
      "type": "function"
    },
    {
      "inputs": [
        {
          "internalType": "bytes",
          "name": "_pubkeyHash",
          "type": "bytes"
        },
        {
          "internalType": "uint32",
          "name": "_nonce",
          "type": "uint32"
        }
      ],
      "name": "setAuthPubkeyHash",
      "outputs": [],
      "stateMutability": "nonpayable",
      "type": "function"
    },
    {
      "inputs": [],
      "name": "totalBlocksCommitted",
      "outputs": [
        {
          "internalType": "uint32",
          "name": "",
          "type": "uint32"
        }
      ],
      "stateMutability": "view",
      "type": "function"
    },
    {
      "inputs": [],
      "name": "totalBlocksExecuted",
      "outputs": [
        {
          "internalType": "uint32",
          "name": "",
          "type": "uint32"
        }
      ],
      "stateMutability": "view",
      "type": "function"
    },
    {
      "inputs": [],
      "name": "totalBlocksProven",
      "outputs": [
        {
          "internalType": "uint32",
          "name": "",
          "type": "uint32"
        }
      ],
      "stateMutability": "view",
      "type": "function"
    },
    {
      "inputs": [],
      "name": "totalCommittedPriorityRequests",
      "outputs": [
        {
          "internalType": "uint64",
          "name": "",
          "type": "uint64"
        }
      ],
      "stateMutability": "view",
      "type": "function"
    },
    {
      "inputs": [],
      "name": "totalOpenPriorityRequests",
      "outputs": [
        {
          "internalType": "uint64",
          "name": "",
          "type": "uint64"
        }
      ],
      "stateMutability": "view",
      "type": "function"
    },
    {
      "inputs": [
        {
          "internalType": "contract IERC20",
          "name": "_token",
          "type": "address"
        },
        {
          "internalType": "address",
          "name": "_to",
          "type": "address"
        },
        {
          "internalType": "uint128",
          "name": "_amount",
          "type": "uint128"
        },
        {
          "internalType": "uint128",
          "name": "_maxAmount",
          "type": "uint128"
        }
      ],
      "name": "transferERC20",
      "outputs": [
        {
          "internalType": "uint128",
          "name": "withdrawnAmount",
          "type": "uint128"
        }
      ],
      "stateMutability": "nonpayable",
      "type": "function"
    },
    {
      "inputs": [
        {
          "internalType": "bytes",
          "name": "upgradeParameters",
          "type": "bytes"
        }
      ],
      "name": "upgrade",
      "outputs": [],
      "stateMutability": "nonpayable",
      "type": "function"
    },
    {
      "inputs": [],
      "name": "upgradeCanceled",
      "outputs": [],
      "stateMutability": "nonpayable",
      "type": "function"
    },
    {
      "inputs": [],
      "name": "upgradeFinishes",
      "outputs": [],
      "stateMutability": "nonpayable",
      "type": "function"
    },
    {
      "inputs": [],
      "name": "upgradeNoticePeriodStarted",
      "outputs": [],
      "stateMutability": "nonpayable",
      "type": "function"
    },
    {
      "inputs": [],
      "name": "upgradePreparationStarted",
      "outputs": [],
      "stateMutability": "nonpayable",
      "type": "function"
    },
    {
      "inputs": [],
      "name": "verifier",
      "outputs": [
        {
          "internalType": "contract Verifier",
          "name": "",
          "type": "address"
        }
      ],
      "stateMutability": "view",
      "type": "function"
    },
    {
      "inputs": [
        {
          "internalType": "address payable",
          "name": "_owner",
          "type": "address"
        },
        {
          "internalType": "uint16",
          "name": "_tokenId",
          "type": "uint16"
        },
        {
          "internalType": "uint128",
          "name": "_amount",
          "type": "uint128"
        }
      ],
      "name": "withdrawPendingBalance",
      "outputs": [],
      "stateMutability": "nonpayable",
      "type": "function"
    },
    {
      "stateMutability": "payable",
      "type": "receive"
    }
  ],
  "bytecode": "0x608060405234801561001057600080fd5b50615bf580620000216000396000f3fe6080604052600436106101f25760003560e01c806368809a231161010d5780638ae20dc9116100a0578063b269b9ae1161006f578063b269b9ae1461049c578063b4a8498c1461053b578063c57b22be1461055b578063f223548714610570578063faf4d8cb14610585576101f9565b80638ae20dc9146104c6578063a3ee3f0a146104e6578063a7e7aacd14610506578063b0705b421461051b576101f9565b806380b29d5f116100dc57806380b29d5f1461045c578063839818081461047c578063871b8ff11461049c5780638773334c146104b1576101f9565b806368809a23146103e557806377aace1a1461041257806378b91e70146104275780637efcfe851461043c576101f9565b806336217bde11610185578063595a5ebc11610154578063595a5ebc146103795780635aa6e67514610399578063647b5923146103ae57806367708dae146103d0576101f9565b806336217bde146103045780633b154b7314610324578063439fab91146103395780634526929814610359576101f9565b80632a3174f4116101c15780632a3174f41461027e5780632b7ac3f3146102a05780632f25807e146102c257806334f6bb1c146102e2576101f9565b8063108e709f146101fe57806314694347146102135780632539464514610249578063264c091214610269576101f9565b366101f957005b600080fd5b61021161020c36600461430d565b61059a565b005b34801561021f57600080fd5b5061023361022e3660046149cf565b610608565b6040516102409190614da8565b60405180910390f35b34801561025557600080fd5b506102116102643660046145e3565b61062e565b34801561027557600080fd5b50610233610662565b34801561028a57600080fd5b5061029361066b565b6040516102409190614db3565b3480156102ac57600080fd5b506102b5610671565b6040516102409190614c04565b3480156102ce57600080fd5b506102116102dd366004614298565b610680565b3480156102ee57600080fd5b506102f76109d9565b6040516102409190615acd565b34801561031057600080fd5b5061021161031f366004614798565b6109ef565b34801561033057600080fd5b50610211610cf2565b34801561034557600080fd5b506102116103543660046145e3565b610cf4565b34801561036557600080fd5b50610211610374366004614869565b610de5565b34801561038557600080fd5b50610211610394366004614622565b610ff6565b3480156103a557600080fd5b506102b5611163565b3480156103ba57600080fd5b506103c3611172565b6040516102409190615aa5565b3480156103dc57600080fd5b506102f761117e565b3480156103f157600080fd5b50610405610400366004614673565b61118d565b6040516102409190615a82565b34801561041e57600080fd5b506102b5611373565b34801561043357600080fd5b50610211611382565b34801561044857600080fd5b50610211610457366004614a0a565b611397565b34801561046857600080fd5b506102116104773660046149cf565b6115f8565b34801561048857600080fd5b506102116104973660046144a5565b6117c1565b3480156104a857600080fd5b506102116119e6565b3480156104bd57600080fd5b506102336119f5565b3480156104d257600080fd5b506102936104e13660046142e2565b6119ff565b3480156104f257600080fd5b506102116105013660046146ce565b611a1c565b34801561051257600080fd5b50610233611bee565b34801561052757600080fd5b50610211610536366004614338565b611ca2565b34801561054757600080fd5b50610211610556366004614473565b611ebe565b34801561056757600080fd5b506102f76120fd565b34801561057c57600080fd5b506103c3612113565b34801561059157600080fd5b506103c361211f565b600080516020615ba083398151915254600181146105b757600080fd5b6002600080516020615ba0833981519152556105f173eeeeeeeeeeeeeeeeeeeeeeeeeeeeeeeeeeeeeeee6105ea34612132565b8585612179565b6001600080516020615ba083398151915255505050565b600760209081526000938452604080852082529284528284209052825290205460ff1681565b600080516020615ba0833981519152546001811461064b57600080fd5b50506001600080516020615ba08339815191525550565b60085460ff1681565b60005b90565b6002546001600160a01b031681565b600080516020615ba0833981519152546001811461069d57600080fd5b6002600080516020615ba083398151915255600354604051636a3e63ad60e11b81526000916001600160a01b03169063d47cc75a906106e0908790600401615a96565b60606040518083038186803b1580156106f857600080fd5b505afa15801561070c573d6000803e3d6000fd5b505050506040513d601f19601f820116820180604052508101906107309190614732565b805190915061075a5760405162461bcd60e51b81526004016107519061502b565b60405180910390fd5b600061076686866123f9565b6001600160501b031981166000908152600560205260408120549192506001600160801b03909116906107998287612416565b90506000816001600160801b0316116107c45760405162461bcd60e51b8152600401610751906152d9565b6001600160501b031983166000908152600560205260409081902080546001600160801b0319168385036001600160801b031617905584015173eeeeeeeeeeeeeeeeeeeeeeeeeeeeeeeeeeeeeeee6001600160a01b03821614156108ad576000896001600160a01b0316836001600160801b03166040516108449061066e565b60006040518083038185875af1925050503d8060008114610881576040519150601f19603f3d011682016040523d82523d6000602084013e610886565b606091505b50509050806108a75760405162461bcd60e51b81526004016107519061526b565b50610980565b6040516368809a2360e01b815260009030906368809a23906108d99085908e9088908a90600401614f09565b602060405180830381600087803b1580156108f357600080fd5b505af1158015610907573d6000803e3d6000fd5b505050506040513d601f19601f8201168201806040525081019061092b9190614997565b9050826001600160801b0316816001600160801b03161461097e576001600160501b03198516600090815260056020526040902080546001600160801b0319168286036001600160801b03161790559150815b505b8761ffff167ff4bf32c167ee6e782944cd1db8174729b46adcd3bc732e282cc4a80793933154836040516109b49190615a82565b60405180910390a250505050506001600080516020615ba08339815191525550505050565b600a54600160801b90046001600160401b031681565b60085460ff16610a115760405162461bcd60e51b815260040161075190615731565b62ffffff63ffffffff87161115610a3a5760405162461bcd60e51b815260040161075190615651565b600760ff86161115610a5e5760405162461bcd60e51b815260040161075190615234565b600354604051636a3e63ad60e11b81526000916001600160a01b03169063d47cc75a90610a8f908890600401615a96565b60606040518083038186803b158015610aa757600080fd5b505afa158015610abb573d6000803e3d6000fd5b505050506040513d601f19601f82011682018060405250810190610adf9190614732565b8051909150610b005760405162461bcd60e51b81526004016107519061502b565b63ffffffff8716600090815260076020908152604080832060ff808b16855290835281842061ffff8a168552909252909120541615610b515760405162461bcd60e51b8152600401610751906153bc565b610b68610b63368b90038b018b61484e565b612440565b60065463ffffffff166000908152600b602052604090205414610b9d5760405162461bcd60e51b81526004016107519061543d565b600254604051633ca0eb6960e01b81526000916001600160a01b031690633ca0eb6990610be09060808e0135908c908c908f908d908d908d908d90600401614e2e565b60206040518083038186803b158015610bf857600080fd5b505afa158015610c0c573d6000803e3d6000fd5b505050506040513d601f19601f82011682018060405250810190610c3091906145b1565b905080610c4f5760405162461bcd60e51b81526004016107519061514e565b63ffffffff8816600090815260076020908152604080832060ff8b168452825280832061ffff8a1684529091528120805460ff19166001179055610c938a886123f9565b9050610c9f8187612470565b896001600160a01b03168761ffff167f822cba452e09c71c51db196553ac44d860c4d2d66e311eff0066a7910c0dc87088604051610cdd9190615a82565b60405180910390a35050505050505050505050565b565b610cfc6124da565b6000808080610d0d85870187614248565b600280546001600160a01b038086166001600160a01b0319928316179092556003805483881690831617905560048054928516929091169190911790556040805160c0810182526000808252602082018190527fc5d2460186f7233c927e7db2dcc703c0e500b653ca82273b7bfad8045d85a47092820192909252606081018290526080810183905260a081019190915293975091955093509150610db181612440565b60008052600b6020527fdf7de25b7f1fd6d0b5205f0e18f1f35bd7b8d84cce336588d184533ce43a6f765550505050505050565b600080516020615ba08339815191525460018114610e0257600080fd5b6002600080516020615ba083398151915255610e1c61252b565b600354604051634b18bd0f60e01b81526001600160a01b0390911690634b18bd0f90610e4c903390600401614c04565b60006040518083038186803b158015610e6457600080fd5b505afa158015610e78573d6000803e3d6000fd5b50505050610e8583612440565b600654600160201b900463ffffffff166000908152600b602052604090205414610ec15760405162461bcd60e51b815260040161075190615310565b60005b82518163ffffffff161015610f8b57610ef684848363ffffffff1681518110610ee957fe5b602002602001015161254e565b6020810151600a80546001600160401b03600160801b80830482169094011690920267ffffffffffffffff60801b199092169190911790559350610f3984612440565b845163ffffffff9081166000908152600b6020526040808220939093558651925192909116917f81a92942d0f9c33b897a438384c9c3d88be397776138efa3ba1a4fc8b62684249190a2600101610ec4565b5081516006805463ffffffff600160201b80830482169094011690920267ffffffff0000000019909216919091179055600a546001600160401b03600160401b82048116600160801b9092041611156105f15760405162461bcd60e51b815260040161075190615688565b610ffe61252b565b6014821461101e5760405162461bcd60e51b815260040161075190615480565b33600090815260096020908152604080832063ffffffff85168452909152902054611083578282604051611053929190614af4565b60408051918290039091203360009081526009602090815283822063ffffffff861683529052919091205561115e565b336000908152600e6020908152604080832063ffffffff85168452909152902054806110d157336000908152600e6020908152604080832063ffffffff86168452909152902042905561115c565b620151806110df4283612726565b10156110fd5760405162461bcd60e51b8152600401610751906152a2565b336000908152600e6020908152604080832063ffffffff8616845290915280822091909155516111309085908590614af4565b60408051918290039091203360009081526009602090815283822063ffffffff87168352905291909120555b505b505050565b6003546001600160a01b031681565b600c5463ffffffff1681565b600a546001600160401b031681565b60003330146111ae5760405162461bcd60e51b8152600401610751906151d1565b6040516370a0823160e01b81526000906001600160a01b038716906370a08231906111dd903090600401614c04565b60206040518083038186803b1580156111f557600080fd5b505afa158015611209573d6000803e3d6000fd5b505050506040513d601f19601f8201168201806040525081019061122d91906145cb565b60405163a9059cbb60e01b81529091506001600160a01b0387169063a9059cbb9061125e9088908890600401614c97565b600060405180830381600087803b15801561127857600080fd5b505af115801561128c573d6000803e3d6000fd5b50506040516370a0823160e01b8152600092506001600160a01b03891691506370a08231906112bf903090600401614c04565b60206040518083038186803b1580156112d757600080fd5b505afa1580156112eb573d6000803e3d6000fd5b505050506040513d601f19601f8201168201806040525081019061130f91906145cb565b9050600061131d8383612726565b90506000811161133f5760405162461bcd60e51b815260040161075190614f74565b846001600160801b03168111156113685760405162461bcd60e51b81526004016107519061558d565b979650505050505050565b6004546001600160a01b031681565b6000805460ff19166001908117909155429055565b60085460ff166113b95760405162461bcd60e51b815260040161075190615731565b600a546000906113d990600160401b90046001600160401b03168561274c565b90506000816001600160401b0316116114045760405162461bcd60e51b81526004016107519061580c565b6001600160401b038116821461142c5760405162461bcd60e51b815260040161075190614ff6565b600a546000906001600160401b03165b600a546001600160401b039081168401811690821610156115a85760016001600160401b0382166000908152600d6020526040902054600160e01b900460ff16600b81111561148757fe5b141561157a5760008585846001600160401b03168181106114a457fe5b90506020028101906114b69190615ae1565b8080601f01602080910402602001604051908101604052809392919081815260200183838082843760009201829052506001600160401b0387168152600d602052604090205493945050505060601b6001600160601b0319166115188261276d565b6001600160601b0319161461153f5760405162461bcd60e51b8152600401610751906158a3565b82600101925060006115508261277b565b905060006115668260a0015183606001516123f9565b9050611576818360800151612470565b5050505b6001600160401b0381166000908152600d6020526040902080546001600160e81b031916905560010161143c565b5050600a805467ffffffffffffffff60401b1967ffffffffffffffff1982166001600160401b039283168501831617908116600160401b9182900483169490940390911602919091179055505050565b600080516020615ba0833981519152546001811461161557600080fd5b6002600080516020615ba08339815191525561162f61252b565b600a54611000600160401b9091046001600160401b0316106116635760405162461bcd60e51b815260040161075190615062565b62ffffff63ffffffff8516111561168c5760405162461bcd60e51b815260040161075190615651565b600760ff841611156116b05760405162461bcd60e51b815260040161075190615234565b600354604051636a3e63ad60e11b81526000916001600160a01b03169063d47cc75a906116e1908690600401615a96565b60606040518083038186803b1580156116f957600080fd5b505afa15801561170d573d6000803e3d6000fd5b505050506040513d601f19601f820116820180604052508101906117319190614732565b80519091506117525760405162461bcd60e51b81526004016107519061502b565b6040805160c0810182526002815263ffffffff8716602082015260ff86169181019190915233606082015261ffff84166080820152600060a0820181905261179982612830565b90506117a6600582612877565b5050506001600080516020615ba08339815191525550505050565b600080516020615ba083398151915254600181146117de57600080fd5b6002600080516020615ba083398151915255600c5463ffffffff1660005b84518110156118ca5763ffffffff60018301166000908152600b6020526040902054855161183d9087908490811061183057fe5b6020026020010151612440565b1461185a5760405162461bcd60e51b8152600401610751906150e0565b8160010191506001600160fd1b0385828151811061187457fe5b602002602001015160a0015160001c166001600160fd1b038560400151838151811061189c57fe5b602002602001015116146118c25760405162461bcd60e51b815260040161075190614fab565b6001016117fc565b5060065463ffffffff600160201b909104811690821611156118fe5760405162461bcd60e51b8152600401610751906154e4565b600c805463ffffffff191663ffffffff83161790556002548351602085015160608601516040808801516080890151915163054185eb60e51b81526000966001600160a01b03169563a830bd609561195e95919490939192600401614cfc565b60206040518083038186803b15801561197657600080fd5b505afa15801561198a573d6000803e3d6000fd5b505050506040513d601f19601f820116820180604052508101906119ae91906145b1565b9050806119cd5760405162461bcd60e51b815260040161075190615185565b50506001600080516020615ba083398151915255505050565b6000805460ff19168155600155565b60085460ff161590565b600960209081526000928352604080842090915290825290205481565b600080516020615ba08339815191525460018114611a3957600080fd5b6002600080516020615ba0833981519152556040516370a0823160e01b81526000906001600160a01b038716906370a0823190611a7a903090600401614c04565b60206040518083038186803b158015611a9257600080fd5b505afa158015611aa6573d6000803e3d6000fd5b505050506040513d601f19601f82011682018060405250810190611aca91906145cb565b6040516323b872dd60e01b81529091506001600160a01b038716906323b872dd90611afd90339030908a90600401614c18565b600060405180830381600087803b158015611b1757600080fd5b505af1158015611b2b573d6000803e3d6000fd5b50506040516370a0823160e01b8152600092506001600160a01b03891691506370a0823190611b5e903090600401614c04565b60206040518083038186803b158015611b7657600080fd5b505afa158015611b8a573d6000803e3d6000fd5b505050506040513d601f19601f82011682018060405250810190611bae91906145cb565b90506000611bc4611bbf8385612726565b612132565b9050611bd288828888612179565b5050506001600080516020615ba0833981519152555050505050565b60085460009060ff1615611c045750600061066e565b600a546001600160401b039081166000908152600d60205260408120549091600160a01b909104164310801590611c5e5750600a546001600160401b039081166000908152600d6020526040902054600160a01b90041615155b90508015611c9d576008805460ff191660011790556040517fc71028c67eb0ef128ea270a59a674629e767d51c1af44ed6753fd2fad2c7b67790600090a15b905090565b600080516020615ba08339815191525460018114611cbf57600080fd5b6002600080516020615ba083398151915255611cd961252b565b600354604051634b18bd0f60e01b81526001600160a01b0390911690634b18bd0f90611d09903390600401614c04565b60006040518083038186803b158015611d2157600080fd5b505afa158015611d35573d6000803e3d6000fd5b50508351600092509050815b8163ffffffff168163ffffffff161015611dfa57611d78858263ffffffff1681518110611d6a57fe5b6020026020010151826129e0565b848163ffffffff1681518110611d8a57fe5b6020026020010151600001516020015183019250848163ffffffff1681518110611db057fe5b6020026020010151600001516000015163ffffffff167f0cdbd8bd7813095001c5fe7917bd69d834dc01db7c1dfcf52ca135bd2038441360405160405180910390a2600101611d41565b50600a805467ffffffffffffffff60401b1967ffffffffffffffff60801b1967ffffffffffffffff1983166001600160401b039384168701841617908116600160801b918290048416879003841690910217908116600160401b918290048316869003909216021790556006805463ffffffff19811663ffffffff918216840182161791829055600c54811691161115611ea65760405162461bcd60e51b815260040161075190614f3d565b50506001600080516020615ba0833981519152555050565b600080516020615ba08339815191525460018114611edb57600080fd5b6002600080516020615ba083398151915255600354604051634b18bd0f60e01b81526001600160a01b0390911690634b18bd0f90611f1d903390600401614c04565b60006040518083038186803b158015611f3557600080fd5b505afa158015611f49573d6000803e3d6000fd5b5050600654845163ffffffff600160201b83048116945060009350611f7092168403612ddd565b90506000805b8263ffffffff168163ffffffff161015612015576000868263ffffffff1681518110611f9e57fe5b60200260200101519050611fb181612440565b63ffffffff86166000908152600b602052604090205414611fe45760405162461bcd60e51b815260040161075190615099565b63ffffffff85166000908152600b602090815260408220919091550151600019909401939190910190600101611f76565b506006805467ffffffff000000001916600160201b63ffffffff86811682029290921792839055600a805467ffffffffffffffff60801b198116600160801b918290046001600160401b0390811688900316909102179055600c54821692041610156120a057600654600c8054600160201b90920463ffffffff1663ffffffff199092169190911790555b6006546040517f6f3a8259cce1ea2680115053d21c971aa1764295a45850f520525f2bfdf3c9d3916120dc9163ffffffff909116908690615ab6565b60405180910390a15050506001600080516020615ba0833981519152555050565b600a54600160401b90046001600160401b031681565b60065463ffffffff1681565b600654600160201b900463ffffffff1681565b6000600160801b8210612171576040805162461bcd60e51b8152602060048201526002602482015261189b60f11b604482015290519081900360640190fd5b50805b919050565b61218161252b565b600a54611000600160401b9091046001600160401b0316106121b55760405162461bcd60e51b815260040161075190615062565b6003546040516378a9bb4360e11b81526000916001600160a01b03169063f1537686906121e6908890600401614c04565b60206040518083038186803b1580156121fe57600080fd5b505afa158015612212573d6000803e3d6000fd5b505050506040513d601f19601f8201168201806040525081019061223691906149b3565b600354604051636a3e63ad60e11b81529192506000916001600160a01b039091169063d47cc75a9061226c908590600401615a96565b60606040518083038186803b15801561228457600080fd5b505afa158015612298573d6000803e3d6000fd5b505050506040513d601f19601f820116820180604052508101906122bc9190614732565b80519091506122dd5760405162461bcd60e51b81526004016107519061502b565b8060200151156122ff5760405162461bcd60e51b815260040161075190615843565b6000856001600160801b031611801561232857506001600160681b036001600160801b03861611155b6123445760405162461bcd60e51b815260040161075190615355565b6001600160a01b03841661236a5760405162461bcd60e51b8152600401610751906157d5565b600760ff8416111561238e5760405162461bcd60e51b815260040161075190615234565b6040805160c0810182526002815260006020820181905260ff86169282019290925261ffff841660608201526001600160801b03871660808201526001600160a01b03861660a0820152906123e282612df8565b90506123ef600182612877565b5050505050505050565b60a01b61ffff60a01b166001600160a01b03919091161760501b90565b6000816001600160801b0316836001600160801b0316106124375781612439565b825b9392505050565b6000816040516020016124539190615a2f565b604051602081830303815290604052805190602001209050919050565b6001600160501b031982166000908152600560205260409020546001600160801b031661249d8183612e29565b6001600160501b031993909316600090815260056020526040902080546001600160801b0319166001600160801b03909416939093179092555050565b600080516020615ba0833981519152805460019091558015612528576040805162461bcd60e51b815260206004820152600260248201526118a160f11b604482015290519081900360640190fd5b50565b60085460ff1615610cf25760405162461bcd60e51b8152600401610751906150b4565b612556613d52565b826000015160010163ffffffff16826080015163ffffffff161461258c5760405162461bcd60e51b81526004016107519061579e565b8260600151826040015110156125b45760405162461bcd60e51b815260040161075190615605565b60408201516000906125c94262015180612726565b1115905060006125db42610384612e74565b8460400151111590508180156125ee5750805b61260a5760405162461bcd60e51b815260040161075190615932565b5050600080600061261a85612eb3565b9250925092506000600460009054906101000a90046001600160a01b03166001600160a01b0316633378575b886080015188608001518960a001518a600001518b604001518c60200151896040518863ffffffff1660e01b81526004016126879796959493929190614dd3565b60206040518083038186803b15801561269f57600080fd5b505afa1580156126b3573d6000803e3d6000fd5b505050506040513d601f19601f820116820180604052508101906126d791906145cb565b6040805160c0810182526080808a015163ffffffff1682526001600160401b039096166020820152808201969096528701516060860152865193850193909352505060a0820152905092915050565b60006124398383604051806040016040528060018152602001603b60f91b815250613416565b6000816001600160401b0316836001600160401b0316106124375781612439565b805160209091012060601b90565b612783613d52565b600161278f83826134ad565b60ff16835290506127a083826134d9565b63ffffffff16602084015290506127b783826134ad565b60ff16604084015290506127cb83826134f2565b61ffff16606084015290506127e08382613502565b6001600160801b0316608084015290506127fa8382613512565b6001600160a01b031660a08401529050602d811461282a5760405162461bcd60e51b8152600401610751906154b7565b50919050565b6060600582516020808501516040808701516060880151608089015192516128619796959293919260009101614b04565b6040516020818303038152906040529050919050565b600a544362013b0001906001600160401b03808216600160401b909204160160006128a18461276d565b90506040518060600160405280826bffffffffffffffffffffffff19168152602001846001600160401b0316815260200186600b8111156128de57fe5b90526001600160401b038084166000908152600d60209081526040918290208451815492860151909416600160a01b0267ffffffffffffffff60a01b1960609590951c6001600160a01b03199093169290921793909316178083559083015190829060ff60e01b1916600160e01b83600b81111561295857fe5b02179055509050507fd0943372c08b438a88d4b39d77216901079eda9ca59d45349841c099083b683033838787876001600160401b03166040516129a0959493929190614c44565b60405180910390a15050600a805460016001600160401b03600160401b808404821692909201160267ffffffffffffffff60401b19909116179055505050565b81515163ffffffff166000908152600b60205260409020548251612a0390612440565b14612a205760405162461bcd60e51b815260040161075190615975565b60065482515163ffffffff90811691811683016001011614612a545760405162461bcd60e51b815260040161075190615117565b7fc5d2460186f7233c927e7db2dcc703c0e500b653ca82273b7bfad8045d85a47060005b8360200151518163ffffffff161015612db857600084602001518263ffffffff1681518110612aa357fe5b60200260200101519050600081600081518110612abc57fe5b016020015160f81c600b811115612acf57fe5b9050600381600b811115612adf57fe5b1415612cfb576000612af083613522565b805190915060ff1660021415612cf5578060a0015115612cde57600480546060830151602084015160408086015160c08701516080880151925163d2a131d760e01b81526000976001600160a01b039097169663d2a131d796612b5b96909590949392909101614cb9565b60206040518083038186803b158015612b7357600080fd5b505afa158015612b87573d6000803e3d6000fd5b505050506040513d601f19601f82011682018060405250810190612bab91906145cb565b60048054604051634ae5821760e11b81529293506000926001600160a01b03909116916395cb042e91612be091869101614db3565b60206040518083038186803b158015612bf857600080fd5b505afa158015612c0c573d6000803e3d6000fd5b505050506040513d601f19601f82011682018060405250810190612c30919061422c565b90506001600160a01b038116612cc45760048054606085015160405163053ba75b60e11b81526001600160a01b0390921692630a774eb692612c76928792909101614dbc565b600060405180830381600087803b158015612c9057600080fd5b505af1158015612ca4573d6000803e3d6000fd5b50505050612cbf8360200151846060015185604001516135d1565b612cd7565b612cd78360200151828560400151613799565b5050612cf5565b612cf58160200151826060015183604001516135d1565b50612d9f565b600781600b811115612d0957fe5b1415612d41576000612d1a836137fd565b805190915060ff1660021415612cf557612cf58160200151826060015183604001516135d1565b600581600b811115612d4f57fe5b1415612d87576000612d608361386d565b805190915060ff1660021415612cf557612cf5816080015182606001518360a001516135d1565b60405162461bcd60e51b815260040161075190615561565b612da9848361391c565b93505050806001019050612a78565b50825160400151811461115e5760405162461bcd60e51b81526004016107519061551b565b60008163ffffffff168363ffffffff16106124375781612439565b6060600182516040808501516060860151608087015160a08801519351612861969594600094939291602001614b84565b60008282016001600160801b038085169082161015612439576040805162461bcd60e51b8152602060048201526002602482015261189960f11b604482015290519081900360640190fd5b600082820183811015612439576040805162461bcd60e51b81526020600482015260026024820152610c4d60f21b604482015290519081900360640190fd5b6020810151600a5481517fc5d2460186f7233c927e7db2dcc703c0e500b653ca82273b7bfad8045d85a470926000926060926001600160401b03808316600160801b909304169190910190600e900615612f1f5760405162461bcd60e51b8152600401610751906159f8565b8151600e90046001600160401b0381118015612f3a57600080fd5b506040519080825280601f01601f191660200182016040528015612f65576020820181803683370190505b50925060005b86606001515181101561340c57600087606001518281518110612f8a57fe5b602002602001015190506000816020015163ffffffff16905084518110612fc35760405162461bcd60e51b8152600401610751906155c4565b600e810615612fe45760405162461bcd60e51b8152600401610751906159aa565b6000600e82049050868181518110612ff857fe5b01602001516001600160f81b031916156130245760405162461bcd60e51b8152600401610751906156e8565b600160f81b87828151811061303557fe5b60200101906001600160f81b031916908160001a905350600086838151811061305a57fe5b016020015160f81c600b81111561306d57fe5b9050600181600b81111561307d57fe5b14156131395760006130918885603861392b565b9050600061309e8261277b565b805190915060ff1660021415613132578a88016001600160401b039081166000908152600d602090815260409182902082516060808201855282549081901b6001600160601b0319168252600160a01b81049095169281019290925261312b938593830190600160e01b900460ff16600b81111561311857fe5b600b81111561312357fe5b9052506139e7565b6001909a01995b50506133fd565b600681600b81111561314757fe5b14156132c757600061315b8885603861392b565b9050600061316882613a5e565b805190915060ff16600214156131325785515115613243576004805487516020840151604080860151606087015160808801519251633f44ffdb60e21b81526000976001600160a01b039097169663fd13ff6c966131ce96909590949392909101614eb4565b60206040518083038186803b1580156131e657600080fd5b505afa1580156131fa573d6000803e3d6000fd5b505050506040513d601f19601f8201168201806040525081019061321e91906145b1565b90508061323d5760405162461bcd60e51b81526004016107519061575d565b50613132565b6000816040015160405160200161325a9190614adf565b60408051601f19818403018152918152815160209283012060608501516001600160a01b0316600090815260098452828120608087015163ffffffff168252909352912054149050806132bf5760405162461bcd60e51b8152600401610751906153f3565b5050506133fd565b6060600382600b8111156132d757fe5b14156132f0576132e98885603861392b565b90506133ef565b600782600b8111156132fe57fe5b1415613310576132e98885603861392b565b600582600b81111561331e57fe5b14156133d7576133308885603861392b565b9050600061333d8261386d565b805190915060ff16600214156133d1578a88016001600160401b039081166000908152600d602090815260409182902082516060808201855282549081901b6001600160601b0319168252600160a01b8104909516928101929092526133ca938593830190600160e01b900460ff16600b8111156133b757fe5b600b8111156133c257fe5b905250613ae2565b6001909a01995b506133ef565b60405162461bcd60e51b815260040161075190615873565b6133f98b8261391c565b9a50505b50505050806001019050612f6b565b5050509193909250565b600081848411156134a55760405162461bcd60e51b81526004018080602001828103825283818151815260200191508051906020019080838360005b8381101561346a578181015183820152602001613452565b50505050905090810190601f1680156134975780820380516001836020036101000a031916815260200191505b509250505060405180910390fd5b505050900390565b6000808260010191508383815181106134c257fe5b602001015160f81c60f81b60f81c90509250929050565b6004810160006134e98484613b50565b90509250929050565b6002810160006134e98484613b9e565b6010810160006134e98484613be1565b6014810160006134e98484613c24565b61352a613d87565b600161353683826134ad565b60ff168352600501905061354a83826134f2565b61ffff166020840152905061355f8382613502565b6001600160801b03166040840152600201905061357c8382613512565b6001600160a01b03166060840152905061359683826134d9565b63ffffffff16608084015290506135ad8382613c67565b151560a084015290506135c083826134f2565b61ffff1660c0840152509092915050565b600354604051636a3e63ad60e11b81526000916001600160a01b03169063d47cc75a90613602908790600401615a96565b60606040518083038186803b15801561361a57600080fd5b505afa15801561362e573d6000803e3d6000fd5b505050506040513d601f19601f820116820180604052508101906136529190614732565b805190915061366c57613666848484613799565b5061115e565b604081015160006001600160a01b03821673eeeeeeeeeeeeeeeeeeeeeeeeeeeeeeeeeeeeeeee14156136b457846136ac816001600160801b038716613c93565b91505061373f565b6040516368809a2360e01b815230906368809a2390620186a0906136e29086908a908a908190600401614f09565b602060405180830381600088803b1580156136fc57600080fd5b5087f19350505050801561372d575060408051601f3d908101601f1916820190925261372a91810190614997565b60015b6137395750600061373f565b50600190505b8015613786578561ffff167ff4bf32c167ee6e782944cd1db8174729b46adcd3bc732e282cc4a80793933154856040516137799190615a82565b60405180910390a2613791565b613791868686613799565b505050505050565b60006137a583856123f9565b90506137b18183612470565b826001600160a01b03168461ffff167f822cba452e09c71c51db196553ac44d860c4d2d66e311eff0066a7910c0dc870846040516137ef9190615a82565b60405180910390a350505050565b613805613dc3565b600161381183826134ad565b60ff168352600901905061382583826134f2565b61ffff166020840152905061383a8382613502565b6001600160801b0316604084015260020190506138578382613512565b6001600160a01b03166060840152509092915050565b613875613d52565b600161388183826134ad565b60ff168352905061389283826134d9565b63ffffffff16602084015290506138a983826134ad565b60ff16604084015290506138bd8382613512565b6001600160a01b0316606084015290506138d783826134f2565b61ffff16608084015290506138ec8382613502565b6001600160801b031660a08401529050602d811461282a5760405162461bcd60e51b815260040161075190615904565b80519181526020909101902090565b606081830184511015613969576040805162461bcd60e51b81526020600482015260016024820152602d60f91b604482015290519081900360640190fd5b6000826001600160401b038111801561398157600080fd5b506040519080825280601f01601f1916602001820160405280156139ac576020820181803683370190505b50905082156139df57602081018381016020860187015b818310156139db5780518352602092830192016139c3565b5050505b949350505050565b60018160400151600b8111156139f957fe5b14613a165760405162461bcd60e51b8152600401610751906156bf565b80516001600160601b031916613a33613a2e84612df8565b61276d565b6001600160601b03191614613a5a5760405162461bcd60e51b8152600401610751906151fd565b5050565b613a66613dea565b6001613a7283826134ad565b60ff1683529050613a8383826134d9565b63ffffffff1660208401529050613a9a8382613cff565b6001600160601b03191660408401529050613ab58382613512565b6001600160a01b031660608401529050613acf83826134d9565b63ffffffff166080840152509092915050565b60058160400151600b811115613af457fe5b14613b115760405162461bcd60e51b8152600401610751906158da565b80516001600160601b031916613b29613a2e84612830565b6001600160601b03191614613a5a5760405162461bcd60e51b815260040161075190615385565b6000808260040190508084511015613b93576040805162461bcd60e51b81526020600482015260016024820152602b60f91b604482015290519081900360640190fd5b929092015192915050565b6000808260020190508084511015613b93576040805162461bcd60e51b81526020600482015260016024820152601560fa1b604482015290519081900360640190fd5b6000808260100190508084511015613b93576040805162461bcd60e51b81526020600482015260016024820152605760f81b604482015290519081900360640190fd5b6000808260140190508084511015613b93576040805162461bcd60e51b81526020600482015260016024820152602960f91b604482015290519081900360640190fd5b600080826001019150838381518110613c7c57fe5b0160200151919460f89290921c1515935090915050565b600080836001600160a01b0316620186a084604051613cb19061066e565b600060405180830381858888f193505050503d8060008114613cef576040519150601f19603f3d011682016040523d82523d6000602084013e613cf4565b606091505b509095945050505050565b6014810160006134e9848460008160140183511015613d49576040805162461bcd60e51b81526020600482015260016024820152605360f81b604482015290519081900360640190fd5b50016020015190565b6040805160c081018252600080825260208201819052918101829052606081018290526080810182905260a081019190915290565b6040805160e081018252600080825260208201819052918101829052606081018290526080810182905260a0810182905260c081019190915290565b60408051608081018252600080825260208201819052918101829052606081019190915290565b6040805160a08101825260008082526020820181905291810182905260608101829052608081019190915290565b60008083601f840112613e29578182fd5b5081356001600160401b03811115613e3f578182fd5b6020830191508360208083028501011115613e5957600080fd5b9250929050565b600082601f830112613e70578081fd5b81356020613e85613e8083615b48565b615b25565b82815281810190858301855b85811015613f155781358801604080601f19838d03011215613eb1578889fd5b80518181016001600160401b038282108183111715613ecc57fe5b908352838901359080821115613ee0578b8cfd5b50613eef8d8a8387010161410e565b825250613efd8284016141f0565b81890152865250509284019290840190600101613e91565b5090979650505050505050565b600082601f830112613f32578081fd5b81356020613f42613e8083615b48565b8281528181019085830160c080860288018501891015613f60578687fd5b865b86811015613f8657613f748a84614172565b85529385019391810191600101613f62565b509198975050505050505050565b600082601f830112613fa4578081fd5b6040516102008082018281106001600160401b0382111715613fc257fe5b6040528184828101871015613fd5578485fd5b8492505b6010831015613ff957803582526001929092019160209182019101613fd9565b509195945050505050565b600082601f830112614014578081fd5b81356020614024613e8083615b48565b8281528181019085830183850287018401881015614040578586fd5b855b85811015613f1557813584529284019290840190600101614042565b600082601f83011261406e578081fd5b8135602061407e613e8083615b48565b828152818101908583018385028701840188101561409a578586fd5b855b85811015613f15576140ad8261421b565b8452928401929084019060010161409c565b8051801515811461217457600080fd5b60008083601f8401126140e0578182fd5b5081356001600160401b038111156140f6578182fd5b602083019150836020828501011115613e5957600080fd5b600082601f83011261411e578081fd5b81356001600160401b0381111561413157fe5b614144601f8201601f1916602001615b25565b818152846020838601011115614158578283fd5b816020850160208301379081016020019190915292915050565b600060c08284031215614183578081fd5b60405160c081018181106001600160401b038211171561419f57fe5b6040529050806141ae836141f0565b81526141bc60208401614204565b602082015260408301356040820152606083013560608201526080830135608082015260a083013560a08201525092915050565b803563ffffffff8116811461217457600080fd5b80356001600160401b038116811461217457600080fd5b803560ff8116811461217457600080fd5b60006020828403121561423d578081fd5b815161243981615b65565b6000806000806080858703121561425d578283fd5b843561426881615b65565b9350602085013561427881615b65565b9250604085013561428881615b65565b9396929550929360600135925050565b6000806000606084860312156142ac578081fd5b83356142b781615b65565b925060208401356142c781615b8f565b915060408401356142d781615b7a565b809150509250925092565b600080604083850312156142f4578182fd5b82356142ff81615b65565b91506134e9602084016141f0565b6000806040838503121561431f578182fd5b823561432a81615b65565b91506134e96020840161421b565b600060208284031215614349578081fd5b6001600160401b03808335111561435e578182fd5b8235830184601f820112614370578283fd5b61437d613e808235615b48565b81358152602080820191908301855b8435811015613f15578135850160e0818b03601f190112156143ac578788fd5b60405180604082011088604083011117156143c357fe5b604081016040526143d78b60208401614172565b81528760e083013511156143e9578889fd5b60e0820135820191508a603f830112614400578889fd5b614410613e806020840135615b48565b6020838101358252810190604084018b5b60208601358110156144525761443d8f6040843589010161410e565b84526020938401939190910190600101614421565b5050602083810191909152918752509485019492909201915060010161438c565b600060208284031215614484578081fd5b81356001600160401b03811115614499578182fd5b6139df84828501613f22565b600080604083850312156144b7578182fd5b82356001600160401b03808211156144cd578384fd5b6144d986838701613f22565b935060208501359150808211156144ee578283fd5b908401906102808287031215614502578283fd5b61450c60a0615b25565b82358281111561451a578485fd5b61452688828601614004565b82525060208301358281111561453a578485fd5b61454688828601614004565b60208301525060408301358281111561455d578485fd5b61456988828601614004565b604083015250606083013582811115614580578485fd5b61458c8882860161405e565b60608301525061459f8760808501613f94565b60808201528093505050509250929050565b6000602082840312156145c2578081fd5b612439826140bf565b6000602082840312156145dc578081fd5b5051919050565b600080602083850312156145f5578182fd5b82356001600160401b0381111561460a578283fd5b614616858286016140cf565b90969095509350505050565b600080600060408486031215614636578081fd5b83356001600160401b0381111561464b578182fd5b614657868287016140cf565b909450925061466a9050602085016141f0565b90509250925092565b60008060008060808587031215614688578182fd5b843561469381615b65565b935060208501356146a381615b65565b925060408501356146b381615b7a565b915060608501356146c381615b7a565b939692955090935050565b600080600080608085870312156146e3578182fd5b84356146ee81615b65565b935060208501356001600160681b0381168114614709578283fd5b9250604085013561471981615b65565b91506147276060860161421b565b905092959194509250565b600060608284031215614743578081fd5b604051606081018181106001600160401b038211171561475f57fe5b60405261476b836140bf565b8152614779602084016140bf565b6020820152604083015161478c81615b65565b60408201529392505050565b600080600080600080600080888a036101808112156147b5578687fd5b60c08112156147c2578687fd5b5088975060c08901356147d481615b65565b96506147e260e08a016141f0565b95506147f16101008a0161421b565b945061012089013561480281615b8f565b935061014089013561481381615b7a565b92506101608901356001600160401b0381111561482e578283fd5b61483a8b828c01613e18565b999c989b5096995094979396929594505050565b600060c0828403121561485f578081fd5b6124398383614172565b60008060e0838503121561487b578182fd5b6148858484614172565b915060c08301356001600160401b03808211156148a0578283fd5b818501915085601f8301126148b3578283fd5b813560206148c3613e8083615b48565b82815281810190858301875b85811015614986578135880160c0818e03601f190112156148ee57898afd5b6148f860c0615b25565b86820135815260408201358981111561490f578b8cfd5b61491d8f898386010161410e565b88830152506060820135604082015260808201358981111561493d578b8cfd5b61494b8f8983860101613e60565b60608301525061495d60a083016141f0565b608082015261496e60c083016141f0565b60a082015285525092840192908401906001016148cf565b50979a909950975050505050505050565b6000602082840312156149a8578081fd5b815161243981615b7a565b6000602082840312156149c4578081fd5b815161243981615b8f565b6000806000606084860312156149e3578081fd5b6149ec846141f0565b92506149fa6020850161421b565b915060408401356142d781615b8f565b600080600060408486031215614a1e578081fd5b614a2784614204565b925060208401356001600160401b03811115614a41578182fd5b614a4d86828701613e18565b9497909650939450505050565b6000815180845260208085019450808401835b83811015614a8957815187529582019590820190600101614a6d565b509495945050505050565b60008151808452815b81811015614ab957602081850181015186830182015201614a9d565b81811115614aca5782602083870101525b50601f01601f19169290920160200192915050565b6001600160601b031991909116815260140190565b6000828483379101908152919050565b60f897881b6001600160f81b0319908116825296881b8716600182015260e09590951b6001600160e01b03191660028601529290951b909316600683015260609290921b6001600160601b031916600782015260f09290921b6001600160f01b031916601b83015260801b6001600160801b031916601d820152602d0190565b60f897881b6001600160f81b0319908116825296881b8716600182015260e09590951b6001600160e01b03191660028601529290951b909316600683015260f09290921b6001600160f01b031916600782015260809290921b6001600160801b031916600983015260601b6001600160601b0319166019820152602d0190565b6001600160a01b0391909116815260200190565b6001600160a01b0393841681529190921660208201526001600160681b03909116604082015260600190565b6001600160a01b03861681526001600160401b03851660208201526000600c8510614c6b57fe5b84604083015260a06060830152614c8560a0830185614a94565b90508260808301529695505050505050565b6001600160a01b039290921682526001600160801b0316602082015260400190565b6001600160a01b0395909516855261ffff93841660208601526001600160801b03929092166040850152909116606083015263ffffffff16608082015260a00190565b6000610280808352614d1081840189614a5a565b9050602083820381850152614d258289614a5a565b84810360408601528751808252828901935090820190845b81811015614d5c57845160ff1683529383019391830191600101614d3d565b50508481036060860152614d708188614a5a565b9350506080840191508460005b6010811015614d9a57815184529282019290820190600101614d7d565b505050509695505050505050565b901515815260200190565b90815260200190565b9182526001600160a01b0316602082015260400190565b600088825263ffffffff808916602084015280881660408401525085606083015284608083015260e060a0830152614e0e60e0830185614a94565b82810360c0840152614e208185614a94565b9a9950505050505050505050565b88815263ffffffff8816602082015260ff871660408201526001600160a01b038616606082015261ffff851660808201526001600160801b03841660a082015260e060c08201819052810182905260006101006001600160fb1b03841115614e94578182fd5b602084028086838601379290920190910190815298975050505050505050565b600060a08252614ec760a0830188614a94565b63ffffffff96871660208401526001600160601b0319959095166040830152506001600160a01b03929092166060830152909216608090920191909152919050565b6001600160a01b0394851681529290931660208301526001600160801b039081166040830152909116606082015260800190565b6020808252601c908201527f5a6b4c696e6b3a20696e76616c6964207374617465206f662074627000000000604082015260600190565b60208082526017908201527f5a6b4c696e6b3a207472616e73666572206661696c6564000000000000000000604082015260600190565b6020808252602b908201527f5a6b4c696e6b3a20696e636f727265637420626c6f636b20636f6d6d69746d6560408201526a373a1034b710383937b7b360a91b606082015260800190565b6020808252818101527f5a6b4c696e6b3a20696e76616c6964206465706f736974732070756264617461604082015260600190565b6020808252601c908201527f5a6b4c696e6b3a20746f6b656e206e6f74207265676973746572656400000000604082015260600190565b60208082526018908201527f5a6b4c696e6b3a20746f6f206d616e7920726571756573740000000000000000604082015260600190565b6020808252600190820152603960f91b604082015260600190565b6020808252601290820152715a6b4c696e6b3a206e6f742061637469766560701b604082015260600190565b6020808252601e908201527f5a6b4c696e6b3a20696e636f727265637420636f6d6d697420626c6f636b0000604082015260600190565b6020808252601a908201527f5a6b4c696e6b3a20696e76616c69642065786563206f72646572000000000000604082015260600190565b60208082526017908201527f5a6b4c696e6b3a20696e636f72726563742070726f6f66000000000000000000604082015260600190565b6020808252602c908201527f5a6b4c696e6b3a20416767726567617465642070726f6f66207665726966696360408201526b185d1a5bdb8819985a5b195960a21b606082015260800190565b6020808252601290820152715a6b4c696e6b3a206e6f74205a6b4c696e6b60701b604082015260600190565b60208082526018908201527f4f503a20696e76616c6964206465706f73697420686173680000000000000000604082015260600190565b6020808252601c908201527f5a6b4c696e6b3a20696e76616c6964207375624163636f756e74496400000000604082015260600190565b6020808252601b908201527f5a6b4c696e6b3a20657468207769746864726177206661696c65640000000000604082015260600190565b6020808252601f908201527f5a6b4c696e6b3a20746f6f206561726c7920746f207265736574206175746800604082015260600190565b6020808252601b908201527f5a6b4c696e6b3a206e6f7468696e6720746f2077697468647261770000000000604082015260600190565b60208082526025908201527f5a6b4c696e6b3a20696e636f72726563742070726576696f757320626c6f636b604082015264206461746160d81b606082015260800190565b602080825260169082015275169ad31a5b9ace881a5b9d985b1a5908185b5bdd5b9d60521b604082015260600190565b60208082526019908201527f4f503a20696e76616c69642066756c6c45786974206861736800000000000000604082015260600190565b60208082526018908201527f5a6b4c696e6b3a20706572666f726d65642065786f6475730000000000000000604082015260600190565b6020808252602a908201527f5a6b4c696e6b3a206e657720707562206b65792068617368206e6f74206175746040820152691a195b9d1a58d85d195960b21b606082015260800190565b60208082526023908201527f5a6b4c696e6b3a20696e636f72726563742073746f72656420626c6f636b20696040820152626e666f60e81b606082015260800190565b6020808252601a908201527f5a6b4c696e6b3a20696e76616c6964207075626b657948617368000000000000604082015260600190565b60208082526013908201527213d40e881a5b9d985b1a590819195c1bdcda5d606a1b604082015260600190565b6020808252601c908201527f5a6b4c696e6b3a20696e76616c6964207374617465206f662074626300000000604082015260600190565b60208082526026908201527f5a6b4c696e6b3a20696e636f7272656374206f6e636861696e206f70732065786040820152651958dd5d195960d21b606082015260800190565b60208082526012908201527105a6b4c696e6b3a20696e76616c6964206f760741b604082015260600190565b60208082526019908201527f5a6b4c696e6b3a207472616e7366657220746f6f206d75636800000000000000604082015260600190565b60208082526021908201527f5a6b4c696e6b3a207075626c6963446174614f6666736574206f766572666c6f6040820152607760f81b606082015260800190565b6020808252602c908201527f5a6b4c696e6b3a20626c6f636b2073686f756c6420626520616674657220707260408201526b6576696f757320626c6f636b60a01b606082015260800190565b60208082526019908201527f5a6b4c696e6b3a20696e76616c6964206163636f756e74496400000000000000604082015260600190565b6020808252601b908201527f5a6b4c696e6b3a20696e76616c6964207374617465206f662070720000000000604082015260600190565b6020808252600f908201526e13d40e881b9bdd0819195c1bdcda5d608a1b604082015260600190565b60208082526029908201527f5a6b4c696e6b3a206f666673657420636f6d6d69746d656e742073686f756c6460408201526820626520656d70747960b81b606082015260800190565b6020808252601290820152715a6b4c696e6b3a206e6f742065786f64757360701b604082015260600190565b60208082526021908201527f5a6b4c696e6b3a207665726966794368616e67655075626b6579206661696c656040820152601960fa1b606082015260800190565b6020808252601d908201527f5a6b4c696e6b3a206e6f7420636f6d6d6974206e65787420626c6f636b000000604082015260600190565b60208082526017908201527f5a6b4c696e6b3a2061646472657373206e6f7420736574000000000000000000604082015260600190565b6020808252601e908201527f5a6b4c696e6b3a206e6f206465706f7369747320746f2070726f636573730000604082015260600190565b602080825260169082015275169ad31a5b9ace8819195c1bdcda5d081c185d5cd95960521b604082015260600190565b60208082526016908201527505a6b4c696e6b3a20756e737570706f72746564206f760541b604082015260600190565b6020808252601c908201527f5a6b4c696e6b3a20696e76616c6964206465706f736974206861736800000000604082015260600190565b60208082526010908201526f13d40e881b9bdd08199d5b1b115e1a5d60821b604082015260600190565b60208082526014908201527313d40e881a5b9d985b1a5908199d5b1b115e1a5d60621b604082015260600190565b60208082526023908201527f5a6b4c696e6b3a20696e76616c6964206e657720626c6f636b2074696d6573746040820152620616d760ec1b606082015260800190565b6020808252818101527f5a6b4c696e6b3a206578656320626c6f636b206e6f7420636f6d6d6974746564604082015260600190565b6020808252602e908201527f5a6b4c696e6b3a206f6666736574732073686f756c64206265206f6e2063687560408201526d6e6b7320626f756e64617269657360901b606082015260800190565b6020808252601e908201527f5a6b4c696e6b3a20696e76616c69642070756264617461206c656e6774680000604082015260600190565b600060c08201905063ffffffff83511682526001600160401b03602084015116602083015260408301516040830152606083015160608301526080830151608083015260a083015160a083015292915050565b6001600160801b0391909116815260200190565b61ffff91909116815260200190565b63ffffffff91909116815260200190565b63ffffffff92831681529116602082015260400190565b6001600160401b0391909116815260200190565b6000808335601e19843603018112615af7578283fd5b8301803591506001600160401b03821115615b10578283fd5b602001915036819003821315613e5957600080fd5b6040518181016001600160401b0381118282101715615b4057fe5b604052919050565b60006001600160401b03821115615b5b57fe5b5060209081020190565b6001600160a01b038116811461252857600080fd5b6001600160801b038116811461252857600080fd5b61ffff8116811461252857600080fdfe8e94fed44239eb2314ab7a406345e6c5a8f0ccedf3b600de3d004e672c33abf4a2646970667358221220e35080d1bbc8c843db1f1072d128bfe202d4e76435a0bf526e25c339a9ffe90964736f6c63430007060033",
  "linkReferences": {},
  "deployedLinkReferences": {}
}