{
  "_format": "hh-sol-artifact-1",
  "contractName": "ZkLink",
  "sourceName": "cache/solpp-generated-contracts/ZkLink.sol",
  "abi": [
    {
      "anonymous": false,
      "inputs": [
        {
          "indexed": true,
          "internalType": "address",
          "name": "accepter",
          "type": "address"
        },
        {
          "indexed": true,
          "internalType": "uint32",
          "name": "accountId",
          "type": "uint32"
        },
        {
          "indexed": false,
          "internalType": "address",
          "name": "receiver",
          "type": "address"
        },
        {
          "indexed": false,
          "internalType": "uint16",
          "name": "tokenId",
          "type": "uint16"
        },
        {
          "indexed": false,
          "internalType": "uint128",
          "name": "amountSent",
          "type": "uint128"
        },
        {
          "indexed": false,
          "internalType": "uint128",
          "name": "amountReceive",
          "type": "uint128"
        }
      ],
      "name": "Accept",
      "type": "event"
    },
    {
      "anonymous": false,
      "inputs": [
        {
          "indexed": true,
          "internalType": "address",
          "name": "bridge",
          "type": "address"
        }
      ],
      "name": "AddBridge",
      "type": "event"
    },
    {
      "anonymous": false,
      "inputs": [
        {
          "indexed": true,
          "internalType": "uint32",
          "name": "blockNumber",
          "type": "uint32"
        }
      ],
      "name": "BlockCommit",
      "type": "event"
    },
    {
      "anonymous": false,
      "inputs": [
        {
          "indexed": true,
          "internalType": "uint32",
          "name": "blockNumber",
          "type": "uint32"
        }
      ],
      "name": "BlockExecuted",
      "type": "event"
    },
    {
      "anonymous": false,
      "inputs": [
        {
          "indexed": false,
          "internalType": "uint32",
          "name": "totalBlocksVerified",
          "type": "uint32"
        },
        {
          "indexed": false,
          "internalType": "uint32",
          "name": "totalBlocksCommitted",
          "type": "uint32"
        }
      ],
      "name": "BlocksRevert",
      "type": "event"
    },
    {
      "anonymous": false,
      "inputs": [
        {
          "indexed": true,
          "internalType": "uint16",
          "name": "tokenId",
          "type": "uint16"
        },
        {
          "indexed": true,
          "internalType": "address",
          "name": "owner",
          "type": "address"
        },
        {
          "indexed": true,
          "internalType": "address",
          "name": "spender",
          "type": "address"
        },
        {
          "indexed": false,
          "internalType": "uint128",
          "name": "amount",
          "type": "uint128"
        }
      ],
      "name": "BrokerApprove",
      "type": "event"
    },
    {
      "anonymous": false,
      "inputs": [],
      "name": "ExodusMode",
      "type": "event"
    },
    {
      "anonymous": false,
      "inputs": [
        {
          "indexed": true,
          "internalType": "address",
          "name": "sender",
          "type": "address"
        },
        {
          "indexed": false,
          "internalType": "uint32",
          "name": "nonce",
          "type": "uint32"
        },
        {
          "indexed": false,
          "internalType": "bytes",
          "name": "fact",
          "type": "bytes"
        }
      ],
      "name": "FactAuth",
      "type": "event"
    },
    {
      "anonymous": false,
      "inputs": [
        {
          "indexed": false,
          "internalType": "address",
          "name": "newGovernor",
          "type": "address"
        }
      ],
      "name": "NewGovernor",
      "type": "event"
    },
    {
      "anonymous": false,
      "inputs": [
        {
          "indexed": false,
          "internalType": "address",
          "name": "sender",
          "type": "address"
        },
        {
          "indexed": false,
          "internalType": "uint64",
          "name": "serialId",
          "type": "uint64"
        },
        {
          "indexed": false,
          "internalType": "enum Operations.OpType",
          "name": "opType",
          "type": "uint8"
        },
        {
          "indexed": false,
          "internalType": "bytes",
          "name": "pubData",
          "type": "bytes"
        },
        {
          "indexed": false,
          "internalType": "uint256",
          "name": "expirationBlock",
          "type": "uint256"
        }
      ],
      "name": "NewPriorityRequest",
      "type": "event"
    },
    {
      "anonymous": false,
      "inputs": [
        {
          "indexed": true,
          "internalType": "uint16",
          "name": "tokenId",
          "type": "uint16"
        },
        {
          "indexed": true,
          "internalType": "address",
          "name": "token",
          "type": "address"
        }
      ],
      "name": "NewToken",
      "type": "event"
    },
    {
      "anonymous": false,
      "inputs": [
        {
          "indexed": true,
          "internalType": "address",
          "name": "bridge",
          "type": "address"
        },
        {
          "indexed": false,
          "internalType": "uint16",
          "name": "srcChainId",
          "type": "uint16"
        },
        {
          "indexed": false,
          "internalType": "uint64",
          "name": "nonce",
          "type": "uint64"
        },
        {
          "indexed": false,
          "internalType": "bytes32",
          "name": "syncHash",
          "type": "bytes32"
        },
        {
          "indexed": false,
          "internalType": "uint256",
          "name": "progress",
          "type": "uint256"
        }
      ],
      "name": "ReceiveSynchronizationProgress",
      "type": "event"
    },
    {
      "anonymous": false,
      "inputs": [
        {
          "indexed": true,
          "internalType": "uint16",
          "name": "token",
          "type": "uint16"
        },
        {
          "indexed": false,
          "internalType": "bool",
          "name": "paused",
          "type": "bool"
        }
      ],
      "name": "TokenPausedUpdate",
      "type": "event"
    },
    {
      "anonymous": false,
      "inputs": [
        {
          "indexed": true,
          "internalType": "uint256",
          "name": "bridgeIndex",
          "type": "uint256"
        },
        {
          "indexed": false,
          "internalType": "bool",
          "name": "enableBridgeTo",
          "type": "bool"
        },
        {
          "indexed": false,
          "internalType": "bool",
          "name": "enableBridgeFrom",
          "type": "bool"
        }
      ],
      "name": "UpdateBridge",
      "type": "event"
    },
    {
      "anonymous": false,
      "inputs": [
        {
          "indexed": true,
          "internalType": "address",
          "name": "validatorAddress",
          "type": "address"
        },
        {
          "indexed": false,
          "internalType": "bool",
          "name": "isActive",
          "type": "bool"
        }
      ],
      "name": "ValidatorStatusUpdate",
      "type": "event"
    },
    {
      "anonymous": false,
      "inputs": [
        {
          "indexed": true,
          "internalType": "uint16",
          "name": "tokenId",
          "type": "uint16"
        },
        {
          "indexed": false,
          "internalType": "uint128",
          "name": "amount",
          "type": "uint128"
        }
      ],
      "name": "Withdrawal",
      "type": "event"
    },
    {
      "anonymous": false,
      "inputs": [
        {
          "indexed": true,
          "internalType": "uint16",
          "name": "tokenId",
          "type": "uint16"
        },
        {
          "indexed": true,
          "internalType": "address",
          "name": "recepient",
          "type": "address"
        },
        {
          "indexed": false,
          "internalType": "uint128",
          "name": "amount",
          "type": "uint128"
        }
      ],
      "name": "WithdrawalPending",
      "type": "event"
    },
    {
      "stateMutability": "payable",
      "type": "fallback"
    },
    {
      "inputs": [
        {
          "internalType": "uint32",
          "name": "",
          "type": "uint32"
        },
        {
          "internalType": "bytes32",
          "name": "",
          "type": "bytes32"
        }
      ],
      "name": "accepts",
      "outputs": [
        {
          "internalType": "address",
          "name": "",
          "type": "address"
        }
      ],
      "stateMutability": "view",
      "type": "function"
    },
    {
      "inputs": [
        {
          "internalType": "address",
          "name": "",
          "type": "address"
        },
        {
          "internalType": "uint32",
          "name": "",
          "type": "uint32"
        }
      ],
      "name": "authFacts",
      "outputs": [
        {
          "internalType": "bytes32",
          "name": "",
          "type": "bytes32"
        }
      ],
      "stateMutability": "view",
      "type": "function"
    },
    {
      "inputs": [
        {
          "internalType": "address",
          "name": "",
          "type": "address"
        }
      ],
      "name": "bridgeIndex",
      "outputs": [
        {
          "internalType": "uint256",
          "name": "",
          "type": "uint256"
        }
      ],
      "stateMutability": "view",
      "type": "function"
    },
    {
      "inputs": [
        {
          "internalType": "uint256",
          "name": "",
          "type": "uint256"
        }
      ],
      "name": "bridges",
      "outputs": [
        {
          "internalType": "address",
          "name": "bridge",
          "type": "address"
        },
        {
          "internalType": "bool",
          "name": "enableBridgeTo",
          "type": "bool"
        },
        {
          "internalType": "bool",
          "name": "enableBridgeFrom",
          "type": "bool"
        }
      ],
      "stateMutability": "view",
      "type": "function"
    },
    {
      "inputs": [
        {
          "components": [
            {
              "internalType": "uint32",
              "name": "blockNumber",
              "type": "uint32"
            },
            {
              "internalType": "uint64",
              "name": "priorityOperations",
              "type": "uint64"
            },
            {
              "internalType": "bytes32",
              "name": "pendingOnchainOperationsHash",
              "type": "bytes32"
            },
            {
              "internalType": "uint256",
              "name": "timestamp",
              "type": "uint256"
            },
            {
              "internalType": "bytes32",
              "name": "stateHash",
              "type": "bytes32"
            },
            {
              "internalType": "bytes32",
              "name": "commitment",
              "type": "bytes32"
            },
            {
              "internalType": "bytes32",
              "name": "syncHash",
              "type": "bytes32"
            }
          ],
          "internalType": "struct Storage.StoredBlockInfo",
          "name": "_lastCommittedBlockData",
          "type": "tuple"
        },
        {
          "components": [
            {
              "internalType": "bytes32",
              "name": "newStateHash",
              "type": "bytes32"
            },
            {
              "internalType": "bytes",
              "name": "publicData",
              "type": "bytes"
            },
            {
              "internalType": "uint256",
              "name": "timestamp",
              "type": "uint256"
            },
            {
              "components": [
                {
                  "internalType": "bytes",
                  "name": "ethWitness",
                  "type": "bytes"
                },
                {
                  "internalType": "uint32",
                  "name": "publicDataOffset",
                  "type": "uint32"
                }
              ],
              "internalType": "struct ZkLink.OnchainOperationData[]",
              "name": "onchainOperations",
              "type": "tuple[]"
            },
            {
              "internalType": "uint32",
              "name": "blockNumber",
              "type": "uint32"
            },
            {
              "internalType": "uint32",
              "name": "feeAccount",
              "type": "uint32"
            }
          ],
          "internalType": "struct ZkLink.CommitBlockInfo[]",
          "name": "_newBlocksData",
          "type": "tuple[]"
        }
      ],
      "name": "commitBlocks",
      "outputs": [],
      "stateMutability": "nonpayable",
      "type": "function"
    },
    {
      "inputs": [
        {
          "components": [
            {
              "internalType": "uint32",
              "name": "blockNumber",
              "type": "uint32"
            },
            {
              "internalType": "uint64",
              "name": "priorityOperations",
              "type": "uint64"
            },
            {
              "internalType": "bytes32",
              "name": "pendingOnchainOperationsHash",
              "type": "bytes32"
            },
            {
              "internalType": "uint256",
              "name": "timestamp",
              "type": "uint256"
            },
            {
              "internalType": "bytes32",
              "name": "stateHash",
              "type": "bytes32"
            },
            {
              "internalType": "bytes32",
              "name": "commitment",
              "type": "bytes32"
            },
            {
              "internalType": "bytes32",
              "name": "syncHash",
              "type": "bytes32"
            }
          ],
          "internalType": "struct Storage.StoredBlockInfo",
          "name": "_lastCommittedBlockData",
          "type": "tuple"
        },
        {
          "components": [
            {
              "internalType": "bytes32",
              "name": "newStateHash",
              "type": "bytes32"
            },
            {
              "internalType": "bytes",
              "name": "publicData",
              "type": "bytes"
            },
            {
              "internalType": "uint256",
              "name": "timestamp",
              "type": "uint256"
            },
            {
              "components": [
                {
                  "internalType": "bytes",
                  "name": "ethWitness",
                  "type": "bytes"
                },
                {
                  "internalType": "uint32",
                  "name": "publicDataOffset",
                  "type": "uint32"
                }
              ],
              "internalType": "struct ZkLink.OnchainOperationData[]",
              "name": "onchainOperations",
              "type": "tuple[]"
            },
            {
              "internalType": "uint32",
              "name": "blockNumber",
              "type": "uint32"
            },
            {
              "internalType": "uint32",
              "name": "feeAccount",
              "type": "uint32"
            }
          ],
          "internalType": "struct ZkLink.CommitBlockInfo[]",
          "name": "_newBlocksData",
          "type": "tuple[]"
        },
        {
          "components": [
            {
              "internalType": "bytes32",
              "name": "publicDataHash",
              "type": "bytes32"
            },
            {
              "internalType": "bytes32",
              "name": "offsetCommitmentHash",
              "type": "bytes32"
            },
            {
              "internalType": "bytes32[]",
              "name": "onchainOperationPubdataHashs",
              "type": "bytes32[]"
            }
          ],
          "internalType": "struct ZkLink.CompressedBlockExtraInfo[]",
          "name": "_newBlocksExtraData",
          "type": "tuple[]"
        }
      ],
      "name": "commitCompressedBlocks",
      "outputs": [],
      "stateMutability": "nonpayable",
      "type": "function"
    },
    {
      "inputs": [
        {
          "internalType": "contract IERC20",
          "name": "_token",
          "type": "address"
        },
        {
          "internalType": "uint104",
          "name": "_amount",
          "type": "uint104"
        },
        {
          "internalType": "address",
          "name": "_zkLinkAddress",
          "type": "address"
        },
        {
          "internalType": "uint8",
          "name": "_subAccountId",
          "type": "uint8"
        }
      ],
      "name": "depositERC20",
      "outputs": [],
      "stateMutability": "nonpayable",
      "type": "function"
    },
    {
      "inputs": [
        {
          "internalType": "address",
          "name": "_zkLinkAddress",
          "type": "address"
        },
        {
          "internalType": "uint8",
          "name": "_subAccountId",
          "type": "uint8"
        }
      ],
      "name": "depositETH",
      "outputs": [],
      "stateMutability": "payable",
      "type": "function"
    },
    {
      "inputs": [
        {
          "components": [
            {
              "components": [
                {
                  "internalType": "uint32",
                  "name": "blockNumber",
                  "type": "uint32"
                },
                {
                  "internalType": "uint64",
                  "name": "priorityOperations",
                  "type": "uint64"
                },
                {
                  "internalType": "bytes32",
                  "name": "pendingOnchainOperationsHash",
                  "type": "bytes32"
                },
                {
                  "internalType": "uint256",
                  "name": "timestamp",
                  "type": "uint256"
                },
                {
                  "internalType": "bytes32",
                  "name": "stateHash",
                  "type": "bytes32"
                },
                {
                  "internalType": "bytes32",
                  "name": "commitment",
                  "type": "bytes32"
                },
                {
                  "internalType": "bytes32",
                  "name": "syncHash",
                  "type": "bytes32"
                }
              ],
              "internalType": "struct Storage.StoredBlockInfo",
              "name": "storedBlock",
              "type": "tuple"
            },
            {
              "internalType": "bytes[]",
              "name": "pendingOnchainOpsPubdata",
              "type": "bytes[]"
            }
          ],
          "internalType": "struct ZkLink.ExecuteBlockInfo[]",
          "name": "_blocksData",
          "type": "tuple[]"
        }
      ],
      "name": "executeBlocks",
      "outputs": [],
      "stateMutability": "nonpayable",
      "type": "function"
    },
    {
      "inputs": [],
      "name": "exodusMode",
      "outputs": [
        {
          "internalType": "bool",
          "name": "",
          "type": "bool"
        }
      ],
      "stateMutability": "view",
      "type": "function"
    },
    {
      "inputs": [],
      "name": "firstPriorityRequestId",
      "outputs": [
        {
          "internalType": "uint64",
          "name": "",
          "type": "uint64"
        }
      ],
      "stateMutability": "view",
      "type": "function"
    },
    {
      "inputs": [],
      "name": "getNoticePeriod",
      "outputs": [
        {
          "internalType": "uint256",
          "name": "",
          "type": "uint256"
        }
      ],
      "stateMutability": "pure",
      "type": "function"
    },
    {
      "inputs": [
        {
          "internalType": "bytes",
          "name": "initializationParameters",
          "type": "bytes"
        }
      ],
      "name": "initialize",
      "outputs": [],
      "stateMutability": "nonpayable",
      "type": "function"
    },
    {
      "inputs": [],
      "name": "isReadyForUpgrade",
      "outputs": [
        {
          "internalType": "bool",
          "name": "",
          "type": "bool"
        }
      ],
      "stateMutability": "view",
      "type": "function"
    },
    {
      "inputs": [],
      "name": "networkGovernor",
      "outputs": [
        {
          "internalType": "address",
          "name": "",
          "type": "address"
        }
      ],
      "stateMutability": "view",
      "type": "function"
    },
    {
      "inputs": [
        {
          "internalType": "uint32",
          "name": "",
          "type": "uint32"
        },
        {
          "internalType": "uint8",
          "name": "",
          "type": "uint8"
        },
        {
          "internalType": "uint16",
          "name": "",
          "type": "uint16"
        }
      ],
      "name": "performedExodus",
      "outputs": [
        {
          "internalType": "bool",
          "name": "",
          "type": "bool"
        }
      ],
      "stateMutability": "view",
      "type": "function"
    },
    {
      "inputs": [],
      "name": "periphery",
      "outputs": [
        {
          "internalType": "address",
          "name": "",
          "type": "address"
        }
      ],
      "stateMutability": "view",
      "type": "function"
    },
    {
      "inputs": [
        {
          "components": [
            {
              "internalType": "uint32",
              "name": "blockNumber",
              "type": "uint32"
            },
            {
              "internalType": "uint64",
              "name": "priorityOperations",
              "type": "uint64"
            },
            {
              "internalType": "bytes32",
              "name": "pendingOnchainOperationsHash",
              "type": "bytes32"
            },
            {
              "internalType": "uint256",
              "name": "timestamp",
              "type": "uint256"
            },
            {
              "internalType": "bytes32",
              "name": "stateHash",
              "type": "bytes32"
            },
            {
              "internalType": "bytes32",
              "name": "commitment",
              "type": "bytes32"
            },
            {
              "internalType": "bytes32",
              "name": "syncHash",
              "type": "bytes32"
            }
          ],
          "internalType": "struct Storage.StoredBlockInfo[]",
          "name": "_committedBlocks",
          "type": "tuple[]"
        },
        {
          "components": [
            {
              "internalType": "uint256[]",
              "name": "recursiveInput",
              "type": "uint256[]"
            },
            {
              "internalType": "uint256[]",
              "name": "proof",
              "type": "uint256[]"
            },
            {
              "internalType": "uint256[]",
              "name": "commitments",
              "type": "uint256[]"
            },
            {
              "internalType": "uint8[]",
              "name": "vkIndexes",
              "type": "uint8[]"
            },
            {
              "internalType": "uint256[16]",
              "name": "subproofsLimbs",
              "type": "uint256[16]"
            }
          ],
          "internalType": "struct ZkLink.ProofInput",
          "name": "_proof",
          "type": "tuple"
        }
      ],
      "name": "proveBlocks",
      "outputs": [],
      "stateMutability": "nonpayable",
      "type": "function"
    },
    {
      "inputs": [
        {
          "internalType": "uint32",
          "name": "_accountId",
          "type": "uint32"
        },
        {
          "internalType": "uint8",
          "name": "_subAccountId",
          "type": "uint8"
        },
        {
          "internalType": "uint16",
          "name": "_tokenId",
          "type": "uint16"
        }
      ],
      "name": "requestFullExit",
      "outputs": [],
      "stateMutability": "nonpayable",
      "type": "function"
    },
    {
      "inputs": [
        {
          "components": [
            {
              "internalType": "uint32",
              "name": "blockNumber",
              "type": "uint32"
            },
            {
              "internalType": "uint64",
              "name": "priorityOperations",
              "type": "uint64"
            },
            {
              "internalType": "bytes32",
              "name": "pendingOnchainOperationsHash",
              "type": "bytes32"
            },
            {
              "internalType": "uint256",
              "name": "timestamp",
              "type": "uint256"
            },
            {
              "internalType": "bytes32",
              "name": "stateHash",
              "type": "bytes32"
            },
            {
              "internalType": "bytes32",
              "name": "commitment",
              "type": "bytes32"
            },
            {
              "internalType": "bytes32",
              "name": "syncHash",
              "type": "bytes32"
            }
          ],
          "internalType": "struct Storage.StoredBlockInfo[]",
          "name": "_blocksToRevert",
          "type": "tuple[]"
        }
      ],
      "name": "revertBlocks",
      "outputs": [],
      "stateMutability": "nonpayable",
      "type": "function"
    },
    {
      "inputs": [
        {
          "internalType": "address",
          "name": "",
          "type": "address"
        }
      ],
      "name": "tokenIds",
      "outputs": [
        {
          "internalType": "uint16",
          "name": "",
          "type": "uint16"
        }
      ],
      "stateMutability": "view",
      "type": "function"
    },
    {
      "inputs": [
        {
          "internalType": "uint16",
          "name": "",
          "type": "uint16"
        }
      ],
      "name": "tokens",
      "outputs": [
        {
          "internalType": "bool",
          "name": "registered",
          "type": "bool"
        },
        {
          "internalType": "bool",
          "name": "paused",
          "type": "bool"
        },
        {
          "internalType": "address",
          "name": "tokenAddress",
          "type": "address"
        },
        {
          "internalType": "bool",
          "name": "standard",
          "type": "bool"
        }
      ],
      "stateMutability": "view",
      "type": "function"
    },
    {
      "inputs": [],
      "name": "totalBlocksCommitted",
      "outputs": [
        {
          "internalType": "uint32",
          "name": "",
          "type": "uint32"
        }
      ],
      "stateMutability": "view",
      "type": "function"
    },
    {
      "inputs": [],
      "name": "totalBlocksExecuted",
      "outputs": [
        {
          "internalType": "uint32",
          "name": "",
          "type": "uint32"
        }
      ],
      "stateMutability": "view",
      "type": "function"
    },
    {
      "inputs": [],
      "name": "totalBlocksProven",
      "outputs": [
        {
          "internalType": "uint32",
          "name": "",
          "type": "uint32"
        }
      ],
      "stateMutability": "view",
      "type": "function"
    },
    {
      "inputs": [],
      "name": "totalBlocksSynchronized",
      "outputs": [
        {
          "internalType": "uint32",
          "name": "",
          "type": "uint32"
        }
      ],
      "stateMutability": "view",
      "type": "function"
    },
    {
      "inputs": [],
      "name": "totalCommittedPriorityRequests",
      "outputs": [
        {
          "internalType": "uint64",
          "name": "",
          "type": "uint64"
        }
      ],
      "stateMutability": "view",
      "type": "function"
    },
    {
      "inputs": [],
      "name": "totalOpenPriorityRequests",
      "outputs": [
        {
          "internalType": "uint64",
          "name": "",
          "type": "uint64"
        }
      ],
      "stateMutability": "view",
      "type": "function"
    },
    {
      "inputs": [
        {
          "internalType": "contract IERC20",
          "name": "_token",
          "type": "address"
        },
        {
          "internalType": "address",
          "name": "_to",
          "type": "address"
        },
        {
          "internalType": "uint128",
          "name": "_amount",
          "type": "uint128"
        },
        {
          "internalType": "uint128",
          "name": "_maxAmount",
          "type": "uint128"
        },
        {
          "internalType": "bool",
          "name": "_isStandard",
          "type": "bool"
        }
      ],
      "name": "transferERC20",
      "outputs": [
        {
          "internalType": "uint128",
          "name": "withdrawnAmount",
          "type": "uint128"
        }
      ],
      "stateMutability": "nonpayable",
      "type": "function"
    },
    {
      "inputs": [
        {
          "internalType": "bytes",
          "name": "upgradeParameters",
          "type": "bytes"
        }
      ],
      "name": "upgrade",
      "outputs": [],
      "stateMutability": "nonpayable",
      "type": "function"
    },
    {
      "inputs": [
        {
          "internalType": "address",
          "name": "",
          "type": "address"
        }
      ],
      "name": "validators",
      "outputs": [
        {
          "internalType": "bool",
          "name": "",
          "type": "bool"
        }
      ],
      "stateMutability": "view",
      "type": "function"
    },
    {
      "inputs": [],
      "name": "verifier",
      "outputs": [
        {
          "internalType": "contract Verifier",
          "name": "",
          "type": "address"
        }
      ],
      "stateMutability": "view",
      "type": "function"
    },
    {
      "inputs": [
        {
          "internalType": "address payable",
          "name": "_owner",
          "type": "address"
        },
        {
          "internalType": "uint16",
          "name": "_tokenId",
          "type": "uint16"
        },
        {
          "internalType": "uint128",
          "name": "_amount",
          "type": "uint128"
        }
      ],
      "name": "withdrawPendingBalance",
      "outputs": [],
      "stateMutability": "nonpayable",
      "type": "function"
    },
    {
      "stateMutability": "payable",
      "type": "receive"
    },
    {
      "anonymous": false,
      "inputs": [
        {
          "indexed": true,
          "internalType": "address",
          "name": "accepter",
          "type": "address"
        },
        {
          "indexed": true,
          "internalType": "uint32",
          "name": "accountId",
          "type": "uint32"
        },
        {
          "indexed": false,
          "internalType": "address",
          "name": "receiver",
          "type": "address"
        },
        {
          "indexed": false,
          "internalType": "uint16",
          "name": "tokenId",
          "type": "uint16"
        },
        {
          "indexed": false,
          "internalType": "uint128",
          "name": "amountSent",
          "type": "uint128"
        },
        {
          "indexed": false,
          "internalType": "uint128",
          "name": "amountReceive",
          "type": "uint128"
        }
      ],
      "name": "Accept",
      "type": "event"
    },
    {
      "anonymous": false,
      "inputs": [
        {
          "indexed": true,
          "internalType": "address",
          "name": "bridge",
          "type": "address"
        }
      ],
      "name": "AddBridge",
      "type": "event"
    },
    {
      "anonymous": false,
      "inputs": [
        {
          "indexed": true,
          "internalType": "uint32",
          "name": "blockNumber",
          "type": "uint32"
        }
      ],
      "name": "BlockCommit",
      "type": "event"
    },
    {
      "anonymous": false,
      "inputs": [
        {
          "indexed": true,
          "internalType": "uint32",
          "name": "blockNumber",
          "type": "uint32"
        }
      ],
      "name": "BlockExecuted",
      "type": "event"
    },
    {
      "anonymous": false,
      "inputs": [
        {
          "indexed": false,
          "internalType": "uint32",
          "name": "totalBlocksVerified",
          "type": "uint32"
        },
        {
          "indexed": false,
          "internalType": "uint32",
          "name": "totalBlocksCommitted",
          "type": "uint32"
        }
      ],
      "name": "BlocksRevert",
      "type": "event"
    },
    {
      "anonymous": false,
      "inputs": [
        {
          "indexed": true,
          "internalType": "uint16",
          "name": "tokenId",
          "type": "uint16"
        },
        {
          "indexed": true,
          "internalType": "address",
          "name": "owner",
          "type": "address"
        },
        {
          "indexed": true,
          "internalType": "address",
          "name": "spender",
          "type": "address"
        },
        {
          "indexed": false,
          "internalType": "uint128",
          "name": "amount",
          "type": "uint128"
        }
      ],
      "name": "BrokerApprove",
      "type": "event"
    },
    {
      "anonymous": false,
      "inputs": [],
      "name": "ExodusMode",
      "type": "event"
    },
    {
      "anonymous": false,
      "inputs": [
        {
          "indexed": true,
          "internalType": "address",
          "name": "sender",
          "type": "address"
        },
        {
          "indexed": false,
          "internalType": "uint32",
          "name": "nonce",
          "type": "uint32"
        },
        {
          "indexed": false,
          "internalType": "bytes",
          "name": "fact",
          "type": "bytes"
        }
      ],
      "name": "FactAuth",
      "type": "event"
    },
    {
      "anonymous": false,
      "inputs": [
        {
          "indexed": false,
          "internalType": "address",
          "name": "newGovernor",
          "type": "address"
        }
      ],
      "name": "NewGovernor",
      "type": "event"
    },
    {
      "anonymous": false,
      "inputs": [
        {
          "indexed": false,
          "internalType": "address",
          "name": "sender",
          "type": "address"
        },
        {
          "indexed": false,
          "internalType": "uint64",
          "name": "serialId",
          "type": "uint64"
        },
        {
          "indexed": false,
          "internalType": "enum Operations.OpType",
          "name": "opType",
          "type": "uint8"
        },
        {
          "indexed": false,
          "internalType": "bytes",
          "name": "pubData",
          "type": "bytes"
        },
        {
          "indexed": false,
          "internalType": "uint256",
          "name": "expirationBlock",
          "type": "uint256"
        }
      ],
      "name": "NewPriorityRequest",
      "type": "event"
    },
    {
      "anonymous": false,
      "inputs": [
        {
          "indexed": true,
          "internalType": "uint16",
          "name": "tokenId",
          "type": "uint16"
        },
        {
          "indexed": true,
          "internalType": "address",
          "name": "token",
          "type": "address"
        }
      ],
      "name": "NewToken",
      "type": "event"
    },
    {
      "anonymous": false,
      "inputs": [
        {
          "indexed": true,
          "internalType": "address",
          "name": "bridge",
          "type": "address"
        },
        {
          "indexed": false,
          "internalType": "uint16",
          "name": "srcChainId",
          "type": "uint16"
        },
        {
          "indexed": false,
          "internalType": "uint64",
          "name": "nonce",
          "type": "uint64"
        },
        {
          "indexed": false,
          "internalType": "bytes32",
          "name": "syncHash",
          "type": "bytes32"
        },
        {
          "indexed": false,
          "internalType": "uint256",
          "name": "progress",
          "type": "uint256"
        }
      ],
      "name": "ReceiveSynchronizationProgress",
      "type": "event"
    },
    {
      "anonymous": false,
      "inputs": [
        {
          "indexed": true,
          "internalType": "uint16",
          "name": "token",
          "type": "uint16"
        },
        {
          "indexed": false,
          "internalType": "bool",
          "name": "paused",
          "type": "bool"
        }
      ],
      "name": "TokenPausedUpdate",
      "type": "event"
    },
    {
      "anonymous": false,
      "inputs": [
        {
          "indexed": true,
          "internalType": "uint256",
          "name": "bridgeIndex",
          "type": "uint256"
        },
        {
          "indexed": false,
          "internalType": "bool",
          "name": "enableBridgeTo",
          "type": "bool"
        },
        {
          "indexed": false,
          "internalType": "bool",
          "name": "enableBridgeFrom",
          "type": "bool"
        }
      ],
      "name": "UpdateBridge",
      "type": "event"
    },
    {
      "anonymous": false,
      "inputs": [
        {
          "indexed": true,
          "internalType": "address",
          "name": "validatorAddress",
          "type": "address"
        },
        {
          "indexed": false,
          "internalType": "bool",
          "name": "isActive",
          "type": "bool"
        }
      ],
      "name": "ValidatorStatusUpdate",
      "type": "event"
    },
    {
      "anonymous": false,
      "inputs": [
        {
          "indexed": true,
          "internalType": "uint16",
          "name": "tokenId",
          "type": "uint16"
        },
        {
          "indexed": false,
          "internalType": "uint128",
          "name": "amount",
          "type": "uint128"
        }
      ],
      "name": "Withdrawal",
      "type": "event"
    },
    {
      "anonymous": false,
      "inputs": [
        {
          "indexed": true,
          "internalType": "uint16",
          "name": "tokenId",
          "type": "uint16"
        },
        {
          "indexed": true,
          "internalType": "address",
          "name": "recepient",
          "type": "address"
        },
        {
          "indexed": false,
          "internalType": "uint128",
          "name": "amount",
          "type": "uint128"
        }
      ],
      "name": "WithdrawalPending",
      "type": "event"
    },
    {
      "inputs": [
        {
          "internalType": "address",
          "name": "accepter",
          "type": "address"
        },
        {
          "internalType": "uint32",
          "name": "accountId",
          "type": "uint32"
        },
        {
          "internalType": "address",
          "name": "receiver",
          "type": "address"
        },
        {
          "internalType": "uint16",
          "name": "tokenId",
          "type": "uint16"
        },
        {
          "internalType": "uint128",
          "name": "amount",
          "type": "uint128"
        },
        {
          "internalType": "uint16",
          "name": "withdrawFeeRate",
          "type": "uint16"
        },
        {
          "internalType": "uint32",
          "name": "nonce",
          "type": "uint32"
        },
        {
          "internalType": "uint128",
          "name": "amountTransfer",
          "type": "uint128"
        }
      ],
      "name": "acceptERC20",
      "outputs": [],
      "stateMutability": "nonpayable",
      "type": "function"
    },
    {
      "inputs": [
        {
          "internalType": "address",
          "name": "accepter",
          "type": "address"
        },
        {
          "internalType": "uint32",
          "name": "accountId",
          "type": "uint32"
        },
        {
          "internalType": "address payable",
          "name": "receiver",
          "type": "address"
        },
        {
          "internalType": "uint128",
          "name": "amount",
          "type": "uint128"
        },
        {
          "internalType": "uint16",
          "name": "withdrawFeeRate",
          "type": "uint16"
        },
        {
          "internalType": "uint32",
          "name": "nonce",
          "type": "uint32"
        }
      ],
      "name": "acceptETH",
      "outputs": [],
      "stateMutability": "payable",
      "type": "function"
    },
    {
      "inputs": [
        {
          "internalType": "uint32",
          "name": "",
          "type": "uint32"
        },
        {
          "internalType": "bytes32",
          "name": "",
          "type": "bytes32"
        }
      ],
      "name": "accepts",
      "outputs": [
        {
          "internalType": "address",
          "name": "",
          "type": "address"
        }
      ],
      "stateMutability": "view",
      "type": "function"
    },
    {
      "inputs": [],
      "name": "activateExodusMode",
      "outputs": [],
      "stateMutability": "nonpayable",
      "type": "function"
    },
    {
      "inputs": [
        {
          "internalType": "address",
          "name": "bridge",
          "type": "address"
        }
      ],
      "name": "addBridge",
      "outputs": [],
      "stateMutability": "nonpayable",
      "type": "function"
    },
    {
      "inputs": [
        {
          "internalType": "uint16",
          "name": "_tokenId",
          "type": "uint16"
        },
        {
          "internalType": "address",
          "name": "_tokenAddress",
          "type": "address"
        },
        {
          "internalType": "bool",
          "name": "_standard",
          "type": "bool"
        }
      ],
      "name": "addToken",
      "outputs": [],
      "stateMutability": "nonpayable",
      "type": "function"
    },
    {
      "inputs": [
        {
          "internalType": "uint16[]",
          "name": "_tokenIdList",
          "type": "uint16[]"
        },
        {
          "internalType": "address[]",
          "name": "_tokenAddressList",
          "type": "address[]"
        },
        {
          "internalType": "bool[]",
          "name": "_standardList",
          "type": "bool[]"
        }
      ],
      "name": "addTokens",
      "outputs": [],
      "stateMutability": "nonpayable",
      "type": "function"
    },
    {
      "inputs": [
        {
          "internalType": "address",
          "name": "",
          "type": "address"
        },
        {
          "internalType": "uint32",
          "name": "",
          "type": "uint32"
        }
      ],
      "name": "authFacts",
      "outputs": [
        {
          "internalType": "bytes32",
          "name": "",
          "type": "bytes32"
        }
      ],
      "stateMutability": "view",
      "type": "function"
    },
    {
      "inputs": [
        {
          "internalType": "address",
          "name": "",
          "type": "address"
        }
      ],
      "name": "bridgeIndex",
      "outputs": [
        {
          "internalType": "uint256",
          "name": "",
          "type": "uint256"
        }
      ],
      "stateMutability": "view",
      "type": "function"
    },
    {
      "inputs": [
        {
          "internalType": "uint256",
          "name": "",
          "type": "uint256"
        }
      ],
      "name": "bridges",
      "outputs": [
        {
          "internalType": "address",
          "name": "bridge",
          "type": "address"
        },
        {
          "internalType": "bool",
          "name": "enableBridgeTo",
          "type": "bool"
        },
        {
          "internalType": "bool",
          "name": "enableBridgeFrom",
          "type": "bool"
        }
      ],
      "stateMutability": "view",
      "type": "function"
    },
    {
      "inputs": [
        {
          "internalType": "uint16",
          "name": "tokenId",
          "type": "uint16"
        },
        {
          "internalType": "address",
          "name": "owner",
          "type": "address"
        },
        {
          "internalType": "address",
          "name": "spender",
          "type": "address"
        }
      ],
      "name": "brokerAllowance",
      "outputs": [
        {
          "internalType": "uint128",
          "name": "",
          "type": "uint128"
        }
      ],
      "stateMutability": "view",
      "type": "function"
    },
    {
      "inputs": [
        {
          "internalType": "uint16",
          "name": "tokenId",
          "type": "uint16"
        },
        {
          "internalType": "address",
          "name": "spender",
          "type": "address"
        },
        {
          "internalType": "uint128",
          "name": "amount",
          "type": "uint128"
        }
      ],
      "name": "brokerApprove",
      "outputs": [
        {
          "internalType": "bool",
          "name": "",
          "type": "bool"
        }
      ],
      "stateMutability": "nonpayable",
      "type": "function"
    },
    {
      "inputs": [
        {
          "internalType": "uint64",
          "name": "_n",
          "type": "uint64"
        },
        {
          "internalType": "bytes[]",
          "name": "_depositsPubdata",
          "type": "bytes[]"
        }
      ],
      "name": "cancelOutstandingDepositsForExodusMode",
      "outputs": [],
      "stateMutability": "nonpayable",
      "type": "function"
    },
    {
      "inputs": [
        {
          "internalType": "address",
          "name": "_newGovernor",
          "type": "address"
        }
      ],
      "name": "changeGovernor",
      "outputs": [],
      "stateMutability": "nonpayable",
      "type": "function"
    },
    {
      "inputs": [],
      "name": "exodusMode",
      "outputs": [
        {
          "internalType": "bool",
          "name": "",
          "type": "bool"
        }
      ],
      "stateMutability": "view",
      "type": "function"
    },
    {
      "inputs": [],
      "name": "firstPriorityRequestId",
      "outputs": [
        {
          "internalType": "uint64",
          "name": "",
          "type": "uint64"
        }
      ],
      "stateMutability": "view",
      "type": "function"
    },
    {
      "inputs": [
        {
          "internalType": "address",
          "name": "_address",
          "type": "address"
        },
        {
          "internalType": "uint16",
          "name": "_tokenId",
          "type": "uint16"
        }
      ],
      "name": "getPendingBalance",
      "outputs": [
        {
          "internalType": "uint128",
          "name": "",
          "type": "uint128"
        }
      ],
      "stateMutability": "view",
      "type": "function"
    },
    {
      "inputs": [
        {
          "components": [
            {
              "internalType": "uint32",
              "name": "blockNumber",
              "type": "uint32"
            },
            {
              "internalType": "uint64",
              "name": "priorityOperations",
              "type": "uint64"
            },
            {
              "internalType": "bytes32",
              "name": "pendingOnchainOperationsHash",
              "type": "bytes32"
            },
            {
              "internalType": "uint256",
              "name": "timestamp",
              "type": "uint256"
            },
            {
              "internalType": "bytes32",
              "name": "stateHash",
              "type": "bytes32"
            },
            {
              "internalType": "bytes32",
              "name": "commitment",
              "type": "bytes32"
            },
            {
              "internalType": "bytes32",
              "name": "syncHash",
              "type": "bytes32"
            }
          ],
          "internalType": "struct Storage.StoredBlockInfo",
          "name": "_block",
          "type": "tuple"
        }
      ],
      "name": "getSynchronizedProgress",
      "outputs": [
        {
          "internalType": "uint256",
          "name": "progress",
          "type": "uint256"
        }
      ],
      "stateMutability": "view",
      "type": "function"
    },
    {
      "inputs": [
        {
          "internalType": "address",
          "name": "bridge",
          "type": "address"
        }
      ],
      "name": "isBridgeFromEnabled",
      "outputs": [
        {
          "internalType": "bool",
          "name": "",
          "type": "bool"
        }
      ],
      "stateMutability": "view",
      "type": "function"
    },
    {
      "inputs": [
        {
          "internalType": "address",
          "name": "bridge",
          "type": "address"
        }
      ],
      "name": "isBridgeToEnabled",
      "outputs": [
        {
          "internalType": "bool",
          "name": "",
          "type": "bool"
        }
      ],
      "stateMutability": "view",
      "type": "function"
    },
    {
      "inputs": [],
      "name": "networkGovernor",
      "outputs": [
        {
          "internalType": "address",
          "name": "",
          "type": "address"
        }
      ],
      "stateMutability": "view",
      "type": "function"
    },
    {
      "inputs": [
        {
          "components": [
            {
              "internalType": "uint32",
              "name": "blockNumber",
              "type": "uint32"
            },
            {
              "internalType": "uint64",
              "name": "priorityOperations",
              "type": "uint64"
            },
            {
              "internalType": "bytes32",
              "name": "pendingOnchainOperationsHash",
              "type": "bytes32"
            },
            {
              "internalType": "uint256",
              "name": "timestamp",
              "type": "uint256"
            },
            {
              "internalType": "bytes32",
              "name": "stateHash",
              "type": "bytes32"
            },
            {
              "internalType": "bytes32",
              "name": "commitment",
              "type": "bytes32"
            },
            {
              "internalType": "bytes32",
              "name": "syncHash",
              "type": "bytes32"
            }
          ],
          "internalType": "struct Storage.StoredBlockInfo",
          "name": "_storedBlockInfo",
          "type": "tuple"
        },
        {
          "internalType": "address",
          "name": "_owner",
          "type": "address"
        },
        {
          "internalType": "uint32",
          "name": "_accountId",
          "type": "uint32"
        },
        {
          "internalType": "uint8",
          "name": "_subAccountId",
          "type": "uint8"
        },
        {
          "internalType": "uint16",
          "name": "_tokenId",
          "type": "uint16"
        },
        {
          "internalType": "uint128",
          "name": "_amount",
          "type": "uint128"
        },
        {
          "internalType": "uint256[]",
          "name": "_proof",
          "type": "uint256[]"
        }
      ],
      "name": "performExodus",
      "outputs": [],
      "stateMutability": "nonpayable",
      "type": "function"
    },
    {
      "inputs": [
        {
          "internalType": "uint32",
          "name": "",
          "type": "uint32"
        },
        {
          "internalType": "uint8",
          "name": "",
          "type": "uint8"
        },
        {
          "internalType": "uint16",
          "name": "",
          "type": "uint16"
        }
      ],
      "name": "performedExodus",
      "outputs": [
        {
          "internalType": "bool",
          "name": "",
          "type": "bool"
        }
      ],
      "stateMutability": "view",
      "type": "function"
    },
    {
      "inputs": [],
      "name": "periphery",
      "outputs": [
        {
          "internalType": "address",
          "name": "",
          "type": "address"
        }
      ],
      "stateMutability": "view",
      "type": "function"
    },
    {
      "inputs": [
        {
          "internalType": "uint16",
          "name": "srcChainId",
          "type": "uint16"
        },
        {
          "internalType": "uint64",
          "name": "nonce",
          "type": "uint64"
        },
        {
          "internalType": "bytes32",
          "name": "syncHash",
          "type": "bytes32"
        },
        {
          "internalType": "uint256",
          "name": "progress",
          "type": "uint256"
        }
      ],
      "name": "receiveSynchronizationProgress",
      "outputs": [],
      "stateMutability": "nonpayable",
      "type": "function"
    },
    {
      "inputs": [
        {
          "internalType": "bytes",
          "name": "_pubkeyHash",
          "type": "bytes"
        },
        {
          "internalType": "uint32",
          "name": "_nonce",
          "type": "uint32"
        }
      ],
      "name": "setAuthPubkeyHash",
      "outputs": [],
      "stateMutability": "nonpayable",
      "type": "function"
    },
    {
      "inputs": [
        {
          "internalType": "uint16",
          "name": "_tokenId",
          "type": "uint16"
        },
        {
          "internalType": "bool",
          "name": "_tokenPaused",
          "type": "bool"
        }
      ],
      "name": "setTokenPaused",
      "outputs": [],
      "stateMutability": "nonpayable",
      "type": "function"
    },
    {
      "inputs": [
        {
          "internalType": "address",
          "name": "_validator",
          "type": "address"
        },
        {
          "internalType": "bool",
          "name": "_active",
          "type": "bool"
        }
      ],
      "name": "setValidator",
      "outputs": [],
      "stateMutability": "nonpayable",
      "type": "function"
    },
    {
      "inputs": [
        {
          "components": [
            {
              "internalType": "uint32",
              "name": "blockNumber",
              "type": "uint32"
            },
            {
              "internalType": "uint64",
              "name": "priorityOperations",
              "type": "uint64"
            },
            {
              "internalType": "bytes32",
              "name": "pendingOnchainOperationsHash",
              "type": "bytes32"
            },
            {
              "internalType": "uint256",
              "name": "timestamp",
              "type": "uint256"
            },
            {
              "internalType": "bytes32",
              "name": "stateHash",
              "type": "bytes32"
            },
            {
              "internalType": "bytes32",
              "name": "commitment",
              "type": "bytes32"
            },
            {
              "internalType": "bytes32",
              "name": "syncHash",
              "type": "bytes32"
            }
          ],
          "internalType": "struct Storage.StoredBlockInfo",
          "name": "_block",
          "type": "tuple"
        }
      ],
      "name": "syncBlocks",
      "outputs": [],
      "stateMutability": "nonpayable",
      "type": "function"
    },
    {
      "inputs": [
        {
          "internalType": "address",
          "name": "",
          "type": "address"
        }
      ],
      "name": "tokenIds",
      "outputs": [
        {
          "internalType": "uint16",
          "name": "",
          "type": "uint16"
        }
      ],
      "stateMutability": "view",
      "type": "function"
    },
    {
      "inputs": [
        {
          "internalType": "uint16",
          "name": "",
          "type": "uint16"
        }
      ],
      "name": "tokens",
      "outputs": [
        {
          "internalType": "bool",
          "name": "registered",
          "type": "bool"
        },
        {
          "internalType": "bool",
          "name": "paused",
          "type": "bool"
        },
        {
          "internalType": "address",
          "name": "tokenAddress",
          "type": "address"
        },
        {
          "internalType": "bool",
          "name": "standard",
          "type": "bool"
        }
      ],
      "stateMutability": "view",
      "type": "function"
    },
    {
      "inputs": [],
      "name": "totalBlocksCommitted",
      "outputs": [
        {
          "internalType": "uint32",
          "name": "",
          "type": "uint32"
        }
      ],
      "stateMutability": "view",
      "type": "function"
    },
    {
      "inputs": [],
      "name": "totalBlocksExecuted",
      "outputs": [
        {
          "internalType": "uint32",
          "name": "",
          "type": "uint32"
        }
      ],
      "stateMutability": "view",
      "type": "function"
    },
    {
      "inputs": [],
      "name": "totalBlocksProven",
      "outputs": [
        {
          "internalType": "uint32",
          "name": "",
          "type": "uint32"
        }
      ],
      "stateMutability": "view",
      "type": "function"
    },
    {
      "inputs": [],
      "name": "totalBlocksSynchronized",
      "outputs": [
        {
          "internalType": "uint32",
          "name": "",
          "type": "uint32"
        }
      ],
      "stateMutability": "view",
      "type": "function"
    },
    {
      "inputs": [],
      "name": "totalCommittedPriorityRequests",
      "outputs": [
        {
          "internalType": "uint64",
          "name": "",
          "type": "uint64"
        }
      ],
      "stateMutability": "view",
      "type": "function"
    },
    {
      "inputs": [],
      "name": "totalOpenPriorityRequests",
      "outputs": [
        {
          "internalType": "uint64",
          "name": "",
          "type": "uint64"
        }
      ],
      "stateMutability": "view",
      "type": "function"
    },
    {
      "inputs": [
        {
          "internalType": "uint256",
          "name": "index",
          "type": "uint256"
        },
        {
          "internalType": "bool",
          "name": "enableBridgeTo",
          "type": "bool"
        },
        {
          "internalType": "bool",
          "name": "enableBridgeFrom",
          "type": "bool"
        }
      ],
      "name": "updateBridge",
      "outputs": [],
      "stateMutability": "nonpayable",
      "type": "function"
    },
    {
      "inputs": [
        {
          "internalType": "address",
          "name": "",
          "type": "address"
        }
      ],
      "name": "validators",
      "outputs": [
        {
          "internalType": "bool",
          "name": "",
          "type": "bool"
        }
      ],
      "stateMutability": "view",
      "type": "function"
    },
    {
      "inputs": [],
      "name": "verifier",
      "outputs": [
        {
          "internalType": "contract Verifier",
          "name": "",
          "type": "address"
        }
      ],
      "stateMutability": "view",
      "type": "function"
    }
  ],
  "bytecode": "0x60a06040523060601b60805234801561001757600080fd5b5060805160601c615a9b6200003b6000398061075a5280610e095250615a9b6000f3fe6080604052600436106102025760003560e01c806380b29d5f1161011d578063c57b22be116100b0578063f3c20de01161007f578063faf4d8cb11610064578063faf4d8cb146105d8578063fba07f5f146105ed578063fc97a3031461060d5761021e565b8063f3c20de014610588578063fa52c7d8146105b85761021e565b8063c57b22be14610529578063ea5f812d1461053e578063f22354871461055e578063f39349ef146105735761021e565b80638eda919e116100ec5780638eda919e1461049a578063a3c44705146104ba578063a3ee3f0a146104e9578063b9c0555d146105095761021e565b806380b29d5f146104255780638773334c146104455780638871f8b81461045a5780638ae20dc91461047a5761021e565b80633adc2d211161019557806367708dae1161016457806367708dae146103ae5780636ed10a8e146103c357806377aace1a146103f0578063784b7518146104055761021e565b80633adc2d2114610337578063439fab9114610357578063495ed57a14610377578063647b5923146103995761021e565b80632a3174f4116101d15780632a3174f4146102b15780632b7ac3f3146102d35780632f25807e146102f557806334f6bb1c146103155761021e565b8063108e709f146102335780631469434714610246578063253946451461027c578063264c09121461029c5761021e565b3661021e5760025461021c906001600160a01b031661063a565b005b60025461021c906001600160a01b031661063a565b61021c6102413660046146c7565b61068e565b34801561025257600080fd5b50610266610261366004614d41565b610729565b6040516102739190615189565b60405180910390f35b34801561028857600080fd5b5061021c6102973660046149a5565b61074f565b3480156102a857600080fd5b506102666107cb565b3480156102bd57600080fd5b506102c66107dc565b60405161027391906151bc565b3480156102df57600080fd5b506102e86107e1565b6040516102739190614fe5565b34801561030157600080fd5b5061021c610310366004614654565b6107f0565b34801561032157600080fd5b5061032a610b57565b6040516102739190615986565b34801561034357600080fd5b5061021c610352366004614831565b610b6e565b34801561036357600080fd5b5061021c6103723660046149a5565b610dfe565b34801561038357600080fd5b5061038c610f36565b604051610273919061595e565b3480156103a557600080fd5b5061038c610f42565b3480156103ba57600080fd5b5061032a610f55565b3480156103cf57600080fd5b506103e36103de366004614a12565b610f6c565b604051610273919061593b565b3480156103fc57600080fd5b506102e86111c8565b34801561041157600080fd5b5061021c6104203660046146f2565b6111d7565b34801561043157600080fd5b5061021c610440366004614d41565b611436565b34801561045157600080fd5b5061026661162c565b34801561046657600080fd5b5061021c610475366004614b3a565b61163e565b34801561048657600080fd5b506102c661049536600461469c565b611650565b3480156104a657600080fd5b5061021c6104b5366004614aec565b61166d565b3480156104c657600080fd5b506104da6104d5366004614d00565b6116d1565b60405161027393929190615098565b3480156104f557600080fd5b5061021c610504366004614a82565b611722565b34801561051557600080fd5b506102e8610524366004614d18565b611921565b34801561053557600080fd5b5061032a611947565b34801561054a57600080fd5b5061021c610559366004614864565b61195e565b34801561056a57600080fd5b5061038c611bc1565b34801561057f57600080fd5b506102e8611bd4565b34801561059457600080fd5b506105a86105a3366004614ce6565b611be3565b6040516102739493929190615194565b3480156105c457600080fd5b506102666105d33660046145e8565b611c1b565b3480156105e457600080fd5b5061038c611c30565b3480156105f957600080fd5b506102c66106083660046145e8565b611c43565b34801561061957600080fd5b5061062d6106283660046145e8565b611c55565b604051610273919061594f565b6001600160a01b0381166106695760405162461bcd60e51b815260040161066090615774565b60405180910390fd5b60405136600082376000803683855af43d806000843e81801561068a578184f35b8184fd5b600080516020615a4683398151915254600181146106d8576040805162461bcd60e51b8152602060048201526002602482015261314360f01b604482015290519081900360640190fd5b6002600080516020615a468339815191525561071273eeeeeeeeeeeeeeeeeeeeeeeeeeeeeeeeeeeeeeee61070b34611c6b565b8585611cbf565b6001600080516020615a4683398151915255505050565b600560209081526000938452604080852082529284528284209052825290205460ff1681565b306001600160a01b037f00000000000000000000000000000000000000000000000000000000000000001614156107985760405162461bcd60e51b8152600401610660906156b2565b60006107a6828401846145e8565b600280546001600160a01b0319166001600160a01b0392909216919091179055505050565b600354640100000000900460ff1681565b600090565b6000546001600160a01b031681565b600080516020615a46833981519152546001811461083a576040805162461bcd60e51b8152602060048201526002602482015261314360f01b604482015290519081900360640190fd5b6002600080516020615a468339815191525561ffff83166000908152600e60209081526040918290208251608081018452905460ff8082161515808452610100830482161515948401949094526001600160a01b036201000083041694830194909452600160b01b9004909216151560608301526108ca5760405162461bcd60e51b8152600401610660906157ff565b60006108d68686611ed2565b69ffffffffffffffffffff1981166000908152600460205260408120549192506001600160801b039091169061090c8287611f04565b90506000816001600160801b0316116109375760405162461bcd60e51b8152600401610660906153fa565b69ffffffffffffffffffff1983166000908152600460205260409081902080546001600160801b0319168385036001600160801b031617905584015173eeeeeeeeeeeeeeeeeeeeeeeeeeeeeeeeeeeeeeee6001600160a01b0382161415610a23576000896001600160a01b0316836001600160801b03166040516109ba90614eb2565b60006040518083038185875af1925050503d80600081146109f7576040519150601f19603f3d011682016040523d82523d6000602084013e6109fc565b606091505b5050905080610a1d5760405162461bcd60e51b81526004016106609061538a565b50610afe565b6060850151604051633768854760e11b81526000913091636ed10a8e91610a549186918f9189918b9160040161521f565b602060405180830381600087803b158015610a6e57600080fd5b505af1158015610a82573d6000803e3d6000fd5b505050506040513d601f19601f82011682018060405250810190610aa69190614cca565b9050826001600160801b0316816001600160801b031614610afc5769ffffffffffffffffffff198516600090815260046020526040902080546001600160801b0319168286036001600160801b03161790559150815b505b8761ffff167ff4bf32c167ee6e782944cd1db8174729b46adcd3bc732e282cc4a8079393315483604051610b32919061593b565b60405180910390a250505050506001600080516020615a468339815191525550505050565b600254600160c01b900467ffffffffffffffff1681565b336000908152600d602052604090205460ff16610b9d5760405162461bcd60e51b8152600401610660906152ff565b600080516020615a468339815191525460018114610be7576040805162461bcd60e51b8152602060048201526002602482015261314360f01b604482015290519081900360640190fd5b6002600080516020615a468339815191525560015482516000805463ffffffff600160a01b948590048116949293610c2493909204168403611f2e565b90506000805b8263ffffffff168163ffffffff161015610cc9576000868263ffffffff1681518110610c5257fe5b60200260200101519050610c6581611f49565b63ffffffff861660009081526009602052604090205414610c985760405162461bcd60e51b815260040161066090615290565b63ffffffff851660009081526009602090815260408220919091550151600019909401939190910190600101610c2a565b506001805463ffffffff60a01b1916600160a01b63ffffffff86811682029290921792839055600280546001600160c01b038116600160c01b9182900467ffffffffffffffff90811688900316909102179081905581900482169204161015610d56576001546002805463ffffffff60a01b1916600160a01b9283900463ffffffff169092029190911790555b60035460025463ffffffff918216600160a01b9091049091161015610d9a5760025460038054600160a01b90920463ffffffff1663ffffffff199092169190911790555b7f6f3a8259cce1ea2680115053d21c971aa1764295a45850f520525f2bfdf3c9d3600060149054906101000a900463ffffffff1684604051610ddd92919061596f565b60405180910390a15050506001600080516020615a46833981519152555050565b306001600160a01b037f0000000000000000000000000000000000000000000000000000000000000000161415610e475760405162461bcd60e51b8152600401610660906156b2565b610e4f611f79565b6000808080610e6085870187614604565b600080546001600160a01b038087166001600160a01b03199283161783556002805482881690841617905560018054918616919092161790556040805160e081018252828152602081018390527fc5d2460186f7233c927e7db2dcc703c0e500b653ca82273b7bfad8045d85a470918101829052606081018390526080810184905260a081019290925260c082015293975091955093509150610f0281611f49565b6000805260096020527fec8156718a8372b1db44bb411437d0870f3e3790d4a08526d024ce1b0b668f6b5550505050505050565b60035463ffffffff1681565b600254600160a01b900463ffffffff1681565b600054600160c01b900467ffffffffffffffff1681565b6000333014610f8d5760405162461bcd60e51b815260040161066090615758565b8115610ffb5760405163a9059cbb60e01b81526001600160a01b0387169063a9059cbb90610fc190889088906004016150bb565b600060405180830381600087803b158015610fdb57600080fd5b505af1158015610fef573d6000803e3d6000fd5b505050508390506111bf565b6040516370a0823160e01b81526000906001600160a01b038816906370a082319061102a903090600401614fe5565b60206040518083038186803b15801561104257600080fd5b505afa158015611056573d6000803e3d6000fd5b505050506040513d601f19601f8201168201806040525081019061107a919061498d565b60405163a9059cbb60e01b81529091506001600160a01b0388169063a9059cbb906110ab90899089906004016150bb565b600060405180830381600087803b1580156110c557600080fd5b505af11580156110d9573d6000803e3d6000fd5b50506040516370a0823160e01b8152600092506001600160a01b038a1691506370a082319061110c903090600401614fe5565b60206040518083038186803b15801561112457600080fd5b505afa158015611138573d6000803e3d6000fd5b505050506040513d601f19601f8201168201806040525081019061115c919061498d565b9050600061116a8383611fca565b90506000811161118c5760405162461bcd60e51b815260040161066090615696565b856001600160801b03168111156111b55760405162461bcd60e51b8152600401610660906156e9565b92506111bf915050565b95945050505050565b6002546001600160a01b031681565b600354640100000000900460ff16156112025760405162461bcd60e51b815260040161066090615275565b336000908152600d602052604090205460ff166112315760405162461bcd60e51b8152600401610660906152ff565b600080516020615a46833981519152546001811461127b576040805162461bcd60e51b8152602060048201526002602482015261314360f01b604482015290519081900360640190fd5b6002600080516020615a4683398151915255815160009063ffffffff81166112b55760405162461bcd60e51b81526004016106609061544e565b60005b8163ffffffff168163ffffffff161015611320576112ef858263ffffffff16815181106112e157fe5b602002602001015182611ff0565b848163ffffffff168151811061130157fe5b60200260200101516000015160200151830192508060010190506112b8565b506000805460028054600160c01b80820467ffffffffffffffff908116889003811682026001600160c01b03938416179093556001805482810485168990038516830290841617905563ffffffff600160a01b828604851689019094169091029190931617818104831685018316820263ffffffff60a01b199091161792839055600354821692041611156113c75760405162461bcd60e51b8152600401610660906155d4565b836001820363ffffffff16815181106113dc57fe5b6020026020010151600001516000015163ffffffff167f036cca5fc51c8ae4669768ca5966397d55516afb697541fdd4fe7e6b253c075c60405160405180910390a250506001600080516020615a46833981519152555050565b600354640100000000900460ff16156114615760405162461bcd60e51b815260040161066090615275565b600080516020615a4683398151915254600181146114ab576040805162461bcd60e51b8152602060048201526002602482015261314360f01b604482015290519081900360640190fd5b6002600080516020615a468339815191525562ffffff63ffffffff851611156114e65760405162461bcd60e51b8152600401610660906155b8565b600760ff8416111561150a5760405162461bcd60e51b8152600401610660906153c2565b61ffff82166000908152600e60209081526040918290208251608081018452905460ff8082161515808452610100830482161515948401949094526001600160a01b036201000083041694830194909452600160b01b9004909216151560608301526115885760405162461bcd60e51b81526004016106609061567a565b600154611000600160c01b90910467ffffffffffffffff16106115bd5760405162461bcd60e51b815260040161066090615416565b6040805160c0810182526002815263ffffffff8716602082015260ff86169181019190915233606082015261ffff84166080820152600060a08201819052611604826121df565b9050611611600582612226565b5050506001600080516020615a468339815191525550505050565b600354640100000000900460ff161590565b61164b83836001846123bf565b505050565b600760209081526000928352604080842090915290825290205481565b6000815167ffffffffffffffff8111801561168757600080fd5b506040519080825280602002602001820160405280156116c157816020015b6116ae614074565b8152602001906001900390816116a65790505b50905061164b83836000846123bf565b601081815481106116e157600080fd5b6000918252602090912001546001600160a01b038116915060ff600160a01b8204811691750100000000000000000000000000000000000000000090041683565b600080516020615a46833981519152546001811461176c576040805162461bcd60e51b8152602060048201526002602482015261314360f01b604482015290519081900360640190fd5b6002600080516020615a46833981519152556040516370a0823160e01b81526000906001600160a01b038716906370a08231906117ad903090600401614fe5565b60206040518083038186803b1580156117c557600080fd5b505afa1580156117d9573d6000803e3d6000fd5b505050506040513d601f19601f820116820180604052508101906117fd919061498d565b6040516323b872dd60e01b81529091506001600160a01b038716906323b872dd9061183090339030908a90600401614ff9565b600060405180830381600087803b15801561184a57600080fd5b505af115801561185e573d6000803e3d6000fd5b50506040516370a0823160e01b8152600092506001600160a01b03891691506370a0823190611891903090600401614fe5565b60206040518083038186803b1580156118a957600080fd5b505afa1580156118bd573d6000803e3d6000fd5b505050506040513d601f19601f820116820180604052508101906118e1919061498d565b905060006118f76118f28385611fca565b611c6b565b905061190588828888611cbf565b5050506001600080516020615a46833981519152555050505050565b600b6020908152600092835260408084209091529082529020546001600160a01b031681565b600154600160c01b900467ffffffffffffffff1681565b600080516020615a4683398151915254600181146119a8576040805162461bcd60e51b8152602060048201526002602482015261314360f01b604482015290519081900360640190fd5b6002600080516020615a4683398151915281905554600160a01b900463ffffffff1660005b8451811015611a9b5763ffffffff60018301166000908152600960205260409020548551611a0e90879084908110611a0157fe5b6020026020010151611f49565b14611a2b5760405162461bcd60e51b815260040161066090615580565b8160010191506001600160fd1b03858281518110611a4557fe5b602002602001015160a0015160001c166001600160fd1b0385604001518381518110611a6d57fe5b60200260200101511614611a935760405162461bcd60e51b8152600401610660906152ab565b6001016119cd565b5060015463ffffffff600160a01b90910481169082161115611acf5760405162461bcd60e51b815260040161066090615837565b6002805463ffffffff60a01b1916600160a01b63ffffffff8416021790556000805484516020860151606087015160408089015160808a0151915163054185eb60e51b81526001600160a01b039096169563a830bd6095611b3995909490939092916004016150dd565b60206040518083038186803b158015611b5157600080fd5b505afa158015611b65573d6000803e3d6000fd5b505050506040513d601f19601f82011682018060405250810190611b899190614971565b905080611ba85760405162461bcd60e51b81526004016106609061531a565b50506001600080516020615a4683398151915255505050565b600054600160a01b900463ffffffff1681565b6001546001600160a01b031681565b600e6020526000908152604090205460ff8082169161010081048216916001600160a01b036201000083041691600160b01b90041684565b600d6020526000908152604090205460ff1681565b600154600160a01b900463ffffffff1681565b60116020526000908152604090205481565b600f6020526000908152604090205461ffff1681565b60007001000000000000000000000000000000008210611cb7576040805162461bcd60e51b8152602060048201526002602482015261189b60f11b604482015290519081900360640190fd5b50805b919050565b600354640100000000900460ff1615611cea5760405162461bcd60e51b815260040161066090615275565b6000836001600160801b0316118015611d1957506cffffffffffffffffffffffffff6001600160801b03841611155b611d355760405162461bcd60e51b8152600401610660906154a2565b6001600160a01b038216611d5b5760405162461bcd60e51b8152600401610660906152e3565b600760ff82161115611d7f5760405162461bcd60e51b8152600401610660906158c1565b6001600160a01b038085166000908152600f602090815260408083205461ffff16808452600e8352928190208151608081018352905460ff80821615158084526101008304821615159584019590955262010000820490961692820192909252600160b01b90910490931615156060840152909190611e105760405162461bcd60e51b815260040161066090615336565b806020015115611e325760405162461bcd60e51b8152600401610660906156cd565b600154611000600160c01b90910467ffffffffffffffff1610611e675760405162461bcd60e51b8152600401610660906154be565b6040805160c0810182526002815260006020820181905260ff86169282019290925261ffff841660608201526001600160801b03871660808201526001600160a01b03861660a082015290611ebb8261263a565b9050611ec8600182612226565b5050505050505050565b6001600160a01b03821675ffff000000000000000000000000000000000000000060a083901b161760501b5b92915050565b6000816001600160801b0316836001600160801b031610611f255781611f27565b825b9392505050565b60008163ffffffff168363ffffffff1610611f255781611f27565b600081604051602001611f5c91906158dd565b604051602081830303815290604052805190602001209050919050565b600080516020615a46833981519152805460019091558015611fc7576040805162461bcd60e51b815260206004820152600260248201526118a160f11b604482015290519081900360640190fd5b50565b6000611f278383604051806040016040528060018152602001603b60f91b81525061266b565b81515163ffffffff16600090815260096020526040902054825161201390611f49565b146120305760405162461bcd60e51b8152600401610660906153de565b600054825151600160a01b90910463ffffffff9081168301600101811691161461206c5760405162461bcd60e51b81526004016106609061559c565b7fc5d2460186f7233c927e7db2dcc703c0e500b653ca82273b7bfad8045d85a47060005b8360200151518163ffffffff1610156121ba57600084602001518263ffffffff16815181106120bb57fe5b602002602001015190506000816000815181106120d457fe5b016020015160f81c600b8111156120e757fe5b9050600381600b8111156120f757fe5b141561211957600061210883612702565b9050612113816127b5565b506121a1565b600781600b81111561212757fe5b1415612151576000612138836128ce565b905061211381602001518260600151836040015161293e565b600581600b81111561215f57fe5b141561218957600061217083612afa565b9050612113816080015182606001518360a0015161293e565b60405162461bcd60e51b815260040161066090615432565b6121ab8483612baf565b93505050806001019050612090565b50825160400151811461164b5760405162461bcd60e51b815260040161066090615564565b6060600582516020808501516040808701516060880151608089015192516122109796959293919260009101614ee5565b6040516020818303038152906040529050919050565b600154600080544392600160c01b9182900467ffffffffffffffff9081169290910416019061225484612bbe565b90506040518060600160405280826bffffffffffffffffffffffff191681526020018467ffffffffffffffff16815260200186600b81111561229257fe5b905267ffffffffffffffff8084166000908152600660209081526040918290208451815492860151909416600160a01b027fffffffff0000000000000000ffffffffffffffffffffffffffffffffffffffff60609590951c6001600160a01b0319909316929092179390931617808355908301519082907fffffff00ffffffffffffffffffffffffffffffffffffffffffffffffffffffff16600160e01b83600b81111561233c57fe5b02179055509050507fd0943372c08b438a88d4b39d77216901079eda9ca59d45349841c099083b6830338387878767ffffffffffffffff1660405161238595949392919061502b565b60405180910390a150506001805467ffffffffffffffff600160c01b80830482168401909116026001600160c01b03909116179055505050565b600354640100000000900460ff16156123ea5760405162461bcd60e51b815260040161066090615275565b336000908152600d602052604090205460ff166124195760405162461bcd60e51b8152600401610660906152ff565b600080516020615a468339815191525460018114612463576040805162461bcd60e51b8152602060048201526002602482015261314360f01b604482015290519081900360640190fd5b6002600080516020615a468339815191525560008451116124965760405162461bcd60e51b815260040161066090615705565b61249f85611f49565b600154600160a01b900463ffffffff16600090815260096020526040902054146124db5760405162461bcd60e51b81526004016106609061578f565b60005b84518163ffffffff1610156125895761252b86868363ffffffff168151811061250357fe5b602002602001015186868563ffffffff168151811061251e57fe5b6020026020010151612bcc565b60208101516002805467ffffffffffffffff600160c01b8083048216909401169092026001600160c01b03909216919091179055955061256a86611f49565b865163ffffffff166000908152600960205260409020556001016124de565b5060015460025467ffffffffffffffff600160c01b928390048116929091041611156125c75760405162461bcd60e51b8152600401610660906157c7565b83516001805463ffffffff600160a01b8083048216909401811690930263ffffffff60a01b1990911617905585516040519116907f81a92942d0f9c33b897a438384c9c3d88be397776138efa3ba1a4fc8b626842490600090a26001600080516020615a46833981519152555050505050565b6060600182516040808501516060860151608087015160a08801519351612210969594600094939291602001614f65565b600081848411156126fa5760405162461bcd60e51b81526004018080602001828103825283818151815260200191508051906020019080838360005b838110156126bf5781810151838201526020016126a7565b50505050905090810190601f1680156126ec5780820380516001836020036101000a031916815260200191505b509250505060405180910390fd5b505050900390565b61270a614093565b60016127168382612d84565b60ff16835290506127278382612db0565b63ffffffff16602084015260010190506127418382612dc9565b61ffff16604084015290506127568382612dd9565b6001600160801b0316606084015260020190506127738382612de9565b6001600160a01b03166080840152905061278d8382612db0565b63ffffffff1660a084015290506127a48382612dc9565b61ffff1660c0840152509092915050565b60a081015163ffffffff16156128b75760008160800151826040015183606001518460c001518560a001516040516020016127f4959493929190614dbd565b60408051601f1981840301815291815281516020928301208483015163ffffffff166000908152600b84528281208282529093529120549091506001600160a01b03168061289d5760808301805160208086015163ffffffff166000908152600b8252604080822087835290925281902080546001600160a01b0319166001600160a01b03909316929092179091558401519051606085015161289892919061293e565b6128b0565b6128b08360400151828560600151612df9565b5050611fc7565b611fc781604001518260800151836060015161293e565b6128d66140cf565b60016128e28382612d84565b60ff16835260090190506128f68382612dc9565b61ffff166020840152905061290b8382612dd9565b6001600160801b0316604084015260020190506129288382612de9565b6001600160a01b03166060840152509092915050565b6001600160801b0381166129515761164b565b61ffff83166000908152600e60209081526040918290208251608081018452905460ff8082161515808452610100830482161515948401949094526001600160a01b036201000083041694830194909452600160b01b9004909216151560608301526129c8576129c2848484612df9565b5061164b565b604081015160006001600160a01b03821673eeeeeeeeeeeeeeeeeeeeeeeeeeeeeeeeeeeeeeee1415612a105784612a08816001600160801b038716612e5d565b915050612aa0565b6060830151604051633768854760e11b81523091636ed10a8e91620186a091612a439187918b918b91829160040161521f565b602060405180830381600088803b158015612a5d57600080fd5b5087f193505050508015612a8e575060408051601f3d908101601f19168201909252612a8b91810190614cca565b60015b612a9a57506000612aa0565b50600190505b8015612ae7578561ffff167ff4bf32c167ee6e782944cd1db8174729b46adcd3bc732e282cc4a8079393315485604051612ada919061593b565b60405180910390a2612af2565b612af2868686612df9565b505050505050565b612b026140f6565b6001612b0e8382612d84565b60ff1683529050612b1f8382612db0565b63ffffffff1660208401529050612b368382612d84565b60ff1660408401529050612b4a8382612de9565b6001600160a01b031660608401529050612b648382612dc9565b61ffff1660808401529050612b798382612dd9565b6001600160801b031660a08401529050602d8114612ba95760405162461bcd60e51b81526004016106609061588a565b50919050565b80519181526020909101902090565b805160209091012060601b90565b612bd4614093565b846000015160010163ffffffff16846080015163ffffffff1614612c0a5760405162461bcd60e51b81526004016106609061552c565b821580612c15575060005b612c315760405162461bcd60e51b8152600401610660906152c7565b846060015184604001511015612c595760405162461bcd60e51b815260040161066090615259565b6040840151612c6b4262015180611fca565b11158015612c885750612c8042610384612ec9565b846040015111155b612ca45760405162461bcd60e51b8152600401610660906153a6565b600080600080612cb388612f08565b93509350935093506000612cca8a8a8a8a876131b2565b90508715612d205760015b60028111612d1e5760028114612d165787604001518181518110612cf557fe5b6020026020010151838281518110612d0957fe5b6020026020010181815250505b600101612cd5565b505b6000612d2c8284613321565b6040805160e0810182526080808e015163ffffffff16825267ffffffffffffffff9098166020820152808201989098528b015160608801528a51958701959095525060a0850152505060c08201529050949350505050565b600080826001019150838381518110612d9957fe5b602001015160f81c60f81b60f81c90509250929050565b600481016000612dc08484613379565b90509250929050565b600281016000612dc084846133c7565b601081016000612dc0848461340a565b601481016000612dc0848461344d565b6000612e058385611ed2565b9050612e118183613490565b826001600160a01b03168461ffff167f822cba452e09c71c51db196553ac44d860c4d2d66e311eff0066a7910c0dc87084604051612e4f919061593b565b60405180910390a350505050565b600080836001600160a01b0316620186a084604051612e7b90614eb2565b600060405180830381858888f193505050503d8060008114612eb9576040519150601f19603f3d011682016040523d82523d6000602084013e612ebe565b606091505b509095945050505050565b600082820183811015611f27576040805162461bcd60e51b81526020600482015260026024820152610c4d60f21b604482015290519081900360640190fd5b6020810151805160009182916060918291600e900615612f3a5760405162461bcd60e51b8152600401610660906157e3565b8051600e900467ffffffffffffffff81118015612f5657600080fd5b506040519080825280601f01601f191660200182016040528015612f81576020820181803683370190505b5060025460008054909650919450600160c01b9182900467ffffffffffffffff908116929091041601612fb2613500565b7fc5d2460186f7233c927e7db2dcc703c0e500b653ca82273b7bfad8045d85a4709650925060005b8760600151518110156131a857600088606001518281518110612ff957fe5b602002602001015190506000816020015163ffffffff169050845181600101106130355760405162461bcd60e51b815260040161066090615352565b600e8106156130565760405162461bcd60e51b8152600401610660906155f0565b6000600e8204905087818151811061306a57fe5b01602001516001600160f81b031916156130965760405162461bcd60e51b815260040161066090615486565b600160f81b8882815181106130a757fe5b60200101907effffffffffffffffffffffffffffffffffffffffffffffffffffffffffffff1916908160001a9053505060008582600101815181106130e857fe5b016020015160f81c90506130fb8161358a565b600086838151811061310957fe5b016020015160f81c600b81111561311c57fe5b905060008a87019050600080600061313c85878d8a888d600001516135ef565b925092509250828e019d506131678c8760ff168151811061315957fe5b602002602001015183612baf565b8c8760ff168151811061317657fe5b6020908102919091010152805115613195576131928f82612baf565b9e505b5050505050505050806001019050612fda565b5050509193509193565b60008084156131c5578360200151613215565b6002836040516131d59190614e7b565b602060405180830381855afa1580156131f2573d6000803e3d6000fd5b5050506040513d601f19601f82011682018060405250810190613215919061498d565b90506000851561322657845161327a565b6002876020015160405161323a9190614e7b565b602060405180830381855afa158015613257573d6000803e3d6000fd5b5050506040513d601f19601f8201168201806040525081019061327a919061498d565b90506002876080015163ffffffff168860a0015163ffffffff168a608001518a600001518b6040015186886040516020016132bb9796959493929190614eb5565b60408051601f19818403018152908290526132d591614e7b565b602060405180830381855afa1580156132f2573d6000803e3d6000fd5b5050506040513d601f19601f82011682018060405250810190613315919061498d565b98975050505050505050565b8160015b600260ff82161161337257600160ff6000198301161b600381168114156133695761336683858460ff168151811061335957fe5b6020026020010151613902565b92505b50600101613325565b5092915050565b60008082600401905080845110156133bc576040805162461bcd60e51b81526020600482015260016024820152602b60f91b604482015290519081900360640190fd5b929092015192915050565b60008082600201905080845110156133bc576040805162461bcd60e51b81526020600482015260016024820152601560fa1b604482015290519081900360640190fd5b60008082601001905080845110156133bc576040805162461bcd60e51b81526020600482015260016024820152605760f81b604482015290519081900360640190fd5b60008082601401905080845110156133bc576040805162461bcd60e51b81526020600482015260016024820152602960f91b604482015290519081900360640190fd5b69ffffffffffffffffffff1982166000908152600460205260409020546001600160801b03166134c08183613911565b69ffffffffffffffffffff1993909316600090815260046020526040902080546001600160801b0319166001600160801b03909416939093179092555050565b6040805160038082526080820190925260609160208201838036833701905050905060015b6002811161358657600160001982011b6003811681141561357d577fc5d2460186f7233c927e7db2dcc703c0e500b653ca82273b7bfad8045d85a47060001b83838151811061357057fe5b6020026020010181815250505b50600101613525565b5090565b600160ff8216108015906135a25750600260ff821611155b6135be5760405162461bcd60e51b81526004016106609061581b565b600160ff6000198301161b6003811681146135eb5760405162461bcd60e51b815260040161066090615548565b5050565b6000606080600189600b81111561360257fe5b14156136bb576136148787603861395c565b915060ff8816600214156136b657600061362d83613a19565b67ffffffffffffffff87811660009081526006602090815260409182902082516060808201855282549081901b6001600160601b0319168252600160a01b8104909516928101929092529394506136b09385939192909190830190600160e01b900460ff16600b81111561369d57fe5b600b8111156136a857fe5b905250613ac8565b60019350505b6138f6565b600689600b8111156136c957fe5b14156137b4576136db8787603861395c565b915060ff8816600214156136b65760006136f483613b3b565b9050845160001461373057600061370b8683613bbf565b90508061372a5760405162461bcd60e51b8152600401610660906157ab565b506137ae565b600081604001516040516020016137479190614e4e565b60408051601f19818403018152918152815160209283012060608501516001600160a01b0316600090815260078452828120608087015163ffffffff168252909352912054149050806137ac5760405162461bcd60e51b81526004016106609061546a565b505b506138f6565b600389600b8111156137c257fe5b14156137db576137d48787603861395c565b91506138da565b600789600b8111156137e957fe5b14156137fb576137d48787603861395c565b600589600b81111561380957fe5b14156138c25761381b8787603861395c565b915060ff8816600214156138bd57600061383483612afa565b67ffffffffffffffff87811660009081526006602090815260409182902082516060808201855282549081901b6001600160601b0319168252600160a01b8104909516928101929092529394506138b79385939192909190830190600160e01b900460ff16600b8111156138a457fe5b600b8111156138af57fe5b905250613c40565b60019350505b6138da565b60405162461bcd60e51b81526004016106609061536e565b60ff8816600214156138f6576138f3826000845161395c565b90505b96509650969350505050565b60009182526020526040902090565b60008282016001600160801b038085169082161015611f27576040805162461bcd60e51b8152602060048201526002602482015261189960f11b604482015290519081900360640190fd5b60608183018451101561399a576040805162461bcd60e51b81526020600482015260016024820152602d60f91b604482015290519081900360640190fd5b60008267ffffffffffffffff811180156139b357600080fd5b506040519080825280601f01601f1916602001820160405280156139de576020820181803683370190505b5090508215613a1157602081018381016020860187015b81831015613a0d5780518352602092830192016139f5565b5050505b949350505050565b613a216140f6565b6001613a2d8382612d84565b60ff1683529050613a3e8382612db0565b63ffffffff1660208401529050613a558382612d84565b60ff1660408401529050613a698382612dc9565b61ffff1660608401529050613a7e8382612dd9565b6001600160801b031660808401529050613a988382612de9565b6001600160a01b031660a08401529050602d8114612ba95760405162461bcd60e51b815260040161066090615643565b60018160400151600b811115613ada57fe5b14613af75760405162461bcd60e51b815260040161066090615721565b80516001600160601b031916613b14613b0f8461263a565b612bbe565b6001600160601b031916146135eb5760405162461bcd60e51b8152600401610660906154da565b613b4361412b565b6001613b4f8382612d84565b60ff1683529050613b608382612db0565b63ffffffff1660208401529050613b778382613cae565b6001600160601b03191660408401529050613b928382612de9565b6001600160a01b031660608401529050613bac8382612db0565b63ffffffff166080840152509092915050565b60008083600081518110613bcf57fe5b016020015160f81c6001811115613be257fe5b90506000816001811115613bf257fe5b1415613c0a57613c028484613cbe565b915050611efe565b6001816001811115613c1857fe5b1415613c2857613c028484613e20565b60405162461bcd60e51b815260040161066090615511565b60058160400151600b811115613c5257fe5b14613c6f5760405162461bcd60e51b815260040161066090615853565b80516001600160601b031916613c87613b0f846121df565b6001600160601b031916146135eb5760405162461bcd60e51b81526004016106609061560c565b601481016000612dc08484613efb565b600080613cce8460016041613f43565b915050600046905060007f8b73c3c69bb8fe3d512ecc4cf759cc79239f7b179b0ffacaa9a75d522b39400f7f5d27f4d7e0e8a0cba7984286ccb8f517d40889161f782642f4bde6b8ac7189657fc89efdaa54c0f20c7adf612882df0950f5a951637e0307cdcb4c672f298b8bc68430604051602001613d519594939291906151f3565b60405160208183030381529060405280519060200120905060007f8012078cc90c4c82e493f1a538159fd8621f39392101b34fba2ecd141432580b866040015187608001518860200151604051602001613dae94939291906151c5565b60405160208183030381529060405280519060200120905060008282604051602001613ddb929190614e97565b6040516020818303038152906040528051906020012090506000613dff8683613f5e565b60608901516001600160a01b03918216911614965050505050505092915050565b60008080806001613e318782612de9565b94509050613e3f8782614026565b93509050613e4d8782614026565b80935081925050506000838760400151604051602001613e6e929190614e63565b60408051601f198184030181529082905280516020918201209250600091613ea6916001600160f81b03199189918691899101614e1a565b6040516020818303038152906040528051906020012060001c905087606001516001600160a01b0316816001600160a01b0316148015613eee5750608088015163ffffffff16155b9998505050505050505050565b60008160140183511015613f3a576040805162461bcd60e51b81526020600482015260016024820152605360f81b604482015290519081900360640190fd5b50016020015190565b60006060613f5285858561395c565b93909201949293505050565b60008251604114613f9a576040805162461bcd60e51b81526020600482015260016024820152600560fc1b604482015290519081900360640190fd5b60008060006020860151925060408601519150606086015160001a905060018582858560405160008152602001604052604051808581526020018460ff1681526020018381526020018281526020019450505050506020604051602081039080840390855afa158015614011573d6000803e3d6000fd5b5050604051601f190151979650505050505050565b602081016000612dc0848460008082602001905080845110156133bc576040805162461bcd60e51b81526020600482015260016024820152605960f81b604482015290519081900360640190fd5b6040805160608082018352600080835260208301529181019190915290565b6040805160e081018252600080825260208201819052918101829052606081018290526080810182905260a0810182905260c081019190915290565b60408051608081018252600080825260208201819052918101829052606081019190915290565b6040805160c081018252600080825260208201819052918101829052606081018290526080810182905260a081019190915290565b6040805160a08101825260008082526020820181905291810182905260608101829052608081019190915290565b600082601f830112614169578081fd5b8135602061417e614179836159bf565b61599b565b82815281810190858301855b8581101561424f578135880160c080601f19838d030112156141aa578889fd5b6141b38161599b565b87830135815260408084013567ffffffffffffffff808211156141d4578c8dfd5b6141e28f8c848901016144ab565b8b8501526060860135838501526080925082860135915080821115614205578c8dfd5b506142148e8b8388010161425c565b60608401525060a06142278186016145ab565b828401526142368486016145ab565b908301525086525050928401929084019060010161418a565b5090979650505050505050565b600082601f83011261426c578081fd5b8135602061427c614179836159bf565b82815281810190858301855b8581101561424f5781358801604080601f19838d030112156142a8578889fd5b805181810167ffffffffffffffff82821081831117156142c457fe5b9083528389013590808211156142d8578b8cfd5b506142e78d8a838701016144ab565b8252506142f58284016145ab565b81890152865250509284019290840190600101614288565b600082601f83011261431d578081fd5b8135602061432d614179836159bf565b8281528181019085830160e08086028801850189101561434b578687fd5b865b868110156143715761435f8a84614510565b8552938501939181019160010161434d565b509198975050505050505050565b600082601f83011261438f578081fd5b60405161020080820182811067ffffffffffffffff821117156143ae57fe5b60405281848281018710156143c1578485fd5b8492505b60108310156143e5578035825260019290920191602091820191016143c5565b509195945050505050565b600082601f830112614400578081fd5b81356020614410614179836159bf565b828152818101908583018385028701840188101561442c578586fd5b855b8581101561424f5781358452928401929084019060010161442e565b600082601f83011261445a578081fd5b8135602061446a614179836159bf565b8281528181019085830183850287018401881015614486578586fd5b855b8581101561424f57614499826145d7565b84529284019290840190600101614488565b600082601f8301126144bb578081fd5b813567ffffffffffffffff8111156144cf57fe5b6144e2601f8201601f191660200161599b565b8181528460208386010111156144f6578283fd5b816020850160208301379081016020019190915292915050565b600060e08284031215614521578081fd5b60405160e0810181811067ffffffffffffffff8211171561453e57fe5b60405290508061454d836145ab565b815261455b602084016145bf565b602082015260408301356040820152606083013560608201526080830135608082015260a083013560a082015260c083013560c08201525092915050565b803561ffff81168114611cba57600080fd5b803563ffffffff81168114611cba57600080fd5b803567ffffffffffffffff81168114611cba57600080fd5b803560ff81168114611cba57600080fd5b6000602082840312156145f9578081fd5b8135611f2781615a0d565b60008060008060808587031215614619578283fd5b843561462481615a0d565b9350602085013561463481615a0d565b9250604085013561464481615a0d565b9396929550929360600135925050565b600080600060608486031215614668578081fd5b833561467381615a0d565b925061468160208501614599565b9150604084013561469181615a30565b809150509250925092565b600080604083850312156146ae578182fd5b82356146b981615a0d565b9150612dc0602084016145ab565b600080604083850312156146d9578182fd5b82356146e481615a0d565b9150612dc0602084016145d7565b600060208284031215614703578081fd5b67ffffffffffffffff8083351115614719578182fd5b8235830184601f82011261472b578283fd5b61473861417982356159bf565b81358152602080820191908301855b843581101561424f5781358501610100818b03601f19011215614768578788fd5b604051806040820110886040830111171561477f57fe5b604081016040526147938b60208401614510565b81528761010083013511156147a6578889fd5b610100820135820191508a603f8301126147be578889fd5b6147ce61417960208401356159bf565b6020838101358252810190604084018b5b6020860135811015614810576147fb8f604084358901016144ab565b845260209384019391909101906001016147df565b50506020838101919091529187525094850194929092019150600101614747565b600060208284031215614842578081fd5b813567ffffffffffffffff811115614858578182fd5b613a118482850161430d565b60008060408385031215614876578182fd5b823567ffffffffffffffff8082111561488d578384fd5b6148998683870161430d565b935060208501359150808211156148ae578283fd5b9084019061028082870312156148c2578283fd5b6148cc60a061599b565b8235828111156148da578485fd5b6148e6888286016143f0565b8252506020830135828111156148fa578485fd5b614906888286016143f0565b60208301525060408301358281111561491d578485fd5b614929888286016143f0565b604083015250606083013582811115614940578485fd5b61494c8882860161444a565b60608301525061495f876080850161437f565b60808201528093505050509250929050565b600060208284031215614982578081fd5b8151611f2781615a22565b60006020828403121561499e578081fd5b5051919050565b600080602083850312156149b7578182fd5b823567ffffffffffffffff808211156149ce578384fd5b818501915085601f8301126149e1578384fd5b8135818111156149ef578485fd5b866020828501011115614a00578485fd5b60209290920196919550909350505050565b600080600080600060a08688031215614a29578283fd5b8535614a3481615a0d565b94506020860135614a4481615a0d565b93506040860135614a5481615a30565b92506060860135614a6481615a30565b91506080860135614a7481615a22565b809150509295509295909350565b60008060008060808587031215614a97578182fd5b8435614aa281615a0d565b935060208501356cffffffffffffffffffffffffff81168114614ac3578283fd5b92506040850135614ad381615a0d565b9150614ae1606086016145d7565b905092959194509250565b6000806101008385031215614aff578182fd5b614b098484614510565b915060e083013567ffffffffffffffff811115614b24578182fd5b614b3085828601614159565b9150509250929050565b60008060006101208486031215614b4f578081fd5b614b598585614510565b925067ffffffffffffffff8060e08601351115614b74578182fd5b614b848660e08701358701614159565b9250806101008601351115614b97578182fd5b610100850135850186601f820112614bad578283fd5b614bba61417982356159bf565b81358152602080820191908301855b8435811015614cba57813585016060818d03601f19011215614be9578788fd5b6040518060608201108860608301111715614c0057fe5b6060810160405260208201358152604082013560208201528760608301351115614c28578889fd5b6060820135820191508c603f830112614c3f578889fd5b614c4f61417960208401356159bf565b8060208401358252602082019150604084018f6040602080880135028701011115614c78578b8cfd5b8b5b6020860135811015614c9c578135845260209384019390910190600101614c7a565b50506040830152508552506020938401939190910190600101614bc9565b5050809450505050509250925092565b600060208284031215614cdb578081fd5b8151611f2781615a30565b600060208284031215614cf7578081fd5b611f2782614599565b600060208284031215614d11578081fd5b5035919050565b60008060408385031215614d2a578182fd5b614d33836145ab565b946020939093013593505050565b600080600060608486031215614d55578081fd5b614d5e846145ab565b9250614d6c602085016145d7565b9150614d7a60408501614599565b90509250925092565b6000815180845260208085019450808401835b83811015614db257815187529582019590820190600101614d96565b509495945050505050565b60609590951b6001600160601b031916855260f093841b6001600160f01b0319908116601487015260809390931b6001600160801b0319166016860152921b16602683015260e01b6001600160e01b0319166028820152602c0190565b6001600160f81b031994909416845260609290921b6001600160601b03191660018401526015830152603582015260550190565b6001600160601b031991909116815260140190565b9182526001600160601b031916602082015260340190565b60008251614e8d8184602087016159dd565b9190910192915050565b61190160f01b81526002810192909252602282015260420190565b90565b968752602087019590955260408601939093526060850191909152608084015260a083015260c082015260e00190565b60f897881b6001600160f81b0319908116825296881b8716600182015260e09590951b6001600160e01b03191660028601529290951b909316600683015260609290921b6001600160601b031916600782015260f09290921b6001600160f01b031916601b83015260801b6001600160801b031916601d820152602d0190565b60f897881b6001600160f81b0319908116825296881b8716600182015260e09590951b6001600160e01b03191660028601529290951b909316600683015260f09290921b6001600160f01b031916600782015260809290921b6001600160801b031916600983015260601b6001600160601b0319166019820152602d0190565b6001600160a01b0391909116815260200190565b6001600160a01b0393841681529190921660208201526cffffffffffffffffffffffffff909116604082015260600190565b60006001600160a01b038716825267ffffffffffffffff86166020830152600c851061505357fe5b84604083015260a0606083015283518060a08401526150798160c08501602088016159dd565b608083019390935250601f91909101601f19160160c001949350505050565b6001600160a01b0393909316835290151560208301521515604082015260600190565b6001600160a01b039290921682526001600160801b0316602082015260400190565b60006102808083526150f181840189614d83565b90506020838203818501526151068289614d83565b84810360408601528751808252828901935090820190845b8181101561513d57845160ff168352938301939183019160010161511e565b505084810360608601526151518188614d83565b9350506080840191508460005b601081101561517b5781518452928201929082019060010161515e565b505050509695505050505050565b901515815260200190565b931515845291151560208401526001600160a01b031660408301521515606082015260800190565b90815260200190565b9384526001600160601b031992909216602084015263ffffffff908116604084015216606082015260800190565b9485526020850193909352604084019190915260608301526001600160a01b0316608082015260a00190565b6001600160a01b0395861681529390941660208401526001600160801b039182166040840152166060820152901515608082015260a00190565b602080825260029082015261339960f11b604082015260600190565b6020808252600190820152600360fc1b604082015260600190565b6020808252600190820152606360f81b604082015260600190565b602080825260029082015261783160f01b604082015260600190565b602080825260029082015261673160f01b604082015260600190565b602080825260029082015261653160f01b604082015260600190565b6020808252600190820152600d60fa1b604082015260600190565b602080825260029082015261783360f01b604082015260600190565b602080825260029082015261653360f01b604082015260600190565b602080825260029082015261683160f01b604082015260600190565b602080825260029082015261359960f11b604082015260600190565b602080825260029082015261311960f11b604082015260600190565b602080825260029082015261673360f01b604082015260600190565b602080825260029082015261613160f01b604082015260600190565b60208082526002908201526106d360f41b604082015260600190565b602080825260029082015261623160f01b604082015260600190565b602080825260029082015261613360f01b604082015260600190565b602080825260029082015261369960f11b604082015260600190565b602080825260029082015261064360f41b604082015260600190565b6020808252600290820152616b3160f01b604082015260600190565b602080825260029082015261683360f01b604082015260600190565b602080825260029082015261065360f41b604082015260600190565b602080825260029082015261653560f01b604082015260600190565b60208082526018908201527f4f503a20696e76616c6964206465706f73697420686173680000000000000000604082015260600190565b6020808252600190820152601b60fa1b604082015260600190565b602080825260029082015261067360f41b604082015260600190565b602080825260029082015261349960f11b604082015260600190565b6020808252600290820152616d3360f01b604082015260600190565b602080825260029082015261078360f41b604082015260600190565b6020808252600290820152616d3160f01b604082015260600190565b602080825260029082015261061360f41b604082015260600190565b602080825260029082015261643160f01b604082015260600190565b602080825260029082015261341960f11b604082015260600190565b60208082526019908201527f4f503a20696e76616c69642066756c6c45786974206861736800000000000000604082015260600190565b60208082526013908201527f4f503a20696e76616c6964206465706f73697400000000000000000000000000604082015260600190565b602080825260029082015261309960f11b604082015260600190565b6020808252600290820152616e3160f01b604082015260600190565b6020808252600190820152601960f91b604082015260600190565b602080825260029082015261194d60f21b604082015260600190565b602080825260029082015261371960f11b604082015260600190565b602080825260029082015261066360f41b604082015260600190565b6020808252600f908201527f4f503a206e6f74206465706f7369740000000000000000000000000000000000604082015260600190565b60208082526002908201526106e360f41b604082015260600190565b6020808252600190820152603560f81b604082015260600190565b602080825260029082015261663160f01b604082015260600190565b60208082526002908201526106b360f41b604082015260600190565b602080825260029082015261331960f11b604082015260600190565b602080825260029082015261068360f41b604082015260600190565b602080825260029082015261062360f41b604082015260600190565b602080825260029082015261693160f01b604082015260600190565b6020808252600290820152613c1960f11b604082015260600190565b60208082526010908201527f4f503a206e6f742066756c6c4578697400000000000000000000000000000000604082015260600190565b60208082526014908201527f4f503a20696e76616c69642066756c6c45786974000000000000000000000000604082015260600190565b602080825260029082015261329960f11b604082015260600190565b600060e08201905063ffffffff835116825267ffffffffffffffff602084015116602083015260408301516040830152606083015160608301526080830151608083015260a083015160a083015260c083015160c083015292915050565b6001600160801b0391909116815260200190565b61ffff91909116815260200190565b63ffffffff91909116815260200190565b63ffffffff92831681529116602082015260400190565b67ffffffffffffffff91909116815260200190565b60405181810167ffffffffffffffff811182821017156159b757fe5b604052919050565b600067ffffffffffffffff8211156159d357fe5b5060209081020190565b60005b838110156159f85781810151838201526020016159e0565b83811115615a07576000848401525b50505050565b6001600160a01b0381168114611fc757600080fd5b8015158114611fc757600080fd5b6001600160801b0381168114611fc757600080fdfe8e94fed44239eb2314ab7a406345e6c5a8f0ccedf3b600de3d004e672c33abf4a26469706673582212200f7f826ed4943f273d566a4c73a92d9533a77222bb4d9ec0c8ed2e5c7f43d95364736f6c63430007060033",
  "linkReferences": {},
  "deployedLinkReferences": {}
}