{
  "_format": "hh-sol-artifact-1",
  "contractName": "ZkLink",
  "sourceName": "cache/solpp-generated-contracts/ZkLink.sol",
  "abi": [
    {
      "anonymous": false,
      "inputs": [
        {
          "indexed": true,
          "internalType": "address",
          "name": "accepter",
          "type": "address"
        },
        {
          "indexed": true,
          "internalType": "address",
          "name": "receiver",
          "type": "address"
        },
        {
          "indexed": true,
          "internalType": "uint16",
          "name": "tokenId",
          "type": "uint16"
        },
        {
          "indexed": false,
          "internalType": "uint128",
          "name": "amount",
          "type": "uint128"
        }
      ],
      "name": "Accept",
      "type": "event"
    },
    {
      "anonymous": false,
      "inputs": [
        {
          "indexed": true,
          "internalType": "address",
          "name": "pair",
          "type": "address"
        },
        {
          "indexed": true,
          "internalType": "uint16",
          "name": "tokenId",
          "type": "uint16"
        },
        {
          "indexed": false,
          "internalType": "uint128",
          "name": "amount",
          "type": "uint128"
        }
      ],
      "name": "AddLiquidity",
      "type": "event"
    },
    {
      "anonymous": false,
      "inputs": [
        {
          "indexed": true,
          "internalType": "uint32",
          "name": "blockNumber",
          "type": "uint32"
        }
      ],
      "name": "BlockCommit",
      "type": "event"
    },
    {
      "anonymous": false,
      "inputs": [
        {
          "indexed": true,
          "internalType": "uint32",
          "name": "blockNumber",
          "type": "uint32"
        }
      ],
      "name": "BlockVerification",
      "type": "event"
    },
    {
      "anonymous": false,
      "inputs": [
        {
          "indexed": false,
          "internalType": "uint32",
          "name": "totalBlocksVerified",
          "type": "uint32"
        },
        {
          "indexed": false,
          "internalType": "uint32",
          "name": "totalBlocksCommitted",
          "type": "uint32"
        }
      ],
      "name": "BlocksRevert",
      "type": "event"
    },
    {
      "anonymous": false,
      "inputs": [
        {
          "indexed": true,
          "internalType": "uint16",
          "name": "tokenId",
          "type": "uint16"
        },
        {
          "indexed": false,
          "internalType": "uint128",
          "name": "amount",
          "type": "uint128"
        }
      ],
      "name": "Deposit",
      "type": "event"
    },
    {
      "anonymous": false,
      "inputs": [
        {
          "indexed": true,
          "internalType": "uint32",
          "name": "zkSyncBlockId",
          "type": "uint32"
        },
        {
          "indexed": true,
          "internalType": "uint32",
          "name": "accountId",
          "type": "uint32"
        },
        {
          "indexed": false,
          "internalType": "address",
          "name": "owner",
          "type": "address"
        },
        {
          "indexed": true,
          "internalType": "uint16",
          "name": "tokenId",
          "type": "uint16"
        },
        {
          "indexed": false,
          "internalType": "uint128",
          "name": "amount",
          "type": "uint128"
        }
      ],
      "name": "DepositCommit",
      "type": "event"
    },
    {
      "anonymous": false,
      "inputs": [],
      "name": "ExodusMode",
      "type": "event"
    },
    {
      "anonymous": false,
      "inputs": [
        {
          "indexed": true,
          "internalType": "address",
          "name": "sender",
          "type": "address"
        },
        {
          "indexed": false,
          "internalType": "uint32",
          "name": "nonce",
          "type": "uint32"
        },
        {
          "indexed": false,
          "internalType": "bytes",
          "name": "fact",
          "type": "bytes"
        }
      ],
      "name": "FactAuth",
      "type": "event"
    },
    {
      "anonymous": false,
      "inputs": [
        {
          "indexed": true,
          "internalType": "uint32",
          "name": "zkSyncBlockId",
          "type": "uint32"
        },
        {
          "indexed": true,
          "internalType": "uint32",
          "name": "accountId",
          "type": "uint32"
        },
        {
          "indexed": false,
          "internalType": "address",
          "name": "owner",
          "type": "address"
        },
        {
          "indexed": true,
          "internalType": "uint16",
          "name": "tokenId",
          "type": "uint16"
        },
        {
          "indexed": false,
          "internalType": "uint128",
          "name": "amount",
          "type": "uint128"
        }
      ],
      "name": "FullExitCommit",
      "type": "event"
    },
    {
      "anonymous": false,
      "inputs": [
        {
          "indexed": false,
          "internalType": "address",
          "name": "sender",
          "type": "address"
        },
        {
          "indexed": false,
          "internalType": "uint64",
          "name": "serialId",
          "type": "uint64"
        },
        {
          "indexed": false,
          "internalType": "enum Operations.OpType",
          "name": "opType",
          "type": "uint8"
        },
        {
          "indexed": false,
          "internalType": "bytes",
          "name": "pubData",
          "type": "bytes"
        },
        {
          "indexed": false,
          "internalType": "uint256",
          "name": "expirationBlock",
          "type": "uint256"
        }
      ],
      "name": "NewPriorityRequest",
      "type": "event"
    },
    {
      "anonymous": false,
      "inputs": [
        {
          "indexed": true,
          "internalType": "address",
          "name": "sender",
          "type": "address"
        },
        {
          "indexed": false,
          "internalType": "uint128",
          "name": "amountIn",
          "type": "uint128"
        },
        {
          "indexed": false,
          "internalType": "uint128",
          "name": "amountOutMin",
          "type": "uint128"
        },
        {
          "indexed": false,
          "internalType": "uint16",
          "name": "fromTokenId",
          "type": "uint16"
        },
        {
          "indexed": false,
          "internalType": "uint8",
          "name": "toChainId",
          "type": "uint8"
        },
        {
          "indexed": false,
          "internalType": "uint16",
          "name": "toTokenId",
          "type": "uint16"
        },
        {
          "indexed": false,
          "internalType": "address",
          "name": "to",
          "type": "address"
        },
        {
          "indexed": false,
          "internalType": "uint32",
          "name": "nonce",
          "type": "uint32"
        },
        {
          "indexed": false,
          "internalType": "address",
          "name": "pair",
          "type": "address"
        },
        {
          "indexed": false,
          "internalType": "uint16",
          "name": "acceptTokenId",
          "type": "uint16"
        },
        {
          "indexed": false,
          "internalType": "uint128",
          "name": "acceptAmountOutMin",
          "type": "uint128"
        }
      ],
      "name": "QuickSwap",
      "type": "event"
    },
    {
      "anonymous": false,
      "inputs": [
        {
          "indexed": true,
          "internalType": "address",
          "name": "pair",
          "type": "address"
        },
        {
          "indexed": true,
          "internalType": "uint16",
          "name": "tokenId",
          "type": "uint16"
        },
        {
          "indexed": false,
          "internalType": "uint128",
          "name": "lpAmount",
          "type": "uint128"
        }
      ],
      "name": "RemoveLiquidity",
      "type": "event"
    },
    {
      "anonymous": false,
      "inputs": [
        {
          "indexed": true,
          "internalType": "uint16",
          "name": "tokenId",
          "type": "uint16"
        },
        {
          "indexed": false,
          "internalType": "uint128",
          "name": "amount",
          "type": "uint128"
        },
        {
          "indexed": false,
          "internalType": "uint8",
          "name": "toChainId",
          "type": "uint8"
        }
      ],
      "name": "TokenMapping",
      "type": "event"
    },
    {
      "anonymous": false,
      "inputs": [
        {
          "indexed": true,
          "internalType": "uint16",
          "name": "tokenId",
          "type": "uint16"
        },
        {
          "indexed": false,
          "internalType": "uint128",
          "name": "amount",
          "type": "uint128"
        }
      ],
      "name": "Withdrawal",
      "type": "event"
    },
    {
      "stateMutability": "payable",
      "type": "fallback"
    },
    {
      "inputs": [
        {
          "internalType": "bytes32",
          "name": "",
          "type": "bytes32"
        }
      ],
      "name": "accepts",
      "outputs": [
        {
          "internalType": "address",
          "name": "",
          "type": "address"
        }
      ],
      "stateMutability": "view",
      "type": "function"
    },
    {
      "inputs": [
        {
          "internalType": "address",
          "name": "_zkLinkAddress",
          "type": "address"
        },
        {
          "internalType": "contract IERC20",
          "name": "_token",
          "type": "address"
        },
        {
          "internalType": "uint104",
          "name": "_amount",
          "type": "uint104"
        },
        {
          "internalType": "address",
          "name": "_pair",
          "type": "address"
        },
        {
          "internalType": "uint104",
          "name": "_minLpAmount",
          "type": "uint104"
        }
      ],
      "name": "addLiquidity",
      "outputs": [
        {
          "internalType": "uint32",
          "name": "",
          "type": "uint32"
        }
      ],
      "stateMutability": "nonpayable",
      "type": "function"
    },
    {
      "inputs": [
        {
          "internalType": "address",
          "name": "",
          "type": "address"
        },
        {
          "internalType": "uint32",
          "name": "",
          "type": "uint32"
        }
      ],
      "name": "authFacts",
      "outputs": [
        {
          "internalType": "bytes32",
          "name": "",
          "type": "bytes32"
        }
      ],
      "stateMutability": "view",
      "type": "function"
    },
    {
      "inputs": [
        {
          "internalType": "contract IERC20",
          "name": "_token",
          "type": "address"
        },
        {
          "internalType": "uint104",
          "name": "_amount",
          "type": "uint104"
        },
        {
          "internalType": "address",
          "name": "_zkLinkAddress",
          "type": "address"
        }
      ],
      "name": "depositERC20",
      "outputs": [],
      "stateMutability": "nonpayable",
      "type": "function"
    },
    {
      "inputs": [
        {
          "internalType": "address",
          "name": "_zkLinkAddress",
          "type": "address"
        }
      ],
      "name": "depositETH",
      "outputs": [],
      "stateMutability": "payable",
      "type": "function"
    },
    {
      "inputs": [],
      "name": "exodusMode",
      "outputs": [
        {
          "internalType": "bool",
          "name": "",
          "type": "bool"
        }
      ],
      "stateMutability": "view",
      "type": "function"
    },
    {
      "inputs": [],
      "name": "firstPriorityRequestId",
      "outputs": [
        {
          "internalType": "uint64",
          "name": "",
          "type": "uint64"
        }
      ],
      "stateMutability": "view",
      "type": "function"
    },
    {
      "inputs": [],
      "name": "getNoticePeriod",
      "outputs": [
        {
          "internalType": "uint256",
          "name": "",
          "type": "uint256"
        }
      ],
      "stateMutability": "pure",
      "type": "function"
    },
    {
      "inputs": [],
      "name": "governance",
      "outputs": [
        {
          "internalType": "contract Governance",
          "name": "",
          "type": "address"
        }
      ],
      "stateMutability": "view",
      "type": "function"
    },
    {
      "inputs": [
        {
          "internalType": "bytes",
          "name": "initializationParameters",
          "type": "bytes"
        }
      ],
      "name": "initialize",
      "outputs": [],
      "stateMutability": "nonpayable",
      "type": "function"
    },
    {
      "inputs": [],
      "name": "isReadyForUpgrade",
      "outputs": [
        {
          "internalType": "bool",
          "name": "",
          "type": "bool"
        }
      ],
      "stateMutability": "view",
      "type": "function"
    },
    {
      "inputs": [
        {
          "internalType": "address",
          "name": "_zkLinkAddress",
          "type": "address"
        },
        {
          "internalType": "address",
          "name": "_to",
          "type": "address"
        },
        {
          "internalType": "uint104",
          "name": "_amount",
          "type": "uint104"
        },
        {
          "internalType": "contract IERC20",
          "name": "_token",
          "type": "address"
        },
        {
          "internalType": "uint8",
          "name": "_toChainId",
          "type": "uint8"
        },
        {
          "internalType": "uint32",
          "name": "_nonce",
          "type": "uint32"
        },
        {
          "internalType": "uint16",
          "name": "_withdrawFee",
          "type": "uint16"
        }
      ],
      "name": "mappingToken",
      "outputs": [],
      "stateMutability": "nonpayable",
      "type": "function"
    },
    {
      "inputs": [
        {
          "internalType": "uint32",
          "name": "",
          "type": "uint32"
        },
        {
          "internalType": "uint16",
          "name": "",
          "type": "uint16"
        }
      ],
      "name": "performedExodus",
      "outputs": [
        {
          "internalType": "bool",
          "name": "",
          "type": "bool"
        }
      ],
      "stateMutability": "view",
      "type": "function"
    },
    {
      "inputs": [
        {
          "internalType": "address",
          "name": "_zkLinkAddress",
          "type": "address"
        },
        {
          "internalType": "uint32",
          "name": "_nftTokenId",
          "type": "uint32"
        },
        {
          "internalType": "uint104",
          "name": "_minAmount",
          "type": "uint104"
        }
      ],
      "name": "removeLiquidity",
      "outputs": [],
      "stateMutability": "nonpayable",
      "type": "function"
    },
    {
      "inputs": [
        {
          "internalType": "uint32",
          "name": "_accountId",
          "type": "uint32"
        },
        {
          "internalType": "address",
          "name": "_token",
          "type": "address"
        }
      ],
      "name": "requestFullExit",
      "outputs": [],
      "stateMutability": "nonpayable",
      "type": "function"
    },
    {
      "inputs": [
        {
          "internalType": "address",
          "name": "_zkLinkAddress",
          "type": "address"
        },
        {
          "internalType": "uint104",
          "name": "_amountOutMin",
          "type": "uint104"
        },
        {
          "internalType": "uint8",
          "name": "_toChainId",
          "type": "uint8"
        },
        {
          "internalType": "uint16",
          "name": "_toTokenId",
          "type": "uint16"
        },
        {
          "internalType": "address",
          "name": "_to",
          "type": "address"
        },
        {
          "internalType": "uint32",
          "name": "_nonce",
          "type": "uint32"
        },
        {
          "internalType": "address",
          "name": "_pair",
          "type": "address"
        },
        {
          "internalType": "uint16",
          "name": "_acceptTokenId",
          "type": "uint16"
        },
        {
          "internalType": "uint128",
          "name": "_acceptAmountOutMin",
          "type": "uint128"
        }
      ],
      "name": "swapExactETHForTokens",
      "outputs": [],
      "stateMutability": "payable",
      "type": "function"
    },
    {
      "inputs": [
        {
          "internalType": "address",
          "name": "_zkLinkAddress",
          "type": "address"
        },
        {
          "internalType": "uint104",
          "name": "_amountIn",
          "type": "uint104"
        },
        {
          "internalType": "uint104",
          "name": "_amountOutMin",
          "type": "uint104"
        },
        {
          "internalType": "contract IERC20",
          "name": "_fromToken",
          "type": "address"
        },
        {
          "internalType": "uint8",
          "name": "_toChainId",
          "type": "uint8"
        },
        {
          "internalType": "uint16",
          "name": "_toTokenId",
          "type": "uint16"
        },
        {
          "internalType": "address",
          "name": "_to",
          "type": "address"
        },
        {
          "internalType": "uint32",
          "name": "_nonce",
          "type": "uint32"
        },
        {
          "internalType": "address",
          "name": "_pair",
          "type": "address"
        },
        {
          "internalType": "uint16",
          "name": "_acceptTokenId",
          "type": "uint16"
        },
        {
          "internalType": "uint128",
          "name": "_acceptAmountOutMin",
          "type": "uint128"
        }
      ],
      "name": "swapExactTokensForTokens",
      "outputs": [],
      "stateMutability": "nonpayable",
      "type": "function"
    },
    {
      "inputs": [],
      "name": "totalBlocksCommitted",
      "outputs": [
        {
          "internalType": "uint32",
          "name": "",
          "type": "uint32"
        }
      ],
      "stateMutability": "view",
      "type": "function"
    },
    {
      "inputs": [],
      "name": "totalBlocksExecuted",
      "outputs": [
        {
          "internalType": "uint32",
          "name": "",
          "type": "uint32"
        }
      ],
      "stateMutability": "view",
      "type": "function"
    },
    {
      "inputs": [],
      "name": "totalBlocksProven",
      "outputs": [
        {
          "internalType": "uint32",
          "name": "",
          "type": "uint32"
        }
      ],
      "stateMutability": "view",
      "type": "function"
    },
    {
      "inputs": [],
      "name": "totalCommittedPriorityRequests",
      "outputs": [
        {
          "internalType": "uint64",
          "name": "",
          "type": "uint64"
        }
      ],
      "stateMutability": "view",
      "type": "function"
    },
    {
      "inputs": [],
      "name": "totalOpenPriorityRequests",
      "outputs": [
        {
          "internalType": "uint64",
          "name": "",
          "type": "uint64"
        }
      ],
      "stateMutability": "view",
      "type": "function"
    },
    {
      "inputs": [
        {
          "internalType": "bytes",
          "name": "upgradeParameters",
          "type": "bytes"
        }
      ],
      "name": "upgrade",
      "outputs": [],
      "stateMutability": "nonpayable",
      "type": "function"
    },
    {
      "inputs": [],
      "name": "upgradeCanceled",
      "outputs": [],
      "stateMutability": "nonpayable",
      "type": "function"
    },
    {
      "inputs": [],
      "name": "upgradeFinishes",
      "outputs": [],
      "stateMutability": "nonpayable",
      "type": "function"
    },
    {
      "inputs": [],
      "name": "upgradeNoticePeriodStarted",
      "outputs": [],
      "stateMutability": "nonpayable",
      "type": "function"
    },
    {
      "inputs": [],
      "name": "upgradePreparationStarted",
      "outputs": [],
      "stateMutability": "nonpayable",
      "type": "function"
    },
    {
      "inputs": [],
      "name": "vault",
      "outputs": [
        {
          "internalType": "contract IVault",
          "name": "",
          "type": "address"
        }
      ],
      "stateMutability": "view",
      "type": "function"
    },
    {
      "inputs": [],
      "name": "verifier",
      "outputs": [
        {
          "internalType": "contract Verifier",
          "name": "",
          "type": "address"
        }
      ],
      "stateMutability": "view",
      "type": "function"
    },
    {
      "inputs": [],
      "name": "zkLinkBlock",
      "outputs": [
        {
          "internalType": "address",
          "name": "",
          "type": "address"
        }
      ],
      "stateMutability": "view",
      "type": "function"
    },
    {
      "inputs": [],
      "name": "zkLinkExit",
      "outputs": [
        {
          "internalType": "address",
          "name": "",
          "type": "address"
        }
      ],
      "stateMutability": "view",
      "type": "function"
    },
    {
      "stateMutability": "payable",
      "type": "receive"
    }
  ],
  "bytecode": "0x608060405234801561001057600080fd5b506133e2806100206000396000f3fe6080604052600436106101dc5760003560e01c80638773334c11610102578063c3da0ded11610095578063f223548711610064578063f2235487146104ee578063f29e425214610503578063faf4d8cb14610518578063fbfa77cf1461052d576101f8565b8063c3da0ded14610484578063c57b22be14610499578063d0f2c56e146104ae578063e17376b5146104ce576101f8565b8063a747e339116100d1578063a747e33914610431578063ab9b2adf14610444578063b269b9ae146103a7578063b7c129b414610464576101f8565b80638773334c146103bc5780638ae20dc9146103d15780638cf68095146103f15780639d3c03a514610411576101f8565b80633b154b731161017a57806367708dae1161014957806367708dae1461035d57806378b91e70146103725780637f8ce19f14610387578063871b8ff1146103a7576101f8565b80633b154b73146102f1578063439fab91146103065780635aa6e67514610326578063647b59231461033b576101f8565b80632a3174f4116101b65780632a3174f4146102855780632b7ac3f3146102a75780632d2da806146102bc57806334f6bb1c146102cf576101f8565b80631914f4471461020d5780632539464514610243578063264c091214610263576101f8565b366101f857600f546101f6906001600160a01b0316610542565b005b600f546101f6906001600160a01b0316610542565b34801561021957600080fd5b5061022d610228366004612964565b6105c2565b60405161023a9190612ef0565b60405180910390f35b34801561024f57600080fd5b506101f661025e36600461297c565b6105dd565b34801561026f57600080fd5b5061027861068a565b60405161023a9190612fa8565b34801561029157600080fd5b5061029a610693565b60405161023a9190612fb3565b3480156102b357600080fd5b5061022d610698565b6101f66102ca366004612553565b6106a7565b3480156102db57600080fd5b506102e46107d3565b60405161023a91906132fd565b3480156102fd57600080fd5b506101f66107e9565b34801561031257600080fd5b506101f661032136600461297c565b6107eb565b34801561033257600080fd5b5061022d6108fe565b34801561034757600080fd5b5061035061090d565b60405161023a91906132ec565b34801561036957600080fd5b506102e4610919565b34801561037e57600080fd5b506101f6610928565b34801561039357600080fd5b506102786103a2366004612b16565b61093d565b3480156103b357600080fd5b506101f661095d565b3480156103c857600080fd5b5061027861096c565b3480156103dd57600080fd5b5061029a6103ec3660046128d1565b610976565b3480156103fd57600080fd5b506101f661040c3660046128fe565b610993565b34801561041d57600080fd5b506101f661042c366004612642565b610d6d565b6101f661043f36600461281a565b611003565b34801561045057600080fd5b506101f661045f366004612af9565b611168565b34801561047057600080fd5b5061035061047f3660046126d3565b61131d565b34801561049057600080fd5b5061022d6116eb565b3480156104a557600080fd5b506102e46116fa565b3480156104ba57600080fd5b506101f66104c936600461273d565b611710565b3480156104da57600080fd5b506101f66104e93660046129e8565b61195c565b3480156104fa57600080fd5b50610350611bd2565b34801561050f57600080fd5b5061022d611bde565b34801561052457600080fd5b50610350611bed565b34801561053957600080fd5b5061022d611c01565b6001600160a01b03811661059d576040805162461bcd60e51b815260206004820152601760248201527f5a6b4c696e6b3a2066616c6c6261636b20746172676574000000000000000000604482015290519081900360640190fd5b60405136600082376000803683855af43d806000843e8180156105be578184f35b8184fd5b6010602052600090815260409020546001600160a01b031681565b60008051602061338d8339815191525480610624576040805162461bcd60e51b815260206004820152600260248201526118b160f11b604482015290519081900360640190fd5b600060008051602061338d8339815191528190558061064584860186612592565b600f80546001600160a01b039384166001600160a01b031991821617909155601180549290931691161790555050600160008051602061338d83398151915255505050565b60085460ff1681565b600090565b6002546001600160a01b031681565b6106af611c10565b600034116106d85760405162461bcd60e51b81526004016106cf90613083565b60405180910390fd5b6004546040516000916001600160a01b03169034906106f690612bb9565b60006040518083038185875af1925050503d8060008114610733576040519150601f19603f3d011682016040523d82523d6000602084013e610738565b606091505b50509050806107595760405162461bcd60e51b81526004016106cf90612fe6565b6004805460405163011fab8160e31b81526001600160a01b03909116916308fd5c08916107899160009101612fbc565b600060405180830381600087803b1580156107a357600080fd5b505af11580156107b7573d6000803e3d6000fd5b505050506107cf60006107c934611c4c565b84611c93565b5050565b600a54600160801b90046001600160401b031681565b565b6107f3611d26565b60008080808080610806878901896125ca565b600280546001600160a01b03199081166001600160a01b0388811691909117909255600380548216898416179055600480548216878416179055600f80548216868416179055601180549091169184169190911790556040805160c0810182526000808252602082018190527fc5d2460186f7233c927e7db2dcc703c0e500b653ca82273b7bfad8045d85a47092820192909252606081018290526080810183905260a0810191909152959b509399509197509550935091506108c881611d3a565b60008052600b6020527fdf7de25b7f1fd6d0b5205f0e18f1f35bd7b8d84cce336588d184533ce43a6f7655505050505050505050565b6003546001600160a01b031681565b600c5463ffffffff1681565b600a546001600160401b031681565b6000805460ff19166001908117909155429055565b600760209081526000928352604080842090915290825290205460ff1681565b6000805460ff19168155600155565b60085460ff161590565b600960209081526000928352604080842090915290825290205481565b61099b611c10565b600354604080516323e6650160e11b815290516000926001600160a01b0316916347ccca02916004808301926020929190829003018186803b1580156109e057600080fd5b505afa1580156109f4573d6000803e3d6000fd5b505050506040513d601f19601f82011682018060405250810190610a189190612576565b6001600160a01b03161415610a3f5760405162461bcd60e51b81526004016106cf90613169565b600354604080516323e6650160e11b8152905133926001600160a01b0316916347ccca02916004808301926020929190829003018186803b158015610a8357600080fd5b505afa158015610a97573d6000803e3d6000fd5b505050506040513d601f19601f82011682018060405250810190610abb9190612576565b6001600160a01b0316636352211e846040518263ffffffff1660e01b8152600401610ae691906132ec565b60206040518083038186803b158015610afe57600080fd5b505afa158015610b12573d6000803e3d6000fd5b505050506040513d601f19601f82011682018060405250810190610b369190612576565b6001600160a01b031614610b5c5760405162461bcd60e51b81526004016106cf90613054565b600360009054906101000a90046001600160a01b03166001600160a01b03166347ccca026040518163ffffffff1660e01b815260040160206040518083038186803b158015610baa57600080fd5b505afa158015610bbe573d6000803e3d6000fd5b505050506040513d601f19601f82011682018060405250810190610be29190612576565b6001600160a01b031663673ea8eb836040518263ffffffff1660e01b8152600401610c0d91906132ec565b600060405180830381600087803b158015610c2757600080fd5b505af1158015610c3b573d6000803e3d6000fd5b505050506000600360009054906101000a90046001600160a01b03166001600160a01b03166347ccca026040518163ffffffff1660e01b815260040160206040518083038186803b158015610c8f57600080fd5b505afa158015610ca3573d6000803e3d6000fd5b505050506040513d601f19601f82011682018060405250810190610cc79190612576565b6001600160a01b031663c5e53425846040518263ffffffff1660e01b8152600401610cf291906132ec565b60a06040518083038186803b158015610d0a57600080fd5b505afa158015610d1e573d6000803e3d6000fd5b505050506040513d601f19601f82011682018060405250810190610d429190612a30565b9050610d67848260000151846001600160681b03168460400151856080015188611d6a565b50505050565b610d75611c10565b6000856001600160681b031611610d9e5760405162461bcd60e51b81526004016106cf906130dd565b60ff831660011415610dc25760405162461bcd60e51b81526004016106cf906131ce565b61271061ffff821610610de75760405162461bcd60e51b81526004016106cf90613105565b6003546040516375698bb160e11b81526000916001600160a01b03169063ead3176290610e18908890600401612ef0565b60206040518083038186803b158015610e3057600080fd5b505afa158015610e44573d6000803e3d6000fd5b505050506040513d601f19601f82011682018060405250810190610e689190612ac1565b60035460405163f3a65bf960e01b81529192506001600160a01b03169063f3a65bf990610e99908490600401612fbc565b60206040518083038186803b158015610eb157600080fd5b505afa158015610ec5573d6000803e3d6000fd5b505050506040513d601f19601f82011682018060405250810190610ee99190612944565b15610f065760405162461bcd60e51b81526004016106cf906131b3565b60035460405163108480a360e01b81526001600160a01b039091169063108480a390610f36908490600401612fbc565b60206040518083038186803b158015610f4e57600080fd5b505afa158015610f62573d6000803e3d6000fd5b505050506040513d601f19601f82011682018060405250810190610f869190612944565b610fa25760405162461bcd60e51b81526004016106cf9061301d565b600454610fc590869033906001600160a01b03166001600160681b038a16611e30565b610fe15760405162461bcd60e51b81526004016106cf90612fcb565b610ff98888886001600160681b031684888888611f5f565b5050505050505050565b61100b611c10565b6000341161102b5760405162461bcd60e51b81526004016106cf906130b3565b6000816001600160801b0316116110545760405162461bcd60e51b81526004016106cf90613132565b6004546040516000916001600160a01b031690349061107290612bb9565b60006040518083038185875af1925050503d80600081146110af576040519150601f19603f3d011682016040523d82523d6000602084013e6110b4565b606091505b50509050806110d55760405162461bcd60e51b81526004016106cf90612fe6565b6004805460405163011fab8160e31b81526001600160a01b03909116916308fd5c08916111059160009101612fbc565b600060405180830381600087803b15801561111f57600080fd5b505af1158015611133573d6000803e3d6000fd5b5050505061115c8a61114434611c4c565b8b6001600160681b031660008c8c8c8c8c8c8c612028565b50505050505050505050565b60008051602061338d83398151915254806111af576040805162461bcd60e51b815260206004820152600260248201526118b160f11b604482015290519081900360640190fd5b600060008051602061338d833981519152556111c9611c10565b62ffffff63ffffffff841611156111f25760405162461bcd60e51b81526004016106cf90613198565b60006001600160a01b03831615611286576003546040516375698bb160e11b81526001600160a01b039091169063ead3176290611233908690600401612ef0565b60206040518083038186803b15801561124b57600080fd5b505afa15801561125f573d6000803e3d6000fd5b505050506040513d601f19601f820116820180604052508101906112839190612ac1565b90505b6040805160808101825263ffffffff8616815233602082015261ffff8316918101919091526000606082018190526112bd8261212f565b90506112ca600682612168565b60006112d633856122d6565b69ffffffffffffffffffff19166000908152600560205260409020805460ff60801b191660ff60801b1790555050600160008051602061338d833981519152555050505050565b6000611327611c10565b6000846001600160681b0316116113505760405162461bcd60e51b81526004016106cf906130dd565b6003546040516375698bb160e11b81526000916001600160a01b03169063ead3176290611381908990600401612ef0565b60206040518083038186803b15801561139957600080fd5b505afa1580156113ad573d6000803e3d6000fd5b505050506040513d601f19601f820116820180604052508101906113d19190612ac1565b60035460405163f3a65bf960e01b81529192506001600160a01b03169063f3a65bf990611402908490600401612fbc565b60206040518083038186803b15801561141a57600080fd5b505afa15801561142e573d6000803e3d6000fd5b505050506040513d601f19601f820116820180604052508101906114529190612944565b1561146f5760405162461bcd60e51b81526004016106cf906131b3565b600354604080516323e6650160e11b815290516000926001600160a01b0316916347ccca02916004808301926020929190829003018186803b1580156114b457600080fd5b505afa1580156114c8573d6000803e3d6000fd5b505050506040513d601f19601f820116820180604052508101906114ec9190612576565b6001600160a01b031614156115135760405162461bcd60e51b81526004016106cf90613169565b60045461153690879033906001600160a01b03166001600160681b038916611e30565b6115525760405162461bcd60e51b81526004016106cf90612fcb565b6004805460405163011fab8160e31b81526001600160a01b03909116916308fd5c089161158191859101612fbc565b600060405180830381600087803b15801561159b57600080fd5b505af11580156115af573d6000803e3d6000fd5b505050506000600360009054906101000a90046001600160a01b03166001600160a01b03166347ccca026040518163ffffffff1660e01b815260040160206040518083038186803b15801561160357600080fd5b505afa158015611617573d6000803e3d6000fd5b505050506040513d601f19601f8201168201806040525081019061163b9190612576565b6001600160a01b0316635753aef2898489896040518563ffffffff1660e01b815260040161166c9493929190612f70565b602060405180830381600087803b15801561168657600080fd5b505af115801561169a573d6000803e3d6000fd5b505050506040513d601f19601f820116820180604052508101906116be9190612add565b90506116e08883886001600160681b031688886001600160681b0316866122f3565b979650505050505050565b600f546001600160a01b031681565b600a54600160401b90046001600160401b031681565b611718611c10565b60008a6001600160681b0316116117415760405162461bcd60e51b81526004016106cf906130b3565b6000816001600160801b03161161176a5760405162461bcd60e51b81526004016106cf90613132565b6003546040516375698bb160e11b81526000916001600160a01b03169063ead317629061179b908c90600401612ef0565b60206040518083038186803b1580156117b357600080fd5b505afa1580156117c7573d6000803e3d6000fd5b505050506040513d601f19601f820116820180604052508101906117eb9190612ac1565b60035460405163f3a65bf960e01b81529192506001600160a01b03169063f3a65bf99061181c908490600401612fbc565b60206040518083038186803b15801561183457600080fd5b505afa158015611848573d6000803e3d6000fd5b505050506040513d601f19601f8201168201806040525081019061186c9190612944565b156118895760405162461bcd60e51b81526004016106cf906131b3565b6004546118ac908a9033906001600160a01b03166001600160681b038f16611e30565b6118c85760405162461bcd60e51b81526004016106cf90612fcb565b6004805460405163011fab8160e31b81526001600160a01b03909116916308fd5c08916118f791859101612fbc565b600060405180830381600087803b15801561191157600080fd5b505af1158015611925573d6000803e3d6000fd5b5050505061194e8c8c6001600160681b03168c6001600160681b0316848c8c8c8c8c8c8c612028565b505050505050505050505050565b60008051602061338d83398151915254806119a3576040805162461bcd60e51b815260206004820152600260248201526118b160f11b604482015290519081900360640190fd5b600060008051602061338d833981519152556119bd611c10565b6000836001600160681b0316116119e65760405162461bcd60e51b81526004016106cf90613083565b6003546040516375698bb160e11b81526000916001600160a01b03169063ead3176290611a17908890600401612ef0565b60206040518083038186803b158015611a2f57600080fd5b505afa158015611a43573d6000803e3d6000fd5b505050506040513d601f19601f82011682018060405250810190611a679190612ac1565b60035460405163f3a65bf960e01b81529192506001600160a01b03169063f3a65bf990611a98908490600401612fbc565b60206040518083038186803b158015611ab057600080fd5b505afa158015611ac4573d6000803e3d6000fd5b505050506040513d601f19601f82011682018060405250810190611ae89190612944565b15611b055760405162461bcd60e51b81526004016106cf906131b3565b600454611b2890869033906001600160a01b03166001600160681b038816611e30565b611b445760405162461bcd60e51b81526004016106cf90612fcb565b6004805460405163011fab8160e31b81526001600160a01b03909116916308fd5c0891611b7391859101612fbc565b600060405180830381600087803b158015611b8d57600080fd5b505af1158015611ba1573d6000803e3d6000fd5b50505050611bb981856001600160681b031685611c93565b50600160008051602061338d8339815191525550505050565b60065463ffffffff1681565b6011546001600160a01b031681565b600654640100000000900463ffffffff1681565b6004546001600160a01b031681565b60085460ff16156107e9576040805162461bcd60e51b81526020600482015260016024820152601360fa1b604482015290519081900360640190fd5b6000600160801b8210611c8b576040805162461bcd60e51b8152602060048201526002602482015261189b60f11b604482015290519081900360640190fd5b50805b919050565b60408051608081018252600080825261ffff861660208301526001600160801b038516928201929092526001600160a01b038316606082015290611cd6826123a7565b9050611ce3600182612168565b8461ffff167f8f5f51448394699ad6a3b80cdadf4ec68c5d724c8c3fea09bea55b3c2d0e2dd085604051611d17919061324c565b60405180910390a25050505050565b600160008051602061338d83398151915255565b600081604051602001611d4d91906131f9565b604051602081830303815290604052805190602001209050919050565b60408051610100810182526001600160a01b0380891682526001602083015261ffff8816928201929092526001600160801b03808716606083015260006080830181905292861660a0830152841660c082015263ffffffff831660e082015290611dd3826123ce565b9050611de0600c82612168565b8661ffff16856001600160a01b03167f0953719a5e471fd889718f66f717f733be5983090e3380e7684825b7e6da5bf486604051611e1e919061324c565b60405180910390a35050505050505050565b604080516001600160a01b0385811660248301528481166044830152606480830185905283518084039091018152608490920183526020820180516001600160e01b03166323b872dd60e01b17815292518251600094859485948b16939092909182918083835b60208310611eb65780518252601f199092019160209182019101611e97565b6001836020036101000a0380198251168184511680821785525050505050509050019150506000604051808303816000865af19150503d8060008114611f18576040519150601f19603f3d011682016040523d82523d6000602084013e611f1d565b606091505b50915091506000815160001480611f475750818060200190516020811015611f4457600080fd5b50515b9050828015611f535750805b98975050505050505050565b60408051610120810182526001815260ff851660208201526001600160a01b03808a1692820192909252908716606082015261ffff80861660808301526001600160801b03871660a0830152600060c0830181905263ffffffff851660e0840152908316610100830152611fd28261240a565b9050611fdf600982612168565b8561ffff167fbf63ee7c4045d2509bc5b7f16764f612108ed16fd8d0dacd6e6e3adcc0de695e88876040516120159291906132d0565b60405180910390a2505050505050505050565b604080516101a0810182526001815260ff891660208201526001600160a01b03808e169282019290925261ffff808b1660608301526001600160801b03808e16608084015288841660a084015289821660c08401528c811660e08401526000610100840181905263ffffffff89166101208501529387166101408401529085166101608301528316610180820152906120c082612452565b90506120cd600b82612168565b8c6001600160a01b03167f54e0b3206663afba980b39072283f71308fd79a1a78346cf5fe814ca0b6b55348d8d8d8d8d8d8d8d8d8d6040516121189a99989796959493929190613260565b60405180910390a250505050505050505050505050565b606060068251602080850151604080870151905161215295949360009101612d2d565b6040516020818303038152906040529050919050565b600a54436201fa4001906001600160401b03808216600160401b90920416016000612192846124d1565b90506040518060600160405280826bffffffffffffffffffffffff19168152602001846001600160401b0316815260200186600f8111156121cf57fe5b90526001600160401b038084166000908152600d60209081526040918290208451815492860151909416600160a01b0267ffffffffffffffff60a01b1960609590951c6001600160a01b03199093169290921793909316178083559083015190829060ff60e01b1916600160e01b83600f81111561224957fe5b02179055509050507fd0943372c08b438a88d4b39d77216901079eda9ca59d45349841c099083b683033838787876001600160401b0316604051612291959493929190612f04565b60405180910390a15050600a805460016001600160401b03600160401b80840482169290920116026fffffffffffffffff000000000000000019909116179055505050565b60a01b61ffff60a01b166001600160a01b03919091161760501b90565b60408051610100810182526001600160a01b0380891682526001602083015261ffff8816928201929092526001600160801b038087166060830152918516608082015290831660a0820152600060c0820181905263ffffffff831660e083015261235c826124df565b9050612369600a82612168565b8661ffff16856001600160a01b03167f128b0910b0d5d230c97082eabe4e137e0cfe316700af860a5c2250663698d41188604051611e1e919061324c565b60606001602080840151604080860151606087015191516121529594600094939101612cca565b6060600c8251602080850151604080870151606088015160a089015160c08a015160e08b01519451612152999897949593946000949101612c5a565b60606009826000015183602001518460400151856060015186608001518760a0015160008960e001518a61010001516040516020016121529a99989796959493929190612d93565b8051602080830151604080850151606086810151608088015160a089015160c08a015160e08b01516101208c01516101408d01516101608e01519951979c6124a89c600b9c919b919a9960009493929101612e32565b604051602081830303815290604052905080826101800151604051602001612152929190612b87565b805160209091012060601b90565b6060600a826000015183602001518460400151856060015186608001518760a0015160008960e0015160405160200161215299989796959493929190612bbc565b80356001600160681b0381168114611c8e57600080fd5b8051611c8e81613355565b803560ff81168114611c8e57600080fd5b600060208284031215612564578081fd5b813561256f8161333d565b9392505050565b600060208284031215612587578081fd5b815161256f8161333d565b600080604083850312156125a4578081fd5b82356125af8161333d565b915060208301356125bf8161333d565b809150509250929050565b60008060008060008060c087890312156125e2578182fd5b86356125ed8161333d565b955060208701356125fd8161333d565b9450604087013561260d8161333d565b9350606087013561261d8161333d565b9250608087013561262d8161333d565b8092505060a087013590509295509295509295565b600080600080600080600060e0888a03121561265c578081fd5b87356126678161333d565b965060208801356126778161333d565b955061268560408901612520565b945060608801356126958161333d565b93506126a360808901612542565b925060a08801356126b38161337a565b915060c08801356126c38161336a565b8091505092959891949750929550565b600080600080600060a086880312156126ea578081fd5b85356126f58161333d565b945060208601356127058161333d565b935061271360408701612520565b925060608601356127238161333d565b915061273160808701612520565b90509295509295909350565b60008060008060008060008060008060006101608c8e03121561275e578485fd5b8b356127698161333d565b9a5061277760208d01612520565b995061278560408d01612520565b985060608c01356127958161333d565b97506127a360808d01612542565b965060a08c01356127b38161336a565b955060c08c01356127c38161333d565b945060e08c01356127d38161337a565b93506101008c01356127e48161333d565b92506101208c01356127f58161336a565b91506101408c013561280681613355565b809150509295989b509295989b9093969950565b60008060008060008060008060006101208a8c031215612838578283fd5b89356128438161333d565b985061285160208b01612520565b975061285f60408b01612542565b965060608a013561286f8161336a565b955060808a013561287f8161333d565b945060a08a013561288f8161337a565b935060c08a013561289f8161333d565b925060e08a01356128af8161336a565b91506101008a01356128c081613355565b809150509295985092959850929598565b600080604083850312156128e3578182fd5b82356128ee8161333d565b915060208301356125bf8161337a565b600080600060608486031215612912578081fd5b833561291d8161333d565b9250602084013561292d8161337a565b915061293b60408501612520565b90509250925092565b600060208284031215612955578081fd5b8151801515811461256f578182fd5b600060208284031215612975578081fd5b5035919050565b6000806020838503121561298e578182fd5b82356001600160401b03808211156129a4578384fd5b818501915085601f8301126129b7578384fd5b8135818111156129c5578485fd5b8660208285010111156129d6578485fd5b60209290920196919550909350505050565b6000806000606084860312156129fc578081fd5b8335612a078161333d565b9250612a1560208501612520565b91506040840135612a258161333d565b809150509250925092565b600060a08284031215612a41578081fd5b60405160a081018181106001600160401b0382111715612a5d57fe5b6040528251612a6b8161336a565b81526020830151612a7b81613355565b60208201526040830151612a8e8161333d565b6040820152606083015160058110612aa4578283fd5b6060820152612ab560808401612537565b60808201529392505050565b600060208284031215612ad2578081fd5b815161256f8161336a565b600060208284031215612aee578081fd5b815161256f8161337a565b60008060408385031215612b0b578182fd5b82356125af8161337a565b60008060408385031215612b28578182fd5b8235612b338161337a565b915060208301356125bf8161336a565b60601b6001600160601b0319169052565b60801b6001600160801b0319169052565b60f01b6001600160f01b0319169052565b60e01b6001600160e01b0319169052565b60008351612b99818460208801613311565b60809390931b6001600160801b0319169190920190815260100192915050565b90565b6001600160f81b031960f88b811b821683526001600160601b031960608c811b82166001860152918b901b90921660158401526001600160f01b031960f08a901b1660168401526001600160801b0319608089901b16601884015286901b1660288201526000612c2f603c830186612b54565b612c3c604c830185612b54565b612c49605c830184612b76565b506060019998505050505050505050565b6001600160f81b031960f88b811b821683526001600160601b031960608c901b16600184015289901b1660158201526001600160f01b031960f088901b1660168201526001600160801b0319608087811b8216601884015286901b1660288201526000612c2f6038830186612b43565b60f89590951b6001600160f81b03191685526001600160e01b031993909316600185015260f09190911b6001600160f01b031916600584015260801b6001600160801b031916600783015260601b6001600160601b0319166017820152602b0190565b60f89590951b6001600160f81b031916855260e09390931b6001600160e01b031916600185015260609190911b6001600160601b031916600584015260f01b6001600160f01b031916601983015260801b6001600160801b031916601b820152602b0190565b6001600160f81b031960f88c811b821683528b811b821660018401528a901b1660028201526001600160601b0319606089811b8216600384015288901b1660178201526001600160f01b031960f087901b16602b8201526000612df9602d830187612b54565b612e06603d830186612b54565b612e13604d830185612b76565b612e206051830184612b65565b506053019a9950505050505050505050565b6001600160f81b031960f88f811b821683528e811b821660018401528d901b1660028201526000612e66600383018d612b43565b612e73601783018c612b65565b612e80601983018b612b54565b612e8d602983018a612b43565b612e9a603d830189612b65565b612ea7603f830188612b54565b612eb4604f830187612b54565b612ec1605f830186612b76565b612ece6063830185612b43565b612edb6077830184612b65565b506079019d9c50505050505050505050505050565b6001600160a01b0391909116815260200190565b6001600160a01b03861681526001600160401b0385166020820152600060108510612f2b57fe5b84604083015260a0606083015283518060a0840152612f518160c0850160208801613311565b608083019390935250601f91909101601f19160160c001949350505050565b6001600160a01b03948516815261ffff9390931660208401526001600160681b03919091166040830152909116606082015260800190565b901515815260200190565b90815260200190565b61ffff91909116815260200190565b6020808252600190820152606360f81b604082015260600190565b6020808252601b908201527f5a6b4c696e6b3a20657468207472616e73666572206661696c65640000000000604082015260600190565b60208082526019908201527f5a6b4c696e6b3a206e6f74206d617070696e6720746f6b656e00000000000000604082015260600190565b6020808252601590820152742d35a634b7359d103737ba1037333a1037bbb732b960591b604082015260600190565b602080825260169082015275169ad31a5b9ace8819195c1bdcda5d08185b5bdd5b9d60521b604082015260600190565b60208082526010908201526f2d35a634b7359d1030b6b7bab73a24b760811b604082015260600190565b6020808252600e908201526d169ad31a5b9ace88185b5bdd5b9d60921b604082015260600190565b6020808252601390820152725a6b4c696e6b3a20776974686472617746656560681b604082015260600190565b6020808252601a908201527f5a6b4c696e6b3a20616363657074416d6f756e744f75744d696e000000000000604082015260600190565b602080825260159082015274169ad31a5b9ace881b999d081b9bdd08195e1a5cdd605a1b604082015260600190565b6020808252600190820152606560f81b604082015260600190565b6020808252600190820152603160f91b604082015260600190565b602080825260119082015270169ad31a5b9ace881d1bd0da185a5b9259607a1b604082015260600190565b600060c08201905063ffffffff83511682526001600160401b03602084015116602083015260408301516040830152606083015160608301526080830151608083015260a083015160a083015292915050565b6001600160801b0391909116815260200190565b6001600160801b039a8b168152988a1660208a015261ffff97881660408a015260ff96909616606089015293861660808801526001600160a01b0392831660a088015263ffffffff9190911660c08701521660e08501529091166101008301529091166101208201526101400190565b6001600160801b0392909216825260ff16602082015260400190565b63ffffffff91909116815260200190565b6001600160401b0391909116815260200190565b60005b8381101561332c578181015183820152602001613314565b83811115610d675750506000910152565b6001600160a01b038116811461335257600080fd5b50565b6001600160801b038116811461335257600080fd5b61ffff8116811461335257600080fd5b63ffffffff8116811461335257600080fdfe8e94fed44239eb2314ab7a406345e6c5a8f0ccedf3b600de3d004e672c33abf4a26469706673582212202857a1f52711cd6616ac875aef5b532fade2fd868b11585378772ae05c806cf264736f6c63430007060033",
  "linkReferences": {},
  "deployedLinkReferences": {}
}