{
  "_format": "hh-sol-artifact-1",
  "contractName": "ZKL",
  "sourceName": "cache/solpp-generated-contracts/token/ZKL.sol",
  "abi": [
    {
      "inputs": [
        {
          "internalType": "string",
          "name": "_name",
          "type": "string"
        },
        {
          "internalType": "string",
          "name": "_symbol",
          "type": "string"
        },
        {
          "internalType": "uint256",
          "name": "_cap",
          "type": "uint256"
        },
        {
          "internalType": "address",
          "name": "_endpoint",
          "type": "address"
        },
        {
          "internalType": "address",
          "name": "_networkGovernor",
          "type": "address"
        },
        {
          "internalType": "bool",
          "name": "_isGenesisChain",
          "type": "bool"
        }
      ],
      "stateMutability": "nonpayable",
      "type": "constructor"
    },
    {
      "anonymous": false,
      "inputs": [
        {
          "indexed": true,
          "internalType": "address",
          "name": "owner",
          "type": "address"
        },
        {
          "indexed": true,
          "internalType": "address",
          "name": "spender",
          "type": "address"
        },
        {
          "indexed": false,
          "internalType": "uint256",
          "name": "value",
          "type": "uint256"
        }
      ],
      "name": "Approval",
      "type": "event"
    },
    {
      "anonymous": false,
      "inputs": [
        {
          "indexed": true,
          "internalType": "uint16",
          "name": "lzChainId",
          "type": "uint16"
        },
        {
          "indexed": false,
          "internalType": "address",
          "name": "receiver",
          "type": "address"
        },
        {
          "indexed": false,
          "internalType": "uint256",
          "name": "amount",
          "type": "uint256"
        }
      ],
      "name": "BridgeFrom",
      "type": "event"
    },
    {
      "anonymous": false,
      "inputs": [
        {
          "indexed": true,
          "internalType": "uint16",
          "name": "lzChainId",
          "type": "uint16"
        },
        {
          "indexed": false,
          "internalType": "bytes",
          "name": "receiver",
          "type": "bytes"
        },
        {
          "indexed": false,
          "internalType": "uint256",
          "name": "amount",
          "type": "uint256"
        }
      ],
      "name": "BridgeTo",
      "type": "event"
    },
    {
      "anonymous": false,
      "inputs": [
        {
          "indexed": true,
          "internalType": "address",
          "name": "from",
          "type": "address"
        },
        {
          "indexed": true,
          "internalType": "address",
          "name": "to",
          "type": "address"
        },
        {
          "indexed": false,
          "internalType": "uint256",
          "name": "value",
          "type": "uint256"
        }
      ],
      "name": "Transfer",
      "type": "event"
    },
    {
      "inputs": [],
      "name": "DOMAIN_SEPARATOR",
      "outputs": [
        {
          "internalType": "bytes32",
          "name": "",
          "type": "bytes32"
        }
      ],
      "stateMutability": "view",
      "type": "function"
    },
    {
      "inputs": [
        {
          "internalType": "address",
          "name": "owner",
          "type": "address"
        },
        {
          "internalType": "address",
          "name": "spender",
          "type": "address"
        }
      ],
      "name": "allowance",
      "outputs": [
        {
          "internalType": "uint256",
          "name": "",
          "type": "uint256"
        }
      ],
      "stateMutability": "view",
      "type": "function"
    },
    {
      "inputs": [
        {
          "internalType": "address",
          "name": "spender",
          "type": "address"
        },
        {
          "internalType": "uint256",
          "name": "amount",
          "type": "uint256"
        }
      ],
      "name": "approve",
      "outputs": [
        {
          "internalType": "bool",
          "name": "",
          "type": "bool"
        }
      ],
      "stateMutability": "nonpayable",
      "type": "function"
    },
    {
      "inputs": [
        {
          "internalType": "address",
          "name": "account",
          "type": "address"
        }
      ],
      "name": "balanceOf",
      "outputs": [
        {
          "internalType": "uint256",
          "name": "",
          "type": "uint256"
        }
      ],
      "stateMutability": "view",
      "type": "function"
    },
    {
      "inputs": [
        {
          "internalType": "uint16",
          "name": "_lzChainId",
          "type": "uint16"
        },
        {
          "internalType": "bytes",
          "name": "_receiver",
          "type": "bytes"
        },
        {
          "internalType": "uint256",
          "name": "_amount",
          "type": "uint256"
        }
      ],
      "name": "bridge",
      "outputs": [],
      "stateMutability": "payable",
      "type": "function"
    },
    {
      "inputs": [],
      "name": "bridgeable",
      "outputs": [
        {
          "internalType": "bool",
          "name": "",
          "type": "bool"
        }
      ],
      "stateMutability": "view",
      "type": "function"
    },
    {
      "inputs": [],
      "name": "cap",
      "outputs": [
        {
          "internalType": "uint256",
          "name": "",
          "type": "uint256"
        }
      ],
      "stateMutability": "view",
      "type": "function"
    },
    {
      "inputs": [],
      "name": "decimals",
      "outputs": [
        {
          "internalType": "uint8",
          "name": "",
          "type": "uint8"
        }
      ],
      "stateMutability": "view",
      "type": "function"
    },
    {
      "inputs": [
        {
          "internalType": "address",
          "name": "spender",
          "type": "address"
        },
        {
          "internalType": "uint256",
          "name": "subtractedValue",
          "type": "uint256"
        }
      ],
      "name": "decreaseAllowance",
      "outputs": [
        {
          "internalType": "bool",
          "name": "",
          "type": "bool"
        }
      ],
      "stateMutability": "nonpayable",
      "type": "function"
    },
    {
      "inputs": [
        {
          "internalType": "uint16",
          "name": "",
          "type": "uint16"
        }
      ],
      "name": "destination",
      "outputs": [
        {
          "internalType": "bytes",
          "name": "",
          "type": "bytes"
        }
      ],
      "stateMutability": "view",
      "type": "function"
    },
    {
      "inputs": [],
      "name": "endpoint",
      "outputs": [
        {
          "internalType": "contract ILayerZeroEndpoint",
          "name": "",
          "type": "address"
        }
      ],
      "stateMutability": "view",
      "type": "function"
    },
    {
      "inputs": [
        {
          "internalType": "uint16",
          "name": "_lzChainId",
          "type": "uint16"
        },
        {
          "internalType": "bytes",
          "name": "_receiver",
          "type": "bytes"
        },
        {
          "internalType": "uint256",
          "name": "_amount",
          "type": "uint256"
        }
      ],
      "name": "estimateBridgeFees",
      "outputs": [
        {
          "internalType": "uint256",
          "name": "",
          "type": "uint256"
        }
      ],
      "stateMutability": "view",
      "type": "function"
    },
    {
      "inputs": [
        {
          "internalType": "address",
          "name": "spender",
          "type": "address"
        },
        {
          "internalType": "uint256",
          "name": "addedValue",
          "type": "uint256"
        }
      ],
      "name": "increaseAllowance",
      "outputs": [
        {
          "internalType": "bool",
          "name": "",
          "type": "bool"
        }
      ],
      "stateMutability": "nonpayable",
      "type": "function"
    },
    {
      "inputs": [
        {
          "internalType": "uint16",
          "name": "_srcChainId",
          "type": "uint16"
        },
        {
          "internalType": "bytes",
          "name": "_srcAddress",
          "type": "bytes"
        },
        {
          "internalType": "uint64",
          "name": "",
          "type": "uint64"
        },
        {
          "internalType": "bytes",
          "name": "_payload",
          "type": "bytes"
        }
      ],
      "name": "lzReceive",
      "outputs": [],
      "stateMutability": "nonpayable",
      "type": "function"
    },
    {
      "inputs": [],
      "name": "name",
      "outputs": [
        {
          "internalType": "string",
          "name": "",
          "type": "string"
        }
      ],
      "stateMutability": "view",
      "type": "function"
    },
    {
      "inputs": [],
      "name": "networkGovernor",
      "outputs": [
        {
          "internalType": "address",
          "name": "",
          "type": "address"
        }
      ],
      "stateMutability": "view",
      "type": "function"
    },
    {
      "inputs": [
        {
          "internalType": "address",
          "name": "owner",
          "type": "address"
        }
      ],
      "name": "nonces",
      "outputs": [
        {
          "internalType": "uint256",
          "name": "",
          "type": "uint256"
        }
      ],
      "stateMutability": "view",
      "type": "function"
    },
    {
      "inputs": [
        {
          "internalType": "address",
          "name": "owner",
          "type": "address"
        },
        {
          "internalType": "address",
          "name": "spender",
          "type": "address"
        },
        {
          "internalType": "uint256",
          "name": "value",
          "type": "uint256"
        },
        {
          "internalType": "uint256",
          "name": "deadline",
          "type": "uint256"
        },
        {
          "internalType": "uint8",
          "name": "v",
          "type": "uint8"
        },
        {
          "internalType": "bytes32",
          "name": "r",
          "type": "bytes32"
        },
        {
          "internalType": "bytes32",
          "name": "s",
          "type": "bytes32"
        }
      ],
      "name": "permit",
      "outputs": [],
      "stateMutability": "nonpayable",
      "type": "function"
    },
    {
      "inputs": [
        {
          "internalType": "bool",
          "name": "_bridgeable",
          "type": "bool"
        }
      ],
      "name": "setBridgeable",
      "outputs": [],
      "stateMutability": "nonpayable",
      "type": "function"
    },
    {
      "inputs": [
        {
          "internalType": "uint16",
          "name": "_lzChainId",
          "type": "uint16"
        },
        {
          "internalType": "bytes",
          "name": "_contractAdd",
          "type": "bytes"
        }
      ],
      "name": "setDestination",
      "outputs": [],
      "stateMutability": "nonpayable",
      "type": "function"
    },
    {
      "inputs": [
        {
          "internalType": "uint16[]",
          "name": "lzChainIds",
          "type": "uint16[]"
        },
        {
          "internalType": "bytes[]",
          "name": "contractAdds",
          "type": "bytes[]"
        }
      ],
      "name": "setDestinations",
      "outputs": [],
      "stateMutability": "nonpayable",
      "type": "function"
    },
    {
      "inputs": [],
      "name": "symbol",
      "outputs": [
        {
          "internalType": "string",
          "name": "",
          "type": "string"
        }
      ],
      "stateMutability": "view",
      "type": "function"
    },
    {
      "inputs": [],
      "name": "totalSupply",
      "outputs": [
        {
          "internalType": "uint256",
          "name": "",
          "type": "uint256"
        }
      ],
      "stateMutability": "view",
      "type": "function"
    },
    {
      "inputs": [
        {
          "internalType": "address",
          "name": "recipient",
          "type": "address"
        },
        {
          "internalType": "uint256",
          "name": "amount",
          "type": "uint256"
        }
      ],
      "name": "transfer",
      "outputs": [
        {
          "internalType": "bool",
          "name": "",
          "type": "bool"
        }
      ],
      "stateMutability": "nonpayable",
      "type": "function"
    },
    {
      "inputs": [
        {
          "internalType": "address",
          "name": "sender",
          "type": "address"
        },
        {
          "internalType": "address",
          "name": "recipient",
          "type": "address"
        },
        {
          "internalType": "uint256",
          "name": "amount",
          "type": "uint256"
        }
      ],
      "name": "transferFrom",
      "outputs": [
        {
          "internalType": "bool",
          "name": "",
          "type": "bool"
        }
      ],
      "stateMutability": "nonpayable",
      "type": "function"
    }
  ],
  "bytecode": "0x6101606040527f6e71edae12b1b97f4d1f60370fef10105fa2faae0126114a169c64845d6126c9610140523480156200003757600080fd5b50604051620029a8380380620029a88339810160408190526200005a9162000527565b8580604051806040016040528060018152602001603160f81b81525086898981600390805190602001906200009192919062000397565b508051620000a790600490602084019062000397565b50505060008111620001005760405162461bcd60e51b815260206004820152601560248201527f45524332304361707065643a206361702069732030000000000000000000000060448201526064015b60405180910390fd5b608052815160208084019190912082519183019190912060e08290526101008190524660c0527f8b73c3c69bb8fe3d512ecc4cf759cc79239f7b179b0ffacaa9a75d522b39400f620001978184846040805160208101859052908101839052606081018290524660808201523060a082015260009060c0016040516020818303038152906040528051906020012090509392505050565b60a05261012052505060016006555050600780546001600160a01b038087166001600160a01b0319928316179092556008805492861692909116919091179055508015620001eb57620001eb828562000205565b5050600a805460ff19166001179055506200063d92505050565b6200021c82826200022060201b620010fe1760201c565b5050565b6080518162000239620002ac60201b6200085b1760201c565b620002459190620005d9565b1115620002955760405162461bcd60e51b815260206004820152601960248201527f45524332304361707065643a20636170206578636565646564000000000000006044820152606401620000f7565b6200021c8282620002b260201b6200118f1760201c565b60025490565b6001600160a01b0382166200030a5760405162461bcd60e51b815260206004820152601f60248201527f45524332303a206d696e7420746f20746865207a65726f2061646472657373006044820152606401620000f7565b80600260008282546200031e9190620005d9565b90915550506001600160a01b038216600090815260208190526040812080548392906200034d908490620005d9565b90915550506040518181526001600160a01b038316906000907fddf252ad1be2c89b69c2b068fc378daa952ba7f163c4a11628f55a4df523b3ef9060200160405180910390a35050565b828054620003a59062000600565b90600052602060002090601f016020900481019282620003c9576000855562000414565b82601f10620003e457805160ff191683800117855562000414565b8280016001018555821562000414579182015b8281111562000414578251825591602001919060010190620003f7565b506200042292915062000426565b5090565b5b8082111562000422576000815560010162000427565b634e487b7160e01b600052604160045260246000fd5b600082601f8301126200046557600080fd5b81516001600160401b03808211156200048257620004826200043d565b604051601f8301601f19908116603f01168101908282118183101715620004ad57620004ad6200043d565b81604052838152602092508683858801011115620004ca57600080fd5b600091505b83821015620004ee5785820183015181830184015290820190620004cf565b83821115620005005760008385830101525b9695505050505050565b80516001600160a01b03811681146200052257600080fd5b919050565b60008060008060008060c087890312156200054157600080fd5b86516001600160401b03808211156200055957600080fd5b620005678a838b0162000453565b975060208901519150808211156200057e57600080fd5b506200058d89828a0162000453565b95505060408701519350620005a5606088016200050a565b9250620005b5608088016200050a565b915060a08701518015158114620005cb57600080fd5b809150509295509295509295565b60008219821115620005fb57634e487b7160e01b600052601160045260246000fd5b500190565b600181811c908216806200061557607f821691505b602082108114156200063757634e487b7160e01b600052602260045260246000fd5b50919050565b60805160a05160c05160e0516101005161012051610140516123096200069f6000396000610fb1015260006115cb0152600061161a015260006115f501526000611579015260006115a2015260008181610251015261110001526123096000f3fe6080604052600436106101655760003560e01c8063530da8ef116100d1578063a457c2d71161008a578063d505accf11610064578063d505accf1461043a578063dd62ed3e1461045a578063e11f87ae146104a0578063f39349ef146104c057600080fd5b8063a457c2d7146103e7578063a9059cbb14610407578063ca66c7851461042757600080fd5b8063530da8ef1461030a5780635e280f1114610324578063706d8fff1461035c57806370a082311461037c5780637ecebe00146103b257806395d89b41146103d257600080fd5b8063355274ea11610123578063355274ea146102425780633644e51514610275578063395093511461028a5780634922ac7c146102aa5780634c528bd5146102ca5780635221aab1146102ea57600080fd5b80621d35671461016a57806306fdde031461018c578063095ea7b3146101b757806318160ddd146101e757806323b872dd14610206578063313ce56714610226575b600080fd5b34801561017657600080fd5b5061018a610185366004611b43565b6104e0565b005b34801561019857600080fd5b506101a16107b3565b6040516101ae9190611c2a565b60405180910390f35b3480156101c357600080fd5b506101d76101d2366004611c5b565b610845565b60405190151581526020016101ae565b3480156101f357600080fd5b506002545b6040519081526020016101ae565b34801561021257600080fd5b506101d7610221366004611c85565b610861565b34801561023257600080fd5b50604051601281526020016101ae565b34801561024e57600080fd5b507f00000000000000000000000000000000000000000000000000000000000000006101f8565b34801561028157600080fd5b506101f8610912565b34801561029657600080fd5b506101d76102a5366004611c5b565b610921565b3480156102b657600080fd5b506101a16102c5366004611cc1565b610958565b3480156102d657600080fd5b5061018a6102e5366004611e47565b6109f2565b3480156102f657600080fd5b506101f8610305366004611f07565b610afc565b34801561031657600080fd5b50600a546101d79060ff1681565b34801561033057600080fd5b50600754610344906001600160a01b031681565b6040516001600160a01b0390911681526020016101ae565b34801561036857600080fd5b5061018a610377366004611f61565b610bbd565b34801561038857600080fd5b506101f8610397366004611fb4565b6001600160a01b031660009081526020819052604090205490565b3480156103be57600080fd5b506101f86103cd366004611fb4565b610c0b565b3480156103de57600080fd5b506101a1610c2b565b3480156103f357600080fd5b506101d7610402366004611c5b565b610c3a565b34801561041357600080fd5b506101d7610422366004611c5b565b610cd5565b61018a610435366004611f07565b610ce2565b34801561044657600080fd5b5061018a610455366004611fcf565b610f5d565b34801561046657600080fd5b506101f8610475366004612042565b6001600160a01b03918216600090815260016020908152604080832093909416825291909152205490565b3480156104ac57600080fd5b5061018a6104bb366004612075565b6110c1565b3480156104cc57600080fd5b50600854610344906001600160a01b031681565b6007546001600160a01b0316331461053f5760405162461bcd60e51b815260206004820152601860248201527f5a4b4c3a2072657175697265204c5a20656e64706f696e74000000000000000060448201526064015b60405180910390fd5b600260065414156105925760405162461bcd60e51b815260206004820152601f60248201527f5265656e7472616e637947756172643a207265656e7472616e742063616c6c006044820152606401610536565b6002600655600a5460ff166105e05760405162461bcd60e51b81526020600482015260146024820152731692d30e88189c9a5919d948191a5cd8589b195960621b6044820152606401610536565b61ffff8616600090815260096020526040812080546105fe90612097565b80601f016020809104026020016040519081016040528092919081815260200182805461062a90612097565b80156106775780601f1061064c57610100808354040283529160200191610677565b820191906000526020600020905b81548152906001019060200180831161065a57829003601f168201915b5050505050905060008151116106ca5760405162461bcd60e51b81526020600482015260186024820152771692d30e881a5b9d985b1a59081b1e8818da185a5b881a5960421b6044820152606401610536565b85856040516106da9291906120cc565b60405180910390208180519060200120146107375760405162461bcd60e51b815260206004820152601c60248201527f5a4b4c3a20696e76616c6964207a6b6c207372632061646472657373000000006044820152606401610536565b600080610746848601866120dc565b6014820151919350915061075a818361126e565b604080516001600160a01b03831681526020810184905261ffff8c16917f3e33819007c497fe228785c5b36ba21f1c056e79edb51c67f54929a5ae642435910160405180910390a2505060016006555050505050505050565b6060600380546107c290612097565b80601f01602080910402602001604051908101604052809291908181526020018280546107ee90612097565b801561083b5780601f106108105761010080835404028352916020019161083b565b820191906000526020600020905b81548152906001019060200180831161081e57829003601f168201915b5050505050905090565b6000610852338484611278565b50600192915050565b60025490565b600061086e84848461139d565b6001600160a01b0384166000908152600160209081526040808320338452909152902054828110156108f35760405162461bcd60e51b815260206004820152602860248201527f45524332303a207472616e7366657220616d6f756e74206578636565647320616044820152676c6c6f77616e636560c01b6064820152608401610536565b61090785336109028685612137565b611278565b506001949350505050565b600061091c611575565b905090565b3360008181526001602090815260408083206001600160a01b0387168452909152812054909161085291859061090290869061214e565b6009602052600090815260409020805461097190612097565b80601f016020809104026020016040519081016040528092919081815260200182805461099d90612097565b80156109ea5780601f106109bf576101008083540402835291602001916109ea565b820191906000526020600020905b8154815290600101906020018083116109cd57829003601f168201915b505050505081565b6008546001600160a01b03163314610a1c5760405162461bcd60e51b815260040161053690612166565b8051825114610a775760405162461bcd60e51b815260206004820152602160248201527f5a4b4c3a2064657374696e6174696f6e206c656e677468206e6f74206d6174636044820152600d60fb1b6064820152608401610536565b60005b8251811015610af757818181518110610a9557610a95612195565b602002602001015160096000858481518110610ab357610ab3612195565b602002602001015161ffff1661ffff1681526020019081526020016000209080519060200190610ae49291906119d6565b5080610aef816121ab565b915050610a7a565b505050565b600080848484604051602001610b14939291906121c6565b60408051601f1981840301815260075460208401835260008085529251637390019f60e11b81529194506001600160a01b03169263e720033e92610b63928b92309288929091906004016121ff565b60206040518083038186803b158015610b7b57600080fd5b505afa158015610b8f573d6000803e3d6000fd5b505050506040513d601f19601f82011682018060405250810190610bb39190612253565b9695505050505050565b6008546001600160a01b03163314610be75760405162461bcd60e51b815260040161053690612166565b61ffff83166000908152600960205260409020610c05908383611a5a565b50505050565b6001600160a01b0381166000908152600560205260408120545b92915050565b6060600480546107c290612097565b3360009081526001602090815260408083206001600160a01b038616845290915281205482811015610cbc5760405162461bcd60e51b815260206004820152602560248201527f45524332303a2064656372656173656420616c6c6f77616e63652062656c6f77604482015264207a65726f60d81b6064820152608401610536565b610ccb33856109028685612137565b5060019392505050565b600061085233848461139d565b60026006541415610d355760405162461bcd60e51b815260206004820152601f60248201527f5265656e7472616e637947756172643a207265656e7472616e742063616c6c006044820152606401610536565b6002600655600a5460ff16610d835760405162461bcd60e51b81526020600482015260146024820152731692d30e88189c9a5919d948191a5cd8589b195960621b6044820152606401610536565b61ffff841660009081526009602052604081208054610da190612097565b80601f0160208091040260200160405190810160405280929190818152602001828054610dcd90612097565b8015610e1a5780601f10610def57610100808354040283529160200191610e1a565b820191906000526020600020905b815481529060010190602001808311610dfd57829003601f168201915b505050505090506000815111610e6d5760405162461bcd60e51b81526020600482015260186024820152771692d30e881a5b9d985b1a59081b1e8818da185a5b881a5960421b6044820152606401610536565b610e773383611668565b6000848484604051602001610e8e939291906121c6565b60408051601f198184030181526007546020840183526000808552925162c5803160e81b81529194506001600160a01b03169263c5803100923492610ede928c928992899233929160040161226c565b6000604051808303818588803b158015610ef757600080fd5b505af1158015610f0b573d6000803e3d6000fd5b50505050508561ffff167f5931885664ced0fc957b95fd35371c3c697206227661a39137f7667acb23400f868686604051610f48939291906121c6565b60405180910390a25050600160065550505050565b83421115610fad5760405162461bcd60e51b815260206004820152601d60248201527f45524332305065726d69743a206578706972656420646561646c696e650000006044820152606401610536565b60007f0000000000000000000000000000000000000000000000000000000000000000888888610fdc8c6117b7565b6040805160208101969096526001600160a01b0394851690860152929091166060840152608083015260a082015260c0810186905260e0016040516020818303038152906040528051906020012090506000611037826117df565b905060006110478287878761182d565b9050896001600160a01b0316816001600160a01b0316146110aa5760405162461bcd60e51b815260206004820152601e60248201527f45524332305065726d69743a20696e76616c6964207369676e617475726500006044820152606401610536565b6110b58a8a8a611278565b50505050505050505050565b6008546001600160a01b031633146110eb5760405162461bcd60e51b815260040161053690612166565b600a805460ff1916911515919091179055565b7f00000000000000000000000000000000000000000000000000000000000000008161112960025490565b611133919061214e565b11156111815760405162461bcd60e51b815260206004820152601960248201527f45524332304361707065643a20636170206578636565646564000000000000006044820152606401610536565b61118b828261118f565b5050565b6001600160a01b0382166111e55760405162461bcd60e51b815260206004820152601f60248201527f45524332303a206d696e7420746f20746865207a65726f2061646472657373006044820152606401610536565b80600260008282546111f7919061214e565b90915550506001600160a01b0382166000908152602081905260408120805483929061122490849061214e565b90915550506040518181526001600160a01b038316906000907fddf252ad1be2c89b69c2b068fc378daa952ba7f163c4a11628f55a4df523b3ef9060200160405180910390a35050565b61118b82826110fe565b6001600160a01b0383166112da5760405162461bcd60e51b8152602060048201526024808201527f45524332303a20617070726f76652066726f6d20746865207a65726f206164646044820152637265737360e01b6064820152608401610536565b6001600160a01b03821661133b5760405162461bcd60e51b815260206004820152602260248201527f45524332303a20617070726f766520746f20746865207a65726f206164647265604482015261737360f01b6064820152608401610536565b6001600160a01b0383811660008181526001602090815260408083209487168084529482529182902085905590518481527f8c5be1e5ebec7d5bd14f71427d1e84f3dd0314c0f7b2291e5b200ac8c7c3b92591015b60405180910390a3505050565b6001600160a01b0383166114015760405162461bcd60e51b815260206004820152602560248201527f45524332303a207472616e736665722066726f6d20746865207a65726f206164604482015264647265737360d81b6064820152608401610536565b6001600160a01b0382166114635760405162461bcd60e51b815260206004820152602360248201527f45524332303a207472616e7366657220746f20746865207a65726f206164647260448201526265737360e81b6064820152608401610536565b6001600160a01b038316600090815260208190526040902054818110156114db5760405162461bcd60e51b815260206004820152602660248201527f45524332303a207472616e7366657220616d6f756e7420657863656564732062604482015265616c616e636560d01b6064820152608401610536565b6114e58282612137565b6001600160a01b03808616600090815260208190526040808220939093559085168152908120805484929061151b90849061214e565b92505081905550826001600160a01b0316846001600160a01b03167fddf252ad1be2c89b69c2b068fc378daa952ba7f163c4a11628f55a4df523b3ef8460405161156791815260200190565b60405180910390a350505050565b60007f00000000000000000000000000000000000000000000000000000000000000004614156115c457507f000000000000000000000000000000000000000000000000000000000000000090565b50604080517f00000000000000000000000000000000000000000000000000000000000000006020808301919091527f0000000000000000000000000000000000000000000000000000000000000000828401527f000000000000000000000000000000000000000000000000000000000000000060608301524660808301523060a0808401919091528351808403909101815260c0909201909252805191012090565b6001600160a01b0382166116c85760405162461bcd60e51b815260206004820152602160248201527f45524332303a206275726e2066726f6d20746865207a65726f206164647265736044820152607360f81b6064820152608401610536565b6001600160a01b0382166000908152602081905260409020548181101561173c5760405162461bcd60e51b815260206004820152602260248201527f45524332303a206275726e20616d6f756e7420657863656564732062616c616e604482015261636560f01b6064820152608401610536565b6117468282612137565b6001600160a01b03841660009081526020819052604081209190915560028054849290611774908490612137565b90915550506040518281526000906001600160a01b038516907fddf252ad1be2c89b69c2b068fc378daa952ba7f163c4a11628f55a4df523b3ef90602001611390565b6001600160a01b03811660009081526005602052604090208054600181018255905b50919050565b6000610c256117ec611575565b8360405161190160f01b6020820152602281018390526042810182905260009060620160405160208183030381529060405280519060200120905092915050565b60007f7fffffffffffffffffffffffffffffff5d576e7357a4501ddfe92f46681b20a08211156118aa5760405162461bcd60e51b815260206004820152602260248201527f45434453413a20696e76616c6964207369676e6174757265202773272076616c604482015261756560f01b6064820152608401610536565b8360ff16601b14806118bf57508360ff16601c145b6119165760405162461bcd60e51b815260206004820152602260248201527f45434453413a20696e76616c6964207369676e6174757265202776272076616c604482015261756560f01b6064820152608401610536565b6040805160008082526020820180845288905260ff871692820192909252606081018590526080810184905260019060a0016020604051602081039080840390855afa15801561196a573d6000803e3d6000fd5b5050604051601f1901519150506001600160a01b0381166119cd5760405162461bcd60e51b815260206004820152601860248201527f45434453413a20696e76616c6964207369676e617475726500000000000000006044820152606401610536565b95945050505050565b8280546119e290612097565b90600052602060002090601f016020900481019282611a045760008555611a4a565b82601f10611a1d57805160ff1916838001178555611a4a565b82800160010185558215611a4a579182015b82811115611a4a578251825591602001919060010190611a2f565b50611a56929150611ace565b5090565b828054611a6690612097565b90600052602060002090601f016020900481019282611a885760008555611a4a565b82601f10611aa15782800160ff19823516178555611a4a565b82800160010185558215611a4a579182015b82811115611a4a578235825591602001919060010190611ab3565b5b80821115611a565760008155600101611acf565b803561ffff81168114611af557600080fd5b919050565b60008083601f840112611b0c57600080fd5b50813567ffffffffffffffff811115611b2457600080fd5b602083019150836020828501011115611b3c57600080fd5b9250929050565b60008060008060008060808789031215611b5c57600080fd5b611b6587611ae3565b9550602087013567ffffffffffffffff80821115611b8257600080fd5b611b8e8a838b01611afa565b9097509550604089013591508082168214611ba857600080fd5b90935060608801359080821115611bbe57600080fd5b50611bcb89828a01611afa565b979a9699509497509295939492505050565b6000815180845260005b81811015611c0357602081850181015186830182015201611be7565b81811115611c15576000602083870101525b50601f01601f19169290920160200192915050565b602081526000611c3d6020830184611bdd565b9392505050565b80356001600160a01b0381168114611af557600080fd5b60008060408385031215611c6e57600080fd5b611c7783611c44565b946020939093013593505050565b600080600060608486031215611c9a57600080fd5b611ca384611c44565b9250611cb160208501611c44565b9150604084013590509250925092565b600060208284031215611cd357600080fd5b611c3d82611ae3565b634e487b7160e01b600052604160045260246000fd5b604051601f8201601f1916810167ffffffffffffffff81118282101715611d1b57611d1b611cdc565b604052919050565b600067ffffffffffffffff821115611d3d57611d3d611cdc565b5060051b60200190565b600082601f830112611d5857600080fd5b813567ffffffffffffffff811115611d7257611d72611cdc565b611d85601f8201601f1916602001611cf2565b818152846020838601011115611d9a57600080fd5b816020850160208301376000918101602001919091529392505050565b600082601f830112611dc857600080fd5b81356020611ddd611dd883611d23565b611cf2565b82815260059290921b84018101918181019086841115611dfc57600080fd5b8286015b84811015611e3c57803567ffffffffffffffff811115611e205760008081fd5b611e2e8986838b0101611d47565b845250918301918301611e00565b509695505050505050565b60008060408385031215611e5a57600080fd5b823567ffffffffffffffff80821115611e7257600080fd5b818501915085601f830112611e8657600080fd5b81356020611e96611dd883611d23565b82815260059290921b84018101918181019089841115611eb557600080fd5b948201945b83861015611eda57611ecb86611ae3565b82529482019490820190611eba565b96505086013592505080821115611ef057600080fd5b50611efd85828601611db7565b9150509250929050565b60008060008060608587031215611f1d57600080fd5b611f2685611ae3565b9350602085013567ffffffffffffffff811115611f4257600080fd5b611f4e87828801611afa565b9598909750949560400135949350505050565b600080600060408486031215611f7657600080fd5b611f7f84611ae3565b9250602084013567ffffffffffffffff811115611f9b57600080fd5b611fa786828701611afa565b9497909650939450505050565b600060208284031215611fc657600080fd5b611c3d82611c44565b600080600080600080600060e0888a031215611fea57600080fd5b611ff388611c44565b965061200160208901611c44565b95506040880135945060608801359350608088013560ff8116811461202557600080fd5b9699959850939692959460a0840135945060c09093013592915050565b6000806040838503121561205557600080fd5b61205e83611c44565b915061206c60208401611c44565b90509250929050565b60006020828403121561208757600080fd5b81358015158114611c3d57600080fd5b600181811c908216806120ab57607f821691505b602082108114156117d957634e487b7160e01b600052602260045260246000fd5b8183823760009101908152919050565b600080604083850312156120ef57600080fd5b823567ffffffffffffffff81111561210657600080fd5b61211285828601611d47565b95602094909401359450505050565b634e487b7160e01b600052601160045260246000fd5b60008282101561214957612149612121565b500390565b6000821982111561216157612161612121565b500190565b6020808252601590820152742d25a61d103932b8bab4b9329033b7bb32b93737b960591b604082015260600190565b634e487b7160e01b600052603260045260246000fd5b60006000198214156121bf576121bf612121565b5060010190565b604081528260408201528284606083013760006060848301015260006060601f19601f8601168301019050826020830152949350505050565b61ffff861681526001600160a01b038516602082015260a06040820181905260009061222d90830186611bdd565b841515606084015282810360808401526122478185611bdd565b98975050505050505050565b60006020828403121561226557600080fd5b5051919050565b61ffff8716815260c06020820152600061228960c0830188611bdd565b828103604084015261229b8188611bdd565b6001600160a01b0387811660608601528616608085015283810360a085015290506122c68185611bdd565b999850505050505050505056fea2646970667358221220381b156eff365442cd86143f51dad80ec990edf60a4873835f9b94a4ca02e34f64736f6c63430008090033",
  "linkReferences": {},
  "deployedLinkReferences": {}
}