{
  "_format": "hh-sol-artifact-1",
  "contractName": "ZkLink",
  "sourceName": "cache/solpp-generated-contracts/ZkLink.sol",
  "abi": [
    {
      "anonymous": false,
      "inputs": [
        {
          "indexed": true,
          "internalType": "address",
          "name": "accepter",
          "type": "address"
        },
        {
          "indexed": true,
          "internalType": "uint32",
          "name": "accountId",
          "type": "uint32"
        },
        {
          "indexed": false,
          "internalType": "address",
          "name": "receiver",
          "type": "address"
        },
        {
          "indexed": false,
          "internalType": "uint16",
          "name": "tokenId",
          "type": "uint16"
        },
        {
          "indexed": false,
          "internalType": "uint128",
          "name": "amountSent",
          "type": "uint128"
        },
        {
          "indexed": false,
          "internalType": "uint128",
          "name": "amountReceive",
          "type": "uint128"
        }
      ],
      "name": "Accept",
      "type": "event"
    },
    {
      "anonymous": false,
      "inputs": [
        {
          "indexed": true,
          "internalType": "address",
          "name": "bridge",
          "type": "address"
        }
      ],
      "name": "AddBridge",
      "type": "event"
    },
    {
      "anonymous": false,
      "inputs": [
        {
          "indexed": true,
          "internalType": "uint32",
          "name": "blockNumber",
          "type": "uint32"
        }
      ],
      "name": "BlockCommit",
      "type": "event"
    },
    {
      "anonymous": false,
      "inputs": [
        {
          "indexed": true,
          "internalType": "uint32",
          "name": "blockNumber",
          "type": "uint32"
        }
      ],
      "name": "BlockExecuted",
      "type": "event"
    },
    {
      "anonymous": false,
      "inputs": [
        {
          "indexed": false,
          "internalType": "uint32",
          "name": "totalBlocksVerified",
          "type": "uint32"
        },
        {
          "indexed": false,
          "internalType": "uint32",
          "name": "totalBlocksCommitted",
          "type": "uint32"
        }
      ],
      "name": "BlocksRevert",
      "type": "event"
    },
    {
      "anonymous": false,
      "inputs": [
        {
          "indexed": true,
          "internalType": "uint16",
          "name": "tokenId",
          "type": "uint16"
        },
        {
          "indexed": true,
          "internalType": "address",
          "name": "owner",
          "type": "address"
        },
        {
          "indexed": true,
          "internalType": "address",
          "name": "spender",
          "type": "address"
        },
        {
          "indexed": false,
          "internalType": "uint128",
          "name": "amount",
          "type": "uint128"
        }
      ],
      "name": "BrokerApprove",
      "type": "event"
    },
    {
      "anonymous": false,
      "inputs": [],
      "name": "ExodusMode",
      "type": "event"
    },
    {
      "anonymous": false,
      "inputs": [
        {
          "indexed": true,
          "internalType": "address",
          "name": "sender",
          "type": "address"
        },
        {
          "indexed": false,
          "internalType": "uint32",
          "name": "nonce",
          "type": "uint32"
        },
        {
          "indexed": false,
          "internalType": "bytes",
          "name": "fact",
          "type": "bytes"
        }
      ],
      "name": "FactAuth",
      "type": "event"
    },
    {
      "anonymous": false,
      "inputs": [
        {
          "indexed": false,
          "internalType": "address",
          "name": "newGovernor",
          "type": "address"
        }
      ],
      "name": "NewGovernor",
      "type": "event"
    },
    {
      "anonymous": false,
      "inputs": [
        {
          "indexed": false,
          "internalType": "address",
          "name": "sender",
          "type": "address"
        },
        {
          "indexed": false,
          "internalType": "uint64",
          "name": "serialId",
          "type": "uint64"
        },
        {
          "indexed": false,
          "internalType": "enum Operations.OpType",
          "name": "opType",
          "type": "uint8"
        },
        {
          "indexed": false,
          "internalType": "bytes",
          "name": "pubData",
          "type": "bytes"
        },
        {
          "indexed": false,
          "internalType": "uint256",
          "name": "expirationBlock",
          "type": "uint256"
        }
      ],
      "name": "NewPriorityRequest",
      "type": "event"
    },
    {
      "anonymous": false,
      "inputs": [
        {
          "indexed": true,
          "internalType": "uint16",
          "name": "tokenId",
          "type": "uint16"
        },
        {
          "indexed": true,
          "internalType": "address",
          "name": "token",
          "type": "address"
        }
      ],
      "name": "NewToken",
      "type": "event"
    },
    {
      "anonymous": false,
      "inputs": [
        {
          "indexed": true,
          "internalType": "uint16",
          "name": "token",
          "type": "uint16"
        },
        {
          "indexed": false,
          "internalType": "bool",
          "name": "paused",
          "type": "bool"
        }
      ],
      "name": "TokenPausedUpdate",
      "type": "event"
    },
    {
      "anonymous": false,
      "inputs": [
        {
          "indexed": true,
          "internalType": "uint256",
          "name": "bridgeIndex",
          "type": "uint256"
        },
        {
          "indexed": false,
          "internalType": "bool",
          "name": "enableBridgeTo",
          "type": "bool"
        },
        {
          "indexed": false,
          "internalType": "bool",
          "name": "enableBridgeFrom",
          "type": "bool"
        }
      ],
      "name": "UpdateBridge",
      "type": "event"
    },
    {
      "anonymous": false,
      "inputs": [
        {
          "indexed": true,
          "internalType": "address",
          "name": "validatorAddress",
          "type": "address"
        },
        {
          "indexed": false,
          "internalType": "bool",
          "name": "isActive",
          "type": "bool"
        }
      ],
      "name": "ValidatorStatusUpdate",
      "type": "event"
    },
    {
      "anonymous": false,
      "inputs": [
        {
          "indexed": true,
          "internalType": "uint16",
          "name": "tokenId",
          "type": "uint16"
        },
        {
          "indexed": false,
          "internalType": "uint128",
          "name": "amount",
          "type": "uint128"
        }
      ],
      "name": "Withdrawal",
      "type": "event"
    },
    {
      "anonymous": false,
      "inputs": [
        {
          "indexed": true,
          "internalType": "uint16",
          "name": "tokenId",
          "type": "uint16"
        },
        {
          "indexed": true,
          "internalType": "address",
          "name": "recepient",
          "type": "address"
        },
        {
          "indexed": false,
          "internalType": "uint128",
          "name": "amount",
          "type": "uint128"
        }
      ],
      "name": "WithdrawalPending",
      "type": "event"
    },
    {
      "stateMutability": "payable",
      "type": "fallback"
    },
    {
      "inputs": [
        {
          "internalType": "uint32",
          "name": "",
          "type": "uint32"
        },
        {
          "internalType": "bytes32",
          "name": "",
          "type": "bytes32"
        }
      ],
      "name": "accepts",
      "outputs": [
        {
          "internalType": "address",
          "name": "",
          "type": "address"
        }
      ],
      "stateMutability": "view",
      "type": "function"
    },
    {
      "inputs": [
        {
          "internalType": "address",
          "name": "",
          "type": "address"
        },
        {
          "internalType": "uint32",
          "name": "",
          "type": "uint32"
        }
      ],
      "name": "authFacts",
      "outputs": [
        {
          "internalType": "bytes32",
          "name": "",
          "type": "bytes32"
        }
      ],
      "stateMutability": "view",
      "type": "function"
    },
    {
      "inputs": [
        {
          "internalType": "address",
          "name": "",
          "type": "address"
        }
      ],
      "name": "bridgeIndex",
      "outputs": [
        {
          "internalType": "uint256",
          "name": "",
          "type": "uint256"
        }
      ],
      "stateMutability": "view",
      "type": "function"
    },
    {
      "inputs": [
        {
          "internalType": "uint256",
          "name": "",
          "type": "uint256"
        }
      ],
      "name": "bridges",
      "outputs": [
        {
          "internalType": "address",
          "name": "bridge",
          "type": "address"
        },
        {
          "internalType": "bool",
          "name": "enableBridgeTo",
          "type": "bool"
        },
        {
          "internalType": "bool",
          "name": "enableBridgeFrom",
          "type": "bool"
        }
      ],
      "stateMutability": "view",
      "type": "function"
    },
    {
      "inputs": [
        {
          "components": [
            {
              "internalType": "uint32",
              "name": "blockNumber",
              "type": "uint32"
            },
            {
              "internalType": "uint64",
              "name": "priorityOperations",
              "type": "uint64"
            },
            {
              "internalType": "bytes32",
              "name": "pendingOnchainOperationsHash",
              "type": "bytes32"
            },
            {
              "internalType": "uint256",
              "name": "timestamp",
              "type": "uint256"
            },
            {
              "internalType": "bytes32",
              "name": "stateHash",
              "type": "bytes32"
            },
            {
              "internalType": "bytes32",
              "name": "commitment",
              "type": "bytes32"
            },
            {
              "internalType": "bytes32",
              "name": "syncHash",
              "type": "bytes32"
            }
          ],
          "internalType": "struct Storage.StoredBlockInfo",
          "name": "_lastCommittedBlockData",
          "type": "tuple"
        },
        {
          "components": [
            {
              "internalType": "bytes32",
              "name": "newStateHash",
              "type": "bytes32"
            },
            {
              "internalType": "bytes",
              "name": "publicData",
              "type": "bytes"
            },
            {
              "internalType": "uint256",
              "name": "timestamp",
              "type": "uint256"
            },
            {
              "components": [
                {
                  "internalType": "bytes",
                  "name": "ethWitness",
                  "type": "bytes"
                },
                {
                  "internalType": "uint32",
                  "name": "publicDataOffset",
                  "type": "uint32"
                }
              ],
              "internalType": "struct ZkLink.OnchainOperationData[]",
              "name": "onchainOperations",
              "type": "tuple[]"
            },
            {
              "internalType": "uint32",
              "name": "blockNumber",
              "type": "uint32"
            },
            {
              "internalType": "uint32",
              "name": "feeAccount",
              "type": "uint32"
            }
          ],
          "internalType": "struct ZkLink.CommitBlockInfo[]",
          "name": "_newBlocksData",
          "type": "tuple[]"
        }
      ],
      "name": "commitBlocks",
      "outputs": [],
      "stateMutability": "nonpayable",
      "type": "function"
    },
    {
      "inputs": [
        {
          "components": [
            {
              "internalType": "uint32",
              "name": "blockNumber",
              "type": "uint32"
            },
            {
              "internalType": "uint64",
              "name": "priorityOperations",
              "type": "uint64"
            },
            {
              "internalType": "bytes32",
              "name": "pendingOnchainOperationsHash",
              "type": "bytes32"
            },
            {
              "internalType": "uint256",
              "name": "timestamp",
              "type": "uint256"
            },
            {
              "internalType": "bytes32",
              "name": "stateHash",
              "type": "bytes32"
            },
            {
              "internalType": "bytes32",
              "name": "commitment",
              "type": "bytes32"
            },
            {
              "internalType": "bytes32",
              "name": "syncHash",
              "type": "bytes32"
            }
          ],
          "internalType": "struct Storage.StoredBlockInfo",
          "name": "_lastCommittedBlockData",
          "type": "tuple"
        },
        {
          "components": [
            {
              "internalType": "bytes32",
              "name": "newStateHash",
              "type": "bytes32"
            },
            {
              "internalType": "bytes",
              "name": "publicData",
              "type": "bytes"
            },
            {
              "internalType": "uint256",
              "name": "timestamp",
              "type": "uint256"
            },
            {
              "components": [
                {
                  "internalType": "bytes",
                  "name": "ethWitness",
                  "type": "bytes"
                },
                {
                  "internalType": "uint32",
                  "name": "publicDataOffset",
                  "type": "uint32"
                }
              ],
              "internalType": "struct ZkLink.OnchainOperationData[]",
              "name": "onchainOperations",
              "type": "tuple[]"
            },
            {
              "internalType": "uint32",
              "name": "blockNumber",
              "type": "uint32"
            },
            {
              "internalType": "uint32",
              "name": "feeAccount",
              "type": "uint32"
            }
          ],
          "internalType": "struct ZkLink.CommitBlockInfo[]",
          "name": "_newBlocksData",
          "type": "tuple[]"
        },
        {
          "components": [
            {
              "internalType": "bytes32",
              "name": "publicDataHash",
              "type": "bytes32"
            },
            {
              "internalType": "bytes32",
              "name": "offsetCommitmentHash",
              "type": "bytes32"
            },
            {
              "internalType": "bytes32[]",
              "name": "onchainOperationPubdataHashs",
              "type": "bytes32[]"
            }
          ],
          "internalType": "struct ZkLink.CompressedBlockExtraInfo[]",
          "name": "_newBlocksExtraData",
          "type": "tuple[]"
        }
      ],
      "name": "commitCompressedBlocks",
      "outputs": [],
      "stateMutability": "nonpayable",
      "type": "function"
    },
    {
      "inputs": [
        {
          "internalType": "contract IERC20",
          "name": "_token",
          "type": "address"
        },
        {
          "internalType": "uint104",
          "name": "_amount",
          "type": "uint104"
        },
        {
          "internalType": "address",
          "name": "_zkLinkAddress",
          "type": "address"
        },
        {
          "internalType": "uint8",
          "name": "_subAccountId",
          "type": "uint8"
        },
        {
          "internalType": "bool",
          "name": "_mapping",
          "type": "bool"
        }
      ],
      "name": "depositERC20",
      "outputs": [],
      "stateMutability": "nonpayable",
      "type": "function"
    },
    {
      "inputs": [
        {
          "internalType": "address",
          "name": "_zkLinkAddress",
          "type": "address"
        },
        {
          "internalType": "uint8",
          "name": "_subAccountId",
          "type": "uint8"
        }
      ],
      "name": "depositETH",
      "outputs": [],
      "stateMutability": "payable",
      "type": "function"
    },
    {
      "inputs": [
        {
          "components": [
            {
              "components": [
                {
                  "internalType": "uint32",
                  "name": "blockNumber",
                  "type": "uint32"
                },
                {
                  "internalType": "uint64",
                  "name": "priorityOperations",
                  "type": "uint64"
                },
                {
                  "internalType": "bytes32",
                  "name": "pendingOnchainOperationsHash",
                  "type": "bytes32"
                },
                {
                  "internalType": "uint256",
                  "name": "timestamp",
                  "type": "uint256"
                },
                {
                  "internalType": "bytes32",
                  "name": "stateHash",
                  "type": "bytes32"
                },
                {
                  "internalType": "bytes32",
                  "name": "commitment",
                  "type": "bytes32"
                },
                {
                  "internalType": "bytes32",
                  "name": "syncHash",
                  "type": "bytes32"
                }
              ],
              "internalType": "struct Storage.StoredBlockInfo",
              "name": "storedBlock",
              "type": "tuple"
            },
            {
              "internalType": "bytes[]",
              "name": "pendingOnchainOpsPubdata",
              "type": "bytes[]"
            }
          ],
          "internalType": "struct ZkLink.ExecuteBlockInfo[]",
          "name": "_blocksData",
          "type": "tuple[]"
        }
      ],
      "name": "executeBlocks",
      "outputs": [],
      "stateMutability": "nonpayable",
      "type": "function"
    },
    {
      "inputs": [],
      "name": "exodusMode",
      "outputs": [
        {
          "internalType": "bool",
          "name": "",
          "type": "bool"
        }
      ],
      "stateMutability": "view",
      "type": "function"
    },
    {
      "inputs": [],
      "name": "firstPriorityRequestId",
      "outputs": [
        {
          "internalType": "uint64",
          "name": "",
          "type": "uint64"
        }
      ],
      "stateMutability": "view",
      "type": "function"
    },
    {
      "inputs": [],
      "name": "getNoticePeriod",
      "outputs": [
        {
          "internalType": "uint256",
          "name": "",
          "type": "uint256"
        }
      ],
      "stateMutability": "pure",
      "type": "function"
    },
    {
      "inputs": [
        {
          "internalType": "bytes",
          "name": "initializationParameters",
          "type": "bytes"
        }
      ],
      "name": "initialize",
      "outputs": [],
      "stateMutability": "nonpayable",
      "type": "function"
    },
    {
      "inputs": [],
      "name": "isReadyForUpgrade",
      "outputs": [
        {
          "internalType": "bool",
          "name": "",
          "type": "bool"
        }
      ],
      "stateMutability": "view",
      "type": "function"
    },
    {
      "inputs": [],
      "name": "networkGovernor",
      "outputs": [
        {
          "internalType": "address",
          "name": "",
          "type": "address"
        }
      ],
      "stateMutability": "view",
      "type": "function"
    },
    {
      "inputs": [],
      "name": "periphery",
      "outputs": [
        {
          "internalType": "address",
          "name": "",
          "type": "address"
        }
      ],
      "stateMutability": "view",
      "type": "function"
    },
    {
      "inputs": [
        {
          "components": [
            {
              "internalType": "uint32",
              "name": "blockNumber",
              "type": "uint32"
            },
            {
              "internalType": "uint64",
              "name": "priorityOperations",
              "type": "uint64"
            },
            {
              "internalType": "bytes32",
              "name": "pendingOnchainOperationsHash",
              "type": "bytes32"
            },
            {
              "internalType": "uint256",
              "name": "timestamp",
              "type": "uint256"
            },
            {
              "internalType": "bytes32",
              "name": "stateHash",
              "type": "bytes32"
            },
            {
              "internalType": "bytes32",
              "name": "commitment",
              "type": "bytes32"
            },
            {
              "internalType": "bytes32",
              "name": "syncHash",
              "type": "bytes32"
            }
          ],
          "internalType": "struct Storage.StoredBlockInfo[]",
          "name": "_committedBlocks",
          "type": "tuple[]"
        },
        {
          "components": [
            {
              "internalType": "uint256[]",
              "name": "recursiveInput",
              "type": "uint256[]"
            },
            {
              "internalType": "uint256[]",
              "name": "proof",
              "type": "uint256[]"
            },
            {
              "internalType": "uint256[]",
              "name": "commitments",
              "type": "uint256[]"
            },
            {
              "internalType": "uint8[]",
              "name": "vkIndexes",
              "type": "uint8[]"
            },
            {
              "internalType": "uint256[16]",
              "name": "subproofsLimbs",
              "type": "uint256[16]"
            }
          ],
          "internalType": "struct ZkLink.ProofInput",
          "name": "_proof",
          "type": "tuple"
        }
      ],
      "name": "proveBlocks",
      "outputs": [],
      "stateMutability": "nonpayable",
      "type": "function"
    },
    {
      "inputs": [
        {
          "internalType": "uint32",
          "name": "_accountId",
          "type": "uint32"
        },
        {
          "internalType": "uint8",
          "name": "_subAccountId",
          "type": "uint8"
        },
        {
          "internalType": "uint16",
          "name": "_tokenId",
          "type": "uint16"
        },
        {
          "internalType": "bool",
          "name": "_mapping",
          "type": "bool"
        }
      ],
      "name": "requestFullExit",
      "outputs": [],
      "stateMutability": "nonpayable",
      "type": "function"
    },
    {
      "inputs": [
        {
          "components": [
            {
              "internalType": "uint32",
              "name": "blockNumber",
              "type": "uint32"
            },
            {
              "internalType": "uint64",
              "name": "priorityOperations",
              "type": "uint64"
            },
            {
              "internalType": "bytes32",
              "name": "pendingOnchainOperationsHash",
              "type": "bytes32"
            },
            {
              "internalType": "uint256",
              "name": "timestamp",
              "type": "uint256"
            },
            {
              "internalType": "bytes32",
              "name": "stateHash",
              "type": "bytes32"
            },
            {
              "internalType": "bytes32",
              "name": "commitment",
              "type": "bytes32"
            },
            {
              "internalType": "bytes32",
              "name": "syncHash",
              "type": "bytes32"
            }
          ],
          "internalType": "struct Storage.StoredBlockInfo[]",
          "name": "_blocksToRevert",
          "type": "tuple[]"
        }
      ],
      "name": "revertBlocks",
      "outputs": [],
      "stateMutability": "nonpayable",
      "type": "function"
    },
    {
      "inputs": [
        {
          "internalType": "address",
          "name": "",
          "type": "address"
        }
      ],
      "name": "tokenIds",
      "outputs": [
        {
          "internalType": "uint16",
          "name": "",
          "type": "uint16"
        }
      ],
      "stateMutability": "view",
      "type": "function"
    },
    {
      "inputs": [
        {
          "internalType": "uint16",
          "name": "",
          "type": "uint16"
        }
      ],
      "name": "tokens",
      "outputs": [
        {
          "internalType": "bool",
          "name": "registered",
          "type": "bool"
        },
        {
          "internalType": "bool",
          "name": "paused",
          "type": "bool"
        },
        {
          "internalType": "address",
          "name": "tokenAddress",
          "type": "address"
        },
        {
          "internalType": "bool",
          "name": "standard",
          "type": "bool"
        },
        {
          "internalType": "uint16",
          "name": "mappingTokenId",
          "type": "uint16"
        }
      ],
      "stateMutability": "view",
      "type": "function"
    },
    {
      "inputs": [],
      "name": "totalBlocksCommitted",
      "outputs": [
        {
          "internalType": "uint32",
          "name": "",
          "type": "uint32"
        }
      ],
      "stateMutability": "view",
      "type": "function"
    },
    {
      "inputs": [],
      "name": "totalBlocksExecuted",
      "outputs": [
        {
          "internalType": "uint32",
          "name": "",
          "type": "uint32"
        }
      ],
      "stateMutability": "view",
      "type": "function"
    },
    {
      "inputs": [],
      "name": "totalBlocksProven",
      "outputs": [
        {
          "internalType": "uint32",
          "name": "",
          "type": "uint32"
        }
      ],
      "stateMutability": "view",
      "type": "function"
    },
    {
      "inputs": [],
      "name": "totalBlocksSynchronized",
      "outputs": [
        {
          "internalType": "uint32",
          "name": "",
          "type": "uint32"
        }
      ],
      "stateMutability": "view",
      "type": "function"
    },
    {
      "inputs": [],
      "name": "totalCommittedPriorityRequests",
      "outputs": [
        {
          "internalType": "uint64",
          "name": "",
          "type": "uint64"
        }
      ],
      "stateMutability": "view",
      "type": "function"
    },
    {
      "inputs": [],
      "name": "totalOpenPriorityRequests",
      "outputs": [
        {
          "internalType": "uint64",
          "name": "",
          "type": "uint64"
        }
      ],
      "stateMutability": "view",
      "type": "function"
    },
    {
      "inputs": [
        {
          "internalType": "contract IERC20",
          "name": "_token",
          "type": "address"
        },
        {
          "internalType": "address",
          "name": "_to",
          "type": "address"
        },
        {
          "internalType": "uint128",
          "name": "_amount",
          "type": "uint128"
        },
        {
          "internalType": "uint128",
          "name": "_maxAmount",
          "type": "uint128"
        },
        {
          "internalType": "bool",
          "name": "_isStandard",
          "type": "bool"
        }
      ],
      "name": "transferERC20",
      "outputs": [
        {
          "internalType": "uint128",
          "name": "withdrawnAmount",
          "type": "uint128"
        }
      ],
      "stateMutability": "nonpayable",
      "type": "function"
    },
    {
      "inputs": [
        {
          "internalType": "bytes",
          "name": "upgradeParameters",
          "type": "bytes"
        }
      ],
      "name": "upgrade",
      "outputs": [],
      "stateMutability": "nonpayable",
      "type": "function"
    },
    {
      "inputs": [
        {
          "internalType": "address",
          "name": "",
          "type": "address"
        }
      ],
      "name": "validators",
      "outputs": [
        {
          "internalType": "bool",
          "name": "",
          "type": "bool"
        }
      ],
      "stateMutability": "view",
      "type": "function"
    },
    {
      "inputs": [],
      "name": "verifier",
      "outputs": [
        {
          "internalType": "contract Verifier",
          "name": "",
          "type": "address"
        }
      ],
      "stateMutability": "view",
      "type": "function"
    },
    {
      "inputs": [
        {
          "internalType": "address payable",
          "name": "_owner",
          "type": "address"
        },
        {
          "internalType": "uint16",
          "name": "_tokenId",
          "type": "uint16"
        },
        {
          "internalType": "uint128",
          "name": "_amount",
          "type": "uint128"
        }
      ],
      "name": "withdrawPendingBalance",
      "outputs": [],
      "stateMutability": "nonpayable",
      "type": "function"
    },
    {
      "stateMutability": "payable",
      "type": "receive"
    },
    {
      "inputs": [
        {
          "internalType": "address",
          "name": "accepter",
          "type": "address"
        },
        {
          "internalType": "uint32",
          "name": "accountId",
          "type": "uint32"
        },
        {
          "internalType": "address",
          "name": "receiver",
          "type": "address"
        },
        {
          "internalType": "uint16",
          "name": "tokenId",
          "type": "uint16"
        },
        {
          "internalType": "uint128",
          "name": "amount",
          "type": "uint128"
        },
        {
          "internalType": "uint16",
          "name": "withdrawFeeRate",
          "type": "uint16"
        },
        {
          "internalType": "uint32",
          "name": "nonce",
          "type": "uint32"
        },
        {
          "internalType": "uint128",
          "name": "amountTransfer",
          "type": "uint128"
        }
      ],
      "name": "acceptERC20",
      "outputs": [],
      "stateMutability": "nonpayable",
      "type": "function"
    },
    {
      "inputs": [
        {
          "internalType": "address",
          "name": "accepter",
          "type": "address"
        },
        {
          "internalType": "uint32",
          "name": "accountId",
          "type": "uint32"
        },
        {
          "internalType": "address payable",
          "name": "receiver",
          "type": "address"
        },
        {
          "internalType": "uint128",
          "name": "amount",
          "type": "uint128"
        },
        {
          "internalType": "uint16",
          "name": "withdrawFeeRate",
          "type": "uint16"
        },
        {
          "internalType": "uint32",
          "name": "nonce",
          "type": "uint32"
        }
      ],
      "name": "acceptETH",
      "outputs": [],
      "stateMutability": "payable",
      "type": "function"
    },
    {
      "inputs": [],
      "name": "activateExodusMode",
      "outputs": [],
      "stateMutability": "nonpayable",
      "type": "function"
    },
    {
      "inputs": [
        {
          "internalType": "address",
          "name": "bridge",
          "type": "address"
        }
      ],
      "name": "addBridge",
      "outputs": [],
      "stateMutability": "nonpayable",
      "type": "function"
    },
    {
      "inputs": [
        {
          "internalType": "uint16",
          "name": "_tokenId",
          "type": "uint16"
        },
        {
          "internalType": "address",
          "name": "_tokenAddress",
          "type": "address"
        },
        {
          "internalType": "bool",
          "name": "_standard",
          "type": "bool"
        },
        {
          "internalType": "uint16",
          "name": "_mappingTokenId",
          "type": "uint16"
        }
      ],
      "name": "addToken",
      "outputs": [],
      "stateMutability": "nonpayable",
      "type": "function"
    },
    {
      "inputs": [
        {
          "internalType": "uint16[]",
          "name": "_tokenIdList",
          "type": "uint16[]"
        },
        {
          "internalType": "address[]",
          "name": "_tokenAddressList",
          "type": "address[]"
        },
        {
          "internalType": "bool[]",
          "name": "_standardList",
          "type": "bool[]"
        },
        {
          "internalType": "uint16[]",
          "name": "_mappingTokenList",
          "type": "uint16[]"
        }
      ],
      "name": "addTokens",
      "outputs": [],
      "stateMutability": "nonpayable",
      "type": "function"
    },
    {
      "inputs": [
        {
          "internalType": "address",
          "name": "",
          "type": "address"
        }
      ],
      "name": "bridgeIndex",
      "outputs": [
        {
          "internalType": "uint256",
          "name": "",
          "type": "uint256"
        }
      ],
      "stateMutability": "view",
      "type": "function"
    },
    {
      "inputs": [
        {
          "internalType": "uint16",
          "name": "tokenId",
          "type": "uint16"
        },
        {
          "internalType": "address",
          "name": "owner",
          "type": "address"
        },
        {
          "internalType": "address",
          "name": "spender",
          "type": "address"
        }
      ],
      "name": "brokerAllowance",
      "outputs": [
        {
          "internalType": "uint128",
          "name": "",
          "type": "uint128"
        }
      ],
      "stateMutability": "view",
      "type": "function"
    },
    {
      "inputs": [
        {
          "internalType": "uint16",
          "name": "tokenId",
          "type": "uint16"
        },
        {
          "internalType": "address",
          "name": "spender",
          "type": "address"
        },
        {
          "internalType": "uint128",
          "name": "amount",
          "type": "uint128"
        }
      ],
      "name": "brokerApprove",
      "outputs": [
        {
          "internalType": "bool",
          "name": "",
          "type": "bool"
        }
      ],
      "stateMutability": "nonpayable",
      "type": "function"
    },
    {
      "inputs": [
        {
          "internalType": "uint64",
          "name": "_n",
          "type": "uint64"
        },
        {
          "internalType": "bytes[]",
          "name": "_depositsPubdata",
          "type": "bytes[]"
        }
      ],
      "name": "cancelOutstandingDepositsForExodusMode",
      "outputs": [],
      "stateMutability": "nonpayable",
      "type": "function"
    },
    {
      "inputs": [
        {
          "internalType": "address",
          "name": "_newGovernor",
          "type": "address"
        }
      ],
      "name": "changeGovernor",
      "outputs": [],
      "stateMutability": "nonpayable",
      "type": "function"
    },
    {
      "inputs": [
        {
          "internalType": "address",
          "name": "_address",
          "type": "address"
        },
        {
          "internalType": "uint16",
          "name": "_tokenId",
          "type": "uint16"
        }
      ],
      "name": "getPendingBalance",
      "outputs": [
        {
          "internalType": "uint128",
          "name": "",
          "type": "uint128"
        }
      ],
      "stateMutability": "view",
      "type": "function"
    },
    {
      "inputs": [
        {
          "components": [
            {
              "internalType": "uint32",
              "name": "blockNumber",
              "type": "uint32"
            },
            {
              "internalType": "uint64",
              "name": "priorityOperations",
              "type": "uint64"
            },
            {
              "internalType": "bytes32",
              "name": "pendingOnchainOperationsHash",
              "type": "bytes32"
            },
            {
              "internalType": "uint256",
              "name": "timestamp",
              "type": "uint256"
            },
            {
              "internalType": "bytes32",
              "name": "stateHash",
              "type": "bytes32"
            },
            {
              "internalType": "bytes32",
              "name": "commitment",
              "type": "bytes32"
            },
            {
              "internalType": "bytes32",
              "name": "syncHash",
              "type": "bytes32"
            }
          ],
          "internalType": "struct Storage.StoredBlockInfo",
          "name": "_block",
          "type": "tuple"
        }
      ],
      "name": "getSynchronizedProgress",
      "outputs": [
        {
          "internalType": "uint256",
          "name": "progress",
          "type": "uint256"
        }
      ],
      "stateMutability": "view",
      "type": "function"
    },
    {
      "inputs": [
        {
          "internalType": "address",
          "name": "bridge",
          "type": "address"
        }
      ],
      "name": "isBridgeFromEnabled",
      "outputs": [
        {
          "internalType": "bool",
          "name": "",
          "type": "bool"
        }
      ],
      "stateMutability": "view",
      "type": "function"
    },
    {
      "inputs": [
        {
          "internalType": "address",
          "name": "bridge",
          "type": "address"
        }
      ],
      "name": "isBridgeToEnabled",
      "outputs": [
        {
          "internalType": "bool",
          "name": "",
          "type": "bool"
        }
      ],
      "stateMutability": "view",
      "type": "function"
    },
    {
      "inputs": [
        {
          "components": [
            {
              "internalType": "uint32",
              "name": "blockNumber",
              "type": "uint32"
            },
            {
              "internalType": "uint64",
              "name": "priorityOperations",
              "type": "uint64"
            },
            {
              "internalType": "bytes32",
              "name": "pendingOnchainOperationsHash",
              "type": "bytes32"
            },
            {
              "internalType": "uint256",
              "name": "timestamp",
              "type": "uint256"
            },
            {
              "internalType": "bytes32",
              "name": "stateHash",
              "type": "bytes32"
            },
            {
              "internalType": "bytes32",
              "name": "commitment",
              "type": "bytes32"
            },
            {
              "internalType": "bytes32",
              "name": "syncHash",
              "type": "bytes32"
            }
          ],
          "internalType": "struct Storage.StoredBlockInfo",
          "name": "_storedBlockInfo",
          "type": "tuple"
        },
        {
          "internalType": "address",
          "name": "_owner",
          "type": "address"
        },
        {
          "internalType": "uint32",
          "name": "_accountId",
          "type": "uint32"
        },
        {
          "internalType": "uint8",
          "name": "_subAccountId",
          "type": "uint8"
        },
        {
          "internalType": "uint16",
          "name": "_tokenId",
          "type": "uint16"
        },
        {
          "internalType": "uint16",
          "name": "_srcTokenId",
          "type": "uint16"
        },
        {
          "internalType": "uint128",
          "name": "_amount",
          "type": "uint128"
        },
        {
          "internalType": "uint256[]",
          "name": "_proof",
          "type": "uint256[]"
        }
      ],
      "name": "performExodus",
      "outputs": [],
      "stateMutability": "nonpayable",
      "type": "function"
    },
    {
      "inputs": [
        {
          "internalType": "uint32",
          "name": "",
          "type": "uint32"
        },
        {
          "internalType": "uint8",
          "name": "",
          "type": "uint8"
        },
        {
          "internalType": "uint16",
          "name": "",
          "type": "uint16"
        },
        {
          "internalType": "uint16",
          "name": "",
          "type": "uint16"
        }
      ],
      "name": "performedExodus",
      "outputs": [
        {
          "internalType": "bool",
          "name": "",
          "type": "bool"
        }
      ],
      "stateMutability": "view",
      "type": "function"
    },
    {
      "inputs": [
        {
          "internalType": "bytes32",
          "name": "syncHash",
          "type": "bytes32"
        },
        {
          "internalType": "uint256",
          "name": "progress",
          "type": "uint256"
        }
      ],
      "name": "receiveSynchronizationProgress",
      "outputs": [],
      "stateMutability": "nonpayable",
      "type": "function"
    },
    {
      "inputs": [
        {
          "internalType": "bytes",
          "name": "_pubkeyHash",
          "type": "bytes"
        },
        {
          "internalType": "uint32",
          "name": "_nonce",
          "type": "uint32"
        }
      ],
      "name": "setAuthPubkeyHash",
      "outputs": [],
      "stateMutability": "nonpayable",
      "type": "function"
    },
    {
      "inputs": [
        {
          "internalType": "uint16",
          "name": "_tokenId",
          "type": "uint16"
        },
        {
          "internalType": "bool",
          "name": "_tokenPaused",
          "type": "bool"
        }
      ],
      "name": "setTokenPaused",
      "outputs": [],
      "stateMutability": "nonpayable",
      "type": "function"
    },
    {
      "inputs": [
        {
          "internalType": "address",
          "name": "_validator",
          "type": "address"
        },
        {
          "internalType": "bool",
          "name": "_active",
          "type": "bool"
        }
      ],
      "name": "setValidator",
      "outputs": [],
      "stateMutability": "nonpayable",
      "type": "function"
    },
    {
      "inputs": [
        {
          "components": [
            {
              "internalType": "uint32",
              "name": "blockNumber",
              "type": "uint32"
            },
            {
              "internalType": "uint64",
              "name": "priorityOperations",
              "type": "uint64"
            },
            {
              "internalType": "bytes32",
              "name": "pendingOnchainOperationsHash",
              "type": "bytes32"
            },
            {
              "internalType": "uint256",
              "name": "timestamp",
              "type": "uint256"
            },
            {
              "internalType": "bytes32",
              "name": "stateHash",
              "type": "bytes32"
            },
            {
              "internalType": "bytes32",
              "name": "commitment",
              "type": "bytes32"
            },
            {
              "internalType": "bytes32",
              "name": "syncHash",
              "type": "bytes32"
            }
          ],
          "internalType": "struct Storage.StoredBlockInfo",
          "name": "_block",
          "type": "tuple"
        }
      ],
      "name": "syncBlocks",
      "outputs": [],
      "stateMutability": "nonpayable",
      "type": "function"
    },
    {
      "inputs": [],
      "name": "totalBlocksCommitted",
      "outputs": [
        {
          "internalType": "uint32",
          "name": "",
          "type": "uint32"
        }
      ],
      "stateMutability": "view",
      "type": "function"
    },
    {
      "inputs": [
        {
          "internalType": "uint256",
          "name": "index",
          "type": "uint256"
        },
        {
          "internalType": "bool",
          "name": "enableBridgeTo",
          "type": "bool"
        },
        {
          "internalType": "bool",
          "name": "enableBridgeFrom",
          "type": "bool"
        }
      ],
      "name": "updateBridge",
      "outputs": [],
      "stateMutability": "nonpayable",
      "type": "function"
    }
  ],
  "bytecode": "0x60a06040523060601b60805234801561001757600080fd5b5060805160601c615d1a6200003b6000398061093852806110205250615d1a6000f3fe6080604052600436106102025760003560e01c806377aace1a1161011d578063c57b22be116100b0578063f3c20de01161007f578063faf4d8cb11610064578063faf4d8cb146105d9578063fba07f5f146105ee578063fc97a3031461060e5761021e565b8063f3c20de014610588578063fa52c7d8146105b95761021e565b8063c57b22be14610529578063ea5f812d1461053e578063f22354871461055e578063f39349ef146105735761021e565b80638ae20dc9116100ec5780638ae20dc91461049a5780638eda919e146104ba578063a3c44705146104da578063b9c0555d146105095761021e565b806377aace1a14610430578063784b7518146104455780638773334c146104655780638871f8b81461047a5761021e565b80633adc2d211161019557806357cf2a191161016457806357cf2a19146103b9578063647b5923146103d957806367708dae146103ee5780636ed10a8e146104035761021e565b80633adc2d2114610337578063439fab9114610357578063495ed57a146103775780634d886d7f146103995761021e565b80632a3174f4116101d15780632a3174f4146102b15780632b7ac3f3146102d35780632f25807e146102f557806334f6bb1c146103155761021e565b80630e7d721214610233578063108e709f146102535780632539464514610266578063264c0912146102865761021e565b3661021e5760025461021c906001600160a01b031661063b565b005b60025461021c906001600160a01b031661063b565b34801561023f57600080fd5b5061021c61024e366004614c70565b61068f565b61021c6102613660046148b5565b610890565b34801561027257600080fd5b5061021c610281366004614b93565b61092d565b34801561029257600080fd5b5061029b6109d0565b6040516102a891906153fa565b60405180910390f35b3480156102bd57600080fd5b506102c66109e1565b6040516102a89190615439565b3480156102df57600080fd5b506102e86109e6565b6040516102a89190615256565b34801561030157600080fd5b5061021c610310366004614842565b6109f5565b34801561032157600080fd5b5061032a610d6e565b6040516102a89190615c05565b34801561034357600080fd5b5061021c610352366004614a1f565b610d85565b34801561036357600080fd5b5061021c610372366004614b93565b611015565b34801561038357600080fd5b5061038c611210565b6040516102a89190615bdd565b3480156103a557600080fd5b5061029b6103b4366004614f7b565b61121c565b3480156103c557600080fd5b5061021c6103d4366004614f26565b61124b565b3480156103e557600080fd5b5061038c611493565b3480156103fa57600080fd5b5061032a6114a6565b34801561040f57600080fd5b5061042361041e366004614c00565b6114bd565b6040516102a89190615bba565b34801561043c57600080fd5b506102e8611719565b34801561045157600080fd5b5061021c6104603660046148e0565b611728565b34801561047157600080fd5b5061029b611987565b34801561048657600080fd5b5061021c610495366004614d1f565b611999565b3480156104a657600080fd5b506102c66104b536600461488a565b6119ab565b3480156104c657600080fd5b5061021c6104d5366004614cd1565b6119c8565b3480156104e657600080fd5b506104fa6104f5366004614ee5565b611a2c565b6040516102a893929190615309565b34801561051557600080fd5b506102e8610524366004614efd565b611a7d565b34801561053557600080fd5b5061032a611aa3565b34801561054a57600080fd5b5061021c610559366004614a52565b611aba565b34801561056a57600080fd5b5061038c611d1d565b34801561057f57600080fd5b506102e8611d30565b34801561059457600080fd5b506105a86105a3366004614ecb565b611d3f565b6040516102a8959493929190615405565b3480156105c557600080fd5b5061029b6105d43660046147a9565b611d85565b3480156105e557600080fd5b5061038c611d9a565b3480156105fa57600080fd5b506102c66106093660046147a9565b611dad565b34801561061a57600080fd5b5061062e6106293660046147a9565b611dbf565b6040516102a89190615bce565b6001600160a01b03811661066a5760405162461bcd60e51b815260040161066190615a2a565b60405180910390fd5b60405136600082376000803683855af43d806000843e81801561068b578184f35b8184fd5b600080516020615cc583398151915254600181146106d9576040805162461bcd60e51b8152602060048201526002602482015261314360f01b604482015290519081900360640190fd5b6002600080516020615cc5833981519152556040516370a0823160e01b81526000906001600160a01b038816906370a082319061071a903090600401615256565b60206040518083038186803b15801561073257600080fd5b505afa158015610746573d6000803e3d6000fd5b505050506040513d601f19601f8201168201806040525081019061076a9190614b7b565b6040516323b872dd60e01b81529091506001600160a01b038816906323b872dd9061079d90339030908b9060040161526a565b600060405180830381600087803b1580156107b757600080fd5b505af11580156107cb573d6000803e3d6000fd5b50506040516370a0823160e01b8152600092506001600160a01b038a1691506370a08231906107fe903090600401615256565b60206040518083038186803b15801561081657600080fd5b505afa15801561082a573d6000803e3d6000fd5b505050506040513d601f19601f8201168201806040525081019061084e9190614b7b565b9050600061086461085f8385611dd5565b611e06565b90506108738982898989611e5b565b5050506001600080516020615cc583398151915255505050505050565b600080516020615cc583398151915254600181146108da576040805162461bcd60e51b8152602060048201526002602482015261314360f01b604482015290519081900360640190fd5b6002600080516020615cc58339815191525561091673eeeeeeeeeeeeeeeeeeeeeeeeeeeeeeeeeeeeeeee61090d34611e06565b85856000611e5b565b6001600080516020615cc583398151915255505050565b306001600160a01b037f00000000000000000000000000000000000000000000000000000000000000001614156109765760405162461bcd60e51b81526004016106619061594c565b6000610984828401846147a9565b90506001600160a01b0381166109ac5760405162461bcd60e51b8152600401610661906158a5565b600280546001600160a01b0319166001600160a01b03929092169190911790555050565b600354640100000000900460ff1681565b600090565b6000546001600160a01b031681565b600080516020615cc58339815191525460018114610a3f576040805162461bcd60e51b8152602060048201526002602482015261314360f01b604482015290519081900360640190fd5b6002600080516020615cc58339815191525561ffff8084166000908152600e6020908152604091829020825160a081018452905460ff8082161515808452610100830482161515948401949094526001600160a01b036201000083041694830194909452600160b01b810490931615156060820152600160b81b909204909216608082015290610ae15760405162461bcd60e51b815260040161066190615ab5565b6000610aed86866120be565b69ffffffffffffffffffff1981166000908152600460205260408120549192506001600160801b0390911690610b2382876120ec565b90506000816001600160801b031611610b4e5760405162461bcd60e51b815260040161066190615677565b69ffffffffffffffffffff1983166000908152600460205260409081902080546001600160801b0319168385036001600160801b031617905584015173eeeeeeeeeeeeeeeeeeeeeeeeeeeeeeeeeeeeeeee6001600160a01b0382161415610c3a576000896001600160a01b0316836001600160801b0316604051610bd19061511f565b60006040518083038185875af1925050503d8060008114610c0e576040519150601f19603f3d011682016040523d82523d6000602084013e610c13565b606091505b5050905080610c345760405162461bcd60e51b815260040161066190615607565b50610d15565b6060850151604051633768854760e11b81526000913091636ed10a8e91610c6b9186918f9189918b9160040161549c565b602060405180830381600087803b158015610c8557600080fd5b505af1158015610c99573d6000803e3d6000fd5b505050506040513d601f19601f82011682018060405250810190610cbd9190614eaf565b9050826001600160801b0316816001600160801b031614610d135769ffffffffffffffffffff198516600090815260046020526040902080546001600160801b0319168286036001600160801b03161790559150815b505b8761ffff167ff4bf32c167ee6e782944cd1db8174729b46adcd3bc732e282cc4a8079393315483604051610d499190615bba565b60405180910390a250505050506001600080516020615cc58339815191525550505050565b600254600160c01b900467ffffffffffffffff1681565b336000908152600d602052604090205460ff16610db45760405162461bcd60e51b81526004016106619061557c565b600080516020615cc58339815191525460018114610dfe576040805162461bcd60e51b8152602060048201526002602482015261314360f01b604482015290519081900360640190fd5b6002600080516020615cc58339815191525560015482516000805463ffffffff600160a01b948590048116949293610e3b93909204168403612114565b90506000805b8263ffffffff168163ffffffff161015610ee0576000868263ffffffff1681518110610e6957fe5b60200260200101519050610e7c8161212f565b63ffffffff861660009081526009602052604090205414610eaf5760405162461bcd60e51b81526004016106619061550d565b63ffffffff851660009081526009602090815260408220919091550151600019909401939190910190600101610e41565b506001805463ffffffff60a01b1916600160a01b63ffffffff86811682029290921792839055600280546001600160c01b038116600160c01b9182900467ffffffffffffffff90811688900316909102179081905581900482169204161015610f6d576001546002805463ffffffff60a01b1916600160a01b9283900463ffffffff169092029190911790555b60035460025463ffffffff918216600160a01b9091049091161015610fb15760025460038054600160a01b90920463ffffffff1663ffffffff199092169190911790555b7f6f3a8259cce1ea2680115053d21c971aa1764295a45850f520525f2bfdf3c9d3600060149054906101000a900463ffffffff1684604051610ff4929190615bee565b60405180910390a15050506001600080516020615cc5833981519152555050565b306001600160a01b037f000000000000000000000000000000000000000000000000000000000000000016141561105e5760405162461bcd60e51b81526004016106619061594c565b61106661215f565b60008080808080808061107b898b018b6147c5565b9750975097509750975097509750975060006001600160a01b0316886001600160a01b031614156110be5760405162461bcd60e51b815260040161066190615889565b6001600160a01b0387166110e45760405162461bcd60e51b815260040161066190615ad1565b6001600160a01b03861661110a5760405162461bcd60e51b8152600401610661906157e1565b600080546001600160a01b03808b166001600160a01b0319928316178355600280548b831690841617905560018054918a16919092161790556040805160e08101825263ffffffff8816815260208101929092527fc5d2460186f7233c927e7db2dcc703c0e500b653ca82273b7bfad8045d85a47090820152606081018590526080810184905260a0810183905260c081018290526111a88161212f565b63ffffffff9096166000818152600960205260408120979097558654600160a01b820263ffffffff60a01b1991821681179098556003805463ffffffff1916909217909155600280548216881790556001805490911690961790955550505050505050505050565b60035463ffffffff1681565b600560209081526000948552604080862082529385528385208152918452828420909152825290205460ff1681565b600354640100000000900460ff16156112765760405162461bcd60e51b8152600401610661906154f2565b600080516020615cc583398151915254600181146112c0576040805162461bcd60e51b8152602060048201526002602482015261314360f01b604482015290519081900360640190fd5b6002600080516020615cc58339815191525562ffffff63ffffffff861611156112fb5760405162461bcd60e51b815260040161066190615851565b600760ff8516111561131f5760405162461bcd60e51b81526004016106619061563f565b61ffff8084166000908152600e6020908152604091829020825160a081018452905460ff8082161515808452610100830482161515948401949094526001600160a01b036201000083041694830194909452600160b01b810490931615156060820152600160b81b9092049092166080820152906113af5760405162461bcd60e51b815260040161066190615914565b8383156113e5576000826080015161ffff16116113de5760405162461bcd60e51b815260040161066190615693565b5060808101515b600154611000600160c01b90910467ffffffffffffffff161061141a5760405162461bcd60e51b815260040161066190615a0e565b6040805160e0810182526002815263ffffffff8916602082015260ff88169181019190915233606082015261ffff8087166080830152821660a0820152600060c08201819052611469826121b0565b9050611476600582612201565b505050506001600080516020615cc5833981519152555050505050565b600254600160a01b900463ffffffff1681565b600054600160c01b900467ffffffffffffffff1681565b60003330146114de5760405162461bcd60e51b8152600401610661906159f2565b811561154c5760405163a9059cbb60e01b81526001600160a01b0387169063a9059cbb90611512908890889060040161532c565b600060405180830381600087803b15801561152c57600080fd5b505af1158015611540573d6000803e3d6000fd5b50505050839050611710565b6040516370a0823160e01b81526000906001600160a01b038816906370a082319061157b903090600401615256565b60206040518083038186803b15801561159357600080fd5b505afa1580156115a7573d6000803e3d6000fd5b505050506040513d601f19601f820116820180604052508101906115cb9190614b7b565b60405163a9059cbb60e01b81529091506001600160a01b0388169063a9059cbb906115fc908990899060040161532c565b600060405180830381600087803b15801561161657600080fd5b505af115801561162a573d6000803e3d6000fd5b50506040516370a0823160e01b8152600092506001600160a01b038a1691506370a082319061165d903090600401615256565b60206040518083038186803b15801561167557600080fd5b505afa158015611689573d6000803e3d6000fd5b505050506040513d601f19601f820116820180604052508101906116ad9190614b7b565b905060006116bb8383611dd5565b9050600081116116dd5760405162461bcd60e51b815260040161066190615930565b856001600160801b03168111156117065760405162461bcd60e51b815260040161066190615983565b9250611710915050565b95945050505050565b6002546001600160a01b031681565b600354640100000000900460ff16156117535760405162461bcd60e51b8152600401610661906154f2565b336000908152600d602052604090205460ff166117825760405162461bcd60e51b81526004016106619061557c565b600080516020615cc583398151915254600181146117cc576040805162461bcd60e51b8152602060048201526002602482015261314360f01b604482015290519081900360640190fd5b6002600080516020615cc583398151915255815160009063ffffffff81166118065760405162461bcd60e51b8152600401610661906156cb565b60005b8163ffffffff168163ffffffff16101561187157611840858263ffffffff168151811061183257fe5b60200260200101518261239a565b848163ffffffff168151811061185257fe5b6020026020010151600001516020015183019250806001019050611809565b506000805460028054600160c01b80820467ffffffffffffffff908116889003811682026001600160c01b03938416179093556001805482810485168990038516830290841617905563ffffffff600160a01b828604851689019094169091029190931617818104831685018316820263ffffffff60a01b199091161792839055600354821692041611156119185760405162461bcd60e51b81526004016106619061586d565b836001820363ffffffff168151811061192d57fe5b6020026020010151600001516000015163ffffffff167f036cca5fc51c8ae4669768ca5966397d55516afb697541fdd4fe7e6b253c075c60405160405180910390a250506001600080516020615cc5833981519152555050565b600354640100000000900460ff161590565b6119a68383600184612589565b505050565b600760209081526000928352604080842090915290825290205481565b6000815167ffffffffffffffff811180156119e257600080fd5b50604051908082528060200260200182016040528015611a1c57816020015b611a0961426c565b815260200190600190039081611a015790505b5090506119a68383600084612589565b60108181548110611a3c57600080fd5b6000918252602090912001546001600160a01b038116915060ff600160a01b8204811691750100000000000000000000000000000000000000000090041683565b600b6020908152600092835260408084209091529082529020546001600160a01b031681565b600154600160c01b900467ffffffffffffffff1681565b600080516020615cc58339815191525460018114611b04576040805162461bcd60e51b8152602060048201526002602482015261314360f01b604482015290519081900360640190fd5b6002600080516020615cc583398151915281905554600160a01b900463ffffffff1660005b8451811015611bf75763ffffffff60018301166000908152600960205260409020548551611b6a90879084908110611b5d57fe5b602002602001015161212f565b14611b875760405162461bcd60e51b815260040161066190615819565b8160010191506001600160fd1b03858281518110611ba157fe5b602002602001015160a0015160001c166001600160fd1b0385604001518381518110611bc957fe5b60200260200101511614611bef5760405162461bcd60e51b815260040161066190615528565b600101611b29565b5060015463ffffffff600160a01b90910481169082161115611c2b5760405162461bcd60e51b815260040161066190615aed565b6002805463ffffffff60a01b1916600160a01b63ffffffff8416021790556000805484516020860151606087015160408089015160808a0151915163054185eb60e51b81526001600160a01b039096169563a830bd6095611c95959094909390929160040161534e565b60206040518083038186803b158015611cad57600080fd5b505afa158015611cc1573d6000803e3d6000fd5b505050506040513d601f19601f82011682018060405250810190611ce59190614b5f565b905080611d045760405162461bcd60e51b815260040161066190615597565b50506001600080516020615cc583398151915255505050565b600054600160a01b900463ffffffff1681565b6001546001600160a01b031681565b600e6020526000908152604090205460ff8082169161010081048216916201000082046001600160a01b031691600160b01b810490911690600160b81b900461ffff1685565b600d6020526000908152604090205460ff1681565b600154600160a01b900463ffffffff1681565b60116020526000908152604090205481565b600f6020526000908152604090205461ffff1681565b6000611dfd838360405180604001604052806003815260200162736d3160e81b815250612804565b90505b92915050565b60007001000000000000000000000000000000008210611e53576040805162461bcd60e51b815260206004820152600360248201526207363360ec1b604482015290519081900360640190fd5b50805b919050565b600354640100000000900460ff1615611e865760405162461bcd60e51b8152600401610661906154f2565b6000846001600160801b0316118015611eb557506cffffffffffffffffffffffffff6001600160801b03851611155b611ed15760405162461bcd60e51b81526004016106619061573b565b6001600160a01b038316611ef75760405162461bcd60e51b815260040161066190615560565b600760ff83161115611f1b5760405162461bcd60e51b815260040161066190615b40565b6001600160a01b038086166000908152600f602090815260408083205461ffff908116808552600e845293829020825160a081018452905460ff80821615158084526101008304821615159684019690965262010000820490971693820193909352600160b01b830490951615156060860152600160b81b90910416608084015290918291611fbc5760405162461bcd60e51b8152600401610661906155b3565b806020015115611fde5760405162461bcd60e51b815260040161066190615967565b8315612014576000816080015161ffff161161200c5760405162461bcd60e51b815260040161066190615757565b806080015191505b600154611000600160c01b90910467ffffffffffffffff16106120495760405162461bcd60e51b81526004016106619061571f565b6040805160e0810182526002815260006020820181905260ff88169282019290925261ffff8086166060830152841660808201526001600160801b03891660a08201526001600160a01b03881660c0820152906120a58261289b565b90506120b2600182612201565b50505050505050505050565b60a01b75ffff0000000000000000000000000000000000000000166001600160a01b03919091161760501b90565b6000816001600160801b0316836001600160801b03161061210d5781611dfd565b5090919050565b60008163ffffffff168363ffffffff161061210d5781611dfd565b6000816040516020016121429190615b5c565b604051602081830303815290604052805190602001209050919050565b600080516020615cc58339815191528054600190915580156121ad576040805162461bcd60e51b815260206004820152600260248201526118a160f11b604482015290519081900360640190fd5b50565b60606005826000015183602001518460400151856060015186608001518760a0015160006040516020016121eb989796959493929190615152565b6040516020818303038152906040529050919050565b600154600080544392600160c01b9182900467ffffffffffffffff9081169290910416019061222f846128d2565b90506040518060600160405280826bffffffffffffffffffffffff191681526020018467ffffffffffffffff16815260200186600b81111561226d57fe5b905267ffffffffffffffff8084166000908152600660209081526040918290208451815492860151909416600160a01b027fffffffff0000000000000000ffffffffffffffffffffffffffffffffffffffff60609590951c6001600160a01b0319909316929092179390931617808355908301519082907fffffff00ffffffffffffffffffffffffffffffffffffffffffffffffffffffff16600160e01b83600b81111561231757fe5b02179055509050507fd0943372c08b438a88d4b39d77216901079eda9ca59d45349841c099083b6830338387878767ffffffffffffffff1660405161236095949392919061529c565b60405180910390a150506001805467ffffffffffffffff600160c01b80830482168401909116026001600160c01b03909116179055505050565b81515163ffffffff1660009081526009602052604090205482516123bd9061212f565b146123da5760405162461bcd60e51b81526004016106619061565b565b600054825151600160a01b90910463ffffffff908116830160010181169116146124165760405162461bcd60e51b815260040161066190615835565b7fc5d2460186f7233c927e7db2dcc703c0e500b653ca82273b7bfad8045d85a47060005b8360200151518163ffffffff16101561256457600084602001518263ffffffff168151811061246557fe5b6020026020010151905060008160008151811061247e57fe5b016020015160f81c600b81111561249157fe5b9050600381600b8111156124a157fe5b14156124c35760006124b2836128e0565b90506124bd81612996565b5061254b565b600781600b8111156124d157fe5b14156124fb5760006124e283612aaf565b90506124bd816020015182606001518360400151612b22565b600581600b81111561250957fe5b141561253357600061251a83612cf0565b90506124bd816080015182606001518360c00151612b22565b60405162461bcd60e51b8152600401610661906156af565b6125558483612d9a565b9350505080600101905061243a565b5082516040015181146119a65760405162461bcd60e51b8152600401610661906157fd565b600354640100000000900460ff16156125b45760405162461bcd60e51b8152600401610661906154f2565b336000908152600d602052604090205460ff166125e35760405162461bcd60e51b81526004016106619061557c565b600080516020615cc5833981519152546001811461262d576040805162461bcd60e51b8152602060048201526002602482015261314360f01b604482015290519081900360640190fd5b6002600080516020615cc58339815191525560008451116126605760405162461bcd60e51b81526004016106619061599f565b6126698561212f565b600154600160a01b900463ffffffff16600090815260096020526040902054146126a55760405162461bcd60e51b815260040161066190615a45565b60005b84518163ffffffff161015612753576126f586868363ffffffff16815181106126cd57fe5b602002602001015186868563ffffffff16815181106126e857fe5b6020026020010151612da9565b60208101516002805467ffffffffffffffff600160c01b8083048216909401169092026001600160c01b0390921691909117905595506127348661212f565b865163ffffffff166000908152600960205260409020556001016126a8565b5060015460025467ffffffffffffffff600160c01b928390048116929091041611156127915760405162461bcd60e51b815260040161066190615a7d565b83516001805463ffffffff600160a01b8083048216909401811690930263ffffffff60a01b1990911617905585516040519116907f81a92942d0f9c33b897a438384c9c3d88be397776138efa3ba1a4fc8b626842490600090a26001600080516020615cc5833981519152555050505050565b600081848411156128935760405162461bcd60e51b81526004018080602001828103825283818151815260200191508051906020019080838360005b83811015612858578181015183820152602001612840565b50505050905090810190601f1680156128855780820380516001836020036101000a031916815260200191505b509250505060405180910390fd5b505050900390565b6060600182516040808501516060860151608087015160a088015160c089015194516121eb979695600095949392916020016151dc565b805160209091012060601b90565b6128e861428b565b60016128f48382612f61565b60ff16835290506129058382612f8d565b63ffffffff166020840152600101905061291f8382612fa6565b61ffff16604084015260020190506129378382612fb6565b6001600160801b0316606084015260020190506129548382612fc6565b6001600160a01b03166080840152905061296e8382612f8d565b63ffffffff1660a084015290506129858382612fa6565b61ffff1660c0840152509092915050565b60a081015163ffffffff1615612a985760008160800151826040015183606001518460c001518560a001516040516020016129d595949392919061502a565b60408051601f1981840301815291815281516020928301208483015163ffffffff166000908152600b84528281208282529093529120549091506001600160a01b031680612a7e5760808301805160208086015163ffffffff166000908152600b8252604080822087835290925281902080546001600160a01b0319166001600160a01b039093169290921790915584015190516060850151612a79929190612b22565b612a91565b612a918360400151828560600151612fd6565b50506121ad565b6121ad816040015182608001518360600151612b22565b612ab76142c7565b6001612ac38382612f61565b60ff1683526009019050612ad78382612fa6565b61ffff1660208401526004019050612aef8382612fb6565b6001600160801b031660408401526002019050612b0c8382612fc6565b6001600160a01b03166060840152509092915050565b6001600160801b038116612b35576119a6565b61ffff8084166000908152600e6020908152604091829020825160a081018452905460ff8082161515808452610100830482161515948401949094526001600160a01b036201000083041694830194909452600160b01b810490931615156060820152600160b81b909204909216608082015290612bbe57612bb8848484612fd6565b506119a6565b604081015160006001600160a01b03821673eeeeeeeeeeeeeeeeeeeeeeeeeeeeeeeeeeeeeeee1415612c065784612bfe816001600160801b03871661303a565b915050612c96565b6060830151604051633768854760e11b81523091636ed10a8e91620186a091612c399187918b918b91829160040161549c565b602060405180830381600088803b158015612c5357600080fd5b5087f193505050508015612c84575060408051601f3d908101601f19168201909252612c8191810190614eaf565b60015b612c9057506000612c96565b50600190505b8015612cdd578561ffff167ff4bf32c167ee6e782944cd1db8174729b46adcd3bc732e282cc4a8079393315485604051612cd09190615bba565b60405180910390a2612ce8565b612ce8868686612fd6565b505050505050565b612cf861428b565b6001612d048382612f61565b60ff1683529050612d158382612f8d565b63ffffffff1660208401529050612d2c8382612f61565b60ff1660408401529050612d408382612fc6565b6001600160a01b031660608401529050612d5a8382612fa6565b61ffff1660808401529050612d6f8382612fa6565b61ffff1660a08401529050612d848382612fb6565b6001600160801b031660c0840152509092915050565b80519181526020909101902090565b612db161428b565b846000015160010163ffffffff16846080015163ffffffff1614612de75760405162461bcd60e51b8152600401610661906157c5565b821580612df2575060005b612e0e5760405162461bcd60e51b815260040161066190615544565b846060015184604001511015612e365760405162461bcd60e51b8152600401610661906154d6565b6040840151612e484262015180611dd5565b11158015612e655750612e5d426103846130a6565b846040015111155b612e815760405162461bcd60e51b815260040161066190615623565b600080600080612e90886130e6565b93509350935093506000612ea78a8a8a8a87613390565b90508715612efd5760015b60028111612efb5760028114612ef35787604001518181518110612ed257fe5b6020026020010151838281518110612ee657fe5b6020026020010181815250505b600101612eb2565b505b6000612f0982846134ff565b6040805160e0810182526080808e015163ffffffff16825267ffffffffffffffff9098166020820152808201989098528b015160608801528a51958701959095525060a0850152505060c08201529050949350505050565b600080826001019150838381518110612f7657fe5b602001015160f81c60f81b60f81c90509250929050565b600481016000612f9d8484613557565b90509250929050565b600281016000612f9d84846135a7565b601081016000612f9d84846135ec565b601481016000612f9d8484613631565b6000612fe283856120be565b9050612fee8183613676565b826001600160a01b03168461ffff167f822cba452e09c71c51db196553ac44d860c4d2d66e311eff0066a7910c0dc8708460405161302c9190615bba565b60405180910390a350505050565b600080836001600160a01b0316620186a0846040516130589061511f565b600060405180830381858888f193505050503d8060008114613096576040519150601f19603f3d011682016040523d82523d6000602084013e61309b565b606091505b509095945050505050565b600082820183811015611dfd576040805162461bcd60e51b81526020600482015260036024820152620736d360ec1b604482015290519081900360640190fd5b6020810151805160009182916060918291600e9006156131185760405162461bcd60e51b815260040161066190615a99565b8051600e900467ffffffffffffffff8111801561313457600080fd5b506040519080825280601f01601f19166020018201604052801561315f576020820181803683370190505b5060025460008054909650919450600160c01b9182900467ffffffffffffffff9081169290910416016131906136e6565b7fc5d2460186f7233c927e7db2dcc703c0e500b653ca82273b7bfad8045d85a4709650925060005b876060015151811015613386576000886060015182815181106131d757fe5b602002602001015190506000816020015163ffffffff169050845181600101106132135760405162461bcd60e51b8152600401610661906155cf565b600e8106156132345760405162461bcd60e51b8152600401610661906158c1565b6000600e8204905087818151811061324857fe5b01602001516001600160f81b031916156132745760405162461bcd60e51b815260040161066190615703565b600160f81b88828151811061328557fe5b60200101907effffffffffffffffffffffffffffffffffffffffffffffffffffffffffffff1916908160001a9053505060008582600101815181106132c657fe5b016020015160f81c90506132d981613770565b60008683815181106132e757fe5b016020015160f81c600b8111156132fa57fe5b905060008a87019050600080600061331a85878d8a888d600001516137d5565b925092509250828e019d506133458c8760ff168151811061333757fe5b602002602001015183612d9a565b8c8760ff168151811061335457fe5b6020908102919091010152805115613373576133708f82612d9a565b9e505b50505050505050508060010190506131b8565b5050509193509193565b60008084156133a35783602001516133f3565b6002836040516133b391906150e8565b602060405180830381855afa1580156133d0573d6000803e3d6000fd5b5050506040513d601f19601f820116820180604052508101906133f39190614b7b565b905060008515613404578451613458565b6002876020015160405161341891906150e8565b602060405180830381855afa158015613435573d6000803e3d6000fd5b5050506040513d601f19601f820116820180604052508101906134589190614b7b565b90506002876080015163ffffffff168860a0015163ffffffff168a608001518a600001518b6040015186886040516020016134999796959493929190615122565b60408051601f19818403018152908290526134b3916150e8565b602060405180830381855afa1580156134d0573d6000803e3d6000fd5b5050506040513d601f19601f820116820180604052508101906134f39190614b7b565b98975050505050505050565b8160015b600260ff82161161355057600160ff6000198301161b600381168114156135475761354483858460ff168151811061353757fe5b6020026020010151613af6565b92505b50600101613503565b5092915050565b600080826004019050808451101561359c576040805162461bcd60e51b8152602060048201526003602482015262189d0d60ea1b604482015290519081900360640190fd5b929092015192915050565b600080826002019050808451101561359c576040805162461bcd60e51b8152602060048201526003602482015262313a1960e91b604482015290519081900360640190fd5b600080826010019050808451101561359c576040805162461bcd60e51b815260206004820152600360248201526262743560e81b604482015290519081900360640190fd5b600080826014019050808451101561359c576040805162461bcd60e51b815260206004820152600360248201526206274360ec1b604482015290519081900360640190fd5b69ffffffffffffffffffff1982166000908152600460205260409020546001600160801b03166136a68183613b05565b69ffffffffffffffffffff1993909316600090815260046020526040902080546001600160801b0319166001600160801b03909416939093179092555050565b6040805160038082526080820190925260609160208201838036833701905050905060015b6002811161376c57600160001982011b60038116811415613763577fc5d2460186f7233c927e7db2dcc703c0e500b653ca82273b7bfad8045d85a47060001b83838151811061375657fe5b6020026020010181815250505b5060010161370b565b5090565b600160ff8216108015906137885750600260ff821611155b6137a45760405162461bcd60e51b815260040161066190615ad1565b600160ff6000198301161b6003811681146137d15760405162461bcd60e51b8152600401610661906157e1565b5050565b60408051600080825260208201909252606090600189600b8111156137f657fe5b14156138af5761380887876038613b51565b915060ff8816600214156138aa57600061382183613c10565b67ffffffffffffffff87811660009081526006602090815260409182902082516060808201855282549081901b6001600160601b0319168252600160a01b8104909516928101929092529394506138a49385939192909190830190600160e01b900460ff16600b81111561389157fe5b600b81111561389c57fe5b905250613cba565b60019350505b613aea565b600689600b8111156138bd57fe5b14156139a8576138cf87876038613b51565b915060ff8816600214156138aa5760006138e883613d2d565b905084516000146139245760006138ff8683613db1565b90508061391e5760405162461bcd60e51b815260040161066190615a61565b506139a2565b6000816040015160405160200161393b91906150bb565b60408051601f19818403018152918152815160209283012060608501516001600160a01b0316600090815260078452828120608087015163ffffffff168252909352912054149050806139a05760405162461bcd60e51b8152600401610661906156e7565b505b50613aea565b600389600b8111156139b657fe5b14156139cf576139c887876038613b51565b9150613ace565b600789600b8111156139dd57fe5b14156139ef576139c887876038613b51565b600589600b8111156139fd57fe5b1415613ab657613a0f87876038613b51565b915060ff881660021415613ab1576000613a2883612cf0565b67ffffffffffffffff87811660009081526006602090815260409182902082516060808201855282549081901b6001600160601b0319168252600160a01b810490951692810192909252939450613aab9385939192909190830190600160e01b900460ff16600b811115613a9857fe5b600b811115613aa357fe5b905250613e32565b60019350505b613ace565b60405162461bcd60e51b8152600401610661906155eb565b60ff881660021415613aea57613ae78260008451613b51565b90505b96509650969350505050565b60009182526020526040902090565b60008282016001600160801b038085169082161015611dfd576040805162461bcd60e51b81526020600482015260036024820152620734d360ec1b604482015290519081900360640190fd5b606081830184511015613b91576040805162461bcd60e51b81526020600482015260036024820152620c4e8760eb1b604482015290519081900360640190fd5b60008267ffffffffffffffff81118015613baa57600080fd5b506040519080825280601f01601f191660200182016040528015613bd5576020820181803683370190505b5090508215613c0857602081018381016020860187015b81831015613c04578051835260209283019201613bec565b5050505b949350505050565b613c1861428b565b6001613c248382612f61565b60ff1683529050613c358382612f8d565b63ffffffff1660208401529050613c4c8382612f61565b60ff1660408401529050613c608382612fa6565b61ffff1660608401529050613c758382612fa6565b61ffff1660808401529050613c8a8382612fb6565b6001600160801b031660a08401529050613ca48382612fc6565b6001600160a01b031660c0840152509092915050565b60018160400151600b811115613ccc57fe5b14613ce95760405162461bcd60e51b8152600401610661906159bb565b80516001600160601b031916613d06613d018461289b565b6128d2565b6001600160601b031916146137d15760405162461bcd60e51b815260040161066190615773565b613d356142ee565b6001613d418382612f61565b60ff1683529050613d528382612f8d565b63ffffffff1660208401529050613d698382613ea0565b6001600160601b03191660408401529050613d848382612fc6565b6001600160a01b031660608401529050613d9e8382612f8d565b63ffffffff166080840152509092915050565b60008083600081518110613dc157fe5b016020015160f81c6001811115613dd457fe5b90506000816001811115613de457fe5b1415613dfc57613df48484613eb0565b915050611e00565b6001816001811115613e0a57fe5b1415613e1a57613df48484614012565b60405162461bcd60e51b8152600401610661906157aa565b60058160400151600b811115613e4457fe5b14613e615760405162461bcd60e51b815260040161066190615b09565b80516001600160601b031916613e79613d01846121b0565b6001600160601b031916146137d15760405162461bcd60e51b8152600401610661906158dd565b601481016000612f9d84846140ed565b600080613ec08460016041614137565b915050600046905060007f8b73c3c69bb8fe3d512ecc4cf759cc79239f7b179b0ffacaa9a75d522b39400f7f5d27f4d7e0e8a0cba7984286ccb8f517d40889161f782642f4bde6b8ac7189657fc89efdaa54c0f20c7adf612882df0950f5a951637e0307cdcb4c672f298b8bc68430604051602001613f43959493929190615470565b60405160208183030381529060405280519060200120905060007f8012078cc90c4c82e493f1a538159fd8621f39392101b34fba2ecd141432580b866040015187608001518860200151604051602001613fa09493929190615442565b60405160208183030381529060405280519060200120905060008282604051602001613fcd929190615104565b6040516020818303038152906040528051906020012090506000613ff18683614152565b60608901516001600160a01b03918216911614965050505050505092915050565b600080808060016140238782612fc6565b94509050614031878261421c565b9350905061403f878261421c565b809350819250505060008387604001516040516020016140609291906150d0565b60408051601f198184030181529082905280516020918201209250600091614098916001600160f81b03199189918691899101615087565b6040516020818303038152906040528051906020012060001c905087606001516001600160a01b0316816001600160a01b03161480156140e05750608088015163ffffffff16155b9998505050505050505050565b6000816014018351101561412e576040805162461bcd60e51b815260206004820152600360248201526262743160e81b604482015290519081900360640190fd5b50016020015190565b60006060614146858585613b51565b93909201949293505050565b60008251604114614190576040805162461bcd60e51b815260206004820152600360248201526207574360ec1b604482015290519081900360640190fd5b60008060006020860151925060408601519150606086015160001a905060018582858560405160008152602001604052604051808581526020018460ff1681526020018381526020018281526020019450505050506020604051602081039080840390855afa158015614207573d6000803e3d6000fd5b5050604051601f190151979650505050505050565b602081016000612f9d8484600080826020019050808451101561359c576040805162461bcd60e51b815260206004820152600360248201526262743760e81b604482015290519081900360640190fd5b6040805160608082018352600080835260208301529181019190915290565b6040805160e081018252600080825260208201819052918101829052606081018290526080810182905260a0810182905260c081019190915290565b60408051608081018252600080825260208201819052918101829052606081019190915290565b6040805160a08101825260008082526020820181905291810182905260608101829052608081019190915290565b600082601f83011261432c578081fd5b8135602061434161433c83615c3e565b615c1a565b82815281810190858301855b85811015614410578135880160c080601f19838d0301121561436d578889fd5b61437681615c1a565b878301358152604083013567ffffffffffffffff80821115614396578b8cfd5b6143a48e8b8488010161466c565b8a840152606091508185013560408401526080850135818111156143c6578c8dfd5b6143d48f8c8389010161441d565b8385015250505060a06143e881850161476c565b60808301526143f883850161476c565b9082015286525050928401929084019060010161434d565b5090979650505050505050565b600082601f83011261442d578081fd5b8135602061443d61433c83615c3e565b82815281810190858301855b858110156144105781358801604080601f19838d03011215614469578889fd5b805181810167ffffffffffffffff828210818311171561448557fe5b908352838901359080821115614499578b8cfd5b506144a88d8a8387010161466c565b8252506144b682840161476c565b81890152865250509284019290840190600101614449565b600082601f8301126144de578081fd5b813560206144ee61433c83615c3e565b8281528181019085830160e08086028801850189101561450c578687fd5b865b86811015614532576145208a846146d1565b8552938501939181019160010161450e565b509198975050505050505050565b600082601f830112614550578081fd5b60405161020080820182811067ffffffffffffffff8211171561456f57fe5b6040528184828101871015614582578485fd5b8492505b60108310156145a657803582526001929092019160209182019101614586565b509195945050505050565b600082601f8301126145c1578081fd5b813560206145d161433c83615c3e565b82815281810190858301838502870184018810156145ed578586fd5b855b85811015614410578135845292840192908401906001016145ef565b600082601f83011261461b578081fd5b8135602061462b61433c83615c3e565b8281528181019085830183850287018401881015614647578586fd5b855b858110156144105761465a82614798565b84529284019290840190600101614649565b600082601f83011261467c578081fd5b813567ffffffffffffffff81111561469057fe5b6146a3601f8201601f1916602001615c1a565b8181528460208386010111156146b7578283fd5b816020850160208301379081016020019190915292915050565b600060e082840312156146e2578081fd5b60405160e0810181811067ffffffffffffffff821117156146ff57fe5b60405290508061470e8361476c565b815261471c60208401614780565b602082015260408301356040820152606083013560608201526080830135608082015260a083013560a082015260c083013560c08201525092915050565b803561ffff81168114611e5657600080fd5b803563ffffffff81168114611e5657600080fd5b803567ffffffffffffffff81168114611e5657600080fd5b803560ff81168114611e5657600080fd5b6000602082840312156147ba578081fd5b8135611dfd81615c8c565b600080600080600080600080610100898b0312156147e1578384fd5b88356147ec81615c8c565b975060208901356147fc81615c8c565b9650604089013561480c81615c8c565b955061481a60608a0161476c565b979a969950949760808101359660a0820135965060c0820135955060e0909101359350915050565b600080600060608486031215614856578081fd5b833561486181615c8c565b925061486f6020850161475a565b9150604084013561487f81615caf565b809150509250925092565b6000806040838503121561489c578182fd5b82356148a781615c8c565b9150612f9d6020840161476c565b600080604083850312156148c7578182fd5b82356148d281615c8c565b9150612f9d60208401614798565b6000602082840312156148f1578081fd5b67ffffffffffffffff8083351115614907578182fd5b8235830184601f820112614919578283fd5b61492661433c8235615c3e565b81358152602080820191908301855b84358110156144105781358501610100818b03601f19011215614956578788fd5b604051806040820110886040830111171561496d57fe5b604081016040526149818b602084016146d1565b8152876101008301351115614994578889fd5b610100820135820191508a603f8301126149ac578889fd5b6149bc61433c6020840135615c3e565b6020838101358252810190604084018b5b60208601358110156149fe576149e98f6040843589010161466c565b845260209384019391909101906001016149cd565b50506020838101919091529187525094850194929092019150600101614935565b600060208284031215614a30578081fd5b813567ffffffffffffffff811115614a46578182fd5b613c08848285016144ce565b60008060408385031215614a64578182fd5b823567ffffffffffffffff80821115614a7b578384fd5b614a87868387016144ce565b93506020850135915080821115614a9c578283fd5b908401906102808287031215614ab0578283fd5b614aba60a0615c1a565b823582811115614ac8578485fd5b614ad4888286016145b1565b825250602083013582811115614ae8578485fd5b614af4888286016145b1565b602083015250604083013582811115614b0b578485fd5b614b17888286016145b1565b604083015250606083013582811115614b2e578485fd5b614b3a8882860161460b565b606083015250614b4d8760808501614540565b60808201528093505050509250929050565b600060208284031215614b70578081fd5b8151611dfd81615ca1565b600060208284031215614b8c578081fd5b5051919050565b60008060208385031215614ba5578182fd5b823567ffffffffffffffff80821115614bbc578384fd5b818501915085601f830112614bcf578384fd5b813581811115614bdd578485fd5b866020828501011115614bee578485fd5b60209290920196919550909350505050565b600080600080600060a08688031215614c17578283fd5b8535614c2281615c8c565b94506020860135614c3281615c8c565b93506040860135614c4281615caf565b92506060860135614c5281615caf565b91506080860135614c6281615ca1565b809150509295509295909350565b600080600080600060a08688031215614c87578283fd5b8535614c9281615c8c565b945060208601356cffffffffffffffffffffffffff81168114614cb3578384fd5b93506040860135614cc381615c8c565b9250614c5260608701614798565b6000806101008385031215614ce4578182fd5b614cee84846146d1565b915060e083013567ffffffffffffffff811115614d09578182fd5b614d158582860161431c565b9150509250929050565b60008060006101208486031215614d34578081fd5b614d3e85856146d1565b925067ffffffffffffffff8060e08601351115614d59578182fd5b614d698660e0870135870161431c565b9250806101008601351115614d7c578182fd5b610100850135850186601f820112614d92578283fd5b614d9f61433c8235615c3e565b81358152602080820191908301855b8435811015614e9f57813585016060818d03601f19011215614dce578788fd5b6040518060608201108860608301111715614de557fe5b6060810160405260208201358152604082013560208201528760608301351115614e0d578889fd5b6060820135820191508c603f830112614e24578889fd5b614e3461433c6020840135615c3e565b8060208401358252602082019150604084018f6040602080880135028701011115614e5d578b8cfd5b8b5b6020860135811015614e81578135845260209384019390910190600101614e5f565b50506040830152508552506020938401939190910190600101614dae565b5050809450505050509250925092565b600060208284031215614ec0578081fd5b8151611dfd81615caf565b600060208284031215614edc578081fd5b611dfd8261475a565b600060208284031215614ef6578081fd5b5035919050565b60008060408385031215614f0f578182fd5b614f188361476c565b946020939093013593505050565b60008060008060808587031215614f3b578182fd5b614f448561476c565b9350614f5260208601614798565b9250614f606040860161475a565b91506060850135614f7081615ca1565b939692955090935050565b60008060008060808587031215614f90578182fd5b614f998561476c565b9350614fa760208601614798565b9250614fb56040860161475a565b9150614fc36060860161475a565b905092959194509250565b60601b6001600160601b0319169052565b6000815180845260208085019450808401835b8381101561500e57815187529582019590820190600101614ff2565b509495945050505050565b60801b6001600160801b0319169052565b60609590951b6001600160601b031916855260f093841b6001600160f01b0319908116601487015260809390931b6001600160801b0319166016860152921b16602683015260e01b6001600160e01b0319166028820152602c0190565b6001600160f81b031994909416845260609290921b6001600160601b03191660018401526015830152603582015260550190565b6001600160601b031991909116815260140190565b9182526001600160601b031916602082015260340190565b600082516150fa818460208701615c5c565b9190910192915050565b61190160f01b81526002810192909252602282015260420190565b90565b968752602087019590955260408601939093526060850191909152608084015260a083015260c082015260e00190565b6001600160f81b031960f88a811b8216835289811b821660018401526001600160e01b031960e08a901b16600284015287901b1660068201526001600160601b0319606086901b1660078201526001600160f01b031960f085811b8216601b84015284901b16601d82015260006151cc601f830184615019565b50602f0198975050505050505050565b6001600160f81b031960f88a811b8216835289811b821660018401526001600160e01b031960e08a901b16600284015287901b1660068201526001600160f01b031960f086811b8216600784015285901b1660098201526001600160801b0319608084901b16600b82015260006151cc601b830184614fce565b6001600160a01b0391909116815260200190565b6001600160a01b0393841681529190921660208201526cffffffffffffffffffffffffff909116604082015260600190565b60006001600160a01b038716825267ffffffffffffffff86166020830152600c85106152c457fe5b84604083015260a0606083015283518060a08401526152ea8160c0850160208801615c5c565b608083019390935250601f91909101601f19160160c001949350505050565b6001600160a01b0393909316835290151560208301521515604082015260600190565b6001600160a01b039290921682526001600160801b0316602082015260400190565b600061028080835261536281840189614fdf565b90506020838203818501526153778289614fdf565b84810360408601528751808252828901935090820190845b818110156153ae57845160ff168352938301939183019160010161538f565b505084810360608601526153c28188614fdf565b9350506080840191508460005b60108110156153ec578151845292820192908201906001016153cf565b505050509695505050505050565b901515815260200190565b941515855292151560208501526001600160a01b039190911660408401521515606083015261ffff16608082015260a00190565b90815260200190565b9384526001600160601b031992909216602084015263ffffffff908116604084015216606082015260800190565b9485526020850193909352604084019190915260608301526001600160a01b0316608082015260a00190565b6001600160a01b0395861681529390941660208401526001600160801b039182166040840152166060820152901515608082015260a00190565b602080825260029082015261339960f11b604082015260600190565b6020808252600190820152600360fc1b604082015260600190565b6020808252600190820152606360f81b604082015260600190565b602080825260029082015261783160f01b604082015260600190565b602080825260029082015261673160f01b604082015260600190565b602080825260029082015261653160f01b604082015260600190565b6020808252600190820152600d60fa1b604082015260600190565b602080825260029082015261783360f01b604082015260600190565b602080825260029082015261653360f01b604082015260600190565b602080825260029082015261683160f01b604082015260600190565b602080825260029082015261359960f11b604082015260600190565b602080825260029082015261311960f11b604082015260600190565b602080825260029082015261673360f01b604082015260600190565b602080825260029082015261613160f01b604082015260600190565b60208082526002908201526106d360f41b604082015260600190565b602080825260029082015261623160f01b604082015260600190565b602080825260029082015261613360f01b604082015260600190565b602080825260029082015261369960f11b604082015260600190565b602080825260029082015261064360f41b604082015260600190565b6020808252600290820152616b3160f01b604082015260600190565b602080825260029082015261683360f01b604082015260600190565b602080825260029082015261329b60f11b604082015260600190565b602080825260029082015261065360f41b604082015260600190565b602080825260029082015261653560f01b604082015260600190565b60208082526018908201527f4f503a20696e76616c6964206465706f73697420686173680000000000000000604082015260600190565b6020808252600190820152601b60fa1b604082015260600190565b602080825260029082015261067360f41b604082015260600190565b602080825260029082015261349960f11b604082015260600190565b6020808252600290820152616d3360f01b604082015260600190565b602080825260029082015261078360f41b604082015260600190565b6020808252600290820152616d3160f01b604082015260600190565b602080825260029082015261061360f41b604082015260600190565b602080825260029082015261643160f01b604082015260600190565b602080825260029082015261069360f41b604082015260600190565b602080825260029082015261075360f41b604082015260600190565b602080825260029082015261341960f11b604082015260600190565b60208082526019908201527f4f503a20696e76616c69642066756c6c45786974206861736800000000000000604082015260600190565b602080825260029082015261309960f11b604082015260600190565b6020808252600290820152616e3160f01b604082015260600190565b6020808252600190820152601960f91b604082015260600190565b602080825260029082015261194d60f21b604082015260600190565b602080825260029082015261371960f11b604082015260600190565b602080825260029082015261066360f41b604082015260600190565b6020808252600f908201527f4f503a206e6f74206465706f7369740000000000000000000000000000000000604082015260600190565b60208082526002908201526106e360f41b604082015260600190565b602080825260029082015261184d60f21b604082015260600190565b6020808252600190820152603560f81b604082015260600190565b602080825260029082015261663160f01b604082015260600190565b60208082526002908201526106b360f41b604082015260600190565b602080825260029082015261331960f11b604082015260600190565b602080825260029082015261068360f41b604082015260600190565b602080825260029082015261062360f41b604082015260600190565b602080825260029082015261693160f01b604082015260600190565b6020808252600290820152613c1960f11b604082015260600190565b60208082526010908201527f4f503a206e6f742066756c6c4578697400000000000000000000000000000000604082015260600190565b602080825260029082015261329960f11b604082015260600190565b600060e08201905063ffffffff835116825267ffffffffffffffff602084015116602083015260408301516040830152606083015160608301526080830151608083015260a083015160a083015260c083015160c083015292915050565b6001600160801b0391909116815260200190565b61ffff91909116815260200190565b63ffffffff91909116815260200190565b63ffffffff92831681529116602082015260400190565b67ffffffffffffffff91909116815260200190565b60405181810167ffffffffffffffff81118282101715615c3657fe5b604052919050565b600067ffffffffffffffff821115615c5257fe5b5060209081020190565b60005b83811015615c77578181015183820152602001615c5f565b83811115615c86576000848401525b50505050565b6001600160a01b03811681146121ad57600080fd5b80151581146121ad57600080fd5b6001600160801b03811681146121ad57600080fdfe8e94fed44239eb2314ab7a406345e6c5a8f0ccedf3b600de3d004e672c33abf4a2646970667358221220975aa322c6a3eab2959589beba8f7be7edd74b6c1d8578944841ba84bc87655c64736f6c63430007060033",
  "linkReferences": {},
  "deployedLinkReferences": {}
}