{
  "_format": "hh-sol-artifact-1",
  "contractName": "ZkSyncExit",
  "sourceName": "cache/solpp-generated-contracts/ZkSyncExit.sol",
  "abi": [
    {
      "anonymous": false,
      "inputs": [
        {
          "indexed": true,
          "internalType": "address",
          "name": "accepter",
          "type": "address"
        },
        {
          "indexed": true,
          "internalType": "address",
          "name": "receiver",
          "type": "address"
        },
        {
          "indexed": true,
          "internalType": "uint16",
          "name": "tokenId",
          "type": "uint16"
        },
        {
          "indexed": false,
          "internalType": "uint128",
          "name": "amount",
          "type": "uint128"
        },
        {
          "indexed": false,
          "internalType": "uint128",
          "name": "fee",
          "type": "uint128"
        },
        {
          "indexed": false,
          "internalType": "uint32",
          "name": "nonce",
          "type": "uint32"
        }
      ],
      "name": "Accept",
      "type": "event"
    },
    {
      "anonymous": false,
      "inputs": [
        {
          "indexed": true,
          "internalType": "address",
          "name": "pair",
          "type": "address"
        },
        {
          "indexed": true,
          "internalType": "uint16",
          "name": "tokenId",
          "type": "uint16"
        },
        {
          "indexed": false,
          "internalType": "uint128",
          "name": "amount",
          "type": "uint128"
        }
      ],
      "name": "AddLiquidity",
      "type": "event"
    },
    {
      "anonymous": false,
      "inputs": [
        {
          "indexed": true,
          "internalType": "uint32",
          "name": "blockNumber",
          "type": "uint32"
        }
      ],
      "name": "BlockCommit",
      "type": "event"
    },
    {
      "anonymous": false,
      "inputs": [
        {
          "indexed": true,
          "internalType": "uint32",
          "name": "blockNumber",
          "type": "uint32"
        }
      ],
      "name": "BlockVerification",
      "type": "event"
    },
    {
      "anonymous": false,
      "inputs": [
        {
          "indexed": false,
          "internalType": "uint32",
          "name": "totalBlocksVerified",
          "type": "uint32"
        },
        {
          "indexed": false,
          "internalType": "uint32",
          "name": "totalBlocksCommitted",
          "type": "uint32"
        }
      ],
      "name": "BlocksRevert",
      "type": "event"
    },
    {
      "anonymous": false,
      "inputs": [
        {
          "indexed": true,
          "internalType": "uint16",
          "name": "tokenId",
          "type": "uint16"
        },
        {
          "indexed": false,
          "internalType": "uint128",
          "name": "amount",
          "type": "uint128"
        }
      ],
      "name": "Deposit",
      "type": "event"
    },
    {
      "anonymous": false,
      "inputs": [
        {
          "indexed": true,
          "internalType": "uint32",
          "name": "zkSyncBlockId",
          "type": "uint32"
        },
        {
          "indexed": true,
          "internalType": "uint32",
          "name": "accountId",
          "type": "uint32"
        },
        {
          "indexed": false,
          "internalType": "address",
          "name": "owner",
          "type": "address"
        },
        {
          "indexed": true,
          "internalType": "uint16",
          "name": "tokenId",
          "type": "uint16"
        },
        {
          "indexed": false,
          "internalType": "uint128",
          "name": "amount",
          "type": "uint128"
        }
      ],
      "name": "DepositCommit",
      "type": "event"
    },
    {
      "anonymous": false,
      "inputs": [],
      "name": "ExodusMode",
      "type": "event"
    },
    {
      "anonymous": false,
      "inputs": [
        {
          "indexed": true,
          "internalType": "address",
          "name": "sender",
          "type": "address"
        },
        {
          "indexed": false,
          "internalType": "uint32",
          "name": "nonce",
          "type": "uint32"
        },
        {
          "indexed": false,
          "internalType": "bytes",
          "name": "fact",
          "type": "bytes"
        }
      ],
      "name": "FactAuth",
      "type": "event"
    },
    {
      "anonymous": false,
      "inputs": [
        {
          "indexed": true,
          "internalType": "uint32",
          "name": "zkSyncBlockId",
          "type": "uint32"
        },
        {
          "indexed": true,
          "internalType": "uint32",
          "name": "accountId",
          "type": "uint32"
        },
        {
          "indexed": false,
          "internalType": "address",
          "name": "owner",
          "type": "address"
        },
        {
          "indexed": true,
          "internalType": "uint16",
          "name": "tokenId",
          "type": "uint16"
        },
        {
          "indexed": false,
          "internalType": "uint128",
          "name": "amount",
          "type": "uint128"
        }
      ],
      "name": "FullExitCommit",
      "type": "event"
    },
    {
      "anonymous": false,
      "inputs": [
        {
          "indexed": false,
          "internalType": "address",
          "name": "sender",
          "type": "address"
        },
        {
          "indexed": false,
          "internalType": "uint64",
          "name": "serialId",
          "type": "uint64"
        },
        {
          "indexed": false,
          "internalType": "enum Operations.OpType",
          "name": "opType",
          "type": "uint8"
        },
        {
          "indexed": false,
          "internalType": "bytes",
          "name": "pubData",
          "type": "bytes"
        },
        {
          "indexed": false,
          "internalType": "uint256",
          "name": "expirationBlock",
          "type": "uint256"
        }
      ],
      "name": "NewPriorityRequest",
      "type": "event"
    },
    {
      "anonymous": false,
      "inputs": [
        {
          "indexed": true,
          "internalType": "address",
          "name": "sender",
          "type": "address"
        },
        {
          "indexed": false,
          "internalType": "uint128",
          "name": "amountIn",
          "type": "uint128"
        },
        {
          "indexed": false,
          "internalType": "uint128",
          "name": "amountOutMin",
          "type": "uint128"
        },
        {
          "indexed": false,
          "internalType": "uint16",
          "name": "withdrawFee",
          "type": "uint16"
        },
        {
          "indexed": true,
          "internalType": "uint16",
          "name": "fromTokenId",
          "type": "uint16"
        },
        {
          "indexed": false,
          "internalType": "uint8",
          "name": "toChainId",
          "type": "uint8"
        },
        {
          "indexed": false,
          "internalType": "uint16",
          "name": "toTokenId",
          "type": "uint16"
        },
        {
          "indexed": false,
          "internalType": "address",
          "name": "to",
          "type": "address"
        },
        {
          "indexed": false,
          "internalType": "uint32",
          "name": "nonce",
          "type": "uint32"
        }
      ],
      "name": "QuickSwap",
      "type": "event"
    },
    {
      "anonymous": false,
      "inputs": [
        {
          "indexed": true,
          "internalType": "address",
          "name": "pair",
          "type": "address"
        },
        {
          "indexed": true,
          "internalType": "uint16",
          "name": "tokenId",
          "type": "uint16"
        },
        {
          "indexed": false,
          "internalType": "uint128",
          "name": "lpAmount",
          "type": "uint128"
        }
      ],
      "name": "RemoveLiquidity",
      "type": "event"
    },
    {
      "anonymous": false,
      "inputs": [
        {
          "indexed": true,
          "internalType": "uint16",
          "name": "tokenId",
          "type": "uint16"
        },
        {
          "indexed": false,
          "internalType": "uint128",
          "name": "amount",
          "type": "uint128"
        },
        {
          "indexed": false,
          "internalType": "uint8",
          "name": "toChainId",
          "type": "uint8"
        }
      ],
      "name": "TokenMapping",
      "type": "event"
    },
    {
      "anonymous": false,
      "inputs": [
        {
          "indexed": true,
          "internalType": "uint16",
          "name": "tokenId",
          "type": "uint16"
        },
        {
          "indexed": false,
          "internalType": "uint128",
          "name": "amount",
          "type": "uint128"
        }
      ],
      "name": "Withdrawal",
      "type": "event"
    },
    {
      "inputs": [
        {
          "internalType": "address",
          "name": "accepter",
          "type": "address"
        },
        {
          "internalType": "address",
          "name": "receiver",
          "type": "address"
        },
        {
          "internalType": "uint16",
          "name": "tokenId",
          "type": "uint16"
        },
        {
          "internalType": "uint128",
          "name": "amount",
          "type": "uint128"
        },
        {
          "internalType": "uint16",
          "name": "withdrawFee",
          "type": "uint16"
        },
        {
          "internalType": "uint32",
          "name": "nonce",
          "type": "uint32"
        }
      ],
      "name": "accept",
      "outputs": [],
      "stateMutability": "payable",
      "type": "function"
    },
    {
      "inputs": [
        {
          "internalType": "bytes32",
          "name": "",
          "type": "bytes32"
        }
      ],
      "name": "accepts",
      "outputs": [
        {
          "internalType": "address",
          "name": "",
          "type": "address"
        }
      ],
      "stateMutability": "view",
      "type": "function"
    },
    {
      "inputs": [],
      "name": "activateExodusMode",
      "outputs": [
        {
          "internalType": "bool",
          "name": "",
          "type": "bool"
        }
      ],
      "stateMutability": "nonpayable",
      "type": "function"
    },
    {
      "inputs": [
        {
          "internalType": "address",
          "name": "",
          "type": "address"
        },
        {
          "internalType": "uint32",
          "name": "",
          "type": "uint32"
        }
      ],
      "name": "authFacts",
      "outputs": [
        {
          "internalType": "bytes32",
          "name": "",
          "type": "bytes32"
        }
      ],
      "stateMutability": "view",
      "type": "function"
    },
    {
      "inputs": [
        {
          "internalType": "uint16",
          "name": "tokenId",
          "type": "uint16"
        },
        {
          "internalType": "address",
          "name": "owner",
          "type": "address"
        },
        {
          "internalType": "address",
          "name": "spender",
          "type": "address"
        }
      ],
      "name": "brokerAllowance",
      "outputs": [
        {
          "internalType": "uint128",
          "name": "",
          "type": "uint128"
        }
      ],
      "stateMutability": "view",
      "type": "function"
    },
    {
      "inputs": [
        {
          "internalType": "uint16",
          "name": "tokenId",
          "type": "uint16"
        },
        {
          "internalType": "address",
          "name": "spender",
          "type": "address"
        },
        {
          "internalType": "uint128",
          "name": "amount",
          "type": "uint128"
        }
      ],
      "name": "brokerApprove",
      "outputs": [
        {
          "internalType": "bool",
          "name": "",
          "type": "bool"
        }
      ],
      "stateMutability": "nonpayable",
      "type": "function"
    },
    {
      "inputs": [
        {
          "internalType": "uint64",
          "name": "_n",
          "type": "uint64"
        },
        {
          "internalType": "bytes[]",
          "name": "_depositsPubdata",
          "type": "bytes[]"
        }
      ],
      "name": "cancelOutstandingDepositsForExodusMode",
      "outputs": [],
      "stateMutability": "nonpayable",
      "type": "function"
    },
    {
      "inputs": [],
      "name": "exodusMode",
      "outputs": [
        {
          "internalType": "bool",
          "name": "",
          "type": "bool"
        }
      ],
      "stateMutability": "view",
      "type": "function"
    },
    {
      "inputs": [],
      "name": "firstPriorityRequestId",
      "outputs": [
        {
          "internalType": "uint64",
          "name": "",
          "type": "uint64"
        }
      ],
      "stateMutability": "view",
      "type": "function"
    },
    {
      "inputs": [
        {
          "internalType": "address",
          "name": "_address",
          "type": "address"
        },
        {
          "internalType": "address",
          "name": "_token",
          "type": "address"
        }
      ],
      "name": "getPendingBalance",
      "outputs": [
        {
          "internalType": "uint128",
          "name": "",
          "type": "uint128"
        }
      ],
      "stateMutability": "view",
      "type": "function"
    },
    {
      "inputs": [
        {
          "internalType": "address",
          "name": "_address",
          "type": "address"
        },
        {
          "internalType": "address[]",
          "name": "_tokens",
          "type": "address[]"
        }
      ],
      "name": "getPendingBalances",
      "outputs": [
        {
          "internalType": "uint128[]",
          "name": "",
          "type": "uint128[]"
        }
      ],
      "stateMutability": "view",
      "type": "function"
    },
    {
      "inputs": [],
      "name": "governance",
      "outputs": [
        {
          "internalType": "contract Governance",
          "name": "",
          "type": "address"
        }
      ],
      "stateMutability": "view",
      "type": "function"
    },
    {
      "inputs": [
        {
          "components": [
            {
              "internalType": "uint32",
              "name": "blockNumber",
              "type": "uint32"
            },
            {
              "internalType": "uint64",
              "name": "priorityOperations",
              "type": "uint64"
            },
            {
              "internalType": "bytes32",
              "name": "pendingOnchainOperationsHash",
              "type": "bytes32"
            },
            {
              "internalType": "uint256",
              "name": "timestamp",
              "type": "uint256"
            },
            {
              "internalType": "bytes32",
              "name": "stateHash",
              "type": "bytes32"
            },
            {
              "internalType": "bytes32",
              "name": "commitment",
              "type": "bytes32"
            }
          ],
          "internalType": "struct Storage.StoredBlockInfo",
          "name": "_storedBlockInfo",
          "type": "tuple"
        },
        {
          "internalType": "address",
          "name": "_owner",
          "type": "address"
        },
        {
          "internalType": "uint32",
          "name": "_accountId",
          "type": "uint32"
        },
        {
          "internalType": "uint16",
          "name": "_tokenId",
          "type": "uint16"
        },
        {
          "internalType": "uint128",
          "name": "_amount",
          "type": "uint128"
        },
        {
          "internalType": "uint256[]",
          "name": "_proof",
          "type": "uint256[]"
        }
      ],
      "name": "performExodus",
      "outputs": [],
      "stateMutability": "nonpayable",
      "type": "function"
    },
    {
      "inputs": [
        {
          "internalType": "uint32",
          "name": "",
          "type": "uint32"
        },
        {
          "internalType": "uint16",
          "name": "",
          "type": "uint16"
        }
      ],
      "name": "performedExodus",
      "outputs": [
        {
          "internalType": "bool",
          "name": "",
          "type": "bool"
        }
      ],
      "stateMutability": "view",
      "type": "function"
    },
    {
      "inputs": [
        {
          "internalType": "bytes",
          "name": "_pubkey_hash",
          "type": "bytes"
        },
        {
          "internalType": "uint32",
          "name": "_nonce",
          "type": "uint32"
        }
      ],
      "name": "setAuthPubkeyHash",
      "outputs": [],
      "stateMutability": "nonpayable",
      "type": "function"
    },
    {
      "inputs": [],
      "name": "totalBlocksCommitted",
      "outputs": [
        {
          "internalType": "uint32",
          "name": "",
          "type": "uint32"
        }
      ],
      "stateMutability": "view",
      "type": "function"
    },
    {
      "inputs": [],
      "name": "totalBlocksExecuted",
      "outputs": [
        {
          "internalType": "uint32",
          "name": "",
          "type": "uint32"
        }
      ],
      "stateMutability": "view",
      "type": "function"
    },
    {
      "inputs": [],
      "name": "totalBlocksProven",
      "outputs": [
        {
          "internalType": "uint32",
          "name": "",
          "type": "uint32"
        }
      ],
      "stateMutability": "view",
      "type": "function"
    },
    {
      "inputs": [],
      "name": "totalCommittedPriorityRequests",
      "outputs": [
        {
          "internalType": "uint64",
          "name": "",
          "type": "uint64"
        }
      ],
      "stateMutability": "view",
      "type": "function"
    },
    {
      "inputs": [],
      "name": "totalOpenPriorityRequests",
      "outputs": [
        {
          "internalType": "uint64",
          "name": "",
          "type": "uint64"
        }
      ],
      "stateMutability": "view",
      "type": "function"
    },
    {
      "inputs": [],
      "name": "vault",
      "outputs": [
        {
          "internalType": "contract IVault",
          "name": "",
          "type": "address"
        }
      ],
      "stateMutability": "view",
      "type": "function"
    },
    {
      "inputs": [],
      "name": "verifier",
      "outputs": [
        {
          "internalType": "contract Verifier",
          "name": "",
          "type": "address"
        }
      ],
      "stateMutability": "view",
      "type": "function"
    },
    {
      "inputs": [
        {
          "internalType": "address payable",
          "name": "_owner",
          "type": "address"
        },
        {
          "internalType": "address[]",
          "name": "_tokens",
          "type": "address[]"
        },
        {
          "internalType": "uint128[]",
          "name": "_amounts",
          "type": "uint128[]"
        }
      ],
      "name": "withdrawMultiplePendingBalance",
      "outputs": [],
      "stateMutability": "nonpayable",
      "type": "function"
    },
    {
      "inputs": [
        {
          "internalType": "address payable",
          "name": "_owner",
          "type": "address"
        },
        {
          "internalType": "address",
          "name": "_token",
          "type": "address"
        },
        {
          "internalType": "uint128",
          "name": "_amount",
          "type": "uint128"
        }
      ],
      "name": "withdrawPendingBalance",
      "outputs": [],
      "stateMutability": "nonpayable",
      "type": "function"
    },
    {
      "inputs": [],
      "name": "zkSyncBlock",
      "outputs": [
        {
          "internalType": "address",
          "name": "",
          "type": "address"
        }
      ],
      "stateMutability": "view",
      "type": "function"
    },
    {
      "inputs": [],
      "name": "zkSyncExit",
      "outputs": [
        {
          "internalType": "address",
          "name": "",
          "type": "address"
        }
      ],
      "stateMutability": "view",
      "type": "function"
    }
  ],
  "bytecode": "0x608060405234801561001057600080fd5b506130fb806100206000396000f3fe6080604052600436106101815760003560e01c80637efcfe85116100d1578063c75abba91161008a578063f223548711610064578063f223548714610431578063f613328214610446578063faf4d8cb14610466578063fbfa77cf1461047b57610181565b8063c75abba9146103c4578063d514da50146103f1578063ee5652fb1461041157610181565b80637efcfe85146103185780637f8ce19f146103385780638ad82b37146103585780638ae20dc91461036d578063a7e7aacd1461039a578063c57b22be146103af57610181565b80633aec10dd1161013e5780635aca41f6116101185780635aca41f614610294578063647b5923146102c157806367708dae146102e35780636a8edebc146102f857610181565b80633aec10dd1461024a578063595a5ebc1461025f5780635aa6e6751461027f57610181565b80630151284114610186578063107a40d7146101bc5780631914f447146101d1578063264c0912146101fe5780632b7ac3f31461021357806334f6bb1c14610228575b600080fd5b34801561019257600080fd5b506101a66101a1366004612934565b610490565b6040516101b39190612b33565b60405180910390f35b6101cf6101ca366004612638565b61061b565b005b3480156101dd57600080fd5b506101f16101ec36600461274b565b6109fd565b6040516101b39190612ad2565b34801561020a57600080fd5b506101a6610a18565b34801561021f57600080fd5b506101f1610a21565b34801561023457600080fd5b5061023d610a30565b6040516101b39190613029565b34801561025657600080fd5b506101f1610a46565b34801561026b57600080fd5b506101cf61027a366004612763565b610a55565b34801561028b57600080fd5b506101f1610bba565b3480156102a057600080fd5b506102b46102af366004612600565b610bc9565b6040516101b39190612f9e565b3480156102cd57600080fd5b506102d6610c98565b6040516101b39190613018565b3480156102ef57600080fd5b5061023d610ca4565b34801561030457600080fd5b506101cf610313366004612530565b610cb3565b34801561032457600080fd5b506101cf61033336600461297e565b610d98565b34801561034457600080fd5b506101a6610353366004612953565b611324565b34801561036457600080fd5b506101f1611344565b34801561037957600080fd5b5061038d610388366004612700565b611353565b6040516101b39190612b3e565b3480156103a657600080fd5b506101a6611370565b3480156103bb57600080fd5b5061023d611427565b3480156103d057600080fd5b506103e46103df3660046126b3565b61143d565b6040516101b39190612ae6565b3480156103fd57600080fd5b506101cf61040c3660046124ea565b6114e2565b34801561041d57600080fd5b506101cf61042c3660046127d5565b611742565b34801561043d57600080fd5b506102d6611956565b34801561045257600080fd5b506102b46104613660046128ea565b611962565b34801561047257600080fd5b506102d66119a4565b34801561048757600080fd5b506101f16119b8565b6003546040516310603dad60e01b815260009182916001600160a01b03909116906310603dad906104c5908890600401612fdb565b60206040518083038186803b1580156104dd57600080fd5b505afa1580156104f1573d6000803e3d6000fd5b505050506040513d601f19601f8201168201806040525081019061051591906124ce565b6003546040516375698bb160e11b81529192506001600160a01b03169063ead3176290610546908490600401612ad2565b60206040518083038186803b15801561055e57600080fd5b505afa158015610572573d6000803e3d6000fd5b505050506040513d601f19601f8201168201806040525081019061059691906128ce565b506001600160a01b0384166105c65760405162461bcd60e51b81526004016105bd90612de3565b60405180910390fd5b505061ffff8316600090815260126020908152604080832033845282528083206001600160a01b0386168452909152902080546001600160801b0383166001600160801b031990911617905560019392505050565b60006127106001600160801b0361ffff85168602160490508084036001600160801b038116158015906106605750846001600160801b0316816001600160801b031611155b61067c5760405162461bcd60e51b81526004016105bd90612f1c565b60008787878787604051602001610697959493929190612a65565b60408051601f198184030181529181528151602092830120600081815260109093529120549091506001600160a01b0316156106e55760405162461bcd60e51b81526004016105bd90612cc3565b600081815260106020526040902080546001600160a01b0319166001600160a01b038b1617905561ffff87166107cc57816001600160801b031634101561073e5760405162461bcd60e51b81526004016105bd90612d75565b6040516001600160a01b038916906001600160801b03841680156108fc02916000818181858888f1935050505015801561077c573d6000803e3d6000fd5b50816001600160801b03163411156107c75760405133906001600160801b038416340380156108fc02916000818181858888f193505050501580156107c5573d6000803e3d6000fd5b505b61099e565b6003546040516310603dad60e01b81526000916001600160a01b0316906310603dad906107fd908b90600401612fdb565b60206040518083038186803b15801561081557600080fd5b505afa158015610829573d6000803e3d6000fd5b505050506040513d601f19601f8201168201806040525081019061084d91906124ce565b6003546040516375698bb160e11b81529192506001600160a01b03169063ead317629061087e908490600401612ad2565b60206040518083038186803b15801561089657600080fd5b505afa1580156108aa573d6000803e3d6000fd5b505050506040513d601f19601f820116820180604052508101906108ce91906128ce565b50336001600160a01b038b161461096b57826001600160801b03166108f4898c33611962565b6001600160801b0316101561091b5760405162461bcd60e51b81526004016105bd90612ee5565b61ffff881660009081526012602090815260408083206001600160a01b038e1684528252808320338452909152902080546001600160801b03808216869003166001600160801b03199091161790555b610980818b8b866001600160801b03166119c7565b61099c5760405162461bcd60e51b81526004016105bd90612c71565b505b8661ffff16886001600160a01b03168a6001600160a01b03167fe62a70842ac9b9279edbb0e1b55482c1569073014f8a567a79718c346c62954a8987896040516109ea93929190612fb2565b60405180910390a4505050505050505050565b6010602052600090815260409020546001600160a01b031681565b60085460ff1681565b6002546001600160a01b031681565b600a54600160801b90046001600160401b031681565b6011546001600160a01b031681565b60148214610a755760405162461bcd60e51b81526004016105bd90612d5a565b33600090815260096020908152604080832063ffffffff85168452909152902054610ada578282604051610aaa929190612ac2565b60408051918290039091203360009081526009602090815283822063ffffffff8616835290529190912055610bb5565b336000908152600e6020908152604080832063ffffffff8516845290915290205480610b2857336000908152600e6020908152604080832063ffffffff861684529091529020429055610bb3565b62015180610b364283611af6565b1015610b545760405162461bcd60e51b81526004016105bd90612c1f565b336000908152600e6020908152604080832063ffffffff861684529091528082209190915551610b879085908590612ac2565b60408051918290039091203360009081526009602090815283822063ffffffff87168352905291909120555b505b505050565b6003546001600160a01b031681565b6000806001600160a01b03831615610c5e576003546040516375698bb160e11b81526001600160a01b039091169063ead3176290610c0b908690600401612ad2565b60206040518083038186803b158015610c2357600080fd5b505afa158015610c37573d6000803e3d6000fd5b505050506040513d601f19601f82011682018060405250810190610c5b91906128ce565b90505b60056000610c6c8684611b23565b6001600160501b03191681526020810191909152604001600020546001600160801b0316949350505050565b600c5463ffffffff1681565b600a546001600160401b031681565b6000805160206130a68339815191525480610cfa576040805162461bcd60e51b815260206004820152600260248201526118b160f11b604482015290519081900360640190fd5b60006000805160206130a68339815191525560008351118015610d1e575081518351145b610d3a5760405162461bcd60e51b81526004016105bd90612e93565b60005b8351811015610d7f57610d7785858381518110610d5657fe5b6020026020010151858481518110610d6a57fe5b60200260200101516114e2565b600101610d3d565b5060016000805160206130a68339815191525550505050565b6000805160206130a68339815191525480610ddf576040805162461bcd60e51b815260206004820152600260248201526118b160f11b604482015290519081900360640190fd5b60006000805160206130a68339815191525560085460ff16610e135760405162461bcd60e51b81526004016105bd90612eca565b600a54600090610e3390600160401b90046001600160401b031685611b40565b90508251816001600160401b031614610e5e5760405162461bcd60e51b81526004016105bd90612bce565b6000816001600160401b031611610e875760405162461bcd60e51b81526004016105bd90612e78565b600a546000906001600160401b03165b600a546001600160401b039081168401811690821610156112bd5760016001600160401b0382166000908152600d6020526040902054600160e01b900460ff16600f811115610ee257fe5b1480610f1b5750600c6001600160401b0382166000908152600d6020526040902054600160e01b900460ff16600f811115610f1957fe5b145b80610f535750600d6001600160401b0382166000908152600d6020526040902054600160e01b900460ff16600f811115610f5157fe5b145b80610f8b5750600e6001600160401b0382166000908152600d6020526040902054600160e01b900460ff16600f811115610f8957fe5b145b1561128f57600085836001600160401b031681518110610fa757fe5b6020908102919091018101516001600160401b0384166000908152600d90925260409091205490915060601b6001600160601b031916610fe682611b68565b6001600160601b0319161461100d5760405162461bcd60e51b81526004016105bd90612c04565b6001600160401b0382166000908152600d60205260408120546001948501948291600160e01b900460ff16600f81111561104357fe5b141561107757600061105484611b78565b905061106881606001518260200151611b23565b92508060400151915050611250565b600c6001600160401b0385166000908152600d6020526040902054600160e01b900460ff16600f8111156110a757fe5b14156110db5760006110b884611c05565b90506110cc81604001518260600151611b23565b92508060800151915050611250565b600d6001600160401b0385166000908152600d6020526040902054600160e01b900460ff16600f81111561110b57fe5b141561113f57600061111c84611d14565b905061113081604001518260800151611b23565b92508060a00151915050611250565b600061114a84611e0d565b905061115e81600001518260400151611b23565b925080606001519150600360009054906101000a90046001600160a01b03166001600160a01b03166347ccca026040518163ffffffff1660e01b815260040160206040518083038186803b1580156111b557600080fd5b505afa1580156111c9573d6000803e3d6000fd5b505050506040513d601f19601f820116820180604052508101906111ed91906124ce565b6001600160a01b031663209b92158260c001516040518263ffffffff1660e01b815260040161121c9190613018565b600060405180830381600087803b15801561123657600080fd5b505af115801561124a573d6000803e3d6000fd5b50505050505b6001600160501b031991909116600090815260056020526040902080546001600160801b031981166001600160801b0391821690930116919091179055505b6001600160401b0381166000908152600d6020526040902080546001600160e81b0319169055600101610e97565b5050600a80546fffffffffffffffff00000000000000001967ffffffffffffffff1982166001600160401b039283168501831617908116600160401b9182900483169490940390911602919091179055505060016000805160206130a68339815191525550565b600760209081526000928352604080842090915290825290205460ff1681565b600f546001600160a01b031681565b600960209081526000928352604080842090915290825290205481565b600a546001600160401b039081166000908152600d602052604081205490918291600160a01b90041643108015906113cb5750600a546001600160401b039081166000908152600d6020526040902054600160a01b90041615155b9050801561141e5760085460ff16611414576008805460ff191660011790556040517fc71028c67eb0ef128ea270a59a674629e767d51c1af44ed6753fd2fad2c7b67790600090a15b6001915050611424565b60009150505b90565b600a54600160401b90046001600160401b031681565b6060600082516001600160401b038111801561145857600080fd5b50604051908082528060200260200182016040528015611482578160200160208202803683370190505b50905060005b83518110156114da576114ae858583815181106114a157fe5b6020026020010151610bc9565b8282815181106114ba57fe5b6001600160801b0390921660209283029190910190910152600101611488565b509392505050565b6000805160206130a68339815191525480611529576040805162461bcd60e51b815260206004820152600260248201526118b160f11b604482015290519081900360640190fd5b60006000805160206130a68339815191528190556001600160a01b038416156115cf576003546040516375698bb160e11b81526001600160a01b039091169063ead317629061157c908790600401612ad2565b60206040518083038186803b15801561159457600080fd5b505afa1580156115a8573d6000803e3d6000fd5b505050506040513d601f19601f820116820180604052508101906115cc91906128ce565b90505b60006115db8683611b23565b6001600160501b031981166000908152600560205260409020549091506001600160801b03908116908516811015611611578094505b6000856001600160801b03161161163a5760405162461bcd60e51b81526004016105bd90612d23565b61164d6001600160801b03821686611edc565b6001600160501b031983166000908152600560205260409081902080546001600160801b0319166001600160801b03939093169290921790915560048054915163523c88e960e01b81526001600160a01b039092169163523c88e9916116b99187918c918b9101612fea565b600060405180830381600087803b1580156116d357600080fd5b505af11580156116e7573d6000803e3d6000fd5b505050508261ffff167ff4bf32c167ee6e782944cd1db8174729b46adcd3bc732e282cc4a807939331548660405161171f9190612f9e565b60405180910390a250505060016000805160206130a68339815191525550505050565b6000805160206130a68339815191525480611789576040805162461bcd60e51b815260206004820152600260248201526118b160f11b604482015290519081900360640190fd5b60006000805160206130a68339815191525560006117a78786611b23565b60085490915060ff166117cc5760405162461bcd60e51b81526004016105bd90612ca8565b63ffffffff8616600090815260076020908152604080832061ffff8916845290915290205460ff16156118115760405162461bcd60e51b81526004016105bd90612e5d565b61181a88611f03565b60065463ffffffff166000908152600b60205260409020541461184f5760405162461bcd60e51b81526004016105bd90612be9565b600254608089015160405163c81a27ad60e01b81526000926001600160a01b03169163c81a27ad9161188e91908b908d908c908c908c90600401612b47565b60206040518083038186803b1580156118a657600080fd5b505afa1580156118ba573d6000803e3d6000fd5b505050506040513d601f19601f820116820180604052508101906118de919061272b565b9050806118fd5760405162461bcd60e51b81526004016105bd90612ced565b6119078286611f33565b50505063ffffffff909316600090815260076020908152604080832061ffff909516835293905291909120805460ff191660019081179091556000805160206130a68339815191525550505050565b60065463ffffffff1681565b61ffff9290921660009081526012602090815260408083206001600160a01b03948516845282528083209390941682529190915220546001600160801b031690565b600654640100000000900463ffffffff1681565b6004546001600160a01b031681565b604080516001600160a01b0385811660248301528481166044830152606480830185905283518084039091018152608490920183526020820180516001600160e01b03166323b872dd60e01b17815292518251600094859485948b16939092909182918083835b60208310611a4d5780518252601f199092019160209182019101611a2e565b6001836020036101000a0380198251168184511680821785525050505050509050019150506000604051808303816000865af19150503d8060008114611aaf576040519150601f19603f3d011682016040523d82523d6000602084013e611ab4565b606091505b50915091506000815160001480611ade5750818060200190516020811015611adb57600080fd5b50515b9050828015611aea5750805b98975050505050505050565b6000611b1c8383604051806040016040528060018152602001603b60f91b815250611fd1565b9392505050565b60a01b61ffff60a01b166001600160a01b03919091161760501b90565b6000816001600160401b0316836001600160401b031610611b615781611b1c565b5090919050565b8051602082012060601b5b919050565b611b806122a4565b6001611b8c8382612068565b63ffffffff1683529050611ba08382612081565b61ffff1660208401529050611bb58382612091565b6001600160801b031660408401529050611bcf83826120a1565b6001600160a01b031660608401529050602b8114611bff5760405162461bcd60e51b81526004016105bd90612d08565b50919050565b611c0d6122cb565b6001611c1983826120b1565b60ff1683529050611c2a83826120b1565b60ff1660208401529050611c3e83826120a1565b6001600160a01b031660408401529050611c588382612081565b61ffff1660608401529050611c6d8382612091565b6001600160801b031660808401529050611c8783826120a1565b6001600160a01b031660a08401529050611ca18382612081565b61ffff1660c08401529050611cb68382612091565b6001600160801b031660e08401529050611cd08382612081565b61ffff166101008401529050611ce68382612068565b63ffffffff16610120840152905060558114611bff5760405162461bcd60e51b81526004016105bd90612dac565b611d1c61231f565b6001611d2883826120b1565b60ff1683529050611d3983826120b1565b60ff1660208401529050611d4d83826120a1565b6001600160a01b031660408401529050611d6783826120a1565b6001600160a01b031660608401529050611d818382612081565b61ffff1660808401529050611d968382612091565b6001600160801b031660a08401529050611db08382612091565b6001600160801b031660c08401529050611dca8382612068565b63ffffffff1660e08401529050611de18382612081565b61ffff16610100840152905060538114611bff5760405162461bcd60e51b81526004016105bd90612e26565b611e1561236b565b6001611e2183826120a1565b6001600160a01b031683529050611e3883826120b1565b60ff1660208401529050611e4c8382612081565b61ffff1660408401529050611e618382612091565b6001600160801b031660608401529050611e7b83826120a1565b6001600160a01b031660808401529050611e958382612091565b6001600160801b031660a08401529050611eaf8382612068565b63ffffffff1660c0840152905060508114611bff5760405162461bcd60e51b81526004016105bd90612c3a565b6000611b1c838360405180604001604052806002815260200161616160f01b8152506120dd565b600081604051602001611f169190612f4b565b604051602081830303815290604052805190602001209050919050565b6001600160501b03198216600090815260056020526040908190205481518083019092526001600160801b03169080611f6c8385612142565b6001600160801b03908116825260ff60209283018190526001600160501b031990961660009081526005835260409020835181549490930151909616600160801b0260ff60801b19929091166001600160801b03199093169290921716179092555050565b600081848411156120605760405162461bcd60e51b81526004018080602001828103825283818151815260200191508051906020019080838360005b8381101561202557818101518382015260200161200d565b50505050905090810190601f1680156120525780820380516001836020036101000a031916815260200191505b509250505060405180910390fd5b505050900390565b600481016000612078848461218d565b90509250929050565b60028101600061207884846121db565b601081016000612078848461221e565b6014810160006120788484612261565b6000808260010191508383815181106120c657fe5b602001015160f81c60f81b60f81c90509250929050565b6000836001600160801b0316836001600160801b0316111582906120605760405162461bcd60e51b815260206004820181815283516024840152835190928392604490910191908501908083836000831561202557818101518382015260200161200d565b60008282016001600160801b038085169082161015611b1c576040805162461bcd60e51b8152602060048201526002602482015261189960f11b604482015290519081900360640190fd5b60008082600401905080845110156121d0576040805162461bcd60e51b81526020600482015260016024820152602b60f91b604482015290519081900360640190fd5b929092015192915050565b60008082600201905080845110156121d0576040805162461bcd60e51b81526020600482015260016024820152601560fa1b604482015290519081900360640190fd5b60008082601001905080845110156121d0576040805162461bcd60e51b81526020600482015260016024820152605760f81b604482015290519081900360640190fd5b60008082601401905080845110156121d0576040805162461bcd60e51b81526020600482015260016024820152602960f91b604482015290519081900360640190fd5b60408051608081018252600080825260208201819052918101829052606081019190915290565b6040805161014081018252600080825260208201819052918101829052606081018290526080810182905260a0810182905260c0810182905260e08101829052610100810182905261012081019190915290565b6040805161012081018252600080825260208201819052918101829052606081018290526080810182905260a0810182905260c0810182905260e0810182905261010081019190915290565b6040805160e081018252600080825260208201819052918101829052606081018290526080810182905260a0810182905260c081019190915290565b8035611b738161307d565b600082601f8301126123c2578081fd5b813560206123d76123d283613060565b61303d565b82815281810190858301838502870184018810156123f3578586fd5b855b8581101561241a5781356124088161307d565b845292840192908401906001016123f5565b5090979650505050505050565b600082601f830112612437578081fd5b813560206124476123d283613060565b8281528181019085830183850287018401881015612463578586fd5b855b8581101561241a57813584529284019290840190600101612465565b80356001600160801b0381168114611b7357600080fd5b8035611b7381613095565b803563ffffffff81168114611b7357600080fd5b80356001600160401b0381168114611b7357600080fd5b6000602082840312156124df578081fd5b8151611b1c8161307d565b6000806000606084860312156124fe578182fd5b83356125098161307d565b925060208401356125198161307d565b915061252760408501612481565b90509250925092565b600080600060608486031215612544578081fd5b833561254f8161307d565b92506020848101356001600160401b038082111561256b578384fd5b612577888389016123b2565b9450604087013591508082111561258c578384fd5b508501601f8101871361259d578283fd5b80356125ab6123d282613060565b81815283810190838501858402850186018b10156125c7578687fd5b8694505b838510156125f0576125dc81612481565b8352600194909401939185019185016125cb565b5080955050505050509250925092565b60008060408385031215612612578182fd5b823561261d8161307d565b9150602083013561262d8161307d565b809150509250929050565b60008060008060008060c08789031215612650578384fd5b863561265b8161307d565b9550602087013561266b8161307d565b9450604087013561267b81613095565b935061268960608801612481565b9250608087013561269981613095565b91506126a760a088016124a3565b90509295509295509295565b600080604083850312156126c5578182fd5b82356126d08161307d565b915060208301356001600160401b038111156126ea578182fd5b6126f6858286016123b2565b9150509250929050565b60008060408385031215612712578182fd5b823561271d8161307d565b9150612078602084016124a3565b60006020828403121561273c578081fd5b81518015158114611b1c578182fd5b60006020828403121561275c578081fd5b5035919050565b600080600060408486031215612777578081fd5b83356001600160401b038082111561278d578283fd5b818601915086601f8301126127a0578283fd5b8135818111156127ae578384fd5b8760208285010111156127bf578384fd5b60209283019550935061252791860190506124a3565b6000806000806000808688036101608112156127ef578485fd5b60c08112156127fc578485fd5b5060405160c081016001600160401b03828210818311171561281a57fe5b816040526128278a6124a3565b835261283560208b016124b7565b602084015260408a0135604084015260608a0135606084015260808a0135608084015260a08a013560a084015282985061287160c08b016123a7565b975061287f60e08b016124a3565b965061288e6101008b01612498565b955061289d6101208b01612481565b94506101408a01359250808311156128b3578384fd5b50506128c189828a01612427565b9150509295509295509295565b6000602082840312156128df578081fd5b8151611b1c81613095565b6000806000606084860312156128fe578081fd5b833561290981613095565b925060208401356129198161307d565b915060408401356129298161307d565b809150509250925092565b600080600060608486031215612948578081fd5b833561250981613095565b60008060408385031215612965578182fd5b61296e836124a3565b9150602083013561262d81613095565b6000806040808486031215612991578283fd5b61299a846124b7565b92506020808501356001600160401b03808211156129b6578485fd5b818701915087601f8301126129c9578485fd5b81356129d76123d282613060565b81815284810190848601885b84811015612a5357813587018d603f8201126129fd578a8bfd5b8881013587811115612a0b57fe5b612a1d601f8201601f19168b0161303d565b8181528f8c838501011115612a30578c8dfd5b818c84018c8301379081018a018c905285525092870192908701906001016129e3565b50989b909a5098505050505050505050565b60609590951b6001600160601b031916855260f093841b6001600160f01b0319908116601487015260809390931b6001600160801b0319166016860152921b16602683015260e01b6001600160e01b0319166028820152602c0190565b6000828483379101908152919050565b6001600160a01b0391909116815260200190565b6020808252825182820181905260009190848201906040850190845b81811015612b275783516001600160801b031683529284019291840191600101612b02565b50909695505050505050565b901515815260200190565b90815260200190565b86815263ffffffff86166020808301919091526001600160a01b038616604083015261ffff851660608301526001600160801b038416608083015260c060a0830181905283519083018190526000918481019160e0850190845b81811015612bbd57845183529383019391830191600101612ba1565b50909b9a5050505050505050505050565b6020808252600190820152604160f81b604082015260600190565b6020808252600190820152607560f81b604082015260600190565b6020808252600190820152606160f81b604082015260600190565b6020808252600190820152603d60f91b604082015260600190565b60208082526018908201527f4f7065726174696f6e733a2052656164204c314164644c510000000000000000604082015260600190565b6020808252601b908201527f5a6b53796e633a207472616e7366657246726f6d206661696c65640000000000604082015260600190565b6020808252600190820152607360f81b604082015260600190565b60208082526010908201526f169ad4de5b98ce881858d8d95c1d195960821b604082015260600190565b6020808252600190820152600f60fb1b604082015260600190565b6020808252600190820152602760f91b604082015260600190565b60208082526017908201527f5a6b53796e633a20776974686472617720616d6f756e74000000000000000000604082015260600190565b6020808252600190820152607960f81b604082015260600190565b60208082526018908201527f5a6b53796e633a20616363657074206d73672076616c75650000000000000000604082015260600190565b6020808252601a908201527f4f7065726174696f6e733a205265616420517569636b53776170000000000000604082015260600190565b60208082526023908201527f5a6b53796e633a20617070726f766520746f20746865207a65726f206164647260408201526265737360e81b606082015260800190565b60208082526018908201527f4f7065726174696f6e733a2052656164204d617070696e670000000000000000604082015260600190565b6020808252600190820152601d60fa1b604082015260600190565b6020808252600190820152603960f81b604082015260600190565b60208082526017908201527f5a6b53796e633a207769746864726177206c656e677468000000000000000000604082015260600190565b6020808252600190820152600760fb1b604082015260600190565b60208082526018908201527f5a6b53796e633a2062726f6b657220616c6c6f77616e63650000000000000000604082015260600190565b6020808252601590820152745a6b53796e633a20616d6f756e745265636569766560581b604082015260600190565b600060c08201905063ffffffff83511682526001600160401b03602084015116602083015260408301516040830152606083015160608301526080830151608083015260a083015160a083015292915050565b6001600160801b0391909116815260200190565b6001600160801b03938416815291909216602082015263ffffffff909116604082015260600190565b61ffff91909116815260200190565b61ffff9390931683526001600160a01b039190911660208301526001600160801b0316604082015260600190565b63ffffffff91909116815260200190565b6001600160401b0391909116815260200190565b6040518181016001600160401b038111828210171561305857fe5b604052919050565b60006001600160401b0382111561307357fe5b5060209081020190565b6001600160a01b038116811461309257600080fd5b50565b61ffff8116811461309257600080fdfe8e94fed44239eb2314ab7a406345e6c5a8f0ccedf3b600de3d004e672c33abf4a2646970667358221220a9a337845da49da2928919a4f9bf5599ea312266c657f9094820cf4f4e78086a64736f6c63430007060033",
  "linkReferences": {},
  "deployedLinkReferences": {}
}